{"abi":[{"type":"constructor","inputs":[{"name":"admin","type":"address","internalType":"address"}],"stateMutability":"nonpayable"},{"type":"function","name":"DEFAULT_ADMIN_ROLE","inputs":[],"outputs":[{"name":"","type":"bytes32","internalType":"bytes32"}],"stateMutability":"view"},{"type":"function","name":"DEPLOYER_ROLE","inputs":[],"outputs":[{"name":"","type":"bytes32","internalType":"bytes32"}],"stateMutability":"view"},{"type":"function","name":"deployPlatformClones","inputs":[{"name":"auditTrailImpl","type":"address","internalType":"address"},{"name":"complianceImpl","type":"address","internalType":"address"},{"name":"feeManagerImpl","type":"address","internalType":"address"},{"name":"tokenFactoryImpl","type":"address","internalType":"address"},{"name":"assetTokenizerImpl","type":"address","internalType":"address"},{"name":"marketplaceImpl","type":"address","internalType":"address"},{"name":"rewardSystemImpl","type":"address","internalType":"address"},{"name":"adminGovernanceImpl","type":"address","internalType":"address"},{"name":"cfg","type":"tuple","internalType":"struct PlatformDeployer.DeploymentConfig","components":[{"name":"treasury","type":"address","internalType":"address"},{"name":"rewardToken","type":"address","internalType":"address"},{"name":"tradingFeePercentage","type":"uint256","internalType":"uint256"},{"name":"tokenizationFeePercentage","type":"uint256","internalType":"uint256"},{"name":"minAssetValue","type":"uint256","internalType":"uint256"},{"name":"kycExpiryPeriod","type":"uint256","internalType":"uint256"},{"name":"useUpgradeable","type":"bool","internalType":"bool"},{"name":"tokenImplementation","type":"address","internalType":"address"},{"name":"tokenRegistry","type":"address","internalType":"address"}]}],"outputs":[{"name":"pc","type":"tuple","internalType":"struct PlatformDeployer.PlatformContracts","components":[{"name":"auditTrail","type":"address","internalType":"address"},{"name":"complianceManager","type":"address","internalType":"address"},{"name":"feeManager","type":"address","internalType":"address"},{"name":"tokenFactory","type":"address","internalType":"address"},{"name":"assetTokenizer","type":"address","internalType":"address"},{"name":"marketplaceCore","type":"address","internalType":"address"},{"name":"rewardSystem","type":"address","internalType":"address"},{"name":"adminGovernance","type":"address","internalType":"address"}]}],"stateMutability":"nonpayable"},{"type":"function","name":"getRoleAdmin","inputs":[{"name":"role","type":"bytes32","internalType":"bytes32"}],"outputs":[{"name":"","type":"bytes32","internalType":"bytes32"}],"stateMutability":"view"},{"type":"function","name":"grantRole","inputs":[{"name":"role","type":"bytes32","internalType":"bytes32"},{"name":"account","type":"address","internalType":"address"}],"outputs":[],"stateMutability":"nonpayable"},{"type":"function","name":"hasRole","inputs":[{"name":"role","type":"bytes32","internalType":"bytes32"},{"name":"account","type":"address","internalType":"address"}],"outputs":[{"name":"","type":"bool","internalType":"bool"}],"stateMutability":"view"},{"type":"function","name":"renounceRole","inputs":[{"name":"role","type":"bytes32","internalType":"bytes32"},{"name":"callerConfirmation","type":"address","internalType":"address"}],"outputs":[],"stateMutability":"nonpayable"},{"type":"function","name":"revokeRole","inputs":[{"name":"role","type":"bytes32","internalType":"bytes32"},{"name":"account","type":"address","internalType":"address"}],"outputs":[],"stateMutability":"nonpayable"},{"type":"function","name":"supportsInterface","inputs":[{"name":"interfaceId","type":"bytes4","internalType":"bytes4"}],"outputs":[{"name":"","type":"bool","internalType":"bool"}],"stateMutability":"view"},{"type":"event","name":"ComponentCloned","inputs":[{"name":"implementation","type":"address","indexed":true,"internalType":"address"},{"name":"clone","type":"address","indexed":true,"internalType":"address"}],"anonymous":false},{"type":"event","name":"PlatformDeployed","inputs":[{"name":"platformId","type":"address","indexed":true,"internalType":"address"},{"name":"deployer","type":"address","indexed":true,"internalType":"address"}],"anonymous":false},{"type":"event","name":"RoleAdminChanged","inputs":[{"name":"role","type":"bytes32","indexed":true,"internalType":"bytes32"},{"name":"previousAdminRole","type":"bytes32","indexed":true,"internalType":"bytes32"},{"name":"newAdminRole","type":"bytes32","indexed":true,"internalType":"bytes32"}],"anonymous":false},{"type":"event","name":"RoleGranted","inputs":[{"name":"role","type":"bytes32","indexed":true,"internalType":"bytes32"},{"name":"account","type":"address","indexed":true,"internalType":"address"},{"name":"sender","type":"address","indexed":true,"internalType":"address"}],"anonymous":false},{"type":"event","name":"RoleRevoked","inputs":[{"name":"role","type":"bytes32","indexed":true,"internalType":"bytes32"},{"name":"account","type":"address","indexed":true,"internalType":"address"},{"name":"sender","type":"address","indexed":true,"internalType":"address"}],"anonymous":false},{"type":"error","name":"AccessControlBadConfirmation","inputs":[]},{"type":"error","name":"AccessControlUnauthorizedAccount","inputs":[{"name":"account","type":"address","internalType":"address"},{"name":"neededRole","type":"bytes32","internalType":"bytes32"}]},{"type":"error","name":"FailedDeployment","inputs":[]},{"type":"error","name":"InsufficientBalance","inputs":[{"name":"balance","type":"uint256","internalType":"uint256"},{"name":"needed","type":"uint256","internalType":"uint256"}]}],"bytecode":{"object":"0x60803461007257601f61105038819003918201601f19168301916001600160401b038311848410176100765780849260209460405283398101031261007257516001600160a01b0381168103610072578061005c6100629261008a565b506100f6565b50604051610e7b90816101958239f35b5f80fd5b634e487b7160e01b5f52604160045260245ffd5b6001600160a01b03165f8181525f80516020611030833981519152602052604090205460ff166100f1575f8181525f8051602061103083398151915260205260408120805460ff191660011790553391905f805160206110108339815191528180a4600190565b505f90565b6001600160a01b03165f8181527f740c5e3e456bed56f053f960110118ba9b95a1f5359a82283516fb2e81b6e37e60205260409020547ffc425f2263d0df187444b70e47283d622c70181c5baebb1306a01edba1ce184c919060ff1661018e57815f525f60205260405f20815f5260205260405f20600160ff1982541617905533915f805160206110108339815191525f80a4600190565b50505f9056fe6080806040526004361015610012575f80fd5b5f905f3560e01c90816301ffc9a714610c3357508063248a9ca314610c075780632f2ff15d14610bcb57806336568abe14610b8257806348754e991461016457806391d148541461011b578063a217fddf146100ff578063d547741f146100be5763ecd0026114610081575f80fd5b346100bb57806003193601126100bb5760206040517ffc425f2263d0df187444b70e47283d622c70181c5baebb1306a01edba1ce184c8152f35b80fd5b50346100bb5760403660031901126100bb576100fb6004356100de610c86565b90808452836020526100f66001604086200154610cb0565b610d4d565b5080f35b50346100bb57806003193601126100bb57602090604051908152f35b50346100bb5760403660031901126100bb576040610137610c86565b91600435815280602052209060018060a01b03165f52602052602060ff60405f2054166040519015158152f35b5034610abe57610220366003190112610abe576004356001600160a01b0381169003610abe57610192610c86565b6044356001600160a01b0381169003610abe576064356001600160a01b0381169003610abe576084356001600160a01b0381169003610abe5760a4356001600160a01b0381169003610abe5760c4356001600160a01b0381169003610abe5760e4356001600160a01b0381169003610abe5761012036610103190112610abe57604051908161010081011067ffffffffffffffff61010084011117610b6e5761010082016040525f82525f60208301525f60408301525f60608301525f60808301525f60a08301525f60c08301525f60e08301527ffc425f2263d0df187444b70e47283d622c70181c5baebb1306a01edba1ce184c805f525f60205260405f20335f5260205260ff60405f20541615610b5057506001600160a01b036102b9600435610dbf565b168083526004356001600160a01b03165f80516020610e268339815191525f80a36001600160a01b036102eb82610dbf565b1660208301819052906001600160a01b03165f80516020610e268339815191525f80a36001600160a01b03610321604435610dbf565b16604082018190526044356001600160a01b03165f80516020610e268339815191525f80a36001600160a01b03610359606435610dbf565b16606082018190526064356001600160a01b03165f80516020610e268339815191525f80a36001600160a01b03610391608435610dbf565b16608082018190526084356001600160a01b03165f80516020610e268339815191525f80a36001600160a01b036103c960a435610dbf565b1660a0820181905260a4356001600160a01b03165f80516020610e268339815191525f80a36001600160a01b0361040160c435610dbf565b1660c0820181905260c4356001600160a01b03165f80516020610e268339815191525f80a36001600160a01b0361043960e435610dbf565b1660e082018190526040519060e4356001600160a01b03165f80516020610e268339815191525f80a381516001600160a01b0316803b15610abe57816024815f809463189acdbd60e31b83523360048401525af18015610b4557610b32575b506020810151815183916001600160a01b039182169116803b15610aa25760405163485cc95560e01b81523360048201526001600160a01b0392909216602483015282908290604490829084905af180156109c757610b1e575b505060408101516001600160a01b0390811690610104359081168103610abe578184923b15610aa25760405163485cc95560e01b81523360048201526001600160a01b0392909216602483015282908290604490829084905af180156109c757610b0a575b505060608101516101e435906001600160a01b039081169082168203610abe576020830151835160408501516001600160a01b03908116949181169392811691610204359182168203610abe578795843b15610b0657869460c4938692604051988997889663cc2a9a5b60e01b885260018060a01b0316600488015260248701526044860152606485015260018060a01b031660848401523360a48401525af180156109c757610af2575b50608082015160608301516020840151845160408601516001600160a01b039182169490821693928216929082169116813b15610aee578560a49281956040519788968795630a2ca2bd60e11b875233600488015260248701526044860152606485015260848401525af180156109c757610ada575b5060a08201516020830151835160408501516001600160a01b0390811693928116929181169116803b15610ad6578492836084926040519687958694637c643b2f60e11b86523360048701526024860152604485015260648401525af180156109c757610ac2575b505060c081015161012435906001600160a01b039081169082168203610abe5782518492906001600160a01b0316823b15610aba5760405163c0c53b8b60e01b81523360048201526001600160a01b03909216602483015260448201529082908290606490829084905af180156109c757610aa6575b5060e082015182516001600160a01b039081169116803b15610aa25760405163485cc95560e01b81523360048201526001600160a01b0392909216602483015282908290604490829084905af180156109c757610a8e575b50506101a435610a30575b610184356109d2575b6101443561092a575b61016435610870575b906101009160018060a01b0381511660405192817f3c5d8623461d31f9bacea7a903f41c62ac9fceba9b7cfbb3dcd816ea5177b333339280a382526020818101516001600160a01b039081169184019190915260408083015182169084015260608083015182169084015260808083015182169084015260a08281015182169084015260c08083015182169084015260e0918201511690820152f35b604081015182906001600160a01b0316803b1561091b57819060c4604051809481936301c2413160e71b83527ffd77c08fbfa2352133e82db8dcdbc1defaab53968a3fa9d57c4c2810bcdb0973600484015261016435602484015281604484015267016345785d8a00006064840152678ac7230489e800006084840152600160a48401525af1801561091f57610907575b506107d4565b6109118391610c9c565b61091b575f610901565b5080fd5b6040513d85823e3d90fd5b604081015182906001600160a01b0316803b1561091b5781809160c4604051809481936301c2413160e71b83527f49feb0371fc9661748a3d1bc01dbf9f5cdeb4102767351e1c6dd1f5d331acd6d6004840152610144356024840152816044840152816064840152816084840152600160a48401525af180156109c7576109b3575b50506107cb565b6109bc90610c9c565b61091b57815f6109ac565b6040513d84823e3d90fd5b608081015182906001600160a01b0316803b1561091b57818091602460405180948193636eafcb8160e01b83526101843560048401525af180156109c757610a1c575b50506107c2565b610a2590610c9c565b61091b57815f610a15565b602081015182906001600160a01b0316803b1561091b578180916024604051809481936340f04a4760e01b83526101a43560048401525af180156109c757610a7a575b50506107b9565b610a8390610c9c565b61091b57815f610a73565b610a9790610c9c565b61091b57815f6107ae565b8280fd5b610aaf90610c9c565b61091b57815f610756565b8380fd5b5f80fd5b610acb90610c9c565b61091b57815f6106e0565b8480fd5b610ae390610c9c565b61091b57815f610678565b8580fd5b610afb90610c9c565b61091b57815f610602565b8680fd5b610b1390610c9c565b61091b57815f610557565b610b2790610c9c565b61091b57815f6104f2565b610b3d919250610c9c565b5f905f610498565b6040513d5f823e3d90fd5b6044906040519063e2517d3f60e01b82523360048301526024820152fd5b634e487b7160e01b5f52604160045260245ffd5b34610abe576040366003190112610abe57610b9b610c86565b336001600160a01b03821603610bb957610bb790600435610d4d565b005b60405163334bd91960e11b8152600490fd5b34610abe576040366003190112610abe57610bb7600435610bea610c86565b90805f525f602052610c02600160405f200154610cb0565b610cd1565b34610abe576020366003190112610abe576004355f525f6020526020600160405f200154604051908152f35b34610abe576020366003190112610abe576004359063ffffffff60e01b8216809203610abe57602091637965db0b60e01b8114908115610c75575b5015158152f35b6301ffc9a760e01b14905083610c6e565b602435906001600160a01b0382168203610abe57565b67ffffffffffffffff8111610b6e57604052565b805f525f60205260405f20335f5260205260ff60405f20541615610b505750565b90815f525f60205260405f209060018060a01b031690815f5260205260ff60405f205416155f14610d4757815f525f60205260405f20815f5260205260405f20600160ff1982541617905533917f2f8788117e7eff1d82e926ec794901d17c78024a50270940304540a733656f0d5f80a4600190565b50505f90565b90815f525f60205260405f209060018060a01b031690815f5260205260ff60405f2054165f14610d4757815f525f60205260405f20815f5260205260405f2060ff19815416905533917ff6391f5c32d9c69d2a47ea670b442974b53935d1edc7fd64eb21e047a839171b5f80a4600190565b6e5af43d82803e903d91602b57fd5bf390763d602d80600a3d3981f3363d3d373d3d3d363d7300000062ffffff8260881c16175f5260781b17602052603760095ff0906001600160a01b03821615610e1357565b60405163b06ebf3d60e01b8152600490fdfe9afbae5f38b0919c1d2f79d4f3e969f8b3557498c7028986507a134636b33376a26469706673582212200183dab172f4f75089947fa76bcc04e8e75e4e8aedf8e50d8636e057507f5a0d64736f6c634300081600332f8788117e7eff1d82e926ec794901d17c78024a50270940304540a733656f0dad3228b676f7d3cd4284a5443f17f1962b36e491b30a40b2405849e597ba5fb5","linkReferences":{}},"methodIdentifiers":{"DEFAULT_ADMIN_ROLE()":"a217fddf","DEPLOYER_ROLE()":"ecd00261","deployPlatformClones(address,address,address,address,address,address,address,address,(address,address,uint256,uint256,uint256,uint256,bool,address,address))":"48754e99","getRoleAdmin(bytes32)":"248a9ca3","grantRole(bytes32,address)":"2f2ff15d","hasRole(bytes32,address)":"91d14854","renounceRole(bytes32,address)":"36568abe","revokeRole(bytes32,address)":"d547741f","supportsInterface(bytes4)":"01ffc9a7"},"id":12}