{"abi":[{"type":"function","name":"DEFAULT_ADMIN_ROLE","inputs":[],"outputs":[{"name":"","type":"bytes32","internalType":"bytes32"}],"stateMutability":"view"},{"type":"function","name":"FACTORY_ROLE","inputs":[],"outputs":[{"name":"","type":"bytes32","internalType":"bytes32"}],"stateMutability":"view"},{"type":"function","name":"SYSTEM_ROLE","inputs":[],"outputs":[{"name":"","type":"bytes32","internalType":"bytes32"}],"stateMutability":"view"},{"type":"function","name":"allTokens","inputs":[{"name":"","type":"uint256","internalType":"uint256"}],"outputs":[{"name":"","type":"address","internalType":"address"}],"stateMutability":"view"},{"type":"function","name":"deactivateToken","inputs":[{"name":"tokenAddress","type":"address","internalType":"address"},{"name":"reason","type":"string","internalType":"string"}],"outputs":[],"stateMutability":"nonpayable"},{"type":"function","name":"getAllTokens","inputs":[],"outputs":[{"name":"","type":"address[]","internalType":"address[]"}],"stateMutability":"view"},{"type":"function","name":"getRoleAdmin","inputs":[{"name":"role","type":"bytes32","internalType":"bytes32"}],"outputs":[{"name":"","type":"bytes32","internalType":"bytes32"}],"stateMutability":"view"},{"type":"function","name":"getTokenInfo","inputs":[{"name":"tokenAddress","type":"address","internalType":"address"}],"outputs":[{"name":"","type":"tuple","internalType":"struct TokenRegistry.TokenInfo","components":[{"name":"tokenAddress","type":"address","internalType":"address"},{"name":"name","type":"string","internalType":"string"},{"name":"symbol","type":"string","internalType":"string"},{"name":"totalSupply","type":"uint256","internalType":"uint256"},{"name":"decimals","type":"uint8","internalType":"uint8"},{"name":"tokenType","type":"uint8","internalType":"enum ITokenRegistry.TokenType"},{"name":"creator","type":"address","internalType":"address"},{"name":"createdAt","type":"uint256","internalType":"uint256"},{"name":"isActive","type":"bool","internalType":"bool"},{"name":"metadataURI","type":"string","internalType":"string"}]}],"stateMutability":"view"},{"type":"function","name":"getTokenStats","inputs":[{"name":"tokenAddress","type":"address","internalType":"address"}],"outputs":[{"name":"","type":"tuple","internalType":"struct TokenRegistry.TokenStats","components":[{"name":"totalHolders","type":"uint256","internalType":"uint256"},{"name":"totalTransfers","type":"uint256","internalType":"uint256"},{"name":"totalVolume","type":"uint256","internalType":"uint256"},{"name":"lastActivity","type":"uint256","internalType":"uint256"}]}],"stateMutability":"view"},{"type":"function","name":"getUserTokens","inputs":[{"name":"user","type":"address","internalType":"address"}],"outputs":[{"name":"","type":"address[]","internalType":"address[]"}],"stateMutability":"view"},{"type":"function","name":"grantRole","inputs":[{"name":"role","type":"bytes32","internalType":"bytes32"},{"name":"account","type":"address","internalType":"address"}],"outputs":[],"stateMutability":"nonpayable"},{"type":"function","name":"hasRole","inputs":[{"name":"role","type":"bytes32","internalType":"bytes32"},{"name":"account","type":"address","internalType":"address"}],"outputs":[{"name":"","type":"bool","internalType":"bool"}],"stateMutability":"view"},{"type":"function","name":"initialize","inputs":[{"name":"admin","type":"address","internalType":"address"}],"outputs":[],"stateMutability":"nonpayable"},{"type":"function","name":"registerToken","inputs":[{"name":"tokenAddress","type":"address","internalType":"address"},{"name":"name","type":"string","internalType":"string"},{"name":"symbol","type":"string","internalType":"string"},{"name":"totalSupply","type":"uint256","internalType":"uint256"},{"name":"decimals","type":"uint8","internalType":"uint8"},{"name":"tokenType","type":"uint8","internalType":"enum ITokenRegistry.TokenType"},{"name":"creator","type":"address","internalType":"address"},{"name":"metadataURI","type":"string","internalType":"string"}],"outputs":[],"stateMutability":"nonpayable"},{"type":"function","name":"renounceRole","inputs":[{"name":"role","type":"bytes32","internalType":"bytes32"},{"name":"callerConfirmation","type":"address","internalType":"address"}],"outputs":[],"stateMutability":"nonpayable"},{"type":"function","name":"revokeRole","inputs":[{"name":"role","type":"bytes32","internalType":"bytes32"},{"name":"account","type":"address","internalType":"address"}],"outputs":[],"stateMutability":"nonpayable"},{"type":"function","name":"stats","inputs":[{"name":"","type":"address","internalType":"address"}],"outputs":[{"name":"totalHolders","type":"uint256","internalType":"uint256"},{"name":"totalTransfers","type":"uint256","internalType":"uint256"},{"name":"totalVolume","type":"uint256","internalType":"uint256"},{"name":"lastActivity","type":"uint256","internalType":"uint256"}],"stateMutability":"view"},{"type":"function","name":"supportsInterface","inputs":[{"name":"interfaceId","type":"bytes4","internalType":"bytes4"}],"outputs":[{"name":"","type":"bool","internalType":"bool"}],"stateMutability":"view"},{"type":"function","name":"tokens","inputs":[{"name":"","type":"address","internalType":"address"}],"outputs":[{"name":"tokenAddress","type":"address","internalType":"address"},{"name":"name","type":"string","internalType":"string"},{"name":"symbol","type":"string","internalType":"string"},{"name":"totalSupply","type":"uint256","internalType":"uint256"},{"name":"decimals","type":"uint8","internalType":"uint8"},{"name":"tokenType","type":"uint8","internalType":"enum ITokenRegistry.TokenType"},{"name":"creator","type":"address","internalType":"address"},{"name":"createdAt","type":"uint256","internalType":"uint256"},{"name":"isActive","type":"bool","internalType":"bool"},{"name":"metadataURI","type":"string","internalType":"string"}],"stateMutability":"view"},{"type":"function","name":"updateStats","inputs":[{"name":"tokenAddress","type":"address","internalType":"address"},{"name":"transferAmount","type":"uint256","internalType":"uint256"},{"name":"isNewHolder","type":"bool","internalType":"bool"}],"outputs":[],"stateMutability":"nonpayable"},{"type":"function","name":"updateTokenMetadata","inputs":[{"name":"tokenAddress","type":"address","internalType":"address"},{"name":"metadataURI","type":"string","internalType":"string"}],"outputs":[],"stateMutability":"nonpayable"},{"type":"function","name":"userTokens","inputs":[{"name":"","type":"address","internalType":"address"},{"name":"","type":"uint256","internalType":"uint256"}],"outputs":[{"name":"","type":"address","internalType":"address"}],"stateMutability":"view"},{"type":"event","name":"Initialized","inputs":[{"name":"version","type":"uint64","indexed":false,"internalType":"uint64"}],"anonymous":false},{"type":"event","name":"RoleAdminChanged","inputs":[{"name":"role","type":"bytes32","indexed":true,"internalType":"bytes32"},{"name":"previousAdminRole","type":"bytes32","indexed":true,"internalType":"bytes32"},{"name":"newAdminRole","type":"bytes32","indexed":true,"internalType":"bytes32"}],"anonymous":false},{"type":"event","name":"RoleGranted","inputs":[{"name":"role","type":"bytes32","indexed":true,"internalType":"bytes32"},{"name":"account","type":"address","indexed":true,"internalType":"address"},{"name":"sender","type":"address","indexed":true,"internalType":"address"}],"anonymous":false},{"type":"event","name":"RoleRevoked","inputs":[{"name":"role","type":"bytes32","indexed":true,"internalType":"bytes32"},{"name":"account","type":"address","indexed":true,"internalType":"address"},{"name":"sender","type":"address","indexed":true,"internalType":"address"}],"anonymous":false},{"type":"event","name":"TokenDeactivated","inputs":[{"name":"tokenAddress","type":"address","indexed":true,"internalType":"address"},{"name":"reason","type":"string","indexed":false,"internalType":"string"}],"anonymous":false},{"type":"event","name":"TokenMetadataUpdated","inputs":[{"name":"tokenAddress","type":"address","indexed":true,"internalType":"address"},{"name":"metadataURI","type":"string","indexed":false,"internalType":"string"}],"anonymous":false},{"type":"event","name":"TokenRegistered","inputs":[{"name":"tokenAddress","type":"address","indexed":true,"internalType":"address"},{"name":"creator","type":"address","indexed":true,"internalType":"address"},{"name":"name","type":"string","indexed":false,"internalType":"string"},{"name":"symbol","type":"string","indexed":false,"internalType":"string"},{"name":"totalSupply","type":"uint256","indexed":false,"internalType":"uint256"}],"anonymous":false},{"type":"event","name":"TokenStatsUpdated","inputs":[{"name":"tokenAddress","type":"address","indexed":true,"internalType":"address"},{"name":"totalTransfers","type":"uint256","indexed":false,"internalType":"uint256"},{"name":"totalVolume","type":"uint256","indexed":false,"internalType":"uint256"}],"anonymous":false},{"type":"error","name":"AccessControlBadConfirmation","inputs":[]},{"type":"error","name":"AccessControlUnauthorizedAccount","inputs":[{"name":"account","type":"address","internalType":"address"},{"name":"neededRole","type":"bytes32","internalType":"bytes32"}]},{"type":"error","name":"InvalidInitialization","inputs":[]},{"type":"error","name":"NotInitializing","inputs":[]}],"bytecode":{"object":"0x6080806040523461001657611bf8908161001b8239f35b5f80fdfe6080806040526004361015610012575f80fd5b5f3560e01c90816301ffc9a7146114fb5750806304a0fb17146114c157806310bbc173146113255780631f69565f14611157578063248a9ca31461111e5780632a5c792a1461109d5780632f2ff15d1461105457806336568abe1461100d57806337abe28e14610f3a578063519dc8d214610eb55780635cbb42bf14610d02578063634282af14610ca857806375071d2a14610c6e5780638bcdcbf314610c1457806391d1485414610bbf578063a217fddf14610ba5578063c4d66de814610a5a578063ca88d5c5146109bc578063d547741f14610971578063d851c87914610259578063e4860339146101695763f9f411d81461010e575f80fd5b346101655760403660031901126101655761012761154e565b6024359060018060a01b038091165f52600260205260405f2080548310156101655760209261015591611679565b9190546040519260031b1c168152f35b5f80fd5b34610165576020366003190112610165576001600160a01b038061018b61154e565b165f525f60205260405f209061025581835416916101ab6001850161171e565b936101b86002820161171e565b9060038101549260048201549060058301549161020f6101e2600760ff600688015416960161171e565b956102016040519b8c809c6020610140928392815201528c01906115ea565b908a820360408c01526115ea565b95606089015260ff8116608089015261023160a0890160ff8360081c16611628565b60101c1660c087015260e086015215156101008501528382036101208501526115ea565b0390f35b34610165576101003660031901126101655761027361154e565b6024356001600160401b0381116101655761029290369060040161157a565b906044356001600160401b038111610165576102b290369060040161157a565b9190926084359360ff8516850361016557600460a43510156101655760c435946001600160a01b0386168603610165576001600160401b0360e43511610165576103013660e43560040161157a565b335f9081527fae397ad4942fd55c39428db5ea3ac85cc8592b20d92437b6ec53a8b6ff39d42d602052604090205490919060ff1615610933576001600160a01b038916156108fe576001600160a01b038981165f90815260208190526040902054166108c4576103e79160ff6040519461037a866116c6565b6001600160a01b038c16865261039136898b6118b2565b60208701526103a1368b896118b2565b604087015260643560608701521660808501526103c360a43560a086016118a6565b6001600160a01b03891660c08501524260e0850152600161010085015236916118b2565b6101208201526001600160a01b038781165f90815260208181526040909120835181546001600160a01b03191693169290921782558201518051919291906001600160401b0382116107495761044d82610444600187015461168e565b60018701611837565b602090601f83116001146108565761047c92915f918361075d575b50508160011b915f199060031b1c19161790565b60018301555b60408101518051906001600160401b038211610749576104b2826104a9600287015461168e565b60028701611837565b602090601f83116001146107e8576104e092915f918361075d5750508160011b915f199060031b1c19161790565b60028301555b60608101516003830155600482019060ff60808201511691805460a083015160048110156107d45761ff006101209562010000600160b01b0360c087015160101b169369ffffffffffffffffffff60b01b16179160081b161717905560e0810151600584015560068301610100820151151560ff8019835416911617905501518051906001600160401b0382116107495761059182610588600786015461168e565b60078601611837565b602090601f83116001146107685791806105c2926007945f9261075d5750508160011b915f199060031b1c19161790565b9101555b6040516105d2816116e2565b600181526003602082015f8152604083015f8152606084019142835260018060a01b038b165f52600160205260405f20945185555160018501555160028401555191015560018060a01b0385165f52600260205260405f20908154916801000000000000000092838110156107495761065091600182018155611679565b81546001600160a01b03600392831b81811b19909216908b1690911b179091555491821015610749576001820180600355821015610735577f53fd6d40ae384991842c246d76a056650befce3ee1eab6af935b1ee4945dbcc7946107189260035f527fc2575a0e9e593c00f959f8c92f12db2869c3395a3b0502d05e2516446f71f85b0160018060a01b0389166bffffffffffffffffffffffff60a01b82541617905561070a604051958695606087526060870191611886565b918483036020860152611886565b60643560408301526001600160a01b0394851695909416930390a3005b634e487b7160e01b5f52603260045260245ffd5b634e487b7160e01b5f52604160045260245ffd5b015190508b80610468565b90600784015f5260205f20915f5b601f19851681106107bc5750918391600193600795601f198116106107a4575b505050811b019101556105c6565b01515f1960f88460031b161c191690558a8080610796565b91926020600181928685015181550194019201610776565b634e487b7160e01b5f52602160045260245ffd5b9190600285015f5260205f20905f935b601f198416851061083b576001945083601f19811610610823575b505050811b0160028301556104e6565b01515f1960f88460031b161c191690558a8080610813565b818101518355602094850194600190930192909101906107f8565b9190600185015f5260205f20905f935b601f19841685106108a9576001945083601f19811610610891575b505050811b016001830155610482565b01515f1960f88460031b161c191690558a8080610881565b81810151835560209485019460019093019290910190610866565b60405162461bcd60e51b8152602060048201526012602482015271185b1c9958591e481c9959da5cdd195c995960721b6044820152606490fd5b60405162461bcd60e51b815260206004820152600d60248201526c34b73b30b634b2103a37b5b2b760991b6044820152606490fd5b60405163e2517d3f60e01b81523360048201527fdfbefbf47cfe66b701d8cfdbce1de81c821590819cb07e71cb01b6602fb0ee276024820152604490fd5b34610165576040366003190112610165576109ba600435610990611564565b90805f525f80516020611ba38339815191526020526109b5600160405f2001546118f7565b611b23565b005b34610165576020366003190112610165576109d561154e565b5f60606040516109e4816116e2565b828152826020820152826040820152015260018060a01b03165f526001602052608060405f20604051610a16816116e2565b815491828252600181015460208301908152606060036002840154936040860194855201549301928352604051938452516020840152516040830152516060820152f35b3461016557602036600319011261016557610a7361154e565b7ff0c57e16840df040f15088dc2f81fe391c3923bec73e23a9662efc9c229c6a009081549060ff8260401c1615916001600160401b03811680159081610b9d575b6001149081610b93575b159081610b8a575b50610b785767ffffffffffffffff198116600117845582610b59575b5060ff835460401c1615610b475780610afd610b0392611943565b506119e0565b50610b0a57005b68ff00000000000000001981541690557fc7f505b2f371ae2175ee4913f4499e1f2633a7b5936321eed1cdaeb6115181d2602060405160018152a1005b604051631afcd79f60e31b8152600490fd5b68ffffffffffffffffff19166801000000000000000117835583610ae2565b60405163f92ee8a960e01b8152600490fd5b90501585610ac6565b303b159150610abe565b849150610ab4565b34610165575f3660031901126101655760206040515f8152f35b3461016557604036600319011261016557610bd8611564565b6004355f525f80516020611ba383398151915260205260405f209060018060a01b03165f52602052602060ff60405f2054166040519015158152f35b34610165576020366003190112610165576001600160a01b03610c3561154e565b165f526001602052608060405f208054906001810154906003600282015491015491604051938452602084015260408301526060820152f35b34610165575f3660031901126101655760206040517f5719df9ef2c4678b547f89e4f5ae410dbf400fc51cf3ded434c55f6adea2c43f8152f35b34610165576020366003190112610165576004356003548110156101655760035f527fc2575a0e9e593c00f959f8c92f12db2869c3395a3b0502d05e2516446f71f85b01546040516001600160a01b039091168152602090f35b3461016557606036600319011261016557610d1b61154e565b60249060443590811515820361016557335f9081527f021e7b47d957252238e482ce63807c8c87d29d066c819e84063657a50c13de0060205260409020547f5719df9ef2c4678b547f89e4f5ae410dbf400fc51cf3ded434c55f6adea2c43f9060ff1615610e98575060018060a01b031691825f52600160205260405f20906003820191825415610e5e57600181019384549460018601809611610e4b57859055600282019384549484358601809611610e3857859055429055610e0d575b847faf497d6a232cb3922d20b2f7da04c45a45d9a63b6a2e27a03d2a49fc6038b9686040868682519182526020820152a2005b80549160018301809311610e25575055816040610dda565b634e487b7160e01b5f9081526011600452fd5b84634e487b7160e01b5f5260116004525ffd5b83634e487b7160e01b5f5260116004525ffd5b60405162461bcd60e51b81526020600482015260138184015272756e6b6e6f776e20746f6b656e20737461747360681b6044820152606490fd5b836044916040519163e2517d3f60e01b8352336004840152820152fd5b3461016557602080600319360112610165576001600160a01b0380610ed861154e565b165f52600260205260405f20916040518092602085549283815201945f5260205f20925f915b838310610f215761025586610f15818a03826116fd565b60405191829182611635565b8454811687529581019560019485019490920191610efe565b34610165577f39209e516336ad282c37bead5443d6a3eb78bc0b0eaf0004f2244ee417cf2063610f69366115a7565b6001600160a01b039283165f8181526020819052604090208054919594600692610f9690821615156117c0565b600482015460101c1633148015610fd6575b610fb1906117fc565b0160ff198154169055610fd1604051928392602084526020840191611886565b0390a2005b50335f9081527fb7db2dd08fcb62d0c9e08c51941cae53c267786a0b75803fb7960902fc8ef97d602052604090205460ff16610fa8565b3461016557604036600319011261016557611026611564565b336001600160a01b03821603611042576109ba90600435611b23565b60405163334bd91960e11b8152600490fd5b34610165576040366003190112610165576109ba600435611073611564565b90805f525f80516020611ba3833981519152602052611098600160405f2001546118f7565b611aa0565b34610165575f36600319011261016557604051806003549182815260208091019260035f527fc2575a0e9e593c00f959f8c92f12db2869c3395a3b0502d05e2516446f71f85b915f905b8282106110fe5761025585610f15818903826116fd565b83546001600160a01b0316865294850194600193840193909101906110e7565b34610165576020366003190112610165576004355f525f80516020611ba38339815191526020526020600160405f200154604051908152f35b346101655760203660031901126101655761117061154e565b6060610120604051611181816116c6565b5f81528260208201528260408201525f838201525f60808201525f60a08201525f60c08201525f60e08201525f610100820152015260018060a01b03165f525f60205261025560405f206112686007604051926111dd846116c6565b80546001600160a01b031684526111f66001820161171e565b60208501526112076002820161171e565b604085015260038101546060850152600481015460ff8116608086015261123760ff8260081c1660a087016118a6565b60101c6001600160a01b031660c0850152600581015460e0850152600681015460ff1615156101008501520161171e565b6101208201526040519182916020835260018060a01b0381511660208401526101206112be6112a8602084015161014060408801526101608701906115ea565b6040840151868203601f190160608801526115ea565b916060810151608086015260ff60808201511660a08601526112e860a082015160c0870190611628565b60018060a01b0360c08201511660e086015260e08101516101008601526101008101511515828601520151601f19848303016101408501526115ea565b3461016557611333366115a7565b909160018060a01b0380911692835f5260076020925f845260405f209061135e8183541615156117c0565b600482015460101c1633148015611497575b611379906117fc565b016001600160401b0384116107495761139c84611396835461168e565b83611837565b5f601f851160011461140f5791610fd1916113f086807ff4c4c7158de455c56307c32649f12ed77ddb25cd521c7b40ab51dbc0c9a1bc879897965f91611404575b508160011b915f199060031b1c19161790565b90555b604051938385948552840191611886565b90508401358a6113dd565b601f19851690825f52845f20915f5b818110611480575091610fd19391877ff4c4c7158de455c56307c32649f12ed77ddb25cd521c7b40ab51dbc0c9a1bc879897969410611467575b5050600185811b0190556113f3565b8301355f19600388901b60f8161c191690558780611458565b91928660018192868901358155019401920161141e565b505f8080525f80516020611ba383398151915285526040808220338352865290205460ff16611370565b34610165575f3660031901126101655760206040517fdfbefbf47cfe66b701d8cfdbce1de81c821590819cb07e71cb01b6602fb0ee278152f35b34610165576020366003190112610165576004359063ffffffff60e01b821680920361016557602091637965db0b60e01b811490811561153d575b5015158152f35b6301ffc9a760e01b14905083611536565b600435906001600160a01b038216820361016557565b602435906001600160a01b038216820361016557565b9181601f84011215610165578235916001600160401b038311610165576020838186019501011161016557565b906040600319830112610165576004356001600160a01b03811681036101655791602435906001600160401b038211610165576115e69160040161157a565b9091565b91908251928382525f5b848110611614575050825f602080949584010152601f8019910116010190565b6020818301810151848301820152016115f4565b9060048210156107d45752565b60209060206040818301928281528551809452019301915f5b82811061165c575050505090565b83516001600160a01b03168552938101939281019260010161164e565b8054821015610735575f5260205f2001905f90565b90600182811c921680156116bc575b60208310146116a857565b634e487b7160e01b5f52602260045260245ffd5b91607f169161169d565b61014081019081106001600160401b0382111761074957604052565b608081019081106001600160401b0382111761074957604052565b90601f801991011681019081106001600160401b0382111761074957604052565b9060405191825f82546117308161168e565b908184526020946001916001811690815f1461179e5750600114611760575b50505061175e925003836116fd565b565b5f90815285812095935091905b81831061178657505061175e93508201015f808061174f565b8554888401850152948501948794509183019161176d565b9250505061175e94925060ff191682840152151560051b8201015f808061174f565b156117c757565b60405162461bcd60e51b815260206004820152600d60248201526c3ab735b737bbb7103a37b5b2b760991b6044820152606490fd5b1561180357565b60405162461bcd60e51b815260206004820152600c60248201526b1d5b985d5d1a1bdc9a5e995960a21b6044820152606490fd5b601f821161184457505050565b5f5260205f20906020601f840160051c8301931061187c575b601f0160051c01905b818110611871575050565b5f8155600101611866565b909150819061185d565b908060209392818452848401375f828201840152601f01601f1916010190565b60048210156107d45752565b9291926001600160401b03821161074957604051916118db601f8201601f1916602001846116fd565b829481845281830111610165578281602093845f960137010152565b805f525f80516020611ba383398151915260205260405f20335f5260205260ff60405f205416156119255750565b6044906040519063e2517d3f60e01b82523360048301526024820152fd5b6001600160a01b03165f8181527fb7db2dd08fcb62d0c9e08c51941cae53c267786a0b75803fb7960902fc8ef97d60205260409020545f80516020611ba38339815191529060ff166119da575f805260205260405f20815f5260205260405f20600160ff1982541617905533905f7f2f8788117e7eff1d82e926ec794901d17c78024a50270940304540a733656f0d8180a4600190565b50505f90565b6001600160a01b03165f8181527f021e7b47d957252238e482ce63807c8c87d29d066c819e84063657a50c13de0060205260409020547f5719df9ef2c4678b547f89e4f5ae410dbf400fc51cf3ded434c55f6adea2c43f91905f80516020611ba38339815191529060ff16611a9957825f5260205260405f20815f5260205260405f20600160ff1982541617905533917f2f8788117e7eff1d82e926ec794901d17c78024a50270940304540a733656f0d5f80a4600190565b5050505f90565b90815f525f80516020611ba38339815191528060205260405f209160018060a01b031691825f5260205260ff60405f205416155f14611a9957825f5260205260405f20815f5260205260405f20600160ff1982541617905533917f2f8788117e7eff1d82e926ec794901d17c78024a50270940304540a733656f0d5f80a4600190565b90815f525f80516020611ba38339815191528060205260405f209160018060a01b031691825f5260205260ff60405f2054165f14611a9957825f5260205260405f20815f5260205260405f2060ff19815416905533917ff6391f5c32d9c69d2a47ea670b442974b53935d1edc7fd64eb21e047a839171b5f80a460019056fe02dd7bc7dec4dceedda775e58dd541e08a116c6c53815c0bd028192f7b626800a26469706673582212209f8440bc971e2eb02645bc93655b3431496acc7ef69f29540ad78e0f6bba339464736f6c63430008160033","linkReferences":{}},"methodIdentifiers":{"DEFAULT_ADMIN_ROLE()":"a217fddf","FACTORY_ROLE()":"04a0fb17","SYSTEM_ROLE()":"75071d2a","allTokens(uint256)":"634282af","deactivateToken(address,string)":"37abe28e","getAllTokens()":"2a5c792a","getRoleAdmin(bytes32)":"248a9ca3","getTokenInfo(address)":"1f69565f","getTokenStats(address)":"ca88d5c5","getUserTokens(address)":"519dc8d2","grantRole(bytes32,address)":"2f2ff15d","hasRole(bytes32,address)":"91d14854","initialize(address)":"c4d66de8","registerToken(address,string,string,uint256,uint8,uint8,address,string)":"d851c879","renounceRole(bytes32,address)":"36568abe","revokeRole(bytes32,address)":"d547741f","stats(address)":"8bcdcbf3","supportsInterface(bytes4)":"01ffc9a7","tokens(address)":"e4860339","updateStats(address,uint256,bool)":"5cbb42bf","updateTokenMetadata(address,string)":"10bbc173","userTokens(address,uint256)":"f9f411d8"},"id":10}