{"abi":[{"type":"constructor","inputs":[{"name":"admin","type":"address","internalType":"address"},{"name":"kyc_","type":"address","internalType":"address"},{"name":"compliance_","type":"address","internalType":"address"},{"name":"valuation_","type":"address","internalType":"address"},{"name":"oracle_","type":"address","internalType":"address"},{"name":"tokenizer_","type":"address","internalType":"address"}],"stateMutability":"nonpayable"},{"type":"function","name":"DEFAULT_ADMIN_ROLE","inputs":[],"outputs":[{"name":"","type":"bytes32","internalType":"bytes32"}],"stateMutability":"view"},{"type":"function","name":"VERIFIER_ROLE","inputs":[],"outputs":[{"name":"","type":"bytes32","internalType":"bytes32"}],"stateMutability":"view"},{"type":"function","name":"assetValuation","inputs":[],"outputs":[{"name":"","type":"address","internalType":"contract IAssetValuation"}],"stateMutability":"view"},{"type":"function","name":"complianceManager","inputs":[],"outputs":[{"name":"","type":"address","internalType":"contract IComplianceManager"}],"stateMutability":"view"},{"type":"function","name":"getRoleAdmin","inputs":[{"name":"role","type":"bytes32","internalType":"bytes32"}],"outputs":[{"name":"","type":"bytes32","internalType":"bytes32"}],"stateMutability":"view"},{"type":"function","name":"grantRole","inputs":[{"name":"role","type":"bytes32","internalType":"bytes32"},{"name":"account","type":"address","internalType":"address"}],"outputs":[],"stateMutability":"nonpayable"},{"type":"function","name":"hasRole","inputs":[{"name":"role","type":"bytes32","internalType":"bytes32"},{"name":"account","type":"address","internalType":"address"}],"outputs":[{"name":"","type":"bool","internalType":"bool"}],"stateMutability":"view"},{"type":"function","name":"hybridTokenizer","inputs":[],"outputs":[{"name":"","type":"address","internalType":"contract IHybridAssetTokenizer"}],"stateMutability":"view"},{"type":"function","name":"kycProvider","inputs":[],"outputs":[{"name":"","type":"address","internalType":"contract IKYCProvider"}],"stateMutability":"view"},{"type":"function","name":"priceOracle","inputs":[],"outputs":[{"name":"","type":"address","internalType":"contract IPriceOracle"}],"stateMutability":"view"},{"type":"function","name":"renounceRole","inputs":[{"name":"role","type":"bytes32","internalType":"bytes32"},{"name":"callerConfirmation","type":"address","internalType":"address"}],"outputs":[],"stateMutability":"nonpayable"},{"type":"function","name":"revokeRole","inputs":[{"name":"role","type":"bytes32","internalType":"bytes32"},{"name":"account","type":"address","internalType":"address"}],"outputs":[],"stateMutability":"nonpayable"},{"type":"function","name":"supportsInterface","inputs":[{"name":"interfaceId","type":"bytes4","internalType":"bytes4"}],"outputs":[{"name":"","type":"bool","internalType":"bool"}],"stateMutability":"view"},{"type":"function","name":"verifyAndCreateHybridAsset","inputs":[{"name":"assetId","type":"uint256","internalType":"uint256"},{"name":"user","type":"address","internalType":"address"},{"name":"name","type":"string","internalType":"string"},{"name":"symbol","type":"string","internalType":"string"},{"name":"supply","type":"uint256","internalType":"uint256"},{"name":"decimals","type":"uint8","internalType":"uint8"},{"name":"tokenType","type":"uint8","internalType":"uint8"},{"name":"metadataURI","type":"string","internalType":"string"},{"name":"deedURI","type":"string","internalType":"string"}],"outputs":[{"name":"tokenAddress","type":"address","internalType":"address"}],"stateMutability":"nonpayable"},{"type":"event","name":"DebugCompliance","inputs":[{"name":"assetId","type":"uint256","indexed":true,"internalType":"uint256"},{"name":"user","type":"address","indexed":true,"internalType":"address"},{"name":"passed","type":"bool","indexed":false,"internalType":"bool"}],"anonymous":false},{"type":"event","name":"DebugKYC","inputs":[{"name":"user","type":"address","indexed":true,"internalType":"address"},{"name":"passed","type":"bool","indexed":false,"internalType":"bool"}],"anonymous":false},{"type":"event","name":"DebugOracle","inputs":[{"name":"symbol","type":"string","indexed":false,"internalType":"string"},{"name":"price","type":"uint256","indexed":false,"internalType":"uint256"},{"name":"passed","type":"bool","indexed":false,"internalType":"bool"}],"anonymous":false},{"type":"event","name":"DebugValuation","inputs":[{"name":"assetId","type":"uint256","indexed":true,"internalType":"uint256"},{"name":"valuation","type":"uint256","indexed":false,"internalType":"uint256"},{"name":"passed","type":"bool","indexed":false,"internalType":"bool"}],"anonymous":false},{"type":"event","name":"HybridAssetCreation","inputs":[{"name":"assetId","type":"uint256","indexed":true,"internalType":"uint256"},{"name":"tokenAddress","type":"address","indexed":false,"internalType":"address"}],"anonymous":false},{"type":"event","name":"RoleAdminChanged","inputs":[{"name":"role","type":"bytes32","indexed":true,"internalType":"bytes32"},{"name":"previousAdminRole","type":"bytes32","indexed":true,"internalType":"bytes32"},{"name":"newAdminRole","type":"bytes32","indexed":true,"internalType":"bytes32"}],"anonymous":false},{"type":"event","name":"RoleGranted","inputs":[{"name":"role","type":"bytes32","indexed":true,"internalType":"bytes32"},{"name":"account","type":"address","indexed":true,"internalType":"address"},{"name":"sender","type":"address","indexed":true,"internalType":"address"}],"anonymous":false},{"type":"event","name":"RoleRevoked","inputs":[{"name":"role","type":"bytes32","indexed":true,"internalType":"bytes32"},{"name":"account","type":"address","indexed":true,"internalType":"address"},{"name":"sender","type":"address","indexed":true,"internalType":"address"}],"anonymous":false},{"type":"error","name":"AccessControlBadConfirmation","inputs":[]},{"type":"error","name":"AccessControlUnauthorizedAccount","inputs":[{"name":"account","type":"address","internalType":"address"},{"name":"neededRole","type":"bytes32","internalType":"bytes32"}]}],"bytecode":{"object":"0x6080346200010657601f62000e5a38819003918201601f19168301916001600160401b038311848410176200010a5780849260c09460405283398101031262000106576200004d816200011e565b906200005c602082016200011e565b916200006b604083016200011e565b62000079606084016200011e565b92620000ad6200009a60a062000092608085016200011e565b93016200011e565b93620000a68162000133565b50620001a3565b5060018060a01b0380948180948160018060a01b0319991689600154161760015516876002541617600255168560035416176003551683600454161760045516906005541617600555604051610bd69081620002448239f35b5f80fd5b634e487b7160e01b5f52604160045260245ffd5b51906001600160a01b03821682036200010657565b6001600160a01b03165f8181525f8051602062000e3a833981519152602052604090205460ff166200019e575f8181525f8051602062000e3a83398151915260205260408120805460ff191660011790553391905f8051602062000e1a8339815191528180a4600190565b505f90565b6001600160a01b03165f8181527f1da0b5176dfe03406af5a6eed66ca01dda9b45ac4da671c3fa379cb93717ef8160205260409020547f0ce23c3e399818cfee81a7ab0880f714e53d7672b08df0fa62f2843416e1ea09919060ff166200023d57815f525f60205260405f20815f5260205260405f20600160ff1982541617905533915f8051602062000e1a8339815191525f80a4600190565b50505f9056fe6080806040526004361015610012575f80fd5b5f3560e01c90816301ffc9a714610946575080631ac7ce441461030b578063248a9ca3146102df5780632630c12f146102b75780632f2ff15d1461027b57806336568abe14610234578063406dd96b1461020c57806391d14854146101c45780639f36f7d91461019c578063a217fddf14610182578063a26c786f1461015a578063d547741f1461011c578063e7705db6146100e25763ff7bce23146100b6575f80fd5b346100de575f3660031901126100de576002546040516001600160a01b039091168152602090f35b5f80fd5b346100de575f3660031901126100de5760206040517f0ce23c3e399818cfee81a7ab0880f714e53d7672b08df0fa62f2843416e1ea098152f35b346100de5760403660031901126100de5761015860043561013b610999565b90805f525f602052610153600160405f200154610a91565b610b2e565b005b346100de575f3660031901126100de576001546040516001600160a01b039091168152602090f35b346100de575f3660031901126100de5760206040515f8152f35b346100de575f3660031901126100de576005546040516001600160a01b039091168152602090f35b346100de5760403660031901126100de576101dd610999565b6004355f525f60205260405f209060018060a01b03165f52602052602060ff60405f2054166040519015158152f35b346100de575f3660031901126100de576003546040516001600160a01b039091168152602090f35b346100de5760403660031901126100de5761024d610999565b336001600160a01b038216036102695761015890600435610b2e565b60405163334bd91960e11b8152600490fd5b346100de5760403660031901126100de5761015860043561029a610999565b90805f525f6020526102b2600160405f200154610a91565b610ab2565b346100de575f3660031901126100de576004546040516001600160a01b039091168152602090f35b346100de5760203660031901126100de576004355f525f6020526020600160405f200154604051908152f35b346100de576101203660031901126100de57610325610999565b67ffffffffffffffff906044358281116100de576103479036906004016109e5565b6064358381116100de5761035f9036906004016109e5565b9060a4359260ff841684036100de5760c4359460ff861686036100de5760e4358181116100de576103949036906004016109e5565b90610104359081116100de576103ae9036906004016109e5565b335f9081527f1da0b5176dfe03406af5a6eed66ca01dda9b45ac4da671c3fa379cb93717ef8160205260409020549092907f0ce23c3e399818cfee81a7ab0880f714e53d7672b08df0fa62f2843416e1ea099060ff161561092857506001546040516373bed91960e11b81526001600160a01b038381166004830152909160209183916024918391165afa90811561076b575f91610909575b50604051901580158252906001600160a01b038316907ff348af17aceaca841be53ede981d2300a67f4492a030463572c874b81fe0391b90602090a26108d1576002546040516305d1981160e51b815260048035908201526001600160a01b038381166024830152909160209183916044918391165afa90811561076b575f916108a2575b50604051901580158252916001600160a01b031690600435907ff71ee1a406640e3eb399149faedf5d5cf3fcf6fa1eff42de24cbb368eee31f5c90602090a361085d57600354604051630e0b78f160e31b8152600480359082015290602090829060249082906001600160a01b03165afa90811561076b575f9161082b575b50801590604051908152811560208201527f4ba50de36469dcaeaa9ce47a2adb25b8cd5c721f7ca751784adc611f8a70f54c604060043592a26107ed576004805460405163524f388960e01b8152602092810183905260036024820152621554d160ea1b60448201529190829060649082906001600160a01b03165afa90811561076b575f916107bb575b507ff074670b245f835ec2150de2d63bdbceb5d6c70d335406161e9398e47e4558198115916040518091606082526106226060830160409060038152621554d160ea1b60208201520190565b906020830152841560408301520390a161077657600160a01b6001900360055416946040519687958695631536ba5960e21b87526004356004880152602487016101009052610104870161067591610a53565b86810360031901604488015261068a91610a53565b91608435606487015260ff16608486015260ff1660a48501526003198482030160c48501526106b891610a53565b8281036003190160e48401526106cd91610a53565b03815a6020945f91f1801561076b575f90610728575b6040516001600160a01b03909116808252602091600435907f202d1a1b3bb7a2f1d8187a332b7bb37a25fe87c5ed56cccbb8747d0fd5f8121b908490a2604051908152f35b506020813d602011610763575b81610742602093836109af565b810103126100de57516001600160a01b03811681036100de576020906106e3565b3d9150610735565b6040513d5f823e3d90fd5b60405162461bcd60e51b815260206004820152601960248201527f4f7261636c6520707269636520636865636b206661696c6564000000000000006044820152606490fd5b90506020813d6020116107e5575b816107d6602093836109af565b810103126100de5751876105d6565b3d91506107c9565b60405162461bcd60e51b815260206004820152601660248201527515985b1d585d1a5bdb8818da1958dac819985a5b195960521b6044820152606490fd5b90506020813d602011610855575b81610846602093836109af565b810103126100de57518761054b565b3d9150610839565b60405162461bcd60e51b815260206004820152601760248201527f436f6d706c69616e636520636865636b206661696c65640000000000000000006044820152606490fd5b6108c4915060203d6020116108ca575b6108bc81836109af565b810190610a3b565b886104cc565b503d6108b2565b60405162461bcd60e51b815260206004820152601060248201526f12d650c818da1958dac819985a5b195960821b6044820152606490fd5b610922915060203d6020116108ca576108bc81836109af565b88610447565b6044906040519063e2517d3f60e01b82523360048301526024820152fd5b346100de5760203660031901126100de576004359063ffffffff60e01b82168092036100de57602091637965db0b60e01b8114908115610988575b5015158152f35b6301ffc9a760e01b14905083610981565b602435906001600160a01b03821682036100de57565b90601f8019910116810190811067ffffffffffffffff8211176109d157604052565b634e487b7160e01b5f52604160045260245ffd5b81601f820112156100de5780359067ffffffffffffffff82116109d15760405192610a1a601f8401601f1916602001856109af565b828452602083830101116100de57815f926020809301838601378301015290565b908160209103126100de575180151581036100de5790565b91908251928382525f5b848110610a7d575050825f602080949584010152601f8019910116010190565b602081830181015184830182015201610a5d565b805f525f60205260405f20335f5260205260ff60405f205416156109285750565b90815f525f60205260405f209060018060a01b031690815f5260205260ff60405f205416155f14610b2857815f525f60205260405f20815f5260205260405f20600160ff1982541617905533917f2f8788117e7eff1d82e926ec794901d17c78024a50270940304540a733656f0d5f80a4600190565b50505f90565b90815f525f60205260405f209060018060a01b031690815f5260205260ff60405f2054165f14610b2857815f525f60205260405f20815f5260205260405f2060ff19815416905533917ff6391f5c32d9c69d2a47ea670b442974b53935d1edc7fd64eb21e047a839171b5f80a460019056fea264697066735822122055e1a7365ebf8a33494a8177cfda1a1faa3181485e7d597ed6f3dffde10f62f464736f6c634300081600332f8788117e7eff1d82e926ec794901d17c78024a50270940304540a733656f0dad3228b676f7d3cd4284a5443f17f1962b36e491b30a40b2405849e597ba5fb5","linkReferences":{}},"methodIdentifiers":{"DEFAULT_ADMIN_ROLE()":"a217fddf","VERIFIER_ROLE()":"e7705db6","assetValuation()":"406dd96b","complianceManager()":"ff7bce23","getRoleAdmin(bytes32)":"248a9ca3","grantRole(bytes32,address)":"2f2ff15d","hasRole(bytes32,address)":"91d14854","hybridTokenizer()":"9f36f7d9","kycProvider()":"a26c786f","priceOracle()":"2630c12f","renounceRole(bytes32,address)":"36568abe","revokeRole(bytes32,address)":"d547741f","supportsInterface(bytes4)":"01ffc9a7","verifyAndCreateHybridAsset(uint256,address,string,string,uint256,uint8,uint8,string,string)":"1ac7ce44"},"id":0}