{"abi":[{"type":"constructor","inputs":[{"name":"admin","type":"address","internalType":"address"},{"name":"kyc_","type":"address","internalType":"address"},{"name":"compliance_","type":"address","internalType":"address"},{"name":"tokenizer_","type":"address","internalType":"address"},{"name":"oracle_","type":"address","internalType":"address"}],"stateMutability":"nonpayable"},{"type":"function","name":"DEFAULT_ADMIN_ROLE","inputs":[],"outputs":[{"name":"","type":"bytes32","internalType":"bytes32"}],"stateMutability":"view"},{"type":"function","name":"VERIFIER_ROLE","inputs":[],"outputs":[{"name":"","type":"bytes32","internalType":"bytes32"}],"stateMutability":"view"},{"type":"function","name":"complianceManager","inputs":[],"outputs":[{"name":"","type":"address","internalType":"contract IComplianceManager"}],"stateMutability":"view"},{"type":"function","name":"getRoleAdmin","inputs":[{"name":"role","type":"bytes32","internalType":"bytes32"}],"outputs":[{"name":"","type":"bytes32","internalType":"bytes32"}],"stateMutability":"view"},{"type":"function","name":"grantRole","inputs":[{"name":"role","type":"bytes32","internalType":"bytes32"},{"name":"account","type":"address","internalType":"address"}],"outputs":[],"stateMutability":"nonpayable"},{"type":"function","name":"hasRole","inputs":[{"name":"role","type":"bytes32","internalType":"bytes32"},{"name":"account","type":"address","internalType":"address"}],"outputs":[{"name":"","type":"bool","internalType":"bool"}],"stateMutability":"view"},{"type":"function","name":"hybridTokenizer","inputs":[],"outputs":[{"name":"","type":"address","internalType":"contract IAssetTokenizer"}],"stateMutability":"view"},{"type":"function","name":"kycProvider","inputs":[],"outputs":[{"name":"","type":"address","internalType":"contract IKYCProvider"}],"stateMutability":"view"},{"type":"function","name":"priceOracle","inputs":[],"outputs":[{"name":"","type":"address","internalType":"contract IPriceOracle"}],"stateMutability":"view"},{"type":"function","name":"renounceRole","inputs":[{"name":"role","type":"bytes32","internalType":"bytes32"},{"name":"callerConfirmation","type":"address","internalType":"address"}],"outputs":[],"stateMutability":"nonpayable"},{"type":"function","name":"revokeRole","inputs":[{"name":"role","type":"bytes32","internalType":"bytes32"},{"name":"account","type":"address","internalType":"address"}],"outputs":[],"stateMutability":"nonpayable"},{"type":"function","name":"supportsInterface","inputs":[{"name":"interfaceId","type":"bytes4","internalType":"bytes4"}],"outputs":[{"name":"","type":"bool","internalType":"bool"}],"stateMutability":"view"},{"type":"function","name":"verifyAndCreateHybridAsset","inputs":[{"name":"assetId","type":"uint256","internalType":"uint256"},{"name":"user","type":"address","internalType":"address"},{"name":"name","type":"string","internalType":"string"},{"name":"symbol","type":"string","internalType":"string"},{"name":"supply","type":"uint256","internalType":"uint256"},{"name":"decimals","type":"uint8","internalType":"uint8"},{"name":"tokenType","type":"uint8","internalType":"enum ITokenRegistry.TokenType"},{"name":"metadataURI","type":"string","internalType":"string"},{"name":"deedURI","type":"string","internalType":"string"}],"outputs":[{"name":"tokenAddress","type":"address","internalType":"address"}],"stateMutability":"nonpayable"},{"type":"event","name":"DebugCompliance","inputs":[{"name":"assetId","type":"uint256","indexed":true,"internalType":"uint256"},{"name":"user","type":"address","indexed":true,"internalType":"address"},{"name":"passed","type":"bool","indexed":false,"internalType":"bool"}],"anonymous":false},{"type":"event","name":"DebugKYC","inputs":[{"name":"user","type":"address","indexed":true,"internalType":"address"},{"name":"passed","type":"bool","indexed":false,"internalType":"bool"}],"anonymous":false},{"type":"event","name":"DebugOracle","inputs":[{"name":"symbol","type":"string","indexed":false,"internalType":"string"},{"name":"price","type":"uint256","indexed":false,"internalType":"uint256"},{"name":"passed","type":"bool","indexed":false,"internalType":"bool"}],"anonymous":false},{"type":"event","name":"DebugValuation","inputs":[{"name":"assetId","type":"uint256","indexed":true,"internalType":"uint256"},{"name":"valuation","type":"uint256","indexed":false,"internalType":"uint256"},{"name":"passed","type":"bool","indexed":false,"internalType":"bool"}],"anonymous":false},{"type":"event","name":"HybridAssetCreation","inputs":[{"name":"assetId","type":"uint256","indexed":true,"internalType":"uint256"},{"name":"tokenAddress","type":"address","indexed":false,"internalType":"address"}],"anonymous":false},{"type":"event","name":"RoleAdminChanged","inputs":[{"name":"role","type":"bytes32","indexed":true,"internalType":"bytes32"},{"name":"previousAdminRole","type":"bytes32","indexed":true,"internalType":"bytes32"},{"name":"newAdminRole","type":"bytes32","indexed":true,"internalType":"bytes32"}],"anonymous":false},{"type":"event","name":"RoleGranted","inputs":[{"name":"role","type":"bytes32","indexed":true,"internalType":"bytes32"},{"name":"account","type":"address","indexed":true,"internalType":"address"},{"name":"sender","type":"address","indexed":true,"internalType":"address"}],"anonymous":false},{"type":"event","name":"RoleRevoked","inputs":[{"name":"role","type":"bytes32","indexed":true,"internalType":"bytes32"},{"name":"account","type":"address","indexed":true,"internalType":"address"},{"name":"sender","type":"address","indexed":true,"internalType":"address"}],"anonymous":false},{"type":"error","name":"AccessControlBadConfirmation","inputs":[]},{"type":"error","name":"AccessControlUnauthorizedAccount","inputs":[{"name":"account","type":"address","internalType":"address"},{"name":"neededRole","type":"bytes32","internalType":"bytes32"}]}],"bytecode":{"object":"0x6080346200014c57601f62000eb738819003918201601f19168301916001600160401b03831184841017620001505780849260a0946040528339810103126200014c576200004d8162000164565b6200005b6020830162000164565b620000696040840162000164565b926200009d6200008a6080620000826060850162000164565b930162000164565b93620000968162000179565b50620001e9565b506001600160a01b0393849283919082168062000131575b50168062000116575b501680620000fb575b501680620000e0575b604051610bed90816200028a8239f35b600480546001600160a01b0319169190911790555f620000d0565b600380546001600160a01b0319169190911790555f620000c7565b600280546001600160a01b0319169190911790555f620000be565b600180546001600160a01b0319169190911790555f620000b5565b5f80fd5b634e487b7160e01b5f52604160045260245ffd5b51906001600160a01b03821682036200014c57565b6001600160a01b03165f8181525f8051602062000e97833981519152602052604090205460ff16620001e4575f8181525f8051602062000e9783398151915260205260408120805460ff191660011790553391905f8051602062000e778339815191528180a4600190565b505f90565b6001600160a01b03165f8181527f1da0b5176dfe03406af5a6eed66ca01dda9b45ac4da671c3fa379cb93717ef8160205260409020547f0ce23c3e399818cfee81a7ab0880f714e53d7672b08df0fa62f2843416e1ea09919060ff166200028357815f525f60205260405f20815f5260205260405f20600160ff1982541617905533915f8051602062000e778339815191525f80a4600190565b50505f9056fe6080806040526004361015610012575f80fd5b5f3560e01c90816301ffc9a714610951575080631ac7ce44146102d8578063248a9ca3146102ac5780632630c12f146102845780632f2ff15d1461024857806336568abe1461020157806391d14854146101b95780639f36f7d914610191578063a217fddf14610177578063a26c786f1461014f578063d547741f14610111578063e7705db6146100d75763ff7bce23146100ab575f80fd5b346100d3575f3660031901126100d3576002546040516001600160a01b039091168152602090f35b5f80fd5b346100d3575f3660031901126100d35760206040517f0ce23c3e399818cfee81a7ab0880f714e53d7672b08df0fa62f2843416e1ea098152f35b346100d35760403660031901126100d35761014d6004356101306109a4565b90805f525f602052610148600160405f200154610aa8565b610b45565b005b346100d3575f3660031901126100d3576001546040516001600160a01b039091168152602090f35b346100d3575f3660031901126100d35760206040515f8152f35b346100d3575f3660031901126100d3576003546040516001600160a01b039091168152602090f35b346100d35760403660031901126100d3576101d26109a4565b6004355f525f60205260405f209060018060a01b03165f52602052602060ff60405f2054166040519015158152f35b346100d35760403660031901126100d35761021a6109a4565b336001600160a01b038216036102365761014d90600435610b45565b60405163334bd91960e11b8152600490fd5b346100d35760403660031901126100d35761014d6004356102676109a4565b90805f525f60205261027f600160405f200154610aa8565b610ac9565b346100d3575f3660031901126100d3576004546040516001600160a01b039091168152602090f35b346100d35760203660031901126100d3576004355f525f6020526020600160405f200154604051908152f35b346100d3576101203660031901126100d3576102f26109a4565b67ffffffffffffffff906044358281116100d3576103149036906004016109f0565b916064358181116100d35761032d9036906004016109f0565b9160a43560ff811681036100d357600460c43510156100d35760e4358381116100d35761035e9036906004016109f0565b92610104359081116100d3576103789036906004016109f0565b335f9081527f1da0b5176dfe03406af5a6eed66ca01dda9b45ac4da671c3fa379cb93717ef8160205260409020549092907f0ce23c3e399818cfee81a7ab0880f714e53d7672b08df0fa62f2843416e1ea099060ff161561093357506001546001600160a01b0316806108c0575060015b604051901580158252906001600160a01b038316907ff348af17aceaca841be53ede981d2300a67f4492a030463572c874b81fe0391b90602090a2610888576002546001600160a01b031680610811575060015b604051901580158252916001600160a01b031690600435907ff71ee1a406640e3eb399149faedf5d5cf3fcf6fa1eff42de24cbb368eee31f5c90602090a36107cc57600354604051630e0b78f160e31b815260048035908201526001600160a01b039091169390602081602481885afa908115610636575f9161079a575b50801590604051908152811560208201527f4ba50de36469dcaeaa9ce47a2adb25b8cd5c721f7ca751784adc611f8a70f54c604060043592a261075c576004546001600160a01b031680610641575b506105639561059d602096959461058b610551955f9560ff6040519c8d9b8c9a8b99631536ba5960e21b8b5260043560048c015261010060248c01526101048b0190610a6a565b8981036003190160448b015290610a6a565b92608435606489015216608487015260c43560a48701526003198683030160c4870152610a6a565b8381036003190160e485015290610a6a565b03925af18015610636575f906105f3575b6040516001600160a01b03909116808252602091600435907f202d1a1b3bb7a2f1d8187a332b7bb37a25fe87c5ed56cccbb8747d0fd5f8121b908490a2604051908152f35b506020813d60201161062e575b8161060d602093836109ba565b810103126100d357516001600160a01b03811681036100d3576020906105ae565b3d9150610600565b6040513d5f823e3d90fd5b60a0600491604097969594975192838092633fabe5a360e21b82525afa908115610636575f9161070f575b507ff074670b245f835ec2150de2d63bdbceb5d6c70d335406161e9398e47e45581960a0821592604051906060825260036060830152621554d160ea1b6080830152602082015283156040820152a16106ca5786949192939461050a565b60405162461bcd60e51b815260206004820152601960248201527f4f7261636c6520707269636520636865636b206661696c6564000000000000006044820152606490fd5b905060a0813d60a011610754575b8161072a60a093836109ba565b810103126100d35761073b81610a53565b5061074d608060208301519201610a53565b508761066c565b3d915061071d565b60405162461bcd60e51b815260206004820152601660248201527515985b1d585d1a5bdb8818da1958dac819985a5b195960521b6044820152606490fd5b90506020813d6020116107c4575b816107b5602093836109ba565b810103126100d35751876104bb565b3d91506107a8565b60405162461bcd60e51b815260206004820152601760248201527f436f6d706c69616e636520636865636b206661696c65640000000000000000006044820152606490fd5b604051632a5bb1b760e11b81526001600160a01b038316600482015290602090829060249082905afa908115610636575f9161084e575b5061043d565b90506020813d602011610880575b81610869602093836109ba565b810103126100d35761087a90610a46565b87610848565b3d915061085c565b60405162461bcd60e51b815260206004820152601060248201526f12d650c818da1958dac819985a5b195960821b6044820152606490fd5b6040805161c8df60e41b81526001600160a01b038416600482015291829060249082905afa908115610636575f916108f9575b506103e9565b90506040813d60401161092b575b81610914604093836109ba565b810103126100d35761092590610a46565b876108f3565b3d9150610907565b6044906040519063e2517d3f60e01b82523360048301526024820152fd5b346100d35760203660031901126100d3576004359063ffffffff60e01b82168092036100d357602091637965db0b60e01b8114908115610993575b5015158152f35b6301ffc9a760e01b1490508361098c565b602435906001600160a01b03821682036100d357565b90601f8019910116810190811067ffffffffffffffff8211176109dc57604052565b634e487b7160e01b5f52604160045260245ffd5b81601f820112156100d35780359067ffffffffffffffff82116109dc5760405192610a25601f8401601f1916602001856109ba565b828452602083830101116100d357815f926020809301838601378301015290565b519081151582036100d357565b519069ffffffffffffffffffff821682036100d357565b91908251928382525f5b848110610a94575050825f602080949584010152601f8019910116010190565b602081830181015184830182015201610a74565b805f525f60205260405f20335f5260205260ff60405f205416156109335750565b90815f525f60205260405f209060018060a01b031690815f5260205260ff60405f205416155f14610b3f57815f525f60205260405f20815f5260205260405f20600160ff1982541617905533917f2f8788117e7eff1d82e926ec794901d17c78024a50270940304540a733656f0d5f80a4600190565b50505f90565b90815f525f60205260405f209060018060a01b031690815f5260205260ff60405f2054165f14610b3f57815f525f60205260405f20815f5260205260405f2060ff19815416905533917ff6391f5c32d9c69d2a47ea670b442974b53935d1edc7fd64eb21e047a839171b5f80a460019056fea26469706673582212202d49891573078b389f19de3e5ad7f0d1f5020376a01d26918f0cbd2307abcc5d64736f6c634300081600332f8788117e7eff1d82e926ec794901d17c78024a50270940304540a733656f0dad3228b676f7d3cd4284a5443f17f1962b36e491b30a40b2405849e597ba5fb5","linkReferences":{}},"methodIdentifiers":{"DEFAULT_ADMIN_ROLE()":"a217fddf","VERIFIER_ROLE()":"e7705db6","complianceManager()":"ff7bce23","getRoleAdmin(bytes32)":"248a9ca3","grantRole(bytes32,address)":"2f2ff15d","hasRole(bytes32,address)":"91d14854","hybridTokenizer()":"9f36f7d9","kycProvider()":"a26c786f","priceOracle()":"2630c12f","renounceRole(bytes32,address)":"36568abe","revokeRole(bytes32,address)":"d547741f","supportsInterface(bytes4)":"01ffc9a7","verifyAndCreateHybridAsset(uint256,address,string,string,uint256,uint8,uint8,string,string)":"1ac7ce44"},"id":2}