{"abi":[{"type":"function","name":"chainlinkVerifier","inputs":[],"outputs":[{"name":"","type":"address","internalType":"contract IChainlinkAssetVerifier"}],"stateMutability":"view"},{"type":"function","name":"initiateFullVerification","inputs":[{"name":"assetId","type":"uint256","internalType":"uint256"},{"name":"data","type":"tuple","internalType":"struct EnhancedVerificationGateway.PropertyData","components":[{"name":"propertyAddress","type":"string","internalType":"string"},{"name":"squareFootage","type":"uint256","internalType":"uint256"},{"name":"yearBuilt","type":"uint256","internalType":"uint256"},{"name":"propertyType","type":"string","internalType":"string"},{"name":"amenities","type":"string[]","internalType":"string[]"},{"name":"taxId","type":"string","internalType":"string"}]},{"name":"encryptedApiKeys","type":"string","internalType":"string"}],"outputs":[],"stateMutability":"nonpayable"},{"type":"function","name":"pendingChainlinkRequests","inputs":[{"name":"","type":"uint256","internalType":"uint256"}],"outputs":[{"name":"","type":"bytes32","internalType":"bytes32"}],"stateMutability":"view"},{"type":"function","name":"priceOracle","inputs":[],"outputs":[{"name":"","type":"address","internalType":"contract AggregatorV3Interface"}],"stateMutability":"view"},{"type":"function","name":"propertyData","inputs":[{"name":"","type":"uint256","internalType":"uint256"}],"outputs":[{"name":"propertyAddress","type":"string","internalType":"string"},{"name":"squareFootage","type":"uint256","internalType":"uint256"},{"name":"yearBuilt","type":"uint256","internalType":"uint256"},{"name":"propertyType","type":"string","internalType":"string"},{"name":"taxId","type":"string","internalType":"string"}],"stateMutability":"view"},{"type":"function","name":"verificationStatus","inputs":[{"name":"","type":"uint256","internalType":"uint256"}],"outputs":[{"name":"titleVerified","type":"bool","internalType":"bool"},{"name":"taxStatusVerified","type":"bool","internalType":"bool"},{"name":"physicalInspectionDone","type":"bool","internalType":"bool"},{"name":"valuationComplete","type":"bool","internalType":"bool"},{"name":"chainlinkValuation","type":"uint256","internalType":"uint256"},{"name":"manualValuation","type":"uint256","internalType":"uint256"},{"name":"finalValuation","type":"uint256","internalType":"uint256"}],"stateMutability":"view"},{"type":"event","name":"ChainlinkVerificationInitiated","inputs":[{"name":"assetId","type":"uint256","indexed":true,"internalType":"uint256"},{"name":"requestId","type":"bytes32","indexed":false,"internalType":"bytes32"}],"anonymous":false}],"bytecode":{"object":"0x6080806040523461001657610b82908161001b8239f35b5f80fdfe60806040526004361015610011575f80fd5b5f3560e01c8063029b36e0146101e457806309580bef1461016c5780632630c12f14610144578063d803aacc146100b0578063d9c987a9146100865763fdcec24b1461005b575f80fd5b34610082575f366003190112610082575f546040516001600160a01b039091168152602090f35b5f80fd5b34610082576020366003190112610082576004355f526004602052602060405f2054604051908152f35b34610082576020366003190112610082576004355f52600260205261011a60405f206101406100de826109bd565b91610132600182015460028301549261010560056100fe600384016109bd565b92016109bd565b9360405197889760a0895260a0890190610a5f565b92602088015260408701528582036060870152610a5f565b908382036080850152610a5f565b0390f35b34610082575f366003190112610082576001546040516001600160a01b039091168152602090f35b34610082576020366003190112610082576004355f52600360205260e060405f20805490600181015490600360028201549101549160ff6040519481811615158652818160081c1615156020870152818160101c161515604087015260181c1615156060850152608084015260a083015260c0820152f35b346100825760603660031901126100825767ffffffffffffffff602435116100825760c0602435360360031901126100825767ffffffffffffffff60443511610082573660236044350112156100825767ffffffffffffffff60443560040135116100825736602460443560040135604435010111610082576004355f52600260205260405f2061027f602435600401602435600401610a9d565b67ffffffffffffffff819392931161067d5761029b8254610963565b601f8111610933575b505f92601f82116001146108ce576102d4929382915f92610825575b50508160011b915f199060031b1c19161790565b81555b6024803501356001820155604460243501356002820155610302606460243501602435600401610a9d565b67ffffffffffffffff819392931161067d576103216003830154610963565b601f811161089b575b505f92601f821160011461083057610359929382915f926108255750508160011b915f199060031b1c19161790565b60038201555b602435608481013590360360221901811215610082576024350167ffffffffffffffff60048201351161008257600481013560051b36036024820113610082576801000000000000000060048201351161067d5760048281018054918301359081905581116107ad575b506024810190600483015f5260205f205f925b6004830135841061069157846103fc60a460243501602435600401610a9d565b9067ffffffffffffffff821161067d576104196005840154610963565b601f811161063f575b505f90601f83116001146105d3579180610453926005945f926105c85750508160011b915f199060031b1c19161790565b9101555b6104d960206104c760018060a01b035f54165f61047e602435600401602435600401610a9d565b610502610498606460249594953501602435600401610a9d565b9890604051998a9889978896633e68987160e11b8852600435600489015260a0602489015260a4880191610ae6565b85810360031901604487015291610ae6565b602480350135606484015260031983820301608484015260443560040135602460443501610ae6565b03925af19081156105bd575f9161058b575b506004355f5260046020528060405f20556040519081527f966492e072d3be659998fa066efcfba07c0a95f59daa87abc9ee2e3eb9df7821602060043592a261057161056a60a460243501602435600401610a9d565b3691610b06565b5061058961056a60a460243501602435600401610a9d565b005b90506020813d6020116105b5575b816105a66020938361099b565b81010312610082575181610514565b3d9150610599565b6040513d5f823e3d90fd5b0135905085806102c0565b600584015f5260205f20915f5b601f19851681106106275750918391600193600595601f1981161061060e575b505050811b01910155610457565b01355f19600384901b60f8161c19169055848080610600565b909260206001819286860135815501940191016105e0565b61066d90600585015f5260205f20601f850160051c81019160208610610673575b601f0160051c0190610ad0565b83610422565b9091508190610660565b634e487b7160e01b5f52604160045260245ffd5b61069e8160248501610a9d565b9067ffffffffffffffff821161067d576106b88454610963565b601f811161077d575b505f90601f831160011461071157926106f7836001959460209487965f926107065750508160011b915f199060031b1c19161790565b85555b019201930192906103dc565b013590508b806102c0565b845f5260205f20915f5b601f1985168110610765575083602093600196938796938794601f1981161061074c575b505050811b0185556106fa565b01355f19600384901b60f8161c191690558a808061073f565b9092602060018192868601358155019401910161071b565b6107a790855f5260205f20601f850160051c8101916020861061067357601f0160051c0190610ad0565b876106c1565b600483015f5260205f2090600483013582015b81830181106107d05750506103c9565b806107dd60019254610963565b806107ea575b50016107c0565b601f811183146107ff57505f81555b866107e3565b5f9082825261081c601f60208420920160051c8201858301610ad0565b818355556107f9565b0135905084806102c0565b600383015f5260205f20905f945b601f198416861061088357600194955083601f1981161061086a575b505050811b01600382015561035f565b01355f19600384901b60f8161c1916905583808061085a565b9160206001819285850135815501930195019461083e565b6108c890600384015f5260205f20601f840160051c8101916020851061067357601f0160051c0190610ad0565b8361032a565b825f5260205f20905f945b601f198416861061091b57600194955083601f19811610610902575b505050811b0181556102d7565b01355f19600384901b60f8161c191690558380806108f5565b916020600181928585013581550193019501946108d9565b61095d90835f5260205f20601f840160051c8101916020851061067357601f0160051c0190610ad0565b836102a4565b90600182811c92168015610991575b602083101461097d57565b634e487b7160e01b5f52602260045260245ffd5b91607f1691610972565b90601f8019910116810190811067ffffffffffffffff82111761067d57604052565b9060405191825f82546109cf81610963565b908184526020946001916001811690815f14610a3d57506001146109ff575b5050506109fd9250038361099b565b565b5f90815285812095935091905b818310610a255750506109fd93508201015f80806109ee565b85548884018501529485019487945091830191610a0c565b925050506109fd94925060ff191682840152151560051b8201015f80806109ee565b91908251928382525f5b848110610a89575050825f602080949584010152601f8019910116010190565b602081830181015184830182015201610a69565b903590601e1981360301821215610082570180359067ffffffffffffffff82116100825760200191813603831361008257565b818110610adb575050565b5f8155600101610ad0565b908060209392818452848401375f828201840152601f01601f1916010190565b92919267ffffffffffffffff821161067d5760405191610b30601f8201601f19166020018461099b565b829481845281830111610082578281602093845f96013701015256fea264697066735822122018da6adba9818b06f34f394e9b2c1fd4e9ac9be071ecf7b8deebd84054f8f61c64736f6c63430008160033","linkReferences":{}},"methodIdentifiers":{"chainlinkVerifier()":"fdcec24b","initiateFullVerification(uint256,(string,uint256,uint256,string,string[],string),string)":"029b36e0","pendingChainlinkRequests(uint256)":"d9c987a9","priceOracle()":"2630c12f","propertyData(uint256)":"d803aacc","verificationStatus(uint256)":"09580bef"},"id":33}