{"abi":[{"type":"receive","stateMutability":"payable"},{"type":"function","name":"DEFAULT_ADMIN_ROLE","inputs":[],"outputs":[{"name":"","type":"bytes32","internalType":"bytes32"}],"stateMutability":"view"},{"type":"function","name":"MARKETPLACE_ADMIN_ROLE","inputs":[],"outputs":[{"name":"","type":"bytes32","internalType":"bytes32"}],"stateMutability":"view"},{"type":"function","name":"OPERATOR_ROLE","inputs":[],"outputs":[{"name":"","type":"bytes32","internalType":"bytes32"}],"stateMutability":"view"},{"type":"function","name":"auditTrail","inputs":[],"outputs":[{"name":"","type":"address","internalType":"contract IAuditTrail"}],"stateMutability":"view"},{"type":"function","name":"batchExpireOrders","inputs":[{"name":"orderIds","type":"uint256[]","internalType":"uint256[]"}],"outputs":[],"stateMutability":"nonpayable"},{"type":"function","name":"canFillOrder","inputs":[{"name":"orderId","type":"uint256","internalType":"uint256"},{"name":"filler","type":"address","internalType":"address"},{"name":"amount","type":"uint256","internalType":"uint256"}],"outputs":[{"name":"","type":"bool","internalType":"bool"},{"name":"","type":"string","internalType":"string"}],"stateMutability":"view"},{"type":"function","name":"cancelOrder","inputs":[{"name":"orderId","type":"uint256","internalType":"uint256"}],"outputs":[],"stateMutability":"nonpayable"},{"type":"function","name":"complianceManager","inputs":[],"outputs":[{"name":"","type":"address","internalType":"contract IComplianceManager"}],"stateMutability":"view"},{"type":"function","name":"createBuyOrder","inputs":[{"name":"tokenAddress","type":"address","internalType":"address"},{"name":"amount","type":"uint256","internalType":"uint256"},{"name":"pricePerToken","type":"uint256","internalType":"uint256"},{"name":"duration","type":"uint256","internalType":"uint256"},{"name":"minFillAmount","type":"uint256","internalType":"uint256"},{"name":"allowPartialFill","type":"bool","internalType":"bool"}],"outputs":[{"name":"","type":"uint256","internalType":"uint256"}],"stateMutability":"payable"},{"type":"function","name":"createSellOrder","inputs":[{"name":"tokenAddress","type":"address","internalType":"address"},{"name":"amount","type":"uint256","internalType":"uint256"},{"name":"pricePerToken","type":"uint256","internalType":"uint256"},{"name":"duration","type":"uint256","internalType":"uint256"},{"name":"minFillAmount","type":"uint256","internalType":"uint256"},{"name":"allowPartialFill","type":"bool","internalType":"bool"}],"outputs":[{"name":"","type":"uint256","internalType":"uint256"}],"stateMutability":"nonpayable"},{"type":"function","name":"defaultOrderDuration","inputs":[],"outputs":[{"name":"","type":"uint256","internalType":"uint256"}],"stateMutability":"view"},{"type":"function","name":"emergencyWithdraw","inputs":[{"name":"tokenAddress","type":"address","internalType":"address"}],"outputs":[],"stateMutability":"nonpayable"},{"type":"function","name":"escrowBalances","inputs":[{"name":"","type":"address","internalType":"address"},{"name":"","type":"address","internalType":"address"}],"outputs":[{"name":"","type":"uint256","internalType":"uint256"}],"stateMutability":"view"},{"type":"function","name":"estimateFillCost","inputs":[{"name":"orderId","type":"uint256","internalType":"uint256"},{"name":"amount","type":"uint256","internalType":"uint256"}],"outputs":[{"name":"totalCost","type":"uint256","internalType":"uint256"},{"name":"tradingFee","type":"uint256","internalType":"uint256"},{"name":"totalRequired","type":"uint256","internalType":"uint256"}],"stateMutability":"view"},{"type":"function","name":"expireOrder","inputs":[{"name":"orderId","type":"uint256","internalType":"uint256"}],"outputs":[],"stateMutability":"nonpayable"},{"type":"function","name":"feeManager","inputs":[],"outputs":[{"name":"","type":"address","internalType":"contract IFeeManager"}],"stateMutability":"view"},{"type":"function","name":"fillOrder","inputs":[{"name":"orderId","type":"uint256","internalType":"uint256"},{"name":"amount","type":"uint256","internalType":"uint256"}],"outputs":[],"stateMutability":"payable"},{"type":"function","name":"getActiveOrders","inputs":[{"name":"tokenAddress","type":"address","internalType":"address"}],"outputs":[{"name":"","type":"uint256[]","internalType":"uint256[]"}],"stateMutability":"view"},{"type":"function","name":"getBestPrices","inputs":[{"name":"tokenAddress","type":"address","internalType":"address"}],"outputs":[{"name":"bestBuyPrice","type":"uint256","internalType":"uint256"},{"name":"bestSellPrice","type":"uint256","internalType":"uint256"}],"stateMutability":"view"},{"type":"function","name":"getEscrowBalance","inputs":[{"name":"user","type":"address","internalType":"address"},{"name":"tokenAddress","type":"address","internalType":"address"}],"outputs":[{"name":"","type":"uint256","internalType":"uint256"}],"stateMutability":"view"},{"type":"function","name":"getMarketData","inputs":[{"name":"tokenAddress","type":"address","internalType":"address"}],"outputs":[{"name":"","type":"tuple","internalType":"struct MarketplaceCore.MarketData","components":[{"name":"tokenAddress","type":"address","internalType":"address"},{"name":"lastPrice","type":"uint256","internalType":"uint256"},{"name":"volume24h","type":"uint256","internalType":"uint256"},{"name":"highPrice24h","type":"uint256","internalType":"uint256"},{"name":"lowPrice24h","type":"uint256","internalType":"uint256"},{"name":"totalVolume","type":"uint256","internalType":"uint256"},{"name":"totalTrades","type":"uint256","internalType":"uint256"},{"name":"lastTradeTime","type":"uint256","internalType":"uint256"}]}],"stateMutability":"view"},{"type":"function","name":"getOrder","inputs":[{"name":"orderId","type":"uint256","internalType":"uint256"}],"outputs":[{"name":"","type":"tuple","internalType":"struct MarketplaceCore.Order","components":[{"name":"orderId","type":"uint256","internalType":"uint256"},{"name":"orderType","type":"uint8","internalType":"enum MarketplaceCore.OrderType"},{"name":"tokenAddress","type":"address","internalType":"address"},{"name":"amount","type":"uint256","internalType":"uint256"},{"name":"price","type":"uint256","internalType":"uint256"},{"name":"filledAmount","type":"uint256","internalType":"uint256"},{"name":"creator","type":"address","internalType":"address"},{"name":"status","type":"uint8","internalType":"enum MarketplaceCore.OrderStatus"},{"name":"createdAt","type":"uint256","internalType":"uint256"},{"name":"expiresAt","type":"uint256","internalType":"uint256"},{"name":"minFillAmount","type":"uint256","internalType":"uint256"},{"name":"allowPartialFill","type":"bool","internalType":"bool"}]}],"stateMutability":"view"},{"type":"function","name":"getOrderBook","inputs":[{"name":"tokenAddress","type":"address","internalType":"address"},{"name":"depth","type":"uint256","internalType":"uint256"}],"outputs":[{"name":"buyOrderIds","type":"uint256[]","internalType":"uint256[]"},{"name":"buyPrices","type":"uint256[]","internalType":"uint256[]"},{"name":"buyAmounts","type":"uint256[]","internalType":"uint256[]"},{"name":"sellOrderIds","type":"uint256[]","internalType":"uint256[]"},{"name":"sellPrices","type":"uint256[]","internalType":"uint256[]"},{"name":"sellAmounts","type":"uint256[]","internalType":"uint256[]"}],"stateMutability":"view"},{"type":"function","name":"getOrderStatistics","inputs":[{"name":"tokenAddress","type":"address","internalType":"address"}],"outputs":[{"name":"totalOrders","type":"uint256","internalType":"uint256"},{"name":"activeOrders","type":"uint256","internalType":"uint256"},{"name":"totalTrades","type":"uint256","internalType":"uint256"},{"name":"totalVolume","type":"uint256","internalType":"uint256"}],"stateMutability":"view"},{"type":"function","name":"getRecentTrades","inputs":[{"name":"tokenAddress","type":"address","internalType":"address"},{"name":"limit","type":"uint256","internalType":"uint256"}],"outputs":[{"name":"","type":"uint256[]","internalType":"uint256[]"}],"stateMutability":"view"},{"type":"function","name":"getRoleAdmin","inputs":[{"name":"role","type":"bytes32","internalType":"bytes32"}],"outputs":[{"name":"","type":"bytes32","internalType":"bytes32"}],"stateMutability":"view"},{"type":"function","name":"getTokenOrders","inputs":[{"name":"tokenAddress","type":"address","internalType":"address"}],"outputs":[{"name":"","type":"uint256[]","internalType":"uint256[]"}],"stateMutability":"view"},{"type":"function","name":"getTrade","inputs":[{"name":"tradeId","type":"uint256","internalType":"uint256"}],"outputs":[{"name":"","type":"tuple","internalType":"struct MarketplaceCore.Trade","components":[{"name":"tradeId","type":"uint256","internalType":"uint256"},{"name":"buyOrderId","type":"uint256","internalType":"uint256"},{"name":"sellOrderId","type":"uint256","internalType":"uint256"},{"name":"buyer","type":"address","internalType":"address"},{"name":"seller","type":"address","internalType":"address"},{"name":"tokenAddress","type":"address","internalType":"address"},{"name":"amount","type":"uint256","internalType":"uint256"},{"name":"price","type":"uint256","internalType":"uint256"},{"name":"timestamp","type":"uint256","internalType":"uint256"},{"name":"totalCost","type":"uint256","internalType":"uint256"},{"name":"buyerFee","type":"uint256","internalType":"uint256"},{"name":"sellerFee","type":"uint256","internalType":"uint256"}]}],"stateMutability":"view"},{"type":"function","name":"getUserOrders","inputs":[{"name":"user","type":"address","internalType":"address"}],"outputs":[{"name":"","type":"uint256[]","internalType":"uint256[]"}],"stateMutability":"view"},{"type":"function","name":"getUserTrades","inputs":[{"name":"user","type":"address","internalType":"address"},{"name":"limit","type":"uint256","internalType":"uint256"}],"outputs":[{"name":"","type":"uint256[]","internalType":"uint256[]"}],"stateMutability":"view"},{"type":"function","name":"grantRole","inputs":[{"name":"role","type":"bytes32","internalType":"bytes32"},{"name":"account","type":"address","internalType":"address"}],"outputs":[],"stateMutability":"nonpayable"},{"type":"function","name":"hasRole","inputs":[{"name":"role","type":"bytes32","internalType":"bytes32"},{"name":"account","type":"address","internalType":"address"}],"outputs":[{"name":"","type":"bool","internalType":"bool"}],"stateMutability":"view"},{"type":"function","name":"initialize","inputs":[{"name":"admin","type":"address","internalType":"address"},{"name":"_complianceManager","type":"address","internalType":"address"},{"name":"_auditTrail","type":"address","internalType":"address"},{"name":"_feeManager","type":"address","internalType":"address"}],"outputs":[],"stateMutability":"nonpayable"},{"type":"function","name":"marketData","inputs":[{"name":"","type":"address","internalType":"address"}],"outputs":[{"name":"tokenAddress","type":"address","internalType":"address"},{"name":"lastPrice","type":"uint256","internalType":"uint256"},{"name":"volume24h","type":"uint256","internalType":"uint256"},{"name":"highPrice24h","type":"uint256","internalType":"uint256"},{"name":"lowPrice24h","type":"uint256","internalType":"uint256"},{"name":"totalVolume","type":"uint256","internalType":"uint256"},{"name":"totalTrades","type":"uint256","internalType":"uint256"},{"name":"lastTradeTime","type":"uint256","internalType":"uint256"}],"stateMutability":"view"},{"type":"function","name":"maxOrderDuration","inputs":[],"outputs":[{"name":"","type":"uint256","internalType":"uint256"}],"stateMutability":"view"},{"type":"function","name":"maxOrdersPerUser","inputs":[],"outputs":[{"name":"","type":"uint256","internalType":"uint256"}],"stateMutability":"view"},{"type":"function","name":"minOrderValue","inputs":[],"outputs":[{"name":"","type":"uint256","internalType":"uint256"}],"stateMutability":"view"},{"type":"function","name":"nextOrderId","inputs":[],"outputs":[{"name":"","type":"uint256","internalType":"uint256"}],"stateMutability":"view"},{"type":"function","name":"nextTradeId","inputs":[],"outputs":[{"name":"","type":"uint256","internalType":"uint256"}],"stateMutability":"view"},{"type":"function","name":"orders","inputs":[{"name":"","type":"uint256","internalType":"uint256"}],"outputs":[{"name":"orderId","type":"uint256","internalType":"uint256"},{"name":"orderType","type":"uint8","internalType":"enum MarketplaceCore.OrderType"},{"name":"tokenAddress","type":"address","internalType":"address"},{"name":"amount","type":"uint256","internalType":"uint256"},{"name":"price","type":"uint256","internalType":"uint256"},{"name":"filledAmount","type":"uint256","internalType":"uint256"},{"name":"creator","type":"address","internalType":"address"},{"name":"status","type":"uint8","internalType":"enum MarketplaceCore.OrderStatus"},{"name":"createdAt","type":"uint256","internalType":"uint256"},{"name":"expiresAt","type":"uint256","internalType":"uint256"},{"name":"minFillAmount","type":"uint256","internalType":"uint256"},{"name":"allowPartialFill","type":"bool","internalType":"bool"}],"stateMutability":"view"},{"type":"function","name":"pause","inputs":[],"outputs":[],"stateMutability":"nonpayable"},{"type":"function","name":"paused","inputs":[],"outputs":[{"name":"","type":"bool","internalType":"bool"}],"stateMutability":"view"},{"type":"function","name":"renounceRole","inputs":[{"name":"role","type":"bytes32","internalType":"bytes32"},{"name":"callerConfirmation","type":"address","internalType":"address"}],"outputs":[],"stateMutability":"nonpayable"},{"type":"function","name":"revokeRole","inputs":[{"name":"role","type":"bytes32","internalType":"bytes32"},{"name":"account","type":"address","internalType":"address"}],"outputs":[],"stateMutability":"nonpayable"},{"type":"function","name":"setOrderLimits","inputs":[{"name":"_minOrderValue","type":"uint256","internalType":"uint256"},{"name":"_maxOrdersPerUser","type":"uint256","internalType":"uint256"},{"name":"_defaultOrderDuration","type":"uint256","internalType":"uint256"},{"name":"_maxOrderDuration","type":"uint256","internalType":"uint256"}],"outputs":[],"stateMutability":"nonpayable"},{"type":"function","name":"supportsInterface","inputs":[{"name":"interfaceId","type":"bytes4","internalType":"bytes4"}],"outputs":[{"name":"","type":"bool","internalType":"bool"}],"stateMutability":"view"},{"type":"function","name":"tokenOrders","inputs":[{"name":"","type":"address","internalType":"address"},{"name":"","type":"uint256","internalType":"uint256"}],"outputs":[{"name":"","type":"uint256","internalType":"uint256"}],"stateMutability":"view"},{"type":"function","name":"trades","inputs":[{"name":"","type":"uint256","internalType":"uint256"}],"outputs":[{"name":"tradeId","type":"uint256","internalType":"uint256"},{"name":"buyOrderId","type":"uint256","internalType":"uint256"},{"name":"sellOrderId","type":"uint256","internalType":"uint256"},{"name":"buyer","type":"address","internalType":"address"},{"name":"seller","type":"address","internalType":"address"},{"name":"tokenAddress","type":"address","internalType":"address"},{"name":"amount","type":"uint256","internalType":"uint256"},{"name":"price","type":"uint256","internalType":"uint256"},{"name":"timestamp","type":"uint256","internalType":"uint256"},{"name":"totalCost","type":"uint256","internalType":"uint256"},{"name":"buyerFee","type":"uint256","internalType":"uint256"},{"name":"sellerFee","type":"uint256","internalType":"uint256"}],"stateMutability":"view"},{"type":"function","name":"unpause","inputs":[],"outputs":[],"stateMutability":"nonpayable"},{"type":"function","name":"userOrders","inputs":[{"name":"","type":"address","internalType":"address"},{"name":"","type":"uint256","internalType":"uint256"}],"outputs":[{"name":"","type":"uint256","internalType":"uint256"}],"stateMutability":"view"},{"type":"event","name":"Initialized","inputs":[{"name":"version","type":"uint64","indexed":false,"internalType":"uint64"}],"anonymous":false},{"type":"event","name":"MarketDataUpdated","inputs":[{"name":"tokenAddress","type":"address","indexed":true,"internalType":"address"},{"name":"price","type":"uint256","indexed":false,"internalType":"uint256"},{"name":"volume24h","type":"uint256","indexed":false,"internalType":"uint256"},{"name":"totalVolume","type":"uint256","indexed":false,"internalType":"uint256"}],"anonymous":false},{"type":"event","name":"OrderCancelled","inputs":[{"name":"orderId","type":"uint256","indexed":true,"internalType":"uint256"},{"name":"creator","type":"address","indexed":true,"internalType":"address"},{"name":"refundAmount","type":"uint256","indexed":false,"internalType":"uint256"}],"anonymous":false},{"type":"event","name":"OrderCreated","inputs":[{"name":"orderId","type":"uint256","indexed":true,"internalType":"uint256"},{"name":"creator","type":"address","indexed":true,"internalType":"address"},{"name":"orderType","type":"uint8","indexed":false,"internalType":"enum MarketplaceCore.OrderType"},{"name":"tokenAddress","type":"address","indexed":false,"internalType":"address"},{"name":"amount","type":"uint256","indexed":false,"internalType":"uint256"},{"name":"price","type":"uint256","indexed":false,"internalType":"uint256"}],"anonymous":false},{"type":"event","name":"OrderFilled","inputs":[{"name":"orderId","type":"uint256","indexed":true,"internalType":"uint256"},{"name":"filler","type":"address","indexed":true,"internalType":"address"},{"name":"amount","type":"uint256","indexed":false,"internalType":"uint256"},{"name":"totalCost","type":"uint256","indexed":false,"internalType":"uint256"},{"name":"isComplete","type":"bool","indexed":false,"internalType":"bool"}],"anonymous":false},{"type":"event","name":"Paused","inputs":[{"name":"account","type":"address","indexed":false,"internalType":"address"}],"anonymous":false},{"type":"event","name":"RoleAdminChanged","inputs":[{"name":"role","type":"bytes32","indexed":true,"internalType":"bytes32"},{"name":"previousAdminRole","type":"bytes32","indexed":true,"internalType":"bytes32"},{"name":"newAdminRole","type":"bytes32","indexed":true,"internalType":"bytes32"}],"anonymous":false},{"type":"event","name":"RoleGranted","inputs":[{"name":"role","type":"bytes32","indexed":true,"internalType":"bytes32"},{"name":"account","type":"address","indexed":true,"internalType":"address"},{"name":"sender","type":"address","indexed":true,"internalType":"address"}],"anonymous":false},{"type":"event","name":"RoleRevoked","inputs":[{"name":"role","type":"bytes32","indexed":true,"internalType":"bytes32"},{"name":"account","type":"address","indexed":true,"internalType":"address"},{"name":"sender","type":"address","indexed":true,"internalType":"address"}],"anonymous":false},{"type":"event","name":"TradeExecuted","inputs":[{"name":"tradeId","type":"uint256","indexed":true,"internalType":"uint256"},{"name":"buyer","type":"address","indexed":true,"internalType":"address"},{"name":"seller","type":"address","indexed":true,"internalType":"address"},{"name":"tokenAddress","type":"address","indexed":false,"internalType":"address"},{"name":"amount","type":"uint256","indexed":false,"internalType":"uint256"},{"name":"price","type":"uint256","indexed":false,"internalType":"uint256"}],"anonymous":false},{"type":"event","name":"Unpaused","inputs":[{"name":"account","type":"address","indexed":false,"internalType":"address"}],"anonymous":false},{"type":"error","name":"AccessControlBadConfirmation","inputs":[]},{"type":"error","name":"AccessControlUnauthorizedAccount","inputs":[{"name":"account","type":"address","internalType":"address"},{"name":"neededRole","type":"bytes32","internalType":"bytes32"}]},{"type":"error","name":"EnforcedPause","inputs":[]},{"type":"error","name":"ExpectedPause","inputs":[]},{"type":"error","name":"InvalidInitialization","inputs":[]},{"type":"error","name":"NotInitializing","inputs":[]},{"type":"error","name":"ReentrancyGuardReentrantCall","inputs":[]}],"bytecode":{"object":"0x6080806040523461003e576001600755600160085562278d0060095562ed4e00600a5566038d7ea4c68000600b556064600c556151c090816100438239f35b5f80fdfe608080604052600436101561001c575b50361561001a575f80fd5b005b5f905f3560e01c90816301ffc9a714614274575080631ba7a239146142575780631e6c598e146141a4578063248a9ca31461416b5780632a58b3301461414e5780632db25e0514613ff55780632f2ff15d14613fac57806336568abe14613f655780633f4ba83a14613ef057806343d9332d14613c62578063444c0fd614613bf0578063504a389f14613a21578063514fcac7146136985780635c975abb146136695780635d830dd11461364b5780635dddd9b1146135ae57806363c69f08146135275780636ff1c9bc1461336557806376f819ac146113e75780637bc7c8ab1461331d57806380d1ed41146130d5578063813ad083146130b75780638456cb5914613050578063856652e9146130085780638a48640914612e7757806391d1485414612e215780639e2c8ff114612e03578063a003c84514612de5578063a217fddf14612dc9578063a30c302d14612cc3578063a85c38ef14612bf9578063aba02c1f14612bd0578063b0ffb39614612b45578063b2a4eea014612b0a578063b4f5220214612905578063c37dfc5b14611bb5578063c53a490a146118c1578063d09ef2411461174d578063d0fb020314611724578063d547741f146116d6578063dcd1270e14611680578063ee632ea014611434578063f372111f146113e7578063f387e19f14610dfe578063f5b541a614610dc3578063f8c8765e14610c02578063fadbfa4f14610694578063fcef5d0614610379578063fe749155146102755763ff7bce230361000f5734610272578060031936011261027257600d546040516001600160a01b039091168152602090f35b80fd5b50346102725760208060031936011261035e5760043567ffffffffffffffff8082116103755736602383011215610375578160040135908111610375576024916024810190602436918460051b010111610371576102d1614c1c565b84805b8381106102df575080f35b6102ea818585614b93565b35825281865260076040832001544211610307575b6001016102d4565b610312818585614b93565b35303b1561036d57604051906343d9332d60e01b825260048201528281878183305af190811561036257839161034a575b50506102ff565b6103539061443f565b61035e57815f610343565b5080fd5b6040513d85823e3d90fd5b8280fd5b8480fd5b8380fd5b5034610272576040366003190112610272576103936142dd565b6001600160a01b03168152600360205260408120805460243591908083111561068d57915b6001820154908181111561068657505b6103d1836148f9565b926103db816148f9565b6103e4826148f9565b91865b8181106105935750506103f9836148f9565b92610403816148f9565b9661040d826148f9565b95815b83811061048d57610443896104898a61047b8e61046d8d61045f8e6104518f6040519b8c9b60c08d5260c08d01906142f3565b908b820360208d01526142f3565b9089820360408b01526142f3565b9087820360608901526142f3565b9085820360808701526142f3565b9083820360a08501526142f3565b0390f35b8061058261049f6001938486016143a0565b90549060031b1c80865285602052604086209060ff6009604051936104c38561440e565b80548552878101546104da8482166020880161457e565b888060a01b039060081c1660408601526002810154606086015260038101546080860152600481015460a086015261052b8360058301548a8060a01b03811660c089015260a01c1660e0870161458a565b6006810154610100860152600781015461012086015260088101546101408601520154161515610160830152610561848c614937565b526080810151610571848f614937565b5260a0606082015191015190614546565b61058c828b614937565b5201610410565b806106756105a3600193896143a0565b90549060031b1c808b528a60205260408b209060ff6009604051936105c78561440e565b80548552878101546105de8482166020880161457e565b888060a01b039060081c1660408601526002810154606086015260038101546080860152600481015460a086015261062f8360058301548a8060a01b03811660c089015260a01c1660e0870161458a565b6006810154610100860152600781015461012086015260088101546101408601520154161515610160830152610665848c614937565b5260808101516105718488614937565b61067f8287614937565b52016103e7565b90506103c8565b50816103b8565b5061069e366143cf565b6106ac959391949295614fdb565b600d54604051632a5bb1b760e11b8152336004820152869291602090829060249082906001600160a01b03165afa8015610bf7576106f1918a91610bc8575b506149d3565b6106fc841515614a0e565b610707831515614a4b565b33885260046020526107206040892054600c5411614ac9565b61072e600a54881115614b07565b6107388385614553565b95610747600b54881015614a87565b61075387341015614990565b15610bc0575b61076584831115614b47565b3388526006602052604088205f805260205260405f20610786878254614596565b905560075496610795886148d3565b6007558015610bad576107a89042614596565b915b604051926107b78461440e565b8884525f602085015260018060a01b03871660408501528560608501528460808501525f60a08501523360c08501525f60e0850152426101008501526101208401526101408301521515610160820152855f525f60205260405f20815181556001810160208301516002811015610b9957815460ff610100600160a81b03604087015160081b169216906affffffffffffffffffffff60a81b1617179055606082015160028201556080820151600382015560a082015160048201556005810160018060a01b0360c0840151166001600160601b0360a01b82541617815560e08301516005811015610b99576108ee936108b661016092600994614522565b6101008101516006850155610120810151600785015561014081015160088501550151151591019060ff801983541691151516179055565b335f5260046020526109038560405f20615005565b60018060a01b0383165f5260056020526109208560405f20615005565b600e54604051606085901b6bffffffffffffffffffffffff19166020820152603480820184905281525f93916001600160a01b031661095e8261448c565b803b15610b95576109c35f9291839260405194858094819363a66dc69360e01b83527f8e0c06f1beb4f4e95bca90fc1f4905dc82cb7d0eec5ccbebf1482c0eae52e705600484015233602484015289604484015260806064840152608483019061433c565b03925af18015610b8a57610b77575b506109e060405180946143b5565b6001600160a01b038416602084015260408301526060820152339084907f928c867c4226f0e395fb3bb20d2c6c8e3cb257e0e97c208a3b189b859cb0c56790608090a36001600160a01b03165f908152600360205260409020610a438382615005565b80545f1990818101908111610b6357805b610aa9575b505050803411610a6f575b602082604051908152f35b828080610a7d819434614546565b818115610aa0575b3390f115610a935781610a64565b50604051903d90823e3d90fd5b506108fc610a85565b610ab381846143a0565b90549060031b1c5f525f602052600360405f2001549082810191818311610b6357610ade83866143a0565b90549060031b1c5f525f602052600360405f200154105f14610b5d57610b52610b5792610b34610b0e84886143a0565b90549060031b1c91610b4c610b23828a6143a0565b90549060031b1c610b34878b6143a0565b90919082549060031b91821b915f19901b1916179055565b876143a0565b61492b565b80610a54565b50610a59565b634e487b7160e01b5f52601160045260245ffd5b610b8291935061443f565b5f915f6109d2565b6040513d5f823e3d90fd5b5f80fd5b634e487b7160e01b5f52602160045260245ffd5b50610bba60095442614596565b916107aa565b839150610759565b610bea915060203d602011610bf0575b610be281836144a8565b810190614566565b5f6106eb565b503d610bd8565b6040513d8b823e3d90fd5b503461027257608036600319011261027257610c1c6142dd565b610c246142c7565b6001600160a01b0391906044358381169190829003610b955760643591848316809303610b95577ff0c57e16840df040f15088dc2f81fe391c3923bec73e23a9662efc9c229c6a0094855460ff8160401c16159567ffffffffffffffff821680159081610dbb575b6001149081610db1575b159081610da8575b50610d965767ffffffffffffffff1982166001178855610d099187610d77575b50610cc76150c9565b610ccf6150c9565b610cd76150c9565b610cdf6150c9565b60015f8051602061516b83398151915255610cf981614ca5565b50610d0381614d2f565b50614ddc565b506001600160601b0360a01b921682600d541617600d5581600e541617600e55600f541617600f55610d39575080f35b68ff00000000000000001981541690557fc7f505b2f371ae2175ee4913f4499e1f2633a7b5936321eed1cdaeb6115181d2602060405160018152a180f35b68ffffffffffffffffff1916680100000000000000011788555f610cbe565b60405163f92ee8a960e01b8152600490fd5b9050155f610c9e565b303b159150610c96565b889150610c8c565b503461027257806003193601126102725760206040517f97667070c54ef182b0f5858b034beac1b6f3089aa2d3188bb1e8929f4fa9b9298152f35b503461027257610e0d366143cf565b909195610e18614fdb565b600d54604051632a5bb1b760e11b81523360048201528491602090829060249082906001600160a01b03165afa9081156103625790610e5d918491610bc857506149d3565b610e68861515614a0e565b610e73851515614a4b565b610e8a610e808688614553565b600b541115614a87565b3382526004602052610ea36040832054600c5411614ac9565b610eb1600a54891115614b07565b156113df575b610ec385841115614b47565b6040516370a0823160e01b81523360048201526020816024816001600160a01b038b165afa90811561132d5790869183916113aa575b501061136e57604051636eb1769f60e11b81523360048201523060248201526020816044816001600160a01b038b165afa801561132d5786908390611338575b610f459250101561494b565b6040516323b872dd60e01b815233600482015230602482015260448101869052602081606481856001600160a01b038c165af1801561132d57906040929161130e575b5033815260066020522060018060a01b0386165f5260205260405f20610faf858254614596565b905560075495610fbe876148d3565b60075580156112fb57610fd19042614596565b915b60405192610fe08461440e565b8784526001602085015260018060a01b03871660408501528560608501528460808501525f60a08501523360c08501525f60e0850152426101008501526101208401526101408301521515610160820152845f525f60205260405f20815181556001810160208301516002811015610b9957815460ff610100600160a81b03604087015160081b169216906affffffffffffffffffffff60a81b1617179055606082015160028201556080820151600382015560a082015160048201556005810160018060a01b0360c0840151166001600160601b0360a01b82541617815560e08301516005811015610b99576110e0936108b661016092600994614522565b335f5260046020526110f58460405f20615005565b60018060a01b0383165f5260056020526111128460405f20615005565b600e54604051606085901b6bffffffffffffffffffffffff1916602082015260348082018490528152906001600160a01b031661114e8261448c565b803b15610b95576111b35f9291839260405194858094819363a66dc69360e01b83527ffc4bfe97df281e16dbeabd79af1cb810260e8ba01416a64bb677f89282e03ee760048401523360248401528a604484015260806064840152608483019061433c565b03925af18015610b8a576112ec575b50604051916001835260018060a01b038416602084015260408301526060820152827f928c867c4226f0e395fb3bb20d2c6c8e3cb257e0e97c208a3b189b859cb0c56760803393a36001600160a01b03165f9081526003602052604090206001019061122e8183615005565b81545f1990818101908111610b6357805b61124f575b602083604051908152f35b61125981856143a0565b90549060031b1c5f525f602052600360405f20015482820190828211610b635761128382876143a0565b90549060031b1c5f525f602052600360405f200154115f146112e65790610b526112e092610b346112b484896143a0565b90549060031b1c916112da6112c9828b6143a0565b90549060031b1c610b34878c6143a0565b886143a0565b8061123f565b50611244565b6112f59061443f565b5f6111c2565b5061130860095442614596565b91610fd3565b6113269060203d602011610bf057610be281836144a8565b505f610f88565b6040513d84823e3d90fd5b50506020813d602011611366575b81611353602093836144a8565b81010312610b955785610f459151610f39565b3d9150611346565b60405162461bcd60e51b8152602060048201526014602482015273496e73756666696369656e742062616c616e636560601b6044820152606490fd5b9150506020813d6020116113d7575b816113c6602093836144a8565b81010312610b95578590515f610ef9565b3d91506113b9565b849250610eb7565b5034610272576040366003190112610272576114016142dd565b604061140b6142c7565b9260018060a01b03809316815260066020522091165f52602052602060405f2054604051908152f35b50346102725760403660031901126102725761144e6142dd565b600880546001600160a01b039390929091908416908260243560015b86811080611677575b1561153857808352846020600181526040852090604051906114948261440e565b82548252600183015490820152600282015460408201528a60038301541660608201528a6004830154166080820152610160600b8c600585015416938460a0850152600681015460c0850152600781015460e0850152898101546101008501526009810154610120850152600a810154610140850152015491015214611523575b61151e906148d3565b61146a565b9461153061151e916148d3565b959050611515565b50949295938581115f1461166e5750611550856148f9565b9381935f19810190811161165a575b600181101580611651575b1561163b578083528760206001815260408520906040519061158b8261440e565b8254825260018301549082015260028201546040820152846003830154166060820152846004830154166080820152610160600b86600585015416938460a0850152600681015460c0850152600781015460e0850152898101546101008501526009810154610120850152600a81015461014085015201549101521461161a575b6116159061492b565b61155f565b93611633818661162d611615948a614937565b526148d3565b94905061160c565b60405160208082528190610489908201896142f3565b5086851061156a565b634e487b7160e01b83526011600452602483fd5b611550906148f9565b50818610611473565b50346102725760403660031901126102725761169a6142dd565b6001600160a01b03168152600560205260408120805460243592908310156102725760206116c884846143a0565b90546040519160031b1c8152f35b5034610272576040366003190112610272576117206004356116f66142c7565b908084525f8051602061512b83398151915260205261171b6001604086200154614c77565b614ef2565b5080f35b5034610272578060031936011261027257600f546040516001600160a01b039091168152602090f35b50346102725760203660031901126102725760406101809161176d6144ca565b506004358152806020522060ff6009604051926117898461440e565b8054845260018101546117a18482166020870161457e565b60081c6001600160a01b0390811660408601526002820154606086015260038201546080860152600482015460a086810191909152600583015491821660c08701526117f491901c841660e0860161458a565b6006810154610100850152600781015461012085015260088101546101408501520154161515610160820152610160604051918051835261183d602082015160208501906143b5565b60018060a01b036040820151166040840152606081015160608401526080810151608084015260a081015160a084015260018060a01b0360c08201511660c084015261189160e082015160e08501906143c2565b61010081015161010084015261012081015161012084015261014081015161014084015201511515610160820152f35b50346102725760209081600319360112610272576001600160a01b0391826118e76142dd565b1682526005928382526040832092604051808585829754938481520190845285842092845b87828210611b9f57505050611923925003856144a8565b8092815b8551811015611a535761193a8187614937565b5183528282528660408420610160604051916119558361440e565b80548352600960018201549160ff926119728482168a880161457e565b8a600891821c16604087015260028201546060870152600382015460808701526119bb8460048401549860a0998a8a01528401548d811660c08a015260e08901991c168861458a565b600682015461010087015260078201546101208701528101546101408601520154161515910152805188811015611a3f5715908115611a17575b50611a03575b600101611927565b93611a0f6001916148d3565b9490506119fb565b90505187811015611a2b576004145f6119f5565b634e487b7160e01b84526021600452602484fd5b634e487b7160e01b85526021600452602485fd5b50858584611a60876148f9565b9285805b8451811015611b8c57611a778186614937565b51825281875260408220604051611a8d8161440e565b81548152610160600183015492600960ff91611aae8d84881690870161457e565b89600896871c166040860152600281015460608601526003810154608086015260048101549560a09687870152611af8848b8401548d811660c08a015260e08901991c168861458a565b600682015461010087015260078201546101208701528101546101408601520154161515910152805184811015611a2b5715908115611b64575b50611b40575b600101611a64565b96611b5c600191611b518a88614937565b5161162d828a614937565b979050611b38565b90505183811015611b785760041489611b32565b634e487b7160e01b83526021600452602483fd5b60405187815280610489818a01896142f3565b855484526001958601958a95509301920161190c565b50611bbf36614326565b90611bc8614fac565b611bd0614fdb565b80835282602052604083209060058201549060ff8260a01c166005811015612285576128cd5760078301544211612898576001600160a01b038216331461285b57600d546040516372331c7360e11b81526001600160a01b03848116600483015233602483015260448201879052909160209183916064918391165afa90811561245d57869161283c575b50156127fe57611c746002840154600485015490614546565b841515806127f4575b156127b957600984015460ff1661276b578403612726575b611ca3600384015485614553565b9060018060a01b03600f541660405163023531b960e41b8152602081600481855afa80156123f65788906126f3575b6020915060446040518094819363b0e3580f60e01b835288600484015260248301525afa9081156126e85787916126b6575b50611d128160011c82614546565b93600186015490600260ff831610156123345760ff8216600103612499575050611d4a611d428260011c85614596565b341015614990565b600185015460405163a9059cbb60e01b815233600482015260248101889052906020908290818b8160448101039260081c6001600160a01b03165af180156123f65761247a575b5060018060a01b03600586015416875260066020526040872060018060a01b03600187015460081c165f5260205260405f20611dce878254614546565b90558680808060018060a01b0360058a015416611deb8989614546565b90828215612471575bf11561245d5786611e088260011c85614596565b803411612439575b50505b80612362575b611e27866004870154614596565b8060048701556002860154111590815f146123485760058601805460ff60a01b1916600160a01b1790556001860154611e729060ff811690859060081c6001600160a01b0316614f71565b600186015494600260ff871610156123345760ff861661232d5783915b60ff87166001036123265784965b60ff81166001036123125733905b60ff811660010361230c5760058a01546001600160a01b03165b60038b0154926008549a611ed88c6148d3565b60085560405197611ee88961440e565b8c89526020890152604088015260018060a01b0316606087015260018060a01b0316608086015260018060a01b039060081c1660a08501528960c085015260e0840152426101008401528561012084015260011c6101408301526101608201528488526001602052600b61016060408a209280518455602081015160018501556040810151600285015560018060a01b036060820151166001600160601b0360a01b6003860154161760038501556004840160018060a01b036080830151166001600160601b0360a01b8254161790556005840160018060a01b0360a0830151166001600160601b0360a01b82541617905560c0810151600685015560e0810151600785015561010081015160088501556101208101516009850155610140810151600a850155015191015560018060a01b03600186015460081c16600386015481895260026020526040892090600782018054156122e9575b8160018401554290556005820161205a878254614596565b80915560068301805490600182018092116122d5575562015180420142116122c157906120f2839282600460027f6f949ad4bac60e9f8b03bc0f1091ab6c7da138d865ba48464b6e0cd7bd3c35039701956120b68c8854614596565b8097558260038201805482116122b9575b505001805482106122b1575b5050604051938493846040919493926060820195825260208201520152565b0390a2600e54604080516020810185905280820186905290815288916001600160a01b03166121208261448c565b803b1561036d576121849183918a8360405180968195829463a66dc69360e01b84527fbc05af9cb80399eb3f3beada0af02b7e518761fb592f4738fc5afcf52ad0cc086004850152336024850152604484015260806064840152608483019061433c565b03925af1801561132d57612299575b505060405192868452602084015260408301527f5a5f66e08f822f82593af22fe4b42f4d441139c02ba0380d19b163a31178437b60603393a360018201549160ff8316600281101561228557600114937f535a3364ab5a6b89c3162f88e225b790260a4ee959966cc459ce2a3548e31f339160609186156122715733965b156122685760058201546001600160a01b0316916003905b01546040805160089890981c6001600160a01b0390811689526020890193909352870152908116951693a460015f8051602061516b8339815191525580f35b60033392612229565b60058201546001600160a01b031696612211565b634e487b7160e01b86526021600452602486fd5b6122a29061443f565b6122ad57865f612193565b8680fd5b55825f6120d3565b55825f6120c7565b634e487b7160e01b8b52601160045260248bfd5b634e487b7160e01b8d52601160045260248dfd5b836001600160601b0360a01b845416178355816003840155816004840155612042565b33611ec5565b60058901546001600160a01b031690611eab565b8996611e9d565b8891611e8f565b634e487b7160e01b89526021600452602489fd5b60058601805460ff60a01b1916600160a21b179055611e72565b600f5460405163023531b960e41b8152906001600160a01b0316602082600481845afa8015610bf75783928a91612401575b50906044602092604051948593849263da76460960e01b845260048401523360248401525af180156123f6576123cb575b50611e19565b602090813d83116123ef575b6123e181836144a8565b81010312610b95575f6123c5565b503d6123d7565b6040513d8a823e3d90fd5b919250506020813d602011612431575b8161241e602093836144a8565b81010312610b9557518291906044612394565b3d9150612411565b8180612446819334614546565b818115612468575b3390f11561245d57865f611e10565b6040513d88823e3d90fd5b506108fc61244e565b506108fc611df4565b6124929060203d602011610bf057610be281836144a8565b505f611d91565b6040516370a0823160e01b8152336004820152602081602481600887901c6001600160a01b03165afa801561263b5789918b91612681575b501061264657604051636eb1769f60e11b8152336004820152306024820152906020826044816001600160a01b03600888901c165afa801561263b5789928b91612603575b5092829161252b60209461256896101561494b565b6040516323b872dd60e01b81523360048201526001600160a01b0390911660248201526044810192909252909283919082908c9082906064820190565b039260081c6001600160a01b03165af180156123f6576125e4575b5060018060a01b0360058601541687526006602052604087205f805260205260405f206125b1848254614546565b9055868080806125c18888614546565b8181156125db575b3390f1611e13576040513d88823e3d90fd5b506108fc6125c9565b6125fc9060203d602011610bf057610be281836144a8565b505f612583565b919250506020813d602011612633575b81612620602093836144a8565b81010312610b9557518891906020612516565b3d9150612613565b6040513d8c823e3d90fd5b60405162461bcd60e51b8152602060048201526013602482015272496e73756666696369656e7420746f6b656e7360681b6044820152606490fd5b9150506020813d6020116126ae575b8161269d602093836144a8565b81010312610b95578890515f6124d1565b3d9150612690565b90506020813d6020116126e0575b816126d1602093836144a8565b81010312610b9557515f611d04565b3d91506126c4565b6040513d89823e3d90fd5b506020813d60201161271e575b8161270d602093836144a8565b81010312610b955760209051611cd2565b3d9150612700565b60405162461bcd60e51b815260206004820152601860248201527f4d7573742066696c6c20636f6d706c657465206f7264657200000000000000006044820152606490fd5b506008830154841015611c955760405162461bcd60e51b815260206004820152601960248201527810995b1bddc81b5a5b9a5b5d5b48199a5b1b08185b5bdd5b9d603a1b6044820152606490fd5b60405162461bcd60e51b8152602060048201526013602482015272125b9d985b1a5908199a5b1b08185b5bdd5b9d606a1b6044820152606490fd5b5080851115611c7d565b60405162461bcd60e51b8152602060048201526016602482015275151c985b9cd9995c881b9bdd0818dbdb5c1b1a585b9d60521b6044820152606490fd5b612855915060203d602011610bf057610be281836144a8565b5f611c5b565b60405162461bcd60e51b815260206004820152601560248201527421b0b73737ba103334b6361037bbb71037b93232b960591b6044820152606490fd5b60405162461bcd60e51b815260206004820152600d60248201526c13dc99195c88195e1c1a5c9959609a1b6044820152606490fd5b60405162461bcd60e51b815260206004820152601060248201526f4f72646572206e6f742061637469766560801b6044820152606490fd5b50346102725760208060031936011261035e576001600160a01b03908161292a6142dd565b1691828452600593600583526040812092604051808583829754938481520190855283852092855b85828210612af457505050612969925003856144a8565b8193825b8151811015612a72576129808183614937565b51845283835287604085206101606040519161299b8361440e565b80548352600960018201549160ff926129b88482168b880161457e565b8b600891821c1660408701526002820154606087015260038201546080870152612a02848d60048501549960a09a8b8b015285015490811660c08a015260e08901991c168861458a565b6006820154610100870152600782015461012087015281015461014086015201541615159101528051898110156122855715908115612a5e575b50612a4a575b60010161296d565b94612a566001916148d3565b959050612a42565b90505188811015611a3f576004145f612a3c565b50846040608095939488815260028652209160405193612a9185614453565b835416845260018301548585015260028301546040850152600383015460608501526004830154868501526005830154938460a082015260e060076006860154958660c08501520154910152519360405194855284015260408301526060820152f35b855484526001958601958a955093019201612952565b503461027257806003193601126102725760206040517f4e9617a5e2ee64b49ea666eb545a00a6f26df1c8ca519835eb93aac8d78894928152f35b503461027257602036600319011261027257610100906001600160a01b039060409082612b706142dd565b1681526002602052209081541690600181015490600281015460038201546004830154906005840154926007600686015495015495604051978852602088015260408701526060860152608085015260a084015260c083015260e0820152f35b5034610272578060031936011261027257600e546040516001600160a01b039091168152602090f35b5034610272576020366003190112610272576040610180916004358152806020522080549060018101549060018060a01b03600282015490612ca76003840154916004850154906005860154916006870154946007880154968360ff600960088c01549b0154169a612c7860206040519e8f9081520160ff83166143b5565b60081c1660408c015260608b015260808a015260a0890152811660c088015260ff60e088019160a01c166143c2565b6101008501526101208401526101408301521515610160820152f35b503461027257602036600319011261027257610100906040612ce36142dd565b918060e08351612cf281614453565b82815282602082015282858201528260608201528260808201528260a08201528260c0820152015260018060a01b0380931681526002602052209060405190612d3a82614453565b825416918282526001810154602083019081526002820154604084019081526003830154606085019081526004840154916080860192835260058501549360a0870194855260e0600760068801549760c08a01988952015497019687526040519788525160208801525160408701525160608601525160808501525160a08401525160c08301525160e0820152f35b5034610272578060031936011261027257602090604051908152f35b50346102725780600319360112610272576020600954604051908152f35b50346102725780600319360112610272576020600b54604051908152f35b5034610272576040366003190112610272576040612e3d6142c7565b9160043581525f8051602061512b833981519152602052209060018060a01b03165f52602052602060ff60405f2054166040519015158152f35b503461027257608036600319011261027257606435604435602435600435612e9d614ba3565b8015612fc35781151580612fb7575b15612f7d57610e1083101580612f6f575b15612f2a578284101580612f1c575b15612ee057600b55600c55600955600a5580f35b60405162461bcd60e51b815260206004820152601460248201527324b73b30b634b21036b0bc10323ab930ba34b7b760611b6044820152606490fd5b506301e13380841115612ecc565b60405162461bcd60e51b815260206004820152601860248201527f496e76616c69642064656661756c74206475726174696f6e00000000000000006044820152606490fd5b506301e13380831115612ebd565b60405162461bcd60e51b8152602060048201526012602482015271496e76616c6964206d6178206f726465727360701b6044820152606490fd5b506103e8821115612eac565b60405162461bcd60e51b815260206004820152601760248201527f496e76616c6964206d696e206f726465722076616c75650000000000000000006044820152606490fd5b5034610272576040366003190112610272576130226142dd565b6001600160a01b03168152600460205260408120805460243592908310156102725760206116c884846143a0565b5034610272578060031936011261027257613069614ba3565b613071614fdb565b5f8051602061514b833981519152600160ff198254161790557f62e78cea01bee320cd4e420270b5ea74000d11b0c9f74754ebdbfc544b05a2586020604051338152a180f35b50346102725780600319360112610272576020600854604051908152f35b5034610272576040366003190112610272576130ef6142dd565b600880549183916001600160a01b039182169060243560015b86811080613314575b156131ed57808852602060018152848060408b2092604051906131338261440e565b84548252600185015490820152600284015460408201528860038501541690816060820152610160600b8b600488015416968760808501528c60058201541660a0850152600681015460c0850152600781015460e08501528a8101546101008501526009810154610120850152600a8101546101408501520154910152149182156131e3575b50506131ce575b6131c9906148d3565b613108565b946131db6131c9916148d3565b9590506131c0565b149050845f6131b9565b50949295936131fb906148f9565b9380935f198101908111613300575b6001811015806132f7575b1561163b578082528784806020600181526040862090604051906132388261440e565b8254825260018301549082015260028201546040820152610160600b8660038501541693846060850152876004820154169788608086015260058201541660a0850152600681015460c0850152600781015460e08501528a8101546101008501526009810154610120850152600a8101546101408501520154910152149182156132ed575b50506132d2575b6132cd9061492b565b61320a565b936132e5818661162d6132cd948a614937565b9490506132c4565b149050845f6132bd565b50868510613215565b634e487b7160e01b82526011600452602482fd5b50818610613111565b50346102725760603660031901126102725761334661333a6142c7565b604435906004356145a3565b906104896040519283921515835260406020840152604083019061433c565b50346102725760208060031936011261035e576133806142dd565b5f80525f8051602061512b833981519152825260405f20335f52825260ff60405f20541615613509576001600160a01b0316806134165750479081156133dd575081808080933382f1156133d15780f35b604051903d90823e3d90fd5b6064906040519062461bcd60e51b8252600482015260126024820152714e6f2045544820746f20776974686472617760701b6044820152fd5b6040516370a0823160e01b81523060048201528281602481855afa9081156134fe5784916134d1575b5080156134945760405163a9059cbb60e01b815233600482015260248101919091529082908290604490829087905af180156103625761347e57505080f35b8161172092903d10610bf057610be281836144a8565b60405162461bcd60e51b81526004810184905260156024820152744e6f20746f6b656e7320746f20776974686472617760581b6044820152606490fd5b90508281813d83116134f7575b6134e881836144a8565b81010312610b9557515f61343f565b503d6134de565b6040513d86823e3d90fd5b60405163e2517d3f60e01b81523360048201525f6024820152604490fd5b50346102725760208060031936011261035e576001600160a01b0361354a6142dd565b168252600481526040822091604051809384918482549182815201918452848420935b8582821061359857505050613584925003836144a8565b6104896040519282849384528301906142f3565b855484526001958601958895509301920161356d565b5034610272576020366003190112610272576040906135cb6142dd565b6001600160a01b031681526003602052818120805482918291613626575b6001018054613601575b505082519182526020820152f35b6003925090613610859261437a565b905490841b1c8152806020522001545f806135f3565b92506136318361437a565b9054600391821b1c825260208290528482200154926135e9565b50346102725780600319360112610272576020600c54604051908152f35b5034610272578060031936011261027257602060ff5f8051602061514b83398151915254166040519015158152f35b5034610b9557602080600319360112610b95576004356136b6614fac565b5f818152808352604090206005810180546001600160a01b0380821695939092913387036139e85760ff8160a01c166005811015610b995780159081156139dd575b50156139a25760ff60a01b1916600160a11b1782556002810154600482015461372091614546565b5f96600183019260ff8454166002811015610b995760010361390f5750508061385c575b5061375c91505b54848360ff83169260081c16614f71565b600e541660405190848383015282825261377582614470565b803b15610b95576137da5f9291839260405194858094819363a66dc69360e01b83527f69d3d039f79879d241ea815c12015cedeca0cfad0556cdf56843bd9afd23e93060048401523360248401528a604484015260806064840152608483019061433c565b03925af18015610b8a57613829575b507fc4058ebc534b64ecb27b2d4eaa1904f98997ec18ebe6ada4117593dde89478cc906040519384523393a360015f8051602061516b8339815191525580f35b61383491945061443f565b5f927fc4058ebc534b64ecb27b2d4eaa1904f98997ec18ebe6ada4117593dde89478cc6137e9565b8154835460405163a9059cbb60e01b81529086166001600160a01b0316600482015260248101839052939086908590815f898260448101039360081c165af1908115610b8a5761375c9486926138f2575b50541690815f52600686526138d760405f209186855460081c1692835f52885260405f2054614546565b915f526006865260405f20905f52855260405f20555f613744565b61390890883d8a11610bf057610be281836144a8565b505f6138ad565b8598509160036139259293959495015490614553565b9687928315928315613940575b505050505061375c9061374b565b935f9493859493859493848695865260068c52604086208680528c5261396a856040882054614546565b90865260068c52604086208680528c5260408620555416908390613999575bf115610b8a57845f838180613932565b506108fc613989565b60405162461bcd60e51b815260048101869052601360248201527221b0b73737ba1031b0b731b2b61037b93232b960691b6044820152606490fd5b60049150145f6136f8565b60405162461bcd60e51b81526004810186905260116024820152702737ba1037b93232b91031b932b0ba37b960791b6044820152606490fd5b34610b9557613a2f36614326565b905f526020905f825260405f2090613af060405191613a4d8361440e565b8354835260018401549385840193613a6860ff87168661457e565b60018060a01b03809660081c1660408201526002820154606082015261016060ff600960038501549460808501958652600481015460a0860152613ac08360058301548c811660c089015260a01c1660e0870161458a565b60068101546101008601526007810154610120860152600881015461014086015201541615159101525190614553565b91600f541660405163023531b960e41b81528481600481855afa8015610b8a5785915f91613bc1575b5060446040518094819363b0e3580f60e01b835288600484015260248301525afa938415610b8a575f94613b91575b5050516002811015610b9957600103613b8857610489613b6b8360011c83614596565b604051938493846040919493926060820195825260208201520152565b6104895f613b6b565b9080929450813d8311613bba575b613ba981836144a8565b81010312610b955751918380613b48565b503d613b9f565b82819392503d8311613be9575b613bd881836144a8565b81010312610b955784905186613b19565b503d613bce565b34610b9557602080600319360112610b95576001600160a01b03613c126142dd565b165f526005815260405f20906040518083838295549384815201905f52835f20925f5b85828210613c4c57505050613584925003836144a8565b8554845260019586019588955093019201613c35565b34610b9557602080600319360112610b9557600435613c7f614c1c565b805f525f825260405f206007810154421115613eb757600581019283549060ff8260a01c166005811015610b99578015908115613eac575b5015613e775760ff60a01b198216600360a01b17855560028301546004840154613ce091614546565b91600184019360ff8554166002811015610b99576001811480613e6e575b15613dc95750508354865460405163a9059cbb60e01b81526001600160a01b0391821660048201526024810186905290939250908290829060449082905f9060081c88165af18015610b8a5761001a97613d7f928592613dac575b50541693845f526006835260405f2093865460081c1693845f52835260405f2054614546565b925f526006815260405f20915f525260405f20555b5460ff8116919060081c6001600160a01b0316614f71565b613dc290853d8711610bf057610be281836144a8565b5089613d59565b969294969391931580613e65575b613dea575b505050505061001a91613d94565b935f9493859493613e0386959460038796015490614553565b9260018060a01b038093169081865260068152604086208680528152613e2d856040882054614546565b9186526006815260408620908680525260408520555416828215613e5c575bf115610b8a578280808080613ddc565b506108fc613e4c565b50811515613dd7565b50841515613cfe565b6064906040519062461bcd60e51b82526004820152600e60248201526d496e76616c69642073746174757360901b6044820152fd5b600491501486613cb7565b60405162461bcd60e51b815260048101849052601160248201527013dc99195c881b9bdd08195e1c1a5c9959607a1b6044820152606490fd5b34610b95575f366003190112610b9557613f08614ba3565b5f8051602061514b833981519152805460ff811615613f535760ff191690557f5db9ee0a495bf2e6ff9c91a7834c1ba4fdd244a5e8aa4e537bd38aeae4b073aa6020604051338152a1005b604051638dfc202b60e01b8152600490fd5b34610b95576040366003190112610b9557613f7e6142c7565b336001600160a01b03821603613f9a5761001a90600435614ef2565b60405163334bd91960e11b8152600490fd5b34610b95576040366003190112610b955761001a600435613fcb6142c7565b90805f525f8051602061512b833981519152602052613ff0600160405f200154614c77565b614e82565b34610b95576020366003190112610b955761400e6144ca565b506004355f52600160205261018060405f2061016060405161402f8161440e565b600b835493848352600181015460208401526002810154604084015260018060a01b03600382015416606084015260018060a01b03600482015416608084015260018060a01b0360058201541660a0840152600681015460c0840152600781015460e084015260088101546101008401526009810154610120840152600a810154610140840152015482820152604051928352602081015160208401526040810151604084015260018060a01b03606082015116606084015260018060a01b03608082015116608084015260018060a01b0360a08201511660a084015260c081015160c084015260e081015160e08401526101008101516101008401526101208101516101208401526101408101516101408401520151610160820152f35b34610b95575f366003190112610b95576020600754604051908152f35b34610b95576020366003190112610b95576004355f525f8051602061512b8339815191526020526020600160405f200154604051908152f35b34610b95576020366003190112610b95576004355f52600160205261018060405f20805490600181015490600281015460018060a01b0380600384015416908060048501541690600585015416600685015490600786015492600887015494600988015496600b600a8a0154990154996040519b8c5260208c015260408b015260608a0152608089015260a088015260c087015260e0860152610100850152610120840152610140830152610160820152f35b34610b95575f366003190112610b95576020600a54604051908152f35b34610b95576020366003190112610b95576004359063ffffffff60e01b8216809203610b9557602091637965db0b60e01b81149081156142b6575b5015158152f35b6301ffc9a760e01b149050836142af565b602435906001600160a01b0382168203610b9557565b600435906001600160a01b0382168203610b9557565b9081518082526020808093019301915f5b828110614312575050505090565b835185529381019392810192600101614304565b6040906003190112610b95576004359060243590565b91908251928382525f5b848110614366575050825f602080949584010152601f8019910116010190565b602081830181015184830182015201614346565b80541561438c575f5260205f20905f90565b634e487b7160e01b5f52603260045260245ffd5b805482101561438c575f5260205f2001905f90565b906002821015610b995752565b906005821015610b995752565b60c0906003190112610b95576004356001600160a01b0381168103610b9557906024359060443590606435906084359060a4358015158103610b955790565b610180810190811067ffffffffffffffff82111761442b57604052565b634e487b7160e01b5f52604160045260245ffd5b67ffffffffffffffff811161442b57604052565b610100810190811067ffffffffffffffff82111761442b57604052565b6040810190811067ffffffffffffffff82111761442b57604052565b6060810190811067ffffffffffffffff82111761442b57604052565b90601f8019910116810190811067ffffffffffffffff82111761442b57604052565b604051906144d78261440e565b5f610160838281528260208201528260408201528260608201528260808201528260a08201528260c08201528260e08201528261010082015282610120820152826101408201520152565b906005811015610b9957815460ff60a01b191660a09190911b60ff60a01b16179055565b91908203918211610b6357565b81810292918115918404141715610b6357565b90816020910312610b9557518015158103610b955790565b6002821015610b995752565b6005821015610b995752565b91908201809211610b6357565b929190925f526020905f8252604093845f20908551906145c28261440e565b8254825260018301546145da60ff821687850161457e565b60018060a01b03809160081c1688840152600284015491606084019283526003850154608085015260048501549160a0850192835260058601549060c08601818316815261463260ff60e089019460a01c168461458a565b6006880154610100880152600788015492610120880193845261016060ff600960088c01549b6101408c019c8d520154169801971515885251926005841015610b99578a9361489e5751421161486d57818151168285161461483457600d5490518c516372331c7360e11b81526001600160a01b0391841682166004820152941660248501526044840189905283911681806064810103915afa90811561482a575f9161480d575b50156147d7576146ed9151905190614546565b908184116147a5575115908161479a575b5061476057511161472c5760019280519182019082821067ffffffffffffffff83111761442b57525f815290565b7810995b1bddc81b5a5b9a5b5d5b48199a5b1b08185b5bdd5b9d603a1b5f93519161475683614470565b6019835282015290565b50507f5061727469616c2066696c6c206e6f7420616c6c6f77656400000000000000005f93519161479083614470565b6018835282015290565b90508214155f6146fe565b505050507f416d6f756e74206578636565647320617661696c61626c6500000000000000005f93519161479083614470565b505050505075151c985b9cd9995c881b9bdd0818dbdb5c1b1a585b9d60521b5f93519161480383614470565b6016835282015290565b6148249150873d8911610bf057610be281836144a8565b5f6146da565b89513d5f823e3d90fd5b5050505050505050507421b0b73737ba103334b6361037bbb71037b93232b960591b5f93519161486383614470565b6015835282015290565b5050505050505050506c13dc99195c88195e1c1a5c9959609a1b5f93519161489483614470565b600d835282015290565b505050505050505050506f4f72646572206e6f742061637469766560801b5f9351916148c983614470565b6010835282015290565b5f198114610b635760010190565b67ffffffffffffffff811161442b5760051b60200190565b90614903826148e1565b61491060405191826144a8565b8281528092614921601f19916148e1565b0190602036910137565b8015610b63575f190190565b805182101561438c5760209160051b010190565b1561495257565b60405162461bcd60e51b8152602060048201526016602482015275496e73756666696369656e7420616c6c6f77616e636560501b6044820152606490fd5b1561499757565b60405162461bcd60e51b8152602060048201526014602482015273125b9cdd59999a58da595b9d081c185e5b595b9d60621b6044820152606490fd5b156149da57565b60405162461bcd60e51b815260206004820152600c60248201526b12d650c81c995c5d5a5c995960a21b6044820152606490fd5b15614a1557565b60405162461bcd60e51b815260206004820152600e60248201526d125b9d985b1a5908185b5bdd5b9d60921b6044820152606490fd5b15614a5257565b60405162461bcd60e51b815260206004820152600d60248201526c496e76616c696420707269636560981b6044820152606490fd5b15614a8e57565b60405162461bcd60e51b81526020600482015260136024820152724f726465722076616c756520746f6f206c6f7760681b6044820152606490fd5b15614ad057565b60405162461bcd60e51b815260206004820152600f60248201526e546f6f206d616e79206f726465727360881b6044820152606490fd5b15614b0e57565b60405162461bcd60e51b81526020600482015260116024820152704475726174696f6e20746f6f206c6f6e6760781b6044820152606490fd5b15614b4e57565b60405162461bcd60e51b815260206004820152601860248201527f4d696e2066696c6c20616d6f756e7420746f6f206869676800000000000000006044820152606490fd5b919081101561438c5760051b0190565b335f9081527f9db0d9c8b98062c686416d9f185c3f8330df6b3f565a32c50da37faaafa0f32760205260409020547f4e9617a5e2ee64b49ea666eb545a00a6f26df1c8ca519835eb93aac8d78894929060ff1615614bfe5750565b6044906040519063e2517d3f60e01b82523360048301526024820152fd5b335f9081527f448256db8f8fb95ee3eaaf89c1051414494e85cebb6057fcf996cc3d0ccfb45660205260409020547f97667070c54ef182b0f5858b034beac1b6f3089aa2d3188bb1e8929f4fa9b9299060ff1615614bfe5750565b805f525f8051602061512b83398151915260205260405f20335f5260205260ff60405f20541615614bfe5750565b6001600160a01b03165f8181527fb7db2dd08fcb62d0c9e08c51941cae53c267786a0b75803fb7960902fc8ef97d60205260409020545f8051602061512b8339815191529060ff16614d29575f805260205260405f20815f5260205260405f20600160ff1982541617905533905f5f8051602061510b8339815191528180a4600190565b50505f90565b6001600160a01b03165f8181527f9db0d9c8b98062c686416d9f185c3f8330df6b3f565a32c50da37faaafa0f32760205260409020547f4e9617a5e2ee64b49ea666eb545a00a6f26df1c8ca519835eb93aac8d788949291905f8051602061512b8339815191529060ff16614dd557825f5260205260405f20815f5260205260405f20600160ff1982541617905533915f8051602061510b8339815191525f80a4600190565b5050505f90565b6001600160a01b03165f8181527f448256db8f8fb95ee3eaaf89c1051414494e85cebb6057fcf996cc3d0ccfb45660205260409020547f97667070c54ef182b0f5858b034beac1b6f3089aa2d3188bb1e8929f4fa9b92991905f8051602061512b8339815191529060ff16614dd557825f5260205260405f20815f5260205260405f20600160ff1982541617905533915f8051602061510b8339815191525f80a4600190565b90815f525f8051602061512b8339815191528060205260405f209160018060a01b031691825f5260205260ff60405f205416155f14614dd557825f5260205260405f20815f5260205260405f20600160ff1982541617905533915f8051602061510b8339815191525f80a4600190565b90815f525f8051602061512b8339815191528060205260405f209160018060a01b031691825f5260205260ff60405f2054165f14614dd557825f5260205260405f20815f5260205260405f2060ff19815416905533917ff6391f5c32d9c69d2a47ea670b442974b53935d1edc7fd64eb21e047a839171b5f80a4600190565b6001600160a01b03165f908152600360205260409020916002811015610b9957614fa057614f9e9161502d565b565b6001614f9e920161502d565b5f8051602061516b8339815191526002815414614fc95760029055565b604051633ee5aeb560e01b8152600490fd5b60ff5f8051602061514b8339815191525416614ff357565b60405163d93c066560e01b8152600490fd5b908154916801000000000000000083101561442b5782610b34916001614f9e950181556143a0565b905f5b8254808210156150c357829061504683866143a0565b929054600393841b1c1461505e575050600101615030565b909392505f1991828201918211610b6357610b3461507f61508c93866143a0565b905490871b1c91856143a0565b815480156150af578101926150a184846143a0565b81939154921b1b1916905555565b634e487b7160e01b5f52603160045260245ffd5b50505050565b60ff7ff0c57e16840df040f15088dc2f81fe391c3923bec73e23a9662efc9c229c6a005460401c16156150f857565b604051631afcd79f60e31b8152600490fdfe2f8788117e7eff1d82e926ec794901d17c78024a50270940304540a733656f0d02dd7bc7dec4dceedda775e58dd541e08a116c6c53815c0bd028192f7b626800cd5ed15c6e187e77e9aee88184c21f4f2182ab5827cb3b7e07fbedcd63f033009b779b17422d0df92223018b32b4d1fa46e071723d6817e2486d003becc55f00a2646970667358221220b8c83bc0583e54745edefb08858c0d0354bbc4653780ee72849e43fb99739cf564736f6c63430008160033","linkReferences":{}},"methodIdentifiers":{"DEFAULT_ADMIN_ROLE()":"a217fddf","MARKETPLACE_ADMIN_ROLE()":"b2a4eea0","OPERATOR_ROLE()":"f5b541a6","auditTrail()":"aba02c1f","batchExpireOrders(uint256[])":"fe749155","canFillOrder(uint256,address,uint256)":"7bc7c8ab","cancelOrder(uint256)":"514fcac7","complianceManager()":"ff7bce23","createBuyOrder(address,uint256,uint256,uint256,uint256,bool)":"fadbfa4f","createSellOrder(address,uint256,uint256,uint256,uint256,bool)":"f387e19f","defaultOrderDuration()":"a003c845","emergencyWithdraw(address)":"6ff1c9bc","escrowBalances(address,address)":"76f819ac","estimateFillCost(uint256,uint256)":"504a389f","expireOrder(uint256)":"43d9332d","feeManager()":"d0fb0203","fillOrder(uint256,uint256)":"c37dfc5b","getActiveOrders(address)":"c53a490a","getBestPrices(address)":"5dddd9b1","getEscrowBalance(address,address)":"f372111f","getMarketData(address)":"a30c302d","getOrder(uint256)":"d09ef241","getOrderBook(address,uint256)":"fcef5d06","getOrderStatistics(address)":"b4f52202","getRecentTrades(address,uint256)":"ee632ea0","getRoleAdmin(bytes32)":"248a9ca3","getTokenOrders(address)":"444c0fd6","getTrade(uint256)":"2db25e05","getUserOrders(address)":"63c69f08","getUserTrades(address,uint256)":"80d1ed41","grantRole(bytes32,address)":"2f2ff15d","hasRole(bytes32,address)":"91d14854","initialize(address,address,address,address)":"f8c8765e","marketData(address)":"b0ffb396","maxOrderDuration()":"1ba7a239","maxOrdersPerUser()":"5d830dd1","minOrderValue()":"9e2c8ff1","nextOrderId()":"2a58b330","nextTradeId()":"813ad083","orders(uint256)":"a85c38ef","pause()":"8456cb59","paused()":"5c975abb","renounceRole(bytes32,address)":"36568abe","revokeRole(bytes32,address)":"d547741f","setOrderLimits(uint256,uint256,uint256,uint256)":"8a486409","supportsInterface(bytes4)":"01ffc9a7","tokenOrders(address,uint256)":"dcd1270e","trades(uint256)":"1e6c598e","unpause()":"3f4ba83a","userOrders(address,uint256)":"856652e9"},"id":7}