{"abi":[{"type":"constructor","inputs":[],"stateMutability":"nonpayable"},{"type":"function","name":"getPropertyValuationEstimate","inputs":[{"name":"zipCode","type":"string","internalType":"string"},{"name":"squareFootage","type":"uint256","internalType":"uint256"}],"outputs":[{"name":"estimatedValue","type":"uint256","internalType":"uint256"}],"stateMutability":"view"},{"type":"function","name":"marketPrices","inputs":[{"name":"","type":"string","internalType":"string"}],"outputs":[{"name":"avgPricePerSqFt","type":"uint256","internalType":"uint256"},{"name":"lastUpdated","type":"uint256","internalType":"uint256"},{"name":"monthlyChange","type":"int256","internalType":"int256"}],"stateMutability":"view"},{"type":"function","name":"priceFeeds","inputs":[{"name":"","type":"string","internalType":"string"}],"outputs":[{"name":"","type":"address","internalType":"contract AggregatorV3Interface"}],"stateMutability":"view"},{"type":"function","name":"updateMarketData","inputs":[{"name":"zipCode","type":"string","internalType":"string"}],"outputs":[],"stateMutability":"nonpayable"}],"bytecode":{"object":"0x60808060405234610043576a1554d7d390551253d3905360aa1b81526001600b820152602b902080546001600160a01b031916905560405161058a90816100488239f35b5f80fdfe6080604090808252600480361015610015575f80fd5b5f3560e01c9182635d1884cb1461023557508163a9751d391461010357508063c7544fd6146100a45763cb8ae86c1461004c575f80fd5b346100a05760209061005d36610420565b8151908051905f5b82811061008f5750506001908201908152819003830190205490516001600160a01b039091168152f35b818101860151848201528501610065565b5f80fd5b50346100a0576100b336610420565b9080518251925f5b8481106100f057505060208160609481015f815203019020805491600260018301549201549181519384526020840152820152f35b80602080928401015181850152016100bb565b82346100a057806003193601126100a057813567ffffffffffffffff81116100a057610134602091369085016103a0565b9190828451938492833781015f815203019020908051610153816103ce565b82549081815260026001850154946020830195865201549183820192835215610201576101849060243590516104a7565b925f825113610198575b6020848451908152f35b9291925142034281116101ee5760646101be6127109362278d006101c5940490516104a7565b04836104a7565b0481018091116101db576020925090838061018e565b601183634e487b7160e01b5f525260245ffd5b601185634e487b7160e01b5f525260245ffd5b825162461bcd60e51b8152602081870152600e60248201526d4e6f206d61726b6574206461746160901b6044820152606490fd5b9083346100a05760203660031901126100a057813567ffffffffffffffff81116100a05760a06102698492369084016103a0565b9190956a1554d7d390551253d3905360aa1b81526001600b820152602b600180841b0391205416845195868092633fabe5a360e21b82525afa918215610396575f945f93610340575b5082156103085750602085826102cc87826002999a6104ce565b958051986102d98a6103ce565b895283890195865280890196875251938492833781015f81520301902093518455516001840155519101555f80f35b606490602085519162461bcd60e51b83528201526012602482015271526f756e64206e6f7420636f6d706c65746560701b6044820152fd5b9450915060a0843d60a01161038e575b8161035d60a093836103fe565b810103126100a05761036e84610490565b506020840151610385608060608701519601610490565b509391866102b2565b3d9150610350565b83513d5f823e3d90fd5b9181601f840112156100a05782359167ffffffffffffffff83116100a057602083818601950101116100a057565b6060810190811067ffffffffffffffff8211176103ea57604052565b634e487b7160e01b5f52604160045260245ffd5b90601f8019910116810190811067ffffffffffffffff8211176103ea57604052565b60206003198201126100a05767ffffffffffffffff6004358181116100a057826023820112156100a05780600401359182116103ea576040519261046e601f8401601f1916602001856103fe565b828452602483830101116100a057815f92602460209301838601378301015290565b519069ffffffffffffffffffff821682036100a057565b818102929181159184041417156104ba57565b634e487b7160e01b5f52601160045260245ffd5b60209082604051938492833781015f815203019020906040516104f0816103ce565b60406002845494858452600181015460208501520154910152811561054e57818103905f8312818312811690828413901516176104ba578261271080840293840514911417156104ba57600160ff1b81145f198314166104ba570590565b50505f9056fea26469706673582212207b693e294a74ec2937b44ad597322393d562ec6ddc8f0b156730d3476f633d6164736f6c63430008160033","linkReferences":{}},"methodIdentifiers":{"getPropertyValuationEstimate(string,uint256)":"a9751d39","marketPrices(string)":"c7544fd6","priceFeeds(string)":"cb8ae86c","updateMarketData(string)":"5d1884cb"},"id":30}