{"abi":[{"type":"receive","stateMutability":"payable"},{"type":"function","name":"BASIS_POINTS","inputs":[],"outputs":[{"name":"","type":"uint256","internalType":"uint256"}],"stateMutability":"view"},{"type":"function","name":"DEFAULT_ADMIN_ROLE","inputs":[],"outputs":[{"name":"","type":"bytes32","internalType":"bytes32"}],"stateMutability":"view"},{"type":"function","name":"FEE_ADMIN_ROLE","inputs":[],"outputs":[{"name":"","type":"bytes32","internalType":"bytes32"}],"stateMutability":"view"},{"type":"function","name":"LISTING_FEE","inputs":[],"outputs":[{"name":"","type":"bytes32","internalType":"bytes32"}],"stateMutability":"view"},{"type":"function","name":"MAX_RECIPIENTS","inputs":[],"outputs":[{"name":"","type":"uint256","internalType":"uint256"}],"stateMutability":"view"},{"type":"function","name":"TOKENIZATION_FEE","inputs":[],"outputs":[{"name":"","type":"bytes32","internalType":"bytes32"}],"stateMutability":"view"},{"type":"function","name":"TOKEN_CREATION_FEE","inputs":[],"outputs":[{"name":"","type":"bytes32","internalType":"bytes32"}],"stateMutability":"view"},{"type":"function","name":"TRADING_FEE","inputs":[],"outputs":[{"name":"","type":"bytes32","internalType":"bytes32"}],"stateMutability":"view"},{"type":"function","name":"TREASURY_ROLE","inputs":[],"outputs":[{"name":"","type":"bytes32","internalType":"bytes32"}],"stateMutability":"view"},{"type":"function","name":"WITHDRAWAL_FEE","inputs":[],"outputs":[{"name":"","type":"bytes32","internalType":"bytes32"}],"stateMutability":"view"},{"type":"function","name":"addFeeRecipient","inputs":[{"name":"feeType","type":"bytes32","internalType":"bytes32"},{"name":"recipient","type":"address","internalType":"address"},{"name":"share","type":"uint256","internalType":"uint256"},{"name":"description","type":"string","internalType":"string"}],"outputs":[],"stateMutability":"nonpayable"},{"type":"function","name":"calculateFees","inputs":[{"name":"amount","type":"uint256","internalType":"uint256"},{"name":"feeType","type":"bytes32","internalType":"bytes32"}],"outputs":[{"name":"","type":"uint256","internalType":"uint256"}],"stateMutability":"view"},{"type":"function","name":"collectFees","inputs":[{"name":"feeType","type":"bytes32","internalType":"bytes32"},{"name":"payer","type":"address","internalType":"address"}],"outputs":[{"name":"","type":"uint256","internalType":"uint256"}],"stateMutability":"payable"},{"type":"function","name":"collectedFees","inputs":[{"name":"","type":"address","internalType":"address"}],"outputs":[{"name":"","type":"uint256","internalType":"uint256"}],"stateMutability":"view"},{"type":"function","name":"distributeFees","inputs":[{"name":"feeType","type":"bytes32","internalType":"bytes32"}],"outputs":[],"stateMutability":"nonpayable"},{"type":"function","name":"emergencyWithdraw","inputs":[],"outputs":[],"stateMutability":"nonpayable"},{"type":"function","name":"feeCollections","inputs":[{"name":"","type":"bytes32","internalType":"bytes32"}],"outputs":[{"name":"totalCollected","type":"uint256","internalType":"uint256"},{"name":"totalDistributed","type":"uint256","internalType":"uint256"},{"name":"pendingDistribution","type":"uint256","internalType":"uint256"},{"name":"lastDistribution","type":"uint256","internalType":"uint256"}],"stateMutability":"view"},{"type":"function","name":"feeRecipients","inputs":[{"name":"","type":"bytes32","internalType":"bytes32"},{"name":"","type":"uint256","internalType":"uint256"}],"outputs":[{"name":"recipient","type":"address","internalType":"address"},{"name":"share","type":"uint256","internalType":"uint256"},{"name":"isActive","type":"bool","internalType":"bool"},{"name":"description","type":"string","internalType":"string"}],"stateMutability":"view"},{"type":"function","name":"feeStructures","inputs":[{"name":"","type":"bytes32","internalType":"bytes32"}],"outputs":[{"name":"percentage","type":"uint256","internalType":"uint256"},{"name":"flatFee","type":"uint256","internalType":"uint256"},{"name":"minFee","type":"uint256","internalType":"uint256"},{"name":"maxFee","type":"uint256","internalType":"uint256"},{"name":"isActive","type":"bool","internalType":"bool"},{"name":"isPercentageOnly","type":"bool","internalType":"bool"}],"stateMutability":"view"},{"type":"function","name":"getFeeCollection","inputs":[{"name":"feeType","type":"bytes32","internalType":"bytes32"}],"outputs":[{"name":"","type":"tuple","internalType":"struct FeeManager.FeeCollection","components":[{"name":"totalCollected","type":"uint256","internalType":"uint256"},{"name":"totalDistributed","type":"uint256","internalType":"uint256"},{"name":"pendingDistribution","type":"uint256","internalType":"uint256"},{"name":"lastDistribution","type":"uint256","internalType":"uint256"}]}],"stateMutability":"view"},{"type":"function","name":"getFeeRecipients","inputs":[{"name":"feeType","type":"bytes32","internalType":"bytes32"}],"outputs":[{"name":"","type":"tuple[]","internalType":"struct FeeManager.FeeRecipient[]","components":[{"name":"recipient","type":"address","internalType":"address"},{"name":"share","type":"uint256","internalType":"uint256"},{"name":"isActive","type":"bool","internalType":"bool"},{"name":"description","type":"string","internalType":"string"}]}],"stateMutability":"view"},{"type":"function","name":"getFeeStructure","inputs":[{"name":"feeType","type":"bytes32","internalType":"bytes32"}],"outputs":[{"name":"","type":"tuple","internalType":"struct FeeManager.FeeStructure","components":[{"name":"percentage","type":"uint256","internalType":"uint256"},{"name":"flatFee","type":"uint256","internalType":"uint256"},{"name":"minFee","type":"uint256","internalType":"uint256"},{"name":"maxFee","type":"uint256","internalType":"uint256"},{"name":"isActive","type":"bool","internalType":"bool"},{"name":"isPercentageOnly","type":"bool","internalType":"bool"}]}],"stateMutability":"view"},{"type":"function","name":"getPendingFees","inputs":[{"name":"recipient","type":"address","internalType":"address"}],"outputs":[{"name":"","type":"uint256","internalType":"uint256"}],"stateMutability":"view"},{"type":"function","name":"getRoleAdmin","inputs":[{"name":"role","type":"bytes32","internalType":"bytes32"}],"outputs":[{"name":"","type":"bytes32","internalType":"bytes32"}],"stateMutability":"view"},{"type":"function","name":"getTotalFeeSummary","inputs":[],"outputs":[{"name":"collected","type":"uint256","internalType":"uint256"},{"name":"distributed","type":"uint256","internalType":"uint256"},{"name":"pending","type":"uint256","internalType":"uint256"}],"stateMutability":"view"},{"type":"function","name":"getUserFeeContributions","inputs":[{"name":"user","type":"address","internalType":"address"},{"name":"feeType","type":"bytes32","internalType":"bytes32"}],"outputs":[{"name":"","type":"uint256","internalType":"uint256"}],"stateMutability":"view"},{"type":"function","name":"grantRole","inputs":[{"name":"role","type":"bytes32","internalType":"bytes32"},{"name":"account","type":"address","internalType":"address"}],"outputs":[],"stateMutability":"nonpayable"},{"type":"function","name":"hasRole","inputs":[{"name":"role","type":"bytes32","internalType":"bytes32"},{"name":"account","type":"address","internalType":"address"}],"outputs":[{"name":"","type":"bool","internalType":"bool"}],"stateMutability":"view"},{"type":"function","name":"initialize","inputs":[{"name":"admin","type":"address","internalType":"address"},{"name":"_treasury","type":"address","internalType":"address"}],"outputs":[],"stateMutability":"nonpayable"},{"type":"function","name":"paused","inputs":[],"outputs":[{"name":"","type":"bool","internalType":"bool"}],"stateMutability":"view"},{"type":"function","name":"removeFeeRecipient","inputs":[{"name":"feeType","type":"bytes32","internalType":"bytes32"},{"name":"index","type":"uint256","internalType":"uint256"}],"outputs":[],"stateMutability":"nonpayable"},{"type":"function","name":"renounceRole","inputs":[{"name":"role","type":"bytes32","internalType":"bytes32"},{"name":"callerConfirmation","type":"address","internalType":"address"}],"outputs":[],"stateMutability":"nonpayable"},{"type":"function","name":"revokeRole","inputs":[{"name":"role","type":"bytes32","internalType":"bytes32"},{"name":"account","type":"address","internalType":"address"}],"outputs":[],"stateMutability":"nonpayable"},{"type":"function","name":"setFeeStructure","inputs":[{"name":"feeType","type":"bytes32","internalType":"bytes32"},{"name":"percentage","type":"uint256","internalType":"uint256"},{"name":"flatFee","type":"uint256","internalType":"uint256"},{"name":"minFee","type":"uint256","internalType":"uint256"},{"name":"maxFee","type":"uint256","internalType":"uint256"},{"name":"isPercentageOnly","type":"bool","internalType":"bool"}],"outputs":[],"stateMutability":"nonpayable"},{"type":"function","name":"supportsInterface","inputs":[{"name":"interfaceId","type":"bytes4","internalType":"bytes4"}],"outputs":[{"name":"","type":"bool","internalType":"bool"}],"stateMutability":"view"},{"type":"function","name":"totalFeesCollected","inputs":[],"outputs":[{"name":"","type":"uint256","internalType":"uint256"}],"stateMutability":"view"},{"type":"function","name":"totalFeesDistributed","inputs":[],"outputs":[{"name":"","type":"uint256","internalType":"uint256"}],"stateMutability":"view"},{"type":"function","name":"treasury","inputs":[],"outputs":[{"name":"","type":"address","internalType":"address"}],"stateMutability":"view"},{"type":"function","name":"updateFeeRecipient","inputs":[{"name":"feeType","type":"bytes32","internalType":"bytes32"},{"name":"index","type":"uint256","internalType":"uint256"},{"name":"newShare","type":"uint256","internalType":"uint256"}],"outputs":[],"stateMutability":"nonpayable"},{"type":"function","name":"updateTreasury","inputs":[{"name":"newTreasury","type":"address","internalType":"address"}],"outputs":[],"stateMutability":"nonpayable"},{"type":"function","name":"userFeeContributions","inputs":[{"name":"","type":"address","internalType":"address"},{"name":"","type":"bytes32","internalType":"bytes32"}],"outputs":[{"name":"","type":"uint256","internalType":"uint256"}],"stateMutability":"view"},{"type":"function","name":"withdrawFees","inputs":[],"outputs":[],"stateMutability":"nonpayable"},{"type":"function","name":"withdrawFeesTo","inputs":[{"name":"recipient","type":"address","internalType":"address"}],"outputs":[],"stateMutability":"nonpayable"},{"type":"event","name":"EmergencyWithdrawal","inputs":[{"name":"recipient","type":"address","indexed":true,"internalType":"address"},{"name":"amount","type":"uint256","indexed":false,"internalType":"uint256"}],"anonymous":false},{"type":"event","name":"FeeRecipientAdded","inputs":[{"name":"feeType","type":"bytes32","indexed":true,"internalType":"bytes32"},{"name":"recipient","type":"address","indexed":false,"internalType":"address"},{"name":"share","type":"uint256","indexed":false,"internalType":"uint256"}],"anonymous":false},{"type":"event","name":"FeeRecipientRemoved","inputs":[{"name":"feeType","type":"bytes32","indexed":true,"internalType":"bytes32"},{"name":"recipient","type":"address","indexed":false,"internalType":"address"}],"anonymous":false},{"type":"event","name":"FeeRecipientUpdated","inputs":[{"name":"feeType","type":"bytes32","indexed":true,"internalType":"bytes32"},{"name":"recipient","type":"address","indexed":false,"internalType":"address"},{"name":"newShare","type":"uint256","indexed":false,"internalType":"uint256"}],"anonymous":false},{"type":"event","name":"FeeStructureUpdated","inputs":[{"name":"feeType","type":"bytes32","indexed":true,"internalType":"bytes32"},{"name":"percentage","type":"uint256","indexed":false,"internalType":"uint256"},{"name":"flatFee","type":"uint256","indexed":false,"internalType":"uint256"}],"anonymous":false},{"type":"event","name":"FeesCollected","inputs":[{"name":"feeType","type":"bytes32","indexed":true,"internalType":"bytes32"},{"name":"payer","type":"address","indexed":true,"internalType":"address"},{"name":"amount","type":"uint256","indexed":false,"internalType":"uint256"}],"anonymous":false},{"type":"event","name":"FeesDistributed","inputs":[{"name":"feeType","type":"bytes32","indexed":true,"internalType":"bytes32"},{"name":"totalAmount","type":"uint256","indexed":false,"internalType":"uint256"}],"anonymous":false},{"type":"event","name":"Initialized","inputs":[{"name":"version","type":"uint64","indexed":false,"internalType":"uint64"}],"anonymous":false},{"type":"event","name":"Paused","inputs":[{"name":"account","type":"address","indexed":false,"internalType":"address"}],"anonymous":false},{"type":"event","name":"RoleAdminChanged","inputs":[{"name":"role","type":"bytes32","indexed":true,"internalType":"bytes32"},{"name":"previousAdminRole","type":"bytes32","indexed":true,"internalType":"bytes32"},{"name":"newAdminRole","type":"bytes32","indexed":true,"internalType":"bytes32"}],"anonymous":false},{"type":"event","name":"RoleGranted","inputs":[{"name":"role","type":"bytes32","indexed":true,"internalType":"bytes32"},{"name":"account","type":"address","indexed":true,"internalType":"address"},{"name":"sender","type":"address","indexed":true,"internalType":"address"}],"anonymous":false},{"type":"event","name":"RoleRevoked","inputs":[{"name":"role","type":"bytes32","indexed":true,"internalType":"bytes32"},{"name":"account","type":"address","indexed":true,"internalType":"address"},{"name":"sender","type":"address","indexed":true,"internalType":"address"}],"anonymous":false},{"type":"event","name":"TreasuryUpdated","inputs":[{"name":"oldTreasury","type":"address","indexed":false,"internalType":"address"},{"name":"newTreasury","type":"address","indexed":false,"internalType":"address"}],"anonymous":false},{"type":"event","name":"Unpaused","inputs":[{"name":"account","type":"address","indexed":false,"internalType":"address"}],"anonymous":false},{"type":"error","name":"AccessControlBadConfirmation","inputs":[]},{"type":"error","name":"AccessControlUnauthorizedAccount","inputs":[{"name":"account","type":"address","internalType":"address"},{"name":"neededRole","type":"bytes32","internalType":"bytes32"}]},{"type":"error","name":"EnforcedPause","inputs":[]},{"type":"error","name":"ExpectedPause","inputs":[]},{"type":"error","name":"InvalidInitialization","inputs":[]},{"type":"error","name":"NotInitializing","inputs":[]},{"type":"error","name":"ReentrancyGuardReentrantCall","inputs":[]}],"bytecode":{"object":"0x60808060405234610016576128ce908161001b8239f35b5f80fdfe6080806040526004361015610044575b50361561001a575f80fd5b305f52600360205260405f20610031348254612215565b905561003f34600654612215565b600655005b5f3560e01c90816301ffc9a714611f2757508063127699ce14611ea85780631cead9a714610cf557806323531b9014611e6e578063248a9ca314611e355780632b86ae3814611dfb5780632f2ff15d14611db25780632f5a93ae14610d4757806336421f5714611c6357806336568abe14611c1c5780633a7307f714611b4e578063476343ee14611ae0578063485cc955146115f65780634cba593a146115bc57806355053400146114eb5780635aafbdb5146111135780635c975abb146110d257806360c6d8ae146110b557806361d027b31461108d5780636503644414610f93578063732d5e6a14610f595780637f51bb1f14610e375780638582c91314610e1a57806385b54a6a14610de057806391d1485414610d8b5780639bd0d72f14610d47578063a217fddf14610d2d578063a4bf34ba14610cf5578063a5d33ed514610cbb578063a6980ce214610ca0578063acb3553214610c39578063b0e3580f14610c10578063c580d4611461091a578063c8946de61461076e578063d11a57ec14610747578063d2a508631461071b578063d547741f146106d0578063d5c6e5c61461063f578063da7646091461052e578063db2e21bc14610423578063e120988014610295578063e1f1c4a7146102795763f4c2944614610229575f61000f565b34610275576020366003190112610275576004355f526002602052608060405f208054906001810154906003600282015491015491604051938452602084015260408301526060820152f35b5f80fd5b34610275575f3660031901126102755760206040516127108152f35b346102755760c036600319011261027557600435602435604435606435916084359160a43593841515809503610275576102cd612385565b61271083116103de578381118015906103d6575b1561039d577ff64b506b9b84cd762fa969e576181ffa1361f26a87b8298890dba8bb73f0dbc39461037b600460409687519061031c82612011565b87825260208201958787528983019081526060830191825260808301966001885260a084019687528c5f525f6020528a5f20935184555160018401555160028301555160038201550192511515839060ff801983541691151516179055565b51815461ff00191690151560081b61ff001617905582519182526020820152a2005b60405162461bcd60e51b8152602060048201526011602482015270496e76616c6964206665652072616e676560781b6044820152606490fd5b5083156102e1565b60405162461bcd60e51b815260206004820152601760248201527f50657263656e74616765206578636565647320313030250000000000000000006044820152606490fd5b34610275575f36600319011261027557335f9081527f1069ffe2b90bfd470f40f3bf820141bb4d4b475d03084db5dcfb8152047badf760205260409020545f805160206128798339815191529060ff1615610510574780156104d45760018060a01b035f80808085856005541682f1156104c95760207f23d6711a1d031134a36921253c75aa59e967d38e369ac625992824315e204f20916005541692604051908152a2005b6040513d5f823e3d90fd5b60405162461bcd60e51b81526020600482015260146024820152734e6f2066756e647320746f20776974686472617760601b6044820152606490fd5b6044906040519063e2517d3f60e01b82523360048301526024820152fd5b604036600319011261027557600435610545612145565b9061054e61279a565b341561060157805f5260209160028352600260405f2061056f348254612215565b81550161057d348254612215565b9055305f526003835260405f20610595348254612215565b905560018060a01b031690815f526004835260405f20815f52835260405f206105bf348254612215565b90556105cd34600654612215565b6006557f27026d0900e26dbc73ba4ebc57706d881408d599ba0f4c021620cdd3371c90dc83604051348152a3604051348152f35b60405162461bcd60e51b8152602060048201526016602482015275139bc819995948185b5bdd5b9d081c1c9bdd9a59195960521b6044820152606490fd5b34610275576020366003190112610275575f606060405161065f81611ff5565b82815282602082015282604082015201526004355f526002602052608060405f2060405161068c81611ff5565b815491828252600181015460208301908152606060036002840154936040860194855201549301928352604051938452516020840152516040830152516060820152f35b34610275576040366003190112610275576107196004356106ef612145565b90805f525f80516020612839833981519152602052610714600160405f2001546123e0565b6126ec565b005b34610275575f366003190112610275576060600654600754479060405192835260208301526040820152f35b34610275575f3660031901126102755760206040515f805160206128798339815191528152f35b3461027557606036600319011261027557602435600435604435610790612385565b815f526001926020846020526107ab60405f2054831061219d565b8215158061090e575b6107bd906121d9565b835f52846020526107d18260405f20611f90565b509160ff60029260ff600286015416156108d257908593885f905b61084d575b887f794d625357d5030dfe64102f8ff94a15f690aafa5683d39310852b59a446de248989818e6108256127108d1115612222565b82015554604080516001600160a01b039092168252602082019290925290819081015b0390a2005b885f5289845260405f2080548210156108cc57908291848c969594838981141593846108b3575b50505050610888575b8401909192936107ec565b956108ab85918b5f52828652826108a28a60405f20611f90565b50015490612215565b96905061087d565b6108bf92939450611f90565b500154168383838f610874565b506107f1565b60405162461bcd60e51b8152602060048201526014602482015273526563697069656e74206e6f742061637469766560601b6044820152606490fd5b506127108311156107b4565b34610275576020806003193601126102755760043561093761276b565b61093f61279a565b805f526002906002835260405f2092600284018054908115610bd3575f905560019485810161096f838254612215565b9055600390600342910155835f5285835260405f20805467ffffffffffffffff8111610bbf57879691604051926109ab878460051b018561202d565b8284525f91825286822090898886015b89868610610b6d575050505050505082915f87805f905b610b21575b505f905b610a5e575b505050507fe519ffb17c5a35fd0b51a8e0170a6a38dee1e9cb83466607a9b04090eb479e1593945080610a36575b50610a1b81600754612215565b600755604051908152a25f8051602061285983398151915255005b60018060a01b03600554165f5260038352610a5660405f20918254612215565b905585610a0e565b8351811015610b1c576040610a738286612371565b510151610a83575b8801886109db565b9750610a9c86610a938a86612371565b5101518661226e565b978115610b0857818a990480610ab3575b50610a7b565b949850936001600160a01b03610ac98686612371565b5151165f5282875260405f20610ae0828254612215565b90558803978811610af45788979388610aad565b634e487b7160e01b5f52601160045260245ffd5b634e487b7160e01b5f52601260045260245ffd5b6109e0565b8451811015610b68576040610b368287612371565b510151610b46575b8101816109d2565b91610b60829189610b578689612371565b51015190612215565b929050610b3e565b6109d7565b600491604051610b7c81611ff5565b86546001600160a01b0316815284870154838201528587015460ff1615156040820152610baa8b880161204f565b60608201528152019301930192918a906109bb565b634e487b7160e01b5f52604160045260245ffd5b60405162461bcd60e51b81526004810184905260156024820152744e6f206665657320746f206469737472696275746560581b6044820152606490fd5b34610275576040366003190112610275576020610c31602435600435612281565b604051908152f35b34610275576020366003190112610275576004355f525f60205260c060405f2060ff815491600181015490600281015460046003830154920154926040519586526020860152604085015260608401528181161515608084015260081c16151560a0820152f35b34610275575f366003190112610275576020604051600a8152f35b34610275575f3660031901126102755760206040517f738128fe393bef1bcd8a524796fff40618b938cd467c71fcf37850ab0ba4f7d78152f35b34610275576020366003190112610275576001600160a01b03610d1661212f565b165f526003602052602060405f2054604051908152f35b34610275575f3660031901126102755760206040515f8152f35b34610275576040366003190112610275576001600160a01b03610d6861212f565b165f52600460205260405f206024355f52602052602060405f2054604051908152f35b3461027557604036600319011261027557610da4612145565b6004355f525f8051602061283983398151915260205260405f209060018060a01b03165f52602052602060ff60405f2054166040519015158152f35b34610275575f3660031901126102755760206040517ffd77c08fbfa2352133e82db8dcdbc1defaab53968a3fa9d57c4c2810bcdb09738152f35b34610275575f366003190112610275576020600754604051908152f35b3461027557602036600319011261027557610e5061212f565b335f9081527fb7db2dd08fcb62d0c9e08c51941cae53c267786a0b75803fb7960902fc8ef97d602052604090205460ff1615610f3b576001600160a01b0381811691908215610ef65782610ee86040937f4ab5be82436d353e61ca18726e984e561f5c1cc7c6d38b29d2553c790434705a95600554948516946001600160601b0360a01b1617600555610ee284612648565b50612545565b5082519182526020820152a1005b60405162461bcd60e51b815260206004820152601860248201527f496e76616c6964207472656173757279206164647265737300000000000000006044820152606490fd5b60405163e2517d3f60e01b81523360048201525f6024820152604490fd5b34610275575f3660031901126102755760206040517f82b28d34701fdefd461cecf8d0db27658d80d8e7680442be1c0a5e9250f979f68152f35b346102755760208060031936011261027557610fad61212f565b610fb561276b565b6001600160a01b03163381148015611056575b15611022575f8080938382948352600382526040832054916003831591610fef831561215b565b838652528360408120558390611019575bf1156104c95760015f8051602061285983398151915255005b506108fc611000565b60405162461bcd60e51b815260048101839052600c60248201526b155b985d5d1a1bdc9a5e995960a21b6044820152606490fd5b505f805160206128798339815191525f525f80516020612839833981519152825260405f20335f52825260ff60405f205416610fc8565b34610275575f366003190112610275576005546040516001600160a01b039091168152602090f35b34610275575f366003190112610275576020600654604051908152f35b34610275575f36600319011261027557602060ff7fcd5ed15c6e187e77e9aee88184c21f4f2182ab5827cb3b7e07fbedcd63f0330054166040519015158152f35b346102755760803660031901126102755761112c612145565b67ffffffffffffffff60643511610275573660236064350112156102755767ffffffffffffffff606435600401351161027557366024606435600401356064350101116102755761117b612385565b6001600160a01b03811680156114b2576044351515806114a4575b61119f906121d9565b6004355f526001602052600a60405f20541015611469576044355f5b6004355f52600160205260405f2080548210156112175760026111e08360ff93611f90565b500154166111f1575b6001016111bb565b9061120f6001916004355f5282602052826108a28560405f20611f90565b9190506111e9565b8385611227612710861115612222565b6004355f52600160205260405f20916040519061124382611ff5565b8152604435602082015260016040820152604051926112726020601f19601f606435600401350116018561202d565b60643560048101358086529060240160208601375f6020606435600401358601015260608201938452805468010000000000000000811015610bbf576112bd91600182018155611f90565b61145657611307604060039360018060a01b038151166001600160601b0360a01b8554161784556020810151600185015501511515600283019060ff801983541691151516179055565b01915191825167ffffffffffffffff8111610bbf576113268254611fbd565b601f8111611411575b506020601f82116001146113af57819293945f926113a4575b50508160011b915f199060031b1c19161790555b604080516001600160a01b0390921682526044356020830152600435917f5c160cbf33b6ee1a291bff303d83f2660490310ef6edc2986846f677329d54e19181908101610848565b015190508480611348565b601f19821690835f5260205f20915f5b8181106113f9575095836001959697106113e1575b505050811b01905561135c565b01515f1960f88460031b161c191690558480806113d4565b9192602060018192868b0151815501940192016113bf565b825f5260205f20601f830160051c8101916020841061144c575b601f0160051c01905b818110611441575061132f565b5f8155600101611434565b909150819061142b565b634e487b7160e01b5f525f60045260245ffd5b60405162461bcd60e51b8152602060048201526013602482015272546f6f206d616e7920726563697069656e747360681b6044820152606490fd5b506127106044351115611196565b60405162461bcd60e51b8152602060048201526011602482015270125b9d985b1a59081c9958da5c1a595b9d607a1b6044820152606490fd5b346102755761152f6114fc36611f7a565b611507929192612385565b825f52600160205261151e60405f2054821061219d565b825f52600160205260405f20611f90565b50600281019081549060ff8216156115845760ff19909116909155546040516001600160a01b039190911681527fada9dd29e585a7cab3f58e77e2af716b3c4becdb0210a5e10f3668479233c35390602090a2005b60405162461bcd60e51b815260206004820152601060248201526f416c726561647920696e61637469766560801b6044820152606490fd5b34610275575f3660031901126102755760206040517f349eec46d2c564a125684d1934a6120a70cc341d3a26d362e358a775e07dec178152f35b346102755760403660031901126102755761160f61212f565b611617612145565b7ff0c57e16840df040f15088dc2f81fe391c3923bec73e23a9662efc9c229c6a009182549160ff8360401c16159267ffffffffffffffff811692831580611ad9575b60018095149081611acf575b159081611ac6575b50611ab45767ffffffffffffffff198216841786556116d09185611a95575b506116956127d7565b61169d6127d7565b6116a56127d7565b6116ad6127d7565b835f80516020612859833981519152556116c68161240e565b50610ee281612498565b5060018060a01b03166001600160601b0360a01b6005541617600555604051916116f983612011565b600a83526020928381016117906004662386f26fc10000938484526040810194855260608101670de0b6b3a76400008152608082019588875260a08301955f87527f82b28d34701fdefd461cecf8d0db27658d80d8e7680442be1c0a5e9250f979f65f525f8b5260405f209351845551898401555160028301555160038201550192511515839060ff801983541691151516179055565b51151581549161ff0019928361ff00809460081b1691161790556040516117b681612011565b60328152858561184e6004838501945f8652604081019567016345785d8a0000968781526060830191678ac7230489e8000083525f6080850198888a5260a086019889527ffd77c08fbfa2352133e82db8dcdbc1defaab53968a3fa9d57c4c2810bcdb097382525260405f2093518455518c8401555160028301555160038201550192511515839060ff801983541691151516179055565b518154851690151560081b84161790556040519061186b82612011565b6019825286866118fa6004838601955f8752604081019666038d7ea4c680009788815260608301915f83525f6080850198888a5260a086019889527f49feb0371fc9661748a3d1bc01dbf9f5cdeb4102767351e1c6dd1f5d331acd6d82525260405f2093518455518d8401555160028301555160038201550192511515839060ff801983541691151516179055565b511515858583549260081b16911617905561199b600460405161191c81612011565b600a8152898101935f8552604082019586526060820190815260808201958a875260a08301958b87527f738128fe393bef1bcd8a524796fff40618b938cd467c71fcf37850ab0ba4f7d75f525f8d5260405f2093518455518b8401555160028301555160038201550192511515839060ff801983541691151516179055565b518154841690151560081b8316179055604051916119b883612011565b5f8352858301611a44600466b1a2bc2ec500009586845260408101968088526060820190815260808201978a895260a08301955f87527febdc9abef293b5fef987fa900b0c2333f047becf6f82fb5363a752379ab2634e5f525f8d5260405f2093518455518b8401555160028301555160038201550194511515859060ff801983541691151516179055565b5115159183549260081b169116179055611a5a57005b7fc7f505b2f371ae2175ee4913f4499e1f2633a7b5936321eed1cdaeb6115181d29268ff0000000000000000198154169055604051908152a1005b68ffffffffffffffffff1916680100000000000000011786558661168c565b60405163f92ee8a960e01b8152600490fd5b9050158761166d565b303b159150611665565b5084611659565b34610275575f36600319011261027557611af861276b565b335f5260036020525f80808060408120548015611b15811561215b565b33835260036020528260408120558290611b45575b3390f1156104c95760015f8051602061285983398151915255005b506108fc611b2a565b34610275576020366003190112610275575f60a0604051611b6e81612011565b82815282602082015282604082015282606082015282608082015201526004355f525f60205260c060405f2060405190611ba782612011565b8054918281526001820154916020820192835260028101546040830190815260046003830154926060850193845201549360ff60a0608086019582881615158752019560081c1615158552604051958652516020860152516040850152516060840152511515608083015251151560a0820152f35b3461027557604036600319011261027557611c35612145565b336001600160a01b03821603611c5157610719906004356126ec565b60405163334bd91960e11b8152600490fd5b3461027557602080600319360112610275576004355f526001906001815260405f20805467ffffffffffffffff8111610bbf57838360405192611cab828260051b018561202d565b80845281840180955f52825f205f915b838310611d535750505050604051928184019082855251809152604084019160408260051b86010195925f905b838210611cf55786880387f35b90919293948380611d42839a603f198b820301865289519060809060018060a01b0383511681528483015185820152604083015115156040820152816060809401519382015201906120f1565b999701959493919091019101611ce8565b94600485829997604099979951611d6981611ff5565b85546001600160a01b031681528486015483820152600286015460ff1615156040820152611d996003870161204f565b6060820152815201920192019190969496959395611cbb565b3461027557604036600319011261027557610719600435611dd1612145565b90805f525f80516020612839833981519152602052611df6600160405f2001546123e0565b6125d8565b34610275575f3660031901126102755760206040517febdc9abef293b5fef987fa900b0c2333f047becf6f82fb5363a752379ab2634e8152f35b34610275576020366003190112610275576004355f525f805160206128398339815191526020526020600160405f200154604051908152f35b34610275575f3660031901126102755760206040517f49feb0371fc9661748a3d1bc01dbf9f5cdeb4102767351e1c6dd1f5d331acd6d8152f35b3461027557611eb636611f7a565b905f52600160205260405f2090815481101561027557611ed591611f90565b5060018060a01b03815416611f23600183015492611efd600360ff600284015416920161204f565b9060405194859485526020850152151560408401526080606084015260808301906120f1565b0390f35b34610275576020366003190112610275576004359063ffffffff60e01b821680920361027557602091637965db0b60e01b8114908115611f69575b5015158152f35b6301ffc9a760e01b14905083611f62565b6040906003190112610275576004359060243590565b8054821015611fa9575f5260205f209060021b01905f90565b634e487b7160e01b5f52603260045260245ffd5b90600182811c92168015611feb575b6020831014611fd757565b634e487b7160e01b5f52602260045260245ffd5b91607f1691611fcc565b6080810190811067ffffffffffffffff821117610bbf57604052565b60c0810190811067ffffffffffffffff821117610bbf57604052565b90601f8019910116810190811067ffffffffffffffff821117610bbf57604052565b9060405191825f825461206181611fbd565b908184526020946001916001811690815f146120cf5750600114612091575b50505061208f9250038361202d565b565b5f90815285812095935091905b8183106120b757505061208f93508201015f8080612080565b8554888401850152948501948794509183019161209e565b9250505061208f94925060ff191682840152151560051b8201015f8080612080565b91908251928382525f5b84811061211b575050825f602080949584010152601f8019910116010190565b6020818301810151848301820152016120fb565b600435906001600160a01b038216820361027557565b602435906001600160a01b038216820361027557565b1561216257565b60405162461bcd60e51b81526020600482015260136024820152724e6f206665657320746f20776974686472617760681b6044820152606490fd5b156121a457565b60405162461bcd60e51b815260206004820152600d60248201526c092dcecc2d8d2c840d2dcc8caf609b1b6044820152606490fd5b156121e057565b60405162461bcd60e51b815260206004820152600d60248201526c496e76616c696420736861726560981b6044820152606490fd5b91908201809211610af457565b1561222957565b60405162461bcd60e51b815260206004820152601860248201527f546f74616c2073686172657320657863656564203130302500000000000000006044820152606490fd5b81810292918115918404141715610af457565b905f525f60205260405f206040519161229983612011565b81549283815260018301546020820190815260028401549460408301958652600460038601549560608501968752015460ff8116159060ff82159182608088015260081c161515918260a087015290612369575b61235e571561233c5750506127109161230791519061226e565b04915b51808310612334575b50518015158061232b575b612326575090565b905090565b5080821161231e565b91505f612313565b61271091925061234f906123589461226e565b04905190612215565b9161230a565b505050505050505f90565b5084156122ed565b8051821015611fa95760209160051b010190565b335f9081527fd068563a683ea9774292e72b1521e82901455d0a7aaaea93a92d53ab644a73ec60205260409020547f349eec46d2c564a125684d1934a6120a70cc341d3a26d362e358a775e07dec179060ff16156105105750565b805f525f8051602061283983398151915260205260405f20335f5260205260ff60405f205416156105105750565b6001600160a01b03165f8181527fb7db2dd08fcb62d0c9e08c51941cae53c267786a0b75803fb7960902fc8ef97d60205260409020545f805160206128398339815191529060ff16612492575f805260205260405f20815f5260205260405f20600160ff1982541617905533905f5f805160206128198339815191528180a4600190565b50505f90565b6001600160a01b03165f8181527fd068563a683ea9774292e72b1521e82901455d0a7aaaea93a92d53ab644a73ec60205260409020547f349eec46d2c564a125684d1934a6120a70cc341d3a26d362e358a775e07dec1791905f805160206128398339815191529060ff1661253e57825f5260205260405f20815f5260205260405f20600160ff1982541617905533915f805160206128198339815191525f80a4600190565b5050505f90565b6001600160a01b03165f8181527f1069ffe2b90bfd470f40f3bf820141bb4d4b475d03084db5dcfb8152047badf760205260409020545f8051602061287983398151915291905f805160206128398339815191529060ff1661253e57825f5260205260405f20815f5260205260405f20600160ff1982541617905533915f805160206128198339815191525f80a4600190565b90815f525f805160206128398339815191528060205260405f209160018060a01b031691825f5260205260ff60405f205416155f1461253e57825f5260205260405f20815f5260205260405f20600160ff1982541617905533915f805160206128198339815191525f80a4600190565b6001600160a01b03165f8181527f1069ffe2b90bfd470f40f3bf820141bb4d4b475d03084db5dcfb8152047badf760205260409020545f8051602061287983398151915291905f805160206128398339815191529060ff161561253e57825f5260205260405f20815f5260205260405f2060ff19815416905533917ff6391f5c32d9c69d2a47ea670b442974b53935d1edc7fd64eb21e047a839171b5f80a4600190565b90815f525f805160206128398339815191528060205260405f209160018060a01b031691825f5260205260ff60405f2054165f1461253e57825f5260205260405f20815f5260205260405f2060ff19815416905533917ff6391f5c32d9c69d2a47ea670b442974b53935d1edc7fd64eb21e047a839171b5f80a4600190565b5f8051602061285983398151915260028154146127885760029055565b604051633ee5aeb560e01b8152600490fd5b60ff7fcd5ed15c6e187e77e9aee88184c21f4f2182ab5827cb3b7e07fbedcd63f0330054166127c557565b60405163d93c066560e01b8152600490fd5b60ff7ff0c57e16840df040f15088dc2f81fe391c3923bec73e23a9662efc9c229c6a005460401c161561280657565b604051631afcd79f60e31b8152600490fdfe2f8788117e7eff1d82e926ec794901d17c78024a50270940304540a733656f0d02dd7bc7dec4dceedda775e58dd541e08a116c6c53815c0bd028192f7b6268009b779b17422d0df92223018b32b4d1fa46e071723d6817e2486d003becc55f00e1dcbdb91df27212a29bc27177c840cf2f819ecf2187432e1fac86c2dd5dfca9a2646970667358221220336f88a660afbe33cefd61c7a8862e479d8261eea3d6013be76777d0c482c28a64736f6c63430008160033","linkReferences":{}},"methodIdentifiers":{"BASIS_POINTS()":"e1f1c4a7","DEFAULT_ADMIN_ROLE()":"a217fddf","FEE_ADMIN_ROLE()":"4cba593a","LISTING_FEE()":"2b86ae38","MAX_RECIPIENTS()":"a6980ce2","TOKENIZATION_FEE()":"85b54a6a","TOKEN_CREATION_FEE()":"732d5e6a","TRADING_FEE()":"23531b90","TREASURY_ROLE()":"d11a57ec","WITHDRAWAL_FEE()":"a5d33ed5","addFeeRecipient(bytes32,address,uint256,string)":"5aafbdb5","calculateFees(uint256,bytes32)":"b0e3580f","collectFees(bytes32,address)":"da764609","collectedFees(address)":"1cead9a7","distributeFees(bytes32)":"c580d461","emergencyWithdraw()":"db2e21bc","feeCollections(bytes32)":"f4c29446","feeRecipients(bytes32,uint256)":"127699ce","feeStructures(bytes32)":"acb35532","getFeeCollection(bytes32)":"d5c6e5c6","getFeeRecipients(bytes32)":"36421f57","getFeeStructure(bytes32)":"3a7307f7","getPendingFees(address)":"a4bf34ba","getRoleAdmin(bytes32)":"248a9ca3","getTotalFeeSummary()":"d2a50863","getUserFeeContributions(address,bytes32)":"9bd0d72f","grantRole(bytes32,address)":"2f2ff15d","hasRole(bytes32,address)":"91d14854","initialize(address,address)":"485cc955","paused()":"5c975abb","removeFeeRecipient(bytes32,uint256)":"55053400","renounceRole(bytes32,address)":"36568abe","revokeRole(bytes32,address)":"d547741f","setFeeStructure(bytes32,uint256,uint256,uint256,uint256,bool)":"e1209880","supportsInterface(bytes4)":"01ffc9a7","totalFeesCollected()":"60c6d8ae","totalFeesDistributed()":"8582c913","treasury()":"61d027b3","updateFeeRecipient(bytes32,uint256,uint256)":"c8946de6","updateTreasury(address)":"7f51bb1f","userFeeContributions(address,bytes32)":"2f5a93ae","withdrawFees()":"476343ee","withdrawFeesTo(address)":"65036444"},"id":5}