{"abi":[{"type":"function","name":"COMPLIANCE_OFFICER_ROLE","inputs":[],"outputs":[{"name":"","type":"bytes32","internalType":"bytes32"}],"stateMutability":"view"},{"type":"function","name":"DEFAULT_ADMIN_ROLE","inputs":[],"outputs":[{"name":"","type":"bytes32","internalType":"bytes32"}],"stateMutability":"view"},{"type":"function","name":"SYSTEM_ROLE","inputs":[],"outputs":[{"name":"","type":"bytes32","internalType":"bytes32"}],"stateMutability":"view"},{"type":"function","name":"amlRecheckPeriod","inputs":[],"outputs":[{"name":"","type":"uint256","internalType":"uint256"}],"stateMutability":"view"},{"type":"function","name":"amlStatus","inputs":[{"name":"","type":"address","internalType":"address"}],"outputs":[{"name":"isCleared","type":"bool","internalType":"bool"},{"name":"riskScore","type":"uint256","internalType":"uint256"},{"name":"lastCheck","type":"uint256","internalType":"uint256"},{"name":"requiresManualReview","type":"bool","internalType":"bool"}],"stateMutability":"view"},{"type":"function","name":"auditTrail","inputs":[],"outputs":[{"name":"","type":"address","internalType":"contract IAuditTrail"}],"stateMutability":"view"},{"type":"function","name":"authorizeTransfer","inputs":[{"name":"from","type":"address","internalType":"address"},{"name":"to","type":"address","internalType":"address"},{"name":"amount","type":"uint256","internalType":"uint256"}],"outputs":[{"name":"","type":"bool","internalType":"bool"}],"stateMutability":"nonpayable"},{"type":"function","name":"blacklistAddress","inputs":[{"name":"user","type":"address","internalType":"address"},{"name":"reason","type":"string","internalType":"string"}],"outputs":[],"stateMutability":"nonpayable"},{"type":"function","name":"blacklistCountry","inputs":[{"name":"country","type":"string","internalType":"string"}],"outputs":[],"stateMutability":"nonpayable"},{"type":"function","name":"blacklistedAddresses","inputs":[{"name":"","type":"address","internalType":"address"}],"outputs":[{"name":"","type":"bool","internalType":"bool"}],"stateMutability":"view"},{"type":"function","name":"blacklistedCountries","inputs":[{"name":"","type":"string","internalType":"string"}],"outputs":[{"name":"","type":"bool","internalType":"bool"}],"stateMutability":"view"},{"type":"function","name":"canTransfer","inputs":[{"name":"from","type":"address","internalType":"address"},{"name":"to","type":"address","internalType":"address"},{"name":"amount","type":"uint256","internalType":"uint256"}],"outputs":[{"name":"","type":"bool","internalType":"bool"}],"stateMutability":"view"},{"type":"function","name":"clearAML","inputs":[{"name":"user","type":"address","internalType":"address"},{"name":"riskScore","type":"uint256","internalType":"uint256"},{"name":"flaggedReasons","type":"string[]","internalType":"string[]"}],"outputs":[],"stateMutability":"nonpayable"},{"type":"function","name":"defaultDailyLimit","inputs":[],"outputs":[{"name":"","type":"uint256","internalType":"uint256"}],"stateMutability":"view"},{"type":"function","name":"defaultMonthlyLimit","inputs":[],"outputs":[{"name":"","type":"uint256","internalType":"uint256"}],"stateMutability":"view"},{"type":"function","name":"getAMLStatus","inputs":[{"name":"user","type":"address","internalType":"address"}],"outputs":[{"name":"","type":"tuple","internalType":"struct ComplianceManager.AMLStatus","components":[{"name":"isCleared","type":"bool","internalType":"bool"},{"name":"riskScore","type":"uint256","internalType":"uint256"},{"name":"lastCheck","type":"uint256","internalType":"uint256"},{"name":"flaggedReasons","type":"string[]","internalType":"string[]"},{"name":"requiresManualReview","type":"bool","internalType":"bool"}]}],"stateMutability":"view"},{"type":"function","name":"getKYCData","inputs":[{"name":"user","type":"address","internalType":"address"}],"outputs":[{"name":"","type":"tuple","internalType":"struct ComplianceManager.KYCData","components":[{"name":"isVerified","type":"bool","internalType":"bool"},{"name":"verificationDate","type":"uint256","internalType":"uint256"},{"name":"expiryDate","type":"uint256","internalType":"uint256"},{"name":"documentHash","type":"string","internalType":"string"},{"name":"verifiedBy","type":"address","internalType":"address"},{"name":"riskLevel","type":"uint8","internalType":"uint8"}]}],"stateMutability":"view"},{"type":"function","name":"getRemainingDailyLimit","inputs":[{"name":"user","type":"address","internalType":"address"}],"outputs":[{"name":"","type":"uint256","internalType":"uint256"}],"stateMutability":"view"},{"type":"function","name":"getRemainingMonthlyLimit","inputs":[{"name":"user","type":"address","internalType":"address"}],"outputs":[{"name":"","type":"uint256","internalType":"uint256"}],"stateMutability":"view"},{"type":"function","name":"getRoleAdmin","inputs":[{"name":"role","type":"bytes32","internalType":"bytes32"}],"outputs":[{"name":"","type":"bytes32","internalType":"bytes32"}],"stateMutability":"view"},{"type":"function","name":"getTransferLimits","inputs":[{"name":"user","type":"address","internalType":"address"}],"outputs":[{"name":"","type":"tuple","internalType":"struct ComplianceManager.TransferLimits","components":[{"name":"dailyLimit","type":"uint256","internalType":"uint256"},{"name":"monthlyLimit","type":"uint256","internalType":"uint256"},{"name":"dailySpent","type":"uint256","internalType":"uint256"},{"name":"monthlySpent","type":"uint256","internalType":"uint256"},{"name":"lastDailyReset","type":"uint256","internalType":"uint256"},{"name":"lastMonthlyReset","type":"uint256","internalType":"uint256"}]}],"stateMutability":"view"},{"type":"function","name":"grantRole","inputs":[{"name":"role","type":"bytes32","internalType":"bytes32"},{"name":"account","type":"address","internalType":"address"}],"outputs":[],"stateMutability":"nonpayable"},{"type":"function","name":"hasRole","inputs":[{"name":"role","type":"bytes32","internalType":"bytes32"},{"name":"account","type":"address","internalType":"address"}],"outputs":[{"name":"","type":"bool","internalType":"bool"}],"stateMutability":"view"},{"type":"function","name":"initialize","inputs":[{"name":"admin","type":"address","internalType":"address"},{"name":"_auditTrail","type":"address","internalType":"address"}],"outputs":[],"stateMutability":"nonpayable"},{"type":"function","name":"isAMLCleared","inputs":[{"name":"user","type":"address","internalType":"address"}],"outputs":[{"name":"","type":"bool","internalType":"bool"}],"stateMutability":"view"},{"type":"function","name":"isKYCVerified","inputs":[{"name":"user","type":"address","internalType":"address"}],"outputs":[{"name":"","type":"bool","internalType":"bool"}],"stateMutability":"view"},{"type":"function","name":"kycData","inputs":[{"name":"","type":"address","internalType":"address"}],"outputs":[{"name":"isVerified","type":"bool","internalType":"bool"},{"name":"verificationDate","type":"uint256","internalType":"uint256"},{"name":"expiryDate","type":"uint256","internalType":"uint256"},{"name":"documentHash","type":"string","internalType":"string"},{"name":"verifiedBy","type":"address","internalType":"address"},{"name":"riskLevel","type":"uint8","internalType":"uint8"}],"stateMutability":"view"},{"type":"function","name":"kycExpiryPeriod","inputs":[],"outputs":[{"name":"","type":"uint256","internalType":"uint256"}],"stateMutability":"view"},{"type":"function","name":"maxRiskScore","inputs":[],"outputs":[{"name":"","type":"uint256","internalType":"uint256"}],"stateMutability":"view"},{"type":"function","name":"paused","inputs":[],"outputs":[{"name":"","type":"bool","internalType":"bool"}],"stateMutability":"view"},{"type":"function","name":"renounceRole","inputs":[{"name":"role","type":"bytes32","internalType":"bytes32"},{"name":"callerConfirmation","type":"address","internalType":"address"}],"outputs":[],"stateMutability":"nonpayable"},{"type":"function","name":"revokeRole","inputs":[{"name":"role","type":"bytes32","internalType":"bytes32"},{"name":"account","type":"address","internalType":"address"}],"outputs":[],"stateMutability":"nonpayable"},{"type":"function","name":"setKYCExpiryPeriod","inputs":[{"name":"newPeriod","type":"uint256","internalType":"uint256"}],"outputs":[],"stateMutability":"nonpayable"},{"type":"function","name":"setTransferLimits","inputs":[{"name":"user","type":"address","internalType":"address"},{"name":"dailyLimit","type":"uint256","internalType":"uint256"},{"name":"monthlyLimit","type":"uint256","internalType":"uint256"}],"outputs":[],"stateMutability":"nonpayable"},{"type":"function","name":"supportsInterface","inputs":[{"name":"interfaceId","type":"bytes4","internalType":"bytes4"}],"outputs":[{"name":"","type":"bool","internalType":"bool"}],"stateMutability":"view"},{"type":"function","name":"transferLimits","inputs":[{"name":"","type":"address","internalType":"address"}],"outputs":[{"name":"dailyLimit","type":"uint256","internalType":"uint256"},{"name":"monthlyLimit","type":"uint256","internalType":"uint256"},{"name":"dailySpent","type":"uint256","internalType":"uint256"},{"name":"monthlySpent","type":"uint256","internalType":"uint256"},{"name":"lastDailyReset","type":"uint256","internalType":"uint256"},{"name":"lastMonthlyReset","type":"uint256","internalType":"uint256"}],"stateMutability":"view"},{"type":"function","name":"unblacklistAddress","inputs":[{"name":"user","type":"address","internalType":"address"}],"outputs":[],"stateMutability":"nonpayable"},{"type":"function","name":"userCountries","inputs":[{"name":"","type":"address","internalType":"address"}],"outputs":[{"name":"","type":"string","internalType":"string"}],"stateMutability":"view"},{"type":"function","name":"verifyKYC","inputs":[{"name":"user","type":"address","internalType":"address"},{"name":"documentHash","type":"string","internalType":"string"},{"name":"riskLevel","type":"uint8","internalType":"uint8"},{"name":"country","type":"string","internalType":"string"}],"outputs":[],"stateMutability":"nonpayable"},{"type":"event","name":"AMLCleared","inputs":[{"name":"user","type":"address","indexed":true,"internalType":"address"},{"name":"riskScore","type":"uint256","indexed":false,"internalType":"uint256"}],"anonymous":false},{"type":"event","name":"AMLFlagged","inputs":[{"name":"user","type":"address","indexed":true,"internalType":"address"},{"name":"riskScore","type":"uint256","indexed":false,"internalType":"uint256"},{"name":"reason","type":"string","indexed":false,"internalType":"string"}],"anonymous":false},{"type":"event","name":"AddressBlacklisted","inputs":[{"name":"user","type":"address","indexed":true,"internalType":"address"},{"name":"reason","type":"string","indexed":false,"internalType":"string"}],"anonymous":false},{"type":"event","name":"CountryBlacklisted","inputs":[{"name":"country","type":"string","indexed":false,"internalType":"string"}],"anonymous":false},{"type":"event","name":"Initialized","inputs":[{"name":"version","type":"uint64","indexed":false,"internalType":"uint64"}],"anonymous":false},{"type":"event","name":"KYCExpired","inputs":[{"name":"user","type":"address","indexed":true,"internalType":"address"}],"anonymous":false},{"type":"event","name":"KYCVerified","inputs":[{"name":"user","type":"address","indexed":true,"internalType":"address"},{"name":"officer","type":"address","indexed":true,"internalType":"address"},{"name":"expiryDate","type":"uint256","indexed":false,"internalType":"uint256"}],"anonymous":false},{"type":"event","name":"Paused","inputs":[{"name":"account","type":"address","indexed":false,"internalType":"address"}],"anonymous":false},{"type":"event","name":"RoleAdminChanged","inputs":[{"name":"role","type":"bytes32","indexed":true,"internalType":"bytes32"},{"name":"previousAdminRole","type":"bytes32","indexed":true,"internalType":"bytes32"},{"name":"newAdminRole","type":"bytes32","indexed":true,"internalType":"bytes32"}],"anonymous":false},{"type":"event","name":"RoleGranted","inputs":[{"name":"role","type":"bytes32","indexed":true,"internalType":"bytes32"},{"name":"account","type":"address","indexed":true,"internalType":"address"},{"name":"sender","type":"address","indexed":true,"internalType":"address"}],"anonymous":false},{"type":"event","name":"RoleRevoked","inputs":[{"name":"role","type":"bytes32","indexed":true,"internalType":"bytes32"},{"name":"account","type":"address","indexed":true,"internalType":"address"},{"name":"sender","type":"address","indexed":true,"internalType":"address"}],"anonymous":false},{"type":"event","name":"TransferBlocked","inputs":[{"name":"from","type":"address","indexed":true,"internalType":"address"},{"name":"to","type":"address","indexed":true,"internalType":"address"},{"name":"amount","type":"uint256","indexed":false,"internalType":"uint256"},{"name":"reason","type":"string","indexed":false,"internalType":"string"}],"anonymous":false},{"type":"event","name":"TransferLimitSet","inputs":[{"name":"user","type":"address","indexed":true,"internalType":"address"},{"name":"dailyLimit","type":"uint256","indexed":false,"internalType":"uint256"},{"name":"monthlyLimit","type":"uint256","indexed":false,"internalType":"uint256"}],"anonymous":false},{"type":"event","name":"Unpaused","inputs":[{"name":"account","type":"address","indexed":false,"internalType":"address"}],"anonymous":false},{"type":"error","name":"AccessControlBadConfirmation","inputs":[]},{"type":"error","name":"AccessControlUnauthorizedAccount","inputs":[{"name":"account","type":"address","internalType":"address"},{"name":"neededRole","type":"bytes32","internalType":"bytes32"}]},{"type":"error","name":"EnforcedPause","inputs":[]},{"type":"error","name":"ExpectedPause","inputs":[]},{"type":"error","name":"InvalidInitialization","inputs":[]},{"type":"error","name":"NotInitializing","inputs":[]}],"bytecode":{"object":"0x60808060405234610046576301e1338060065562278d00600755604b60085569021e19e0c9bab240000060095569152d02c7e14af6800000600a55612bdf908161004b8239f35b5f80fdfe6080806040526004361015610012575f80fd5b5f905f3560e01c90816301ffc9a714611da957508063076f356514611d1857806313f190d714611cfb578063198596b514611cc1578063248a9ca314611c885780632f2ff15d14611c3f57806332a34ad014611bab57806336568abe14611b645780633a291033146119eb57806340f04a471461193a57806345e349491461187e578063485cc9551461170c578063502fec291461123157806354b7636e1461118c5780635c975abb1461114a57806369efe471146110d95780636c47a99e1461103457806371f8fa0414610f3057806375071d2a14610ef55780637efc2ce014610e93578063809fa11c14610e755780638626d247146108bd5780638868c5b0146107cb5780638d9954ac146106fd57806391d14854146106a7578063a217fddf1461068b578063a6cfb637146105f7578063ab47a2f9146104fb578063aba02c1f146104d2578063c3bb3861146104b4578063c76b088814610496578063d547741f14610448578063d5749d4214610409578063e46638e6146103e5578063ec1eb99514610392578063ec37d259146102c7578063ee01f461146102a9578063f5b70b9f146102335763fdadeb88146101cb575f80fd5b34610230576020366003190112610230576080906040906001600160a01b036101f2611dfc565b16815260016020522060ff8154169060018101549060ff60046002830154920154169160405193151584526020840152604083015215156060820152f35b80fd5b50346102305760603660031901126102305761024d611dfc565b7f6e6772fb99fcc802ec093beba1d99a48c81164f6c389886b0d35f8a22a6aedc060406024356044359361027f612796565b60018060a01b0316938486526002602052806001848820848155015582519182526020820152a280f35b50346102305780600319360112610230576020600a54604051908152f35b5034610230576020366003190112610230576001600160a01b036102e9611dfc565b1681526002602052604081209060405161030281611ea2565b8254815260018301546020820152600283015460408201908152600384015460608301526005600485015494856080850152015460a083015262015180840180941161037e576020934210610377575081905b518181111561037057610368925061237a565b604051908152f35b5050610368565b5190610355565b634e487b7160e01b83526011600452602483fd5b5034610230576020366003190112610230576103e1906103cd906040906001600160a01b036103bf611dfc565b168152600560205220611ef9565b604051918291602083526020830190611fbc565b0390f35b50346102305760206103ff6103f936611fe1565b916123ae565b6040519015158152f35b50346102305760203660031901126102305760209060ff906040906001600160a01b03610434611dfc565b168152600384522054166040519015158152f35b503461023057604036600319011261023057610492600435610468611e12565b908084525f80516020612b8a83398151915260205261048d60016040862001546127f1565b612a6c565b5080f35b50346102305780600319360112610230576020600954604051908152f35b50346102305780600319360112610230576020600654604051908152f35b5034610230578060031936011261023057600b546040516001600160a01b039091168152602090f35b50346102305760209081600319360112610230576040610519611dfc565b918060a0835161052881611ea2565b82815282878201528285820152606080820152826080820152015260018060a01b038093168152808452209060ff6040519261056384611ea2565b81815416151584526001810154928585019384526105e460028301549260408701938452600461059560038301611ef9565b9160608901928352015493608088019684861688528660a08a019660a01c168652604051998a99818b52511515908a01525160408901525160608801525160c0608088015260e0870190611fbc565b93511660a0850152511660c08301520390f35b5034610230576020366003190112610230576004356001600160401b038111610687576106497f6b02a6cc57ccf184e21c825e57df55431eaf7bc597be9ab6a514c267cc7a0574913690600401612016565b90610652612796565b604051828282376020818481016004815203019020600160ff1982541617905561068160405192839283612387565b0390a180f35b5080fd5b5034610230578060031936011261023057602090604051908152f35b50346102305760403660031901126102305760406106c3611e12565b9160043581525f80516020612b8a833981519152602052209060018060a01b03165f52602052602060ff60405f2054166040519015158152f35b503461023057602036600319011261023057604060c09161071c611dfc565b8160a0845161072a81611ea2565b8281528260208201528286820152826060820152826080820152015260018060a01b0316815260026020522060405161076281611ea2565b8154918282526001810154602083019081526002820154604084019081526003830154916060850192835260a0600560048601549560808801968752015495019485526040519586525160208601525160408501525160608401525160808301525160a0820152f35b50346102305760209081600319360112610230576001600160a01b036107ef611dfc565b16815260019060018352604081206040519161080a83611e60565b60ff825416151583526001820154858401526002820154936040840194855260038301805490610839826122fd565b936108476040519586611ed8565b828552908152878120888086015b8484106108a05750888860ff60048a8a6060850152015416151560808201525115159081610889575b506040519015158152f35b6108959150514261237a565b60075410158261087e565b859182916108ad85611ef9565b8152019201920191908990610855565b5034610230576060366003190112610230576108d7611dfc565b6001600160401b036044351161068757366023604435011215610687576001600160401b036044356004013511610687573660246044356004013560051b60443501011161068757610927612796565b61092f612aeb565b606460243511610e3b576008546024351160405161094c81611e60565b81158152602435602082015242604082015261096d604435600401356122fd565b61097a6040519182611ed8565b60443560048101358252602401602082015b60246044356004013560051b60443501018210610e075750506060820152608081018290526001600160a01b03831684526001602052604084208151815460ff191690151560ff161781559060208101516001830155604081015160028301556060810151805190680100000000000000008211610df3576003840154826003860155808310610d7c575b506020016003840187526020872087915b838310610c8357505050509060046080610a53930151151591019060ff801983541691151516179055565b600b5483906001600160a01b031682610c5957604051610a7281611ebd565b600b81526a10535317d0d3115054915160aa1b6020820152905b803b15610bcf5760408051634b34522f60e01b81526001600160a01b038716600482015260248101919091529183918391829084908290610ad1906044830190611fbc565b03925af18015610c4e57610c3a575b5050610b235760405160243581526001600160a01b03909116907fec2aa4b26f918ec72f5fb8f47ad1d1438fb896235585165a86573488a70e3f0090602090a280f35b600460443501351580610be757610bd357604435602481013590360360421901811215610bcf57604435016024810135906001600160401b038211610bcb576044018136038113610bcb57610b9e610bc5917fbe15ac840effb2f48fac9cc510de802a9de09e1a8c132ba05bbad4c77f8088c5933691612043565b925b60405191829160243583526040602084015260018060a01b0316946040830190611fbc565b0390a280f35b8380fd5b8280fd5b634e487b7160e01b82526032600452602482fd5b507fbe15ac840effb2f48fac9cc510de802a9de09e1a8c132ba05bbad4c77f8088c5610bc5604051610c1881611ebd565b600f81526e48696768207269736b2073636f726560881b602082015292610ba0565b610c4390611e8f565b610bcf57825f610ae0565b6040513d84823e3d90fd5b604051610c6581611ebd565b600b81526a10535317d1931051d1d15160aa1b602082015290610a8c565b80518051906001600160401b038211610d6857610caa82610ca48654611e28565b86612337565b6020908b601f8411600114610cfc578360019592946020948796610ce29492610cf1575b50508160011b915f199060031b1c19161790565b85555b01920192019190610a28565b015190505f80610cce565b85905260208c2091908c5b601f1985168110610d50575083602093600196938796938794601f19811610610d38575b505050811b018555610ce5565b01515f1960f88460031b161c191690555f8080610d2b565b91926020600181928685015181550194019201610d07565b634e487b7160e01b8b52604160045260248bfd5b60038501885260208820908382015b8183018110610d9b575050610a17565b808a610da960019354611e28565b80610db7575b505001610d8b565b601f8082118514610dd0575050505f81555b8a5f610daf565b610dea9084845260208420920160051c8201858301612321565b5f835555610dc9565b634e487b7160e01b87526041600452602487fd5b6001600160401b03823511610e375760208091610e2c36602486356044350101612088565b81520191019061098c565b8680fd5b60405162461bcd60e51b8152602060048201526012602482015271496e76616c6964207269736b2073636f726560701b6044820152606490fd5b50346102305780600319360112610230576020600754604051908152f35b503461023057602036600319011261023057600435906001600160401b03821161023057602060ff610edf82610ecc3660048801612088565b8160405193828580945193849201611f9b565b8101600481520301902054166040519015158152f35b503461023057806003193601126102305760206040517f5719df9ef2c4678b547f89e4f5ae410dbf400fc51cf3ded434c55f6adea2c43f8152f35b503461023057604036600319011261023057610f4a611dfc565b6024356001600160401b038111610bcf57610f69903690600401612016565b610f71612796565b6001600160a01b03928316808552600360205260408520805460ff19166001179055600b549093859116803b1561068757818091608460405180948193634b34522f60e01b83528a600484015260406024840152600b60448401526a10931050d2d31254d5115160aa1b60648401525af18015610c4e57611020575b50507fddbfcbca8a6ec25cc3e99e3a7ddc04420eaa6749c91bffcd405e0c3ecc42d9f491610bc560405192839283612387565b61102990611e8f565b610bcb57835f610fed565b50346102305760203660031901126102305760a0906001600160a01b03611059611dfc565b1681526002602052604081206040519061107282611ea2565b805482526001810154916020810192835260028201546040820152600560038301549260608301938452600481015460808401520154948591015262278d00840180941161037e57602093421061037757508190518181111561037057610368925061237a565b50346102305760203660031901126102305760c0906040906001600160a01b03611101611dfc565b16815260026020522080549060018101549060028101546003820154906005600484015493015493604051958652602086015260408501526060840152608083015260a0820152f35b5034610230578060031936011261023057602060ff7fcd5ed15c6e187e77e9aee88184c21f4f2182ab5827cb3b7e07fbedcd63f0330054166040519015158152f35b5034610230576020366003190112610230576020906001600160a01b0390604090826111b6611dfc565b168152808452209060ff604051916111cd83611ea2565b81845416151583526001840154858401526004600285015494604085019586526111f960038201611ef9565b60608601520154908116608084015260a01c1660a0820152511515908161122557506040519015158152f35b9050514211155f61087e565b50346102305760803660031901126102305761124b611dfc565b6024356001600160401b038111610bcf5761126a903690600401612016565b6044359060ff8216809203611708576064356001600160401b03811161170457611298903690600401612016565b9190926112a3612796565b6112ab612aeb565b6001811015806116f9575b156116bf5760ff60405184868237602081868101600481520301902054166116815761130c6112e760065442612314565b95604051936112f585611ea2565b600185524260208601528760408601523691612043565b606083015233608083015260a08201526001600160a01b03851686526020869052604086208151815460ff191690151560ff16178155602082015160018201556040820151600282015560608201518051906001600160401b03821161166d576113868261137d6003860154611e28565b60038601612337565b602090601f83116001146115fe5791806113b892600495948c92610cf15750508160011b915f199060031b1c19161790565b60038201555b60808301519101805460a0938401516001600160a81b03199091166001600160a01b0393841617931b60ff60a01b169290921790915584168552600560205260408520916001600160401b0382116115ea576114248261141e8554611e28565b85612337565b8590601f831160011461158757611451929187918361157c5750508160011b915f199060031b1c19161790565b90555b6009546005600a546040519261146984611ea2565b8352602083019081526040830186815260608401878152608085019142835260a086019342855260018060a01b0389168a52600260205260408a2096518755516001870155516002860155516003850155516004840155519101558260018060a01b03600b5416803b1561068757818091608460405180948193634b34522f60e01b835260018060a01b038a16600484015260406024840152600c60448401526b12d650d7d59154925192515160a21b60648401525af18015610c4e57611568575b505060405190815233916001600160a01b0316907fd8b879062b804f0a2bd0b75ba02d6dbd9999fc9971ece871c8d1aedb447c5f9390602090a380f35b61157190611e8f565b610bcf57825f61152b565b013590505f80610cce565b8387526020872091601f198416885b8181106115d257509084600195949392106115b9575b505050811b019055611454565b01355f19600384901b60f8161c191690555f80806115ac565b91936020600181928787013581550195019201611596565b634e487b7160e01b86526041600452602486fd5b90600384018a5260208a20918a5b601f1985168110611655575091839160019360049695601f1981161061163d575b505050811b0160038201556113be565b01515f1960f88460031b161c191690555f808061162d565b9192602060018192868501518155019401920161160c565b634e487b7160e01b89526041600452602489fd5b60405162461bcd60e51b815260206004820152601660248201527510dbdd5b9d1c9e481a5cc8189b1858dadb1a5cdd195960521b6044820152606490fd5b60405162461bcd60e51b8152602060048201526012602482015271125b9d985b1a59081c9a5cdac81b195d995b60721b6044820152606490fd5b5060058111156112b6565b8580fd5b8480fd5b503461023057604036600319011261023057611726611dfc565b61172e611e12565b907ff0c57e16840df040f15088dc2f81fe391c3923bec73e23a9662efc9c229c6a0091825460ff8160401c1615926001600160401b03821680159081611876575b600114908161186c575b159081611863575b506118515767ffffffffffffffff19821660011785556117cb9184611832575b506117aa612b28565b6117b2612b28565b6117bb8161281f565b506117c5816128a9565b50612956565b5060018060a01b03166bffffffffffffffffffffffff60a01b600b541617600b556117f4575080f35b68ff00000000000000001981541690557fc7f505b2f371ae2175ee4913f4499e1f2633a7b5936321eed1cdaeb6115181d2602060405160018152a180f35b68ffffffffffffffffff1916680100000000000000011785555f6117a1565b60405163f92ee8a960e01b8152600490fd5b9050155f611781565b303b159150611779565b85915061176f565b503461193657602036600319011261193657611898611dfc565b6118a0612796565b6001600160a01b039081165f818152600360205260409020805460ff19169055600b5490911690813b15611936575f91608483926040519485938492634b34522f60e01b8452600484015260406024840152600d60448401526c155390931050d2d31254d51151609a1b60648401525af1801561192b5761191f575080f35b6119299150611e8f565b005b6040513d5f823e3d90fd5b5f80fd5b3461193657602036600319011261193657335f9081527fb7db2dd08fcb62d0c9e08c51941cae53c267786a0b75803fb7960902fc8ef97d60205260409020546004359060ff16156119cd57801561199057600655005b60405162461bcd60e51b8152602060048201526015602482015274125b9d985b1a5908195e1c1a5c9e481c195c9a5bd9605a1b6044820152606490fd5b60405163e2517d3f60e01b81523360048201525f6024820152604490fd5b346119365760208060031936011261193657611a05611dfc565b5f6080604051611a1481611e60565b8281528285820152826040820152606080820152015260018060a01b03165f526001906001815260405f2060405190611a4c82611e60565b60ff81541615158252600181015492808301938452600282015491604084019283526003810190815487611a7f826122fd565b93611a8d6040519586611ed8565b8285525f9081528581208686015b848310611b43575050505050600460ff9160608701938452015416926080850193151584526040519583875260c087019551151584880152516040870152516060860152519260a06080860152835180915260e08501918060e08360051b8801019501925f905b838210611b18578551151560a089015287870388f35b90919293958380611b348b9360df198c82030186528a51611fbc565b98019201920190939291611b02565b83888192611b53859d9b9d611ef9565b815201920192019190989698611a9b565b3461193657604036600319011261193657611b7d611e12565b336001600160a01b03821603611b995761192990600435612a6c565b60405163334bd91960e11b8152600490fd5b3461193657611bb936611fe1565b335f9081527f021e7b47d957252238e482ce63807c8c87d29d066c819e84063657a50c13de0060205260409020549092907f5719df9ef2c4678b547f89e4f5ae410dbf400fc51cf3ded434c55f6adea2c43f9060ff1615611c215760206103ff8585856120be565b6044906040519063e2517d3f60e01b82523360048301526024820152fd5b3461193657604036600319011261193657611929600435611c5e611e12565b90805f525f80516020612b8a833981519152602052611c83600160405f2001546127f1565b6129fc565b34611936576020366003190112611936576004355f525f80516020612b8a8339815191526020526020600160405f200154604051908152f35b34611936575f3660031901126119365760206040517fb6f0283bd1ed00c6aa7e988a7516070240f3610a34d167391359b648eb37cefc8152f35b34611936575f366003190112611936576020600854604051908152f35b34611936576020366003190112611936576001600160a01b0380611d3a611dfc565b165f525f60205260405f209060ff8254169060ff600184015493611d946002820154916004611d6b60038301611ef9565b91015492604051978897151588526020880152604087015260c0606087015260c0860190611fbc565b928116608085015260a01c1660a08301520390f35b34611936576020366003190112611936576004359063ffffffff60e01b821680920361193657602091637965db0b60e01b8114908115611deb575b5015158152f35b6301ffc9a760e01b14905083611de4565b600435906001600160a01b038216820361193657565b602435906001600160a01b038216820361193657565b90600182811c92168015611e56575b6020831014611e4257565b634e487b7160e01b5f52602260045260245ffd5b91607f1691611e37565b60a081019081106001600160401b03821117611e7b57604052565b634e487b7160e01b5f52604160045260245ffd5b6001600160401b038111611e7b57604052565b60c081019081106001600160401b03821117611e7b57604052565b604081019081106001600160401b03821117611e7b57604052565b90601f801991011681019081106001600160401b03821117611e7b57604052565b9060405191825f8254611f0b81611e28565b908184526020946001916001811690815f14611f795750600114611f3b575b505050611f3992500383611ed8565b565b5f90815285812095935091905b818310611f61575050611f3993508201015f8080611f2a565b85548884018501529485019487945091830191611f48565b92505050611f3994925060ff191682840152151560051b8201015f8080611f2a565b5f5b838110611fac5750505f910152565b8181015183820152602001611f9d565b90602091611fd581518092818552858086019101611f9b565b601f01601f1916010190565b6060906003190112611936576001600160a01b0390600435828116810361193657916024359081168103611936579060443590565b9181601f84011215611936578235916001600160401b038311611936576020838186019501011161193657565b9291926001600160401b038211611e7b576040519161206c601f8201601f191660200184611ed8565b829481845281830111611936578281602093845f960137010152565b9080601f83011215611936578160206120a393359101612043565b90565b90816020910312611936575180151581036119365790565b60409182516372331c7360e11b815260018060a01b03809316928360048301528083168060248401528660448401526020928381606481305afa9081156122f3575f916122c6575b50156122615750835f5260028252845f2060048101805462015180810180911161223e57421015612252575b50600581019081549162278d00830180931161223e57600392421015612230575b5060028101612163898254612314565b905501612171878254612314565b9055600b5416908451926bffffffffffffffffffffffff199060601b16908301526014825261219f82611ebd565b803b1561193657612201945f809486519788958694859363a66dc69360e01b85527fb71c05abca0d6f78d13be4b9327de1b5773bf99af6b3823c7af2ec6fcf1a7276600486015260248501526044840152608060648401526084830190611fbc565b03925af19081156122275750612218575b50600190565b61222190611e8f565b5f612212565b513d5f823e3d90fd5b5f838301554290555f612153565b634e487b7160e01b5f52601160045260245ffd5b5f60028301554290555f612132565b9591608093506017915094807f1cd777a4ec443eb956395f9e9826b4af21e70dd5040dcaa08ac23efd0d479d0c959681519485528401528201527f436f6d706c69616e636520636865636b206661696c65640000000000000000006060820152a35f90565b6122e69150843d86116122ec575b6122de8183611ed8565b8101906120a6565b5f612106565b503d6122d4565b87513d5f823e3d90fd5b6001600160401b038111611e7b5760051b60200190565b9190820180921161223e57565b81811061232c575050565b5f8155600101612321565b9190601f811161234657505050565b611f39925f5260205f20906020601f840160051c83019310612370575b601f0160051c0190612321565b9091508190612363565b9190820391821161223e57565b90918060409360208452816020850152848401375f828201840152601f01601f1916010190565b909160018060a01b0380921691825f526020926003845260409060ff825f2054168015612784575b61258c57805f5260058552815f20958251965f978154916123f683611e28565b906001936001811690815f1461276c5750600114612733575b5050808860ff9260049b8c8152030190205416908115612695575b5061268a578251632a5bb1b760e11b8082528882018490526024959188818881305afa908115612605575f9161266d575b501590811561261b575b5061260f5783516308868c5b60e41b808252898201859052919088818881305afa908115612605575f916125e8575b5015928315612596575b50505061258c575f5260028452805f20948151926124bb84611ea2565b865484526001870154958401958652600287015480938501526003870154928360608601526005838901549889608088015201549060a08601918252939762015180810180911161257a57421015612572575b519162278d008301809311612561575050421015612559575b8261253191612314565b905110159283612542575b50505090565b61254d929350612314565b905110155f808061253c565b5f9450612527565b601190634e487b7160e01b5f52525ffd5b5f935061250e565b82601185634e487b7160e01b5f52525ffd5b5050505050505f90565b85519283521688820152905085818581305afa9081156125de575f916125c1575b50155f808061249e565b6125d89150863d88116122ec576122de8183611ed8565b5f6125b7565b83513d5f823e3d90fd5b6125ff9150893d8b116122ec576122de8183611ed8565b5f612494565b86513d5f823e3d90fd5b50505050505050505f90565b905084519081528183168982015287818781305afa908115612663575f91612646575b50155f612465565b61265d9150883d8a116122ec576122de8183611ed8565b5f61263e565b85513d5f823e3d90fd5b6126849150893d8b116122ec576122de8183611ed8565b5f61245b565b505050505050505f90565b90508482165f5260058752835f20878551915f938154916126b583611e28565b926001811690811561271957506001146126e0575b50505081838b60ff95520301902054165f61242a565b9091929394505f52825f20905f915b83831061270657505050820191908160ff5f6126ca565b8054868401528b949092019181016126ef565b60ff1916865250505080151502820192508160ff5f6126ca565b909199505f52875f2088835f925b848410612759575050505060ff90890198905f61240f565b8c84825491015201910190838a91612741565b60ff191684525050801515028101985060ff5f61240f565b508286165f5260ff825f2054166123d6565b335f9081527f23d886c6f9a94043c0d27a87cde5049921a4edbcbc15354d62e2840b79c5c8ff60205260409020547fb6f0283bd1ed00c6aa7e988a7516070240f3610a34d167391359b648eb37cefc9060ff1615611c215750565b805f525f80516020612b8a83398151915260205260405f20335f5260205260ff60405f20541615611c215750565b6001600160a01b03165f8181527fb7db2dd08fcb62d0c9e08c51941cae53c267786a0b75803fb7960902fc8ef97d60205260409020545f80516020612b8a8339815191529060ff166128a3575f805260205260405f20815f5260205260405f20600160ff1982541617905533905f5f80516020612b6a8339815191528180a4600190565b50505f90565b6001600160a01b03165f8181527f23d886c6f9a94043c0d27a87cde5049921a4edbcbc15354d62e2840b79c5c8ff60205260409020547fb6f0283bd1ed00c6aa7e988a7516070240f3610a34d167391359b648eb37cefc91905f80516020612b8a8339815191529060ff1661294f57825f5260205260405f20815f5260205260405f20600160ff1982541617905533915f80516020612b6a8339815191525f80a4600190565b5050505f90565b6001600160a01b03165f8181527f021e7b47d957252238e482ce63807c8c87d29d066c819e84063657a50c13de0060205260409020547f5719df9ef2c4678b547f89e4f5ae410dbf400fc51cf3ded434c55f6adea2c43f91905f80516020612b8a8339815191529060ff1661294f57825f5260205260405f20815f5260205260405f20600160ff1982541617905533915f80516020612b6a8339815191525f80a4600190565b90815f525f80516020612b8a8339815191528060205260405f209160018060a01b031691825f5260205260ff60405f205416155f1461294f57825f5260205260405f20815f5260205260405f20600160ff1982541617905533915f80516020612b6a8339815191525f80a4600190565b90815f525f80516020612b8a8339815191528060205260405f209160018060a01b031691825f5260205260ff60405f2054165f1461294f57825f5260205260405f20815f5260205260405f2060ff19815416905533917ff6391f5c32d9c69d2a47ea670b442974b53935d1edc7fd64eb21e047a839171b5f80a4600190565b60ff7fcd5ed15c6e187e77e9aee88184c21f4f2182ab5827cb3b7e07fbedcd63f033005416612b1657565b60405163d93c066560e01b8152600490fd5b60ff7ff0c57e16840df040f15088dc2f81fe391c3923bec73e23a9662efc9c229c6a005460401c1615612b5757565b604051631afcd79f60e31b8152600490fdfe2f8788117e7eff1d82e926ec794901d17c78024a50270940304540a733656f0d02dd7bc7dec4dceedda775e58dd541e08a116c6c53815c0bd028192f7b626800a26469706673582212203eb8259f854b26aaaf3ee8aa7206a41727b2cb0cab14479cae6df552060a80f264736f6c63430008160033","linkReferences":{}},"methodIdentifiers":{"COMPLIANCE_OFFICER_ROLE()":"198596b5","DEFAULT_ADMIN_ROLE()":"a217fddf","SYSTEM_ROLE()":"75071d2a","amlRecheckPeriod()":"809fa11c","amlStatus(address)":"fdadeb88","auditTrail()":"aba02c1f","authorizeTransfer(address,address,uint256)":"32a34ad0","blacklistAddress(address,string)":"71f8fa04","blacklistCountry(string)":"a6cfb637","blacklistedAddresses(address)":"d5749d42","blacklistedCountries(string)":"7efc2ce0","canTransfer(address,address,uint256)":"e46638e6","clearAML(address,uint256,string[])":"8626d247","defaultDailyLimit()":"c76b0888","defaultMonthlyLimit()":"ee01f461","getAMLStatus(address)":"3a291033","getKYCData(address)":"ab47a2f9","getRemainingDailyLimit(address)":"ec37d259","getRemainingMonthlyLimit(address)":"6c47a99e","getRoleAdmin(bytes32)":"248a9ca3","getTransferLimits(address)":"8d9954ac","grantRole(bytes32,address)":"2f2ff15d","hasRole(bytes32,address)":"91d14854","initialize(address,address)":"485cc955","isAMLCleared(address)":"8868c5b0","isKYCVerified(address)":"54b7636e","kycData(address)":"076f3565","kycExpiryPeriod()":"c3bb3861","maxRiskScore()":"13f190d7","paused()":"5c975abb","renounceRole(bytes32,address)":"36568abe","revokeRole(bytes32,address)":"d547741f","setKYCExpiryPeriod(uint256)":"40f04a47","setTransferLimits(address,uint256,uint256)":"f5b70b9f","supportsInterface(bytes4)":"01ffc9a7","transferLimits(address)":"69efe471","unblacklistAddress(address)":"45e34949","userCountries(address)":"ec1eb995","verifyKYC(address,string,uint8,string)":"502fec29"},"id":4}