{"abi":[{"type":"receive","stateMutability":"payable"},{"type":"function","name":"acquisitionTime","inputs":[{"name":"","type":"address","internalType":"address"}],"outputs":[{"name":"","type":"uint256","internalType":"uint256"}],"stateMutability":"view"},{"type":"function","name":"allowance","inputs":[{"name":"owner","type":"address","internalType":"address"},{"name":"spender","type":"address","internalType":"address"}],"outputs":[{"name":"","type":"uint256","internalType":"uint256"}],"stateMutability":"view"},{"type":"function","name":"approve","inputs":[{"name":"spender","type":"address","internalType":"address"},{"name":"value","type":"uint256","internalType":"uint256"}],"outputs":[{"name":"","type":"bool","internalType":"bool"}],"stateMutability":"nonpayable"},{"type":"function","name":"auditTrail","inputs":[],"outputs":[{"name":"","type":"address","internalType":"contract IAuditTrail"}],"stateMutability":"view"},{"type":"function","name":"balanceOf","inputs":[{"name":"account","type":"address","internalType":"address"}],"outputs":[{"name":"","type":"uint256","internalType":"uint256"}],"stateMutability":"view"},{"type":"function","name":"burn","inputs":[{"name":"amount","type":"uint256","internalType":"uint256"}],"outputs":[],"stateMutability":"nonpayable"},{"type":"function","name":"canTransfer","inputs":[{"name":"from","type":"address","internalType":"address"},{"name":"to","type":"address","internalType":"address"},{"name":"amount","type":"uint256","internalType":"uint256"}],"outputs":[{"name":"","type":"bool","internalType":"bool"}],"stateMutability":"view"},{"type":"function","name":"claimAllDividends","inputs":[],"outputs":[],"stateMutability":"nonpayable"},{"type":"function","name":"claimDividend","inputs":[{"name":"dividendId","type":"uint256","internalType":"uint256"}],"outputs":[],"stateMutability":"nonpayable"},{"type":"function","name":"complianceManager","inputs":[],"outputs":[{"name":"","type":"address","internalType":"contract IComplianceManager"}],"stateMutability":"view"},{"type":"function","name":"decimals","inputs":[],"outputs":[{"name":"","type":"uint8","internalType":"uint8"}],"stateMutability":"view"},{"type":"function","name":"distributeDividend","inputs":[],"outputs":[],"stateMutability":"payable"},{"type":"function","name":"dividends","inputs":[{"name":"","type":"uint256","internalType":"uint256"}],"outputs":[{"name":"totalAmount","type":"uint256","internalType":"uint256"},{"name":"timestamp","type":"uint256","internalType":"uint256"},{"name":"claimedAmount","type":"uint256","internalType":"uint256"}],"stateMutability":"view"},{"type":"function","name":"dividendsEnabled","inputs":[],"outputs":[{"name":"","type":"bool","internalType":"bool"}],"stateMutability":"view"},{"type":"function","name":"emergencyWithdraw","inputs":[],"outputs":[],"stateMutability":"nonpayable"},{"type":"function","name":"enableDividends","inputs":[{"name":"enabled","type":"bool","internalType":"bool"}],"outputs":[],"stateMutability":"nonpayable"},{"type":"function","name":"freezeAccount","inputs":[{"name":"account","type":"address","internalType":"address"},{"name":"frozen","type":"bool","internalType":"bool"}],"outputs":[],"stateMutability":"nonpayable"},{"type":"function","name":"frozenAccounts","inputs":[{"name":"","type":"address","internalType":"address"}],"outputs":[{"name":"","type":"bool","internalType":"bool"}],"stateMutability":"view"},{"type":"function","name":"getDividendInfo","inputs":[{"name":"dividendId","type":"uint256","internalType":"uint256"}],"outputs":[{"name":"totalAmount","type":"uint256","internalType":"uint256"},{"name":"timestamp","type":"uint256","internalType":"uint256"},{"name":"claimedAmount","type":"uint256","internalType":"uint256"},{"name":"userClaimed","type":"bool","internalType":"bool"},{"name":"userEntitlement","type":"uint256","internalType":"uint256"}],"stateMutability":"view"},{"type":"function","name":"getLastTransferTime","inputs":[{"name":"account","type":"address","internalType":"address"}],"outputs":[{"name":"","type":"uint256","internalType":"uint256"}],"stateMutability":"view"},{"type":"function","name":"getMetadata","inputs":[],"outputs":[{"name":"","type":"tuple","internalType":"struct AssetToken.TokenMetadata","components":[{"name":"description","type":"string","internalType":"string"},{"name":"imageURI","type":"string","internalType":"string"},{"name":"documentURI","type":"string","internalType":"string"},{"name":"assetValue","type":"uint256","internalType":"uint256"},{"name":"jurisdiction","type":"string","internalType":"string"}]}],"stateMutability":"view"},{"type":"function","name":"getRemainingCooldown","inputs":[{"name":"account","type":"address","internalType":"address"}],"outputs":[{"name":"","type":"uint256","internalType":"uint256"}],"stateMutability":"view"},{"type":"function","name":"getTotalDividendsSummary","inputs":[],"outputs":[{"name":"totalDistributed","type":"uint256","internalType":"uint256"},{"name":"totalClaimed","type":"uint256","internalType":"uint256"},{"name":"totalUnclaimed","type":"uint256","internalType":"uint256"},{"name":"nextDividend","type":"uint256","internalType":"uint256"}],"stateMutability":"view"},{"type":"function","name":"getTransferRestriction","inputs":[],"outputs":[{"name":"isActive","type":"bool","internalType":"bool"},{"name":"minAmount","type":"uint256","internalType":"uint256"},{"name":"maxAmount","type":"uint256","internalType":"uint256"},{"name":"cooldownPeriod","type":"uint256","internalType":"uint256"}],"stateMutability":"view"},{"type":"function","name":"getUnclaimedDividends","inputs":[{"name":"holder","type":"address","internalType":"address"}],"outputs":[{"name":"totalUnclaimed","type":"uint256","internalType":"uint256"}],"stateMutability":"view"},{"type":"function","name":"getUserDividendSummary","inputs":[{"name":"user","type":"address","internalType":"address"}],"outputs":[{"name":"totalCredited","type":"uint256","internalType":"uint256"},{"name":"totalUnclaimed","type":"uint256","internalType":"uint256"},{"name":"eligibleDividends","type":"uint256","internalType":"uint256"}],"stateMutability":"view"},{"type":"function","name":"initialize","inputs":[{"name":"name","type":"string","internalType":"string"},{"name":"symbol","type":"string","internalType":"string"},{"name":"totalSupply","type":"uint256","internalType":"uint256"},{"name":"decimals_","type":"uint8","internalType":"uint8"},{"name":"owner","type":"address","internalType":"address"},{"name":"_complianceManager","type":"address","internalType":"address"},{"name":"_auditTrail","type":"address","internalType":"address"}],"outputs":[],"stateMutability":"nonpayable"},{"type":"function","name":"metadata","inputs":[],"outputs":[{"name":"description","type":"string","internalType":"string"},{"name":"imageURI","type":"string","internalType":"string"},{"name":"documentURI","type":"string","internalType":"string"},{"name":"assetValue","type":"uint256","internalType":"uint256"},{"name":"jurisdiction","type":"string","internalType":"string"}],"stateMutability":"view"},{"type":"function","name":"minHoldingPeriod","inputs":[],"outputs":[{"name":"","type":"uint256","internalType":"uint256"}],"stateMutability":"view"},{"type":"function","name":"mint","inputs":[{"name":"to","type":"address","internalType":"address"},{"name":"amount","type":"uint256","internalType":"uint256"}],"outputs":[],"stateMutability":"nonpayable"},{"type":"function","name":"name","inputs":[],"outputs":[{"name":"","type":"string","internalType":"string"}],"stateMutability":"view"},{"type":"function","name":"nextDividendId","inputs":[],"outputs":[{"name":"","type":"uint256","internalType":"uint256"}],"stateMutability":"view"},{"type":"function","name":"owner","inputs":[],"outputs":[{"name":"","type":"address","internalType":"address"}],"stateMutability":"view"},{"type":"function","name":"pause","inputs":[],"outputs":[],"stateMutability":"nonpayable"},{"type":"function","name":"paused","inputs":[],"outputs":[{"name":"","type":"bool","internalType":"bool"}],"stateMutability":"view"},{"type":"function","name":"recoverERC20","inputs":[{"name":"tokenAddress","type":"address","internalType":"address"},{"name":"tokenAmount","type":"uint256","internalType":"uint256"}],"outputs":[],"stateMutability":"nonpayable"},{"type":"function","name":"renounceOwnership","inputs":[],"outputs":[],"stateMutability":"nonpayable"},{"type":"function","name":"setAuditTrail","inputs":[{"name":"_auditTrail","type":"address","internalType":"address"}],"outputs":[],"stateMutability":"nonpayable"},{"type":"function","name":"setComplianceManager","inputs":[{"name":"_complianceManager","type":"address","internalType":"address"}],"outputs":[],"stateMutability":"nonpayable"},{"type":"function","name":"setMinHoldingPeriod","inputs":[{"name":"period","type":"uint256","internalType":"uint256"}],"outputs":[],"stateMutability":"nonpayable"},{"type":"function","name":"setTransferRestriction","inputs":[{"name":"isActive","type":"bool","internalType":"bool"},{"name":"minAmount","type":"uint256","internalType":"uint256"},{"name":"maxAmount","type":"uint256","internalType":"uint256"},{"name":"cooldownPeriod","type":"uint256","internalType":"uint256"}],"outputs":[],"stateMutability":"nonpayable"},{"type":"function","name":"symbol","inputs":[],"outputs":[{"name":"","type":"string","internalType":"string"}],"stateMutability":"view"},{"type":"function","name":"toggleTransfers","inputs":[],"outputs":[],"stateMutability":"nonpayable"},{"type":"function","name":"totalDividends","inputs":[],"outputs":[{"name":"","type":"uint256","internalType":"uint256"}],"stateMutability":"view"},{"type":"function","name":"totalDividendsClaimed","inputs":[],"outputs":[{"name":"","type":"uint256","internalType":"uint256"}],"stateMutability":"view"},{"type":"function","name":"totalDividendsCreditedTo","inputs":[{"name":"","type":"address","internalType":"address"}],"outputs":[{"name":"","type":"uint256","internalType":"uint256"}],"stateMutability":"view"},{"type":"function","name":"totalSupply","inputs":[],"outputs":[{"name":"","type":"uint256","internalType":"uint256"}],"stateMutability":"view"},{"type":"function","name":"transfer","inputs":[{"name":"to","type":"address","internalType":"address"},{"name":"value","type":"uint256","internalType":"uint256"}],"outputs":[{"name":"","type":"bool","internalType":"bool"}],"stateMutability":"nonpayable"},{"type":"function","name":"transferFrom","inputs":[{"name":"from","type":"address","internalType":"address"},{"name":"to","type":"address","internalType":"address"},{"name":"value","type":"uint256","internalType":"uint256"}],"outputs":[{"name":"","type":"bool","internalType":"bool"}],"stateMutability":"nonpayable"},{"type":"function","name":"transferOwnership","inputs":[{"name":"newOwner","type":"address","internalType":"address"}],"outputs":[],"stateMutability":"nonpayable"},{"type":"function","name":"transferRestriction","inputs":[],"outputs":[{"name":"isActive","type":"bool","internalType":"bool"},{"name":"minAmount","type":"uint256","internalType":"uint256"},{"name":"maxAmount","type":"uint256","internalType":"uint256"},{"name":"cooldownPeriod","type":"uint256","internalType":"uint256"}],"stateMutability":"view"},{"type":"function","name":"transferWhitelist","inputs":[{"name":"","type":"address","internalType":"address"}],"outputs":[{"name":"","type":"bool","internalType":"bool"}],"stateMutability":"view"},{"type":"function","name":"transfersEnabled","inputs":[],"outputs":[{"name":"","type":"bool","internalType":"bool"}],"stateMutability":"view"},{"type":"function","name":"unpause","inputs":[],"outputs":[],"stateMutability":"nonpayable"},{"type":"function","name":"updateMetadata","inputs":[{"name":"description","type":"string","internalType":"string"},{"name":"imageURI","type":"string","internalType":"string"},{"name":"documentURI","type":"string","internalType":"string"},{"name":"assetValue","type":"uint256","internalType":"uint256"},{"name":"jurisdiction","type":"string","internalType":"string"}],"outputs":[],"stateMutability":"nonpayable"},{"type":"function","name":"whitelistTransfer","inputs":[{"name":"account","type":"address","internalType":"address"},{"name":"whitelisted","type":"bool","internalType":"bool"}],"outputs":[],"stateMutability":"nonpayable"},{"type":"event","name":"AccountFrozen","inputs":[{"name":"account","type":"address","indexed":true,"internalType":"address"},{"name":"frozen","type":"bool","indexed":false,"internalType":"bool"}],"anonymous":false},{"type":"event","name":"Approval","inputs":[{"name":"owner","type":"address","indexed":true,"internalType":"address"},{"name":"spender","type":"address","indexed":true,"internalType":"address"},{"name":"value","type":"uint256","indexed":false,"internalType":"uint256"}],"anonymous":false},{"type":"event","name":"ComplianceManagerUpdated","inputs":[{"name":"oldManager","type":"address","indexed":true,"internalType":"address"},{"name":"newManager","type":"address","indexed":true,"internalType":"address"}],"anonymous":false},{"type":"event","name":"DividendClaimed","inputs":[{"name":"dividendId","type":"uint256","indexed":true,"internalType":"uint256"},{"name":"holder","type":"address","indexed":true,"internalType":"address"},{"name":"amount","type":"uint256","indexed":false,"internalType":"uint256"}],"anonymous":false},{"type":"event","name":"DividendDistributed","inputs":[{"name":"dividendId","type":"uint256","indexed":true,"internalType":"uint256"},{"name":"totalAmount","type":"uint256","indexed":false,"internalType":"uint256"},{"name":"timestamp","type":"uint256","indexed":false,"internalType":"uint256"}],"anonymous":false},{"type":"event","name":"Initialized","inputs":[{"name":"version","type":"uint64","indexed":false,"internalType":"uint64"}],"anonymous":false},{"type":"event","name":"MetadataUpdated","inputs":[{"name":"description","type":"string","indexed":false,"internalType":"string"},{"name":"imageURI","type":"string","indexed":false,"internalType":"string"},{"name":"documentURI","type":"string","indexed":false,"internalType":"string"}],"anonymous":false},{"type":"event","name":"MinHoldingPeriodUpdated","inputs":[{"name":"oldPeriod","type":"uint256","indexed":false,"internalType":"uint256"},{"name":"newPeriod","type":"uint256","indexed":false,"internalType":"uint256"}],"anonymous":false},{"type":"event","name":"OwnershipTransferred","inputs":[{"name":"previousOwner","type":"address","indexed":true,"internalType":"address"},{"name":"newOwner","type":"address","indexed":true,"internalType":"address"}],"anonymous":false},{"type":"event","name":"Paused","inputs":[{"name":"account","type":"address","indexed":false,"internalType":"address"}],"anonymous":false},{"type":"event","name":"Transfer","inputs":[{"name":"from","type":"address","indexed":true,"internalType":"address"},{"name":"to","type":"address","indexed":true,"internalType":"address"},{"name":"value","type":"uint256","indexed":false,"internalType":"uint256"}],"anonymous":false},{"type":"event","name":"TransferRestrictionUpdated","inputs":[{"name":"isActive","type":"bool","indexed":false,"internalType":"bool"},{"name":"minAmount","type":"uint256","indexed":false,"internalType":"uint256"},{"name":"maxAmount","type":"uint256","indexed":false,"internalType":"uint256"},{"name":"cooldownPeriod","type":"uint256","indexed":false,"internalType":"uint256"}],"anonymous":false},{"type":"event","name":"TransferWhitelisted","inputs":[{"name":"account","type":"address","indexed":true,"internalType":"address"},{"name":"whitelisted","type":"bool","indexed":false,"internalType":"bool"}],"anonymous":false},{"type":"event","name":"TransfersToggled","inputs":[{"name":"enabled","type":"bool","indexed":false,"internalType":"bool"}],"anonymous":false},{"type":"event","name":"Unpaused","inputs":[{"name":"account","type":"address","indexed":false,"internalType":"address"}],"anonymous":false},{"type":"error","name":"ERC20InsufficientAllowance","inputs":[{"name":"spender","type":"address","internalType":"address"},{"name":"allowance","type":"uint256","internalType":"uint256"},{"name":"needed","type":"uint256","internalType":"uint256"}]},{"type":"error","name":"ERC20InsufficientBalance","inputs":[{"name":"sender","type":"address","internalType":"address"},{"name":"balance","type":"uint256","internalType":"uint256"},{"name":"needed","type":"uint256","internalType":"uint256"}]},{"type":"error","name":"ERC20InvalidApprover","inputs":[{"name":"approver","type":"address","internalType":"address"}]},{"type":"error","name":"ERC20InvalidReceiver","inputs":[{"name":"receiver","type":"address","internalType":"address"}]},{"type":"error","name":"ERC20InvalidSender","inputs":[{"name":"sender","type":"address","internalType":"address"}]},{"type":"error","name":"ERC20InvalidSpender","inputs":[{"name":"spender","type":"address","internalType":"address"}]},{"type":"error","name":"EnforcedPause","inputs":[]},{"type":"error","name":"ExpectedPause","inputs":[]},{"type":"error","name":"InvalidInitialization","inputs":[]},{"type":"error","name":"NotInitializing","inputs":[]},{"type":"error","name":"OwnableInvalidOwner","inputs":[{"name":"owner","type":"address","internalType":"address"}]},{"type":"error","name":"OwnableUnauthorizedAccount","inputs":[{"name":"account","type":"address","internalType":"address"}]}],"bytecode":{"object":"0x6080806040523461003557600161ffff19600f541617600f555f6010555f60115560016012555f6013556139da908161003a8239f35b5f80fdfe6080604052600436101561001a575b3615610018575f80fd5b005b5f803560e01c806306fdde03146127ce578063095ea7b31461274f5780630cb795e8146126a2578063115ad967146125c657806318160ddd1461259d5780632283face1461256557806323b872dd1461249d578063313ce5671461247e57806331d365a4146123fc578063392f37e9146123775780633e5ac28f1461231d5780633f4ba83a146122a857806340c10f191461215657806342966c6814611f38578063461d338c14611e735780634d4b9c7114611ee25780635c975abb14611eb35780635d32f0d214611e735780636e12936514611e3a57806370a0823114611df5578063715018a614611d8c5780637a5b4f5914611c9c5780637ffbe24114611c5d578063814b3fe014611c1157806381c369da14611a405780638456cb59146119c6578063860838a5146119875780638980f11f1461189b5780638c9298371461187d5780638da5cb5b146118485780638df667dc1461180f57806395d89b41146117df578063997664d7146117c15780639abd35721461157d5780639cd5e35a146115415780639f13464e14611523578063a56ce8ad14610eef578063a576b5da14610e2c578063a9059cbb14610dfa578063aa8241a714610ddc578063aba02c1f14610db3578063af3f56ae14610d8f578063b0c660c014610c9b578063b7160b4414610c24578063bb6c6d3114610bfe578063bef97c8714610bdb578063ce246e631461063a578063db2e21bc146105a8578063dd62ed3e14610556578063e46638e614610532578063e53792a0146104f4578063e6f3e004146104c8578063e724529c14610449578063f2fde38b1461041c578063f6ef8f0a146102ba5763ff7bce231461028d575061000e565b346102b757806003193601126102b7575460405160089190911c6001600160a01b03168152602090f35b80fd5b50806003193601126102b7576102ce6132d9565b34156103e25760ff600f5460081c16156103a5575f8051602061392583398151915254156103605760125461030281613032565b601255808252600460205281600260408220348155426001820155015561032b34601054612f06565b6010557f63d71f07eb936381fc294fbded2b933703b98e1387a0c92bc886c12ae4f117c260408051348152426020820152a280f35b60405162461bcd60e51b815260206004820152601860248201527f4e6f20746f6b656e7320696e2063697263756c6174696f6e00000000000000006044820152606490fd5b60405162461bcd60e51b8152602060048201526015602482015274111a5d9a59195b991cc81b9bdd08195b98589b1959605a1b6044820152606490fd5b60405162461bcd60e51b8152602060048201526012602482015271139bc8191a5d9a59195b9908185b5bdd5b9d60721b6044820152606490fd5b50346102b75760203660031901126102b75761044661043961282f565b6104416132d9565b613268565b80f35b50346102b75760403660031901126102b75761046361282f565b7fa33e6b076d391e96626483b30e365719f79f1d6594aff6587649ffd6c82ed7fa602061048e612854565b926104976132d9565b6001600160a01b03168085526003825260408520805460ff191660ff86151516179055925b6040519015158152a280f35b50346102b75760203660031901126102b75760206104ec6104e761282f565b61320e565b604051908152f35b50346102b757806003193601126102b75760806010546011546105178183613201565b60125491604051938452602084015260408301526060820152f35b50346102b757602061054c610546366128c0565b91613040565b6040519015158152f35b50346102b75760403660031901126102b75761057061282f565b6024356001600160a01b03811691908290036105a45761058f90612888565b905f52602052602060405f2054604051908152f35b5f80fd5b50346102b757806003193601126102b7576105c16132d9565b4780156105fe575f805160206139058339815191525482918291829182916001600160a01b031682f1156105f25780f35b604051903d90823e3d90fd5b60405162461bcd60e51b81526020600482015260146024820152734e6f2066756e647320746f20776974686472617760601b6044820152606490fd5b50346102b75760e03660031901126102b7576004356001600160401b038111610bd75761066b903690600401612dad565b906024356001600160401b038111610bd75761068b903690600401612dad565b9160643560ff81168103610bd3576001600160a01b0360843580821690036105a4578060a4351660a435036105a45760c4359481861686036105a4575f8051602061398583398151915254936001600160401b03851680159081610bc3575b6001149081610bb9575b159081610bb0575b50610b9e5760016001600160401b03198616175f805160206139858339815191525560ff8560401c1615610b72575b610733613856565b61073b613856565b8051906001600160401b038211610b5e576107635f805160206138a5833981519152546128f5565b601f8111610aee575b50602090601f8311600114610a635761079c929188918361094d575b50508160011b915f199060031b1c19161790565b5f805160206138a5833981519152555b8051906001600160401b038211610a4f576107d45f805160206138e5833981519152546128f5565b601f81116109df575b50602090601f83116001146109585761080c929187918361094d5750508160011b915f199060031b1c19161790565b5f805160206138e5833981519152555b610824613856565b61082c613856565b610837608435613268565b61083f613856565b60ff199160ff811683865416178555604d60ff8216116109395760ff949561087a61087287859416600a0a604435612e44565b6084356137e0565b8654610100600160a81b0360a43560081b1690610100600160a81b031916178755166001600160601b0360a01b60015416176001556084351684526014602052426040852055600a5416600a556001600b555f19600c5582600d5560401c16156108e15780f35b68ff0000000000000000195f8051602061398583398151915254165f80516020613985833981519152557fc7f505b2f371ae2175ee4913f4499e1f2633a7b5936321eed1cdaeb6115181d2602060405160018152a180f35b634e487b7160e01b85526011600452602485fd5b015190505f80610788565b5f805160206138e583398151915287525f805160206139658339815191529190601f198416885b8181106109c757509084600195949392106109af575b505050811b015f805160206138e58339815191525561081c565b01515f1960f88460031b161c191690555f8080610995565b9293602060018192878601518155019501930161097f565b5f805160206138e58339815191525f52601f830160051c5f805160206139658339815191520160208410610a3b575b601f820160051c5f80516020613965833981519152018110610a3057506107dd565b5f8155600101610a0e565b505f80516020613965833981519152610a0e565b634e487b7160e01b86526041600452602486fd5b5f805160206138a583398151915288528792915f80516020613885833981519152915b601f1984168510610ad3576001945083601f19811610610abb575b505050811b015f805160206138a5833981519152556107ac565b01515f1960f88460031b161c191690555f8080610aa1565b81810151835560209485019460019093019290910190610a86565b5f805160206138a58339815191525f52601f830160051c5f805160206138858339815191520160208410610b4a575b601f820160051c5f80516020613885833981519152018110610b3f575061076c565b5f8155600101610b1d565b505f80516020613885833981519152610b1d565b634e487b7160e01b87526041600452602487fd5b68ffffffffffffffffff19851668010000000000000001175f805160206139858339815191525561072b565b60405163f92ee8a960e01b8152600490fd5b9050155f6106fc565b303b1591506106f4565b604087901c60ff161591506106ea565b8280fd5b5080fd5b50346102b757806003193601126102b757602060ff600f54166040519015158152f35b50346102b757806003193601126102b757602060ff600f5460081c166040519015158152f35b50346102b75760403660031901126102b757610c3e61282f565b7fac046236d353eb2cfe24444f6350cd88acff11c5f138e4796297679089c8a1336020610c69612854565b92610c726132d9565b6001600160a01b03168085526002825260408520805460ff191660ff86151516179055926104bc565b50346102b757602080600319360112610bd757610cb661282f565b60405163579fab5760e11b81526001600160a01b0390911660048201819052909290918084602481305afa938415610d84578294610d55575b508192600180601254905b818110610d2a575050508252601590526040908190205481519081526020810193909352820152606090f35b0390f35b808652600485526040862054610d42575b8201610cfa565b95610d4d8391613032565b969050610d3b565b9080945081813d8311610d7d575b610d6d818361296f565b81010312610bd75751925f610cef565b503d610d63565b6040513d84823e3d90fd5b50346102b75760203660031901126102b75760206104ec610dae61282f565b612f4b565b50346102b757806003193601126102b7576001546040516001600160a01b039091168152602090f35b50346102b757806003193601126102b7576020601254604051908152f35b50346102b75760403660031901126102b757610e21610e1761282f565b6024359033613311565b602060405160018152f35b50346102b75760203660031901126102b757610e4661282f565b610e4e6132d9565b6001600160a01b03818116918215610eaa578354610100600160a81b03198116600892831b610100600160a81b0316178555901c167f14d841f5311a74e193fb09995a04bffb58b29d4a1b991c52875496ff4313ad498380a380f35b60405162461bcd60e51b815260206004820152601a60248201527f496e76616c696420636f6d706c69616e6365206d616e616765720000000000006044820152606490fd5b50346102b75760a03660031901126102b7576001600160401b0390600435828111610bd757610f22903690600401612d80565b60243584811161151f57610f3a903690600401612d80565b9060443586811161151b57610f53903690600401612d80565b91909260843588811161151757610f6e903690600401612d80565b9098610f786132d9565b808711611503576005610f8b81546128f5565b91601f928381116114a6575b508a898c85821160011461142557610fc2928261141a575b508160011b915f199060031b1c19161790565b82555b80851161131d57610fd76006546128f5565b8381116113bc575b508a858c85821160011461133c57611009928261133157508160011b915f199060031b1c19161790565b6006555b80871161131d5761101f6007546128f5565b8381116112bf575b508a878c85821160011461123e57611051928261123357508160011b915f199060031b1c19161790565b6007555b606435600855831161121f5761106c6009546128f5565b908282116111c5575b50508890821160011461111757916110cf82611106979695936110f8958c9d7f61b45807b5528344b8b2c26433a3aabead6c9dc6239e146e7ba7c812fded07d09d9261110c5750508160011b915f199060031b1c19161790565b6009555b6110ea60405198899860608a5260608a0191612f2b565b918783036020890152612f2b565b918483036040860152612f2b565b0390a180f35b013590505f80610788565b600989527f6e1540171b6c0c960b71a7020d9f60077f6af931a8bbf590da0223dacf75c7af90601f1983168a5b8181106111ad5750926110f894927f61b45807b5528344b8b2c26433a3aabead6c9dc6239e146e7ba7c812fded07d09b9c600193836111069b9a999710611194575b505050811b016009556110d3565b01355f19600384901b60f8161c191690555f8080611186565b91926020600181928f87013581550194019201611144565b60095f527f6e1540171b6c0c960b71a7020d9f60077f6af931a8bbf590da0223dacf75c7af9083808601821c83019360208710611216575b01901c01905b81811015611075575f8155600101611203565b935082936111fd565b634e487b7160e01b8a52604160045260248afd5b90508a01355f610faf565b9190601f198116600784527fa66cc928b5edb82af9bd49922954155ab7b0942694bea4ce44661d9a8736c688935b8c8282106112a55750501061128c575b5050600187811b01600755611055565b8901355f1960038a901b60f8161c191690555f8061127c565b84013585556001909401936020938401938c93500161126c565b60075f527fa66cc928b5edb82af9bd49922954155ab7b0942694bea4ce44661d9a8736c68884808a01851c82019260208b10611314575b01841c01905b8181106113095750611027565b5f81556001016112fc565b925081926112f6565b634e487b7160e01b8b52604160045260248bfd5b90508801355f610faf565b9190601f198116600684527ff652222313e28459528d920b65115c16c04f3efc82aaedc97be59f3f377c0d3f935b8181106113a1575010611388575b5050600185811b0160065561100d565b8701355f19600388901b60f8161c191690555f80611378565b8a84013585556001909401936020938401938a93500161136a565b60065f527ff652222313e28459528d920b65115c16c04f3efc82aaedc97be59f3f377c0d3f84808801851c82019260208910611411575b01841c01905b8181106114065750610fdf565b5f81556001016113f9565b925081926113f3565b90508c01355f610faf565b8481527f036b6384b5eca791c62761152d0c79bb0604c104a5fb6f4eb0703f3154bb3db0929190601f198216908e5b82821061148b57505010611472575b5050600189811b018255610fc5565b8b01355f1960038c901b60f8161c191690555f80611463565b84013585556001909401936020938401938e9350018e611454565b825f527f036b6384b5eca791c62761152d0c79bb0604c104a5fb6f4eb0703f3154bb3db084808c01851c82019260208d106114fa575b01841c01905b8181106114ef5750610f97565b5f81556001016114e2565b925081926114dc565b634e487b7160e01b89526041600452602489fd5b8780fd5b8580fd5b8380fd5b50346102b757806003193601126102b7576020601154604051908152f35b50346102b75760203660031901126102b75761155b612845565b6115636132d9565b61ff00600f5491151560081b169061ff00191617600f5580f35b50346102b757602080600319360112610bd757600435338352600382526115ab60ff60408520541615612e89565b6115b86012548210612e02565b8083526004825260408320916003830192335f5283825260ff60405f20541661178a578054801561174d573386525f805160206138c58339815191528352604086205490611607821515612ec9565b601354806116e7575b506116216002939261163692612e44565b5f805160206139258339815191525490612e6b565b94335f52835260405f20600160ff198254161790556004810183528460405f205501611663848254612f06565b905561167183601154612f06565b601155338452601581526040842061168a848254612f06565b905583808480156116dd575b8280929181923390f1156116d2577fa1594d215a577c1905bcb0b5b186a40a0104714277441d4b2ac428c89bf7f4b1906040519384523393a380f35b6040513d85823e3d90fd5b6108fc9150611696565b6116fc90338952601486526040892054612f06565b4210611708575f611610565b60405162461bcd60e51b815260048101859052601e60248201527f4d696e696d756d20686f6c64696e6720706572696f64206e6f74206d657400006044820152606490fd5b60405162461bcd60e51b81526004810184905260156024820152744e6f206469766964656e6420617661696c61626c6560581b6044820152606490fd5b60405162461bcd60e51b815260048101839052600f60248201526e105b1c9958591e4818db185a5b5959608a1b6044820152606490fd5b50346102b757806003193601126102b7576020601054604051908152f35b50346102b757806003193601126102b757610d266117fb612ce7565b60405191829160208352602083019061280a565b50346102b75760203660031901126102b7576020906040906001600160a01b0361183761282f565b168152600e83522054604051908152f35b50346102b757806003193601126102b7575f80516020613905833981519152546040516001600160a01b039091168152602090f35b50346102b757806003193601126102b7576020601354604051908152f35b50346102b75760403660031901126102b7576118b561282f565b6118bd6132d9565b6001600160a01b039081169030821461194257829160446020925f805160206139058339815191525416604051948593849263a9059cbb60e01b8452600484015260243560248401525af18015610d8457611916575080f35b6119379060203d60201161193b575b61192f818361296f565b810190612f13565b5080f35b503d611925565b60405162461bcd60e51b815260206004820152601860248201527f43616e6e6f74207265636f766572206f776e20746f6b656e00000000000000006044820152606490fd5b50346102b75760203660031901126102b75760209060ff906040906001600160a01b036119b261282f565b168152600384522054166040519015158152f35b50346102b757806003193601126102b7576119df6132d9565b5f80516020613945833981519152805460ff8116611a2e5760019060ff19161790557f62e78cea01bee320cd4e420270b5ea74000d11b0c9f74754ebdbfc544b05a2586020604051338152a180f35b60405163d93c066560e01b8152600490fd5b50346102b757806003193601126102b757338152600360205260ff611a6c60ff60408420541615612e89565b813383525f805160206138c58339815191526020526040832054611a91811515612ec9565b60015b601254811015611b9457808552600460205260408520335f52600381016020528460405f2054161580611b8a575b611ad0575b50600101611a94565b6013548015908115611b6a575b5015611ac75790611b3682600295611afb6116218760019754612e44565b968792335f526003810160205260405f208760ff19825416179055600481016020528360405f205501611b2f838254612f06565b9055612f06565b93604051908152817fa1594d215a577c1905bcb0b5b186a40a0104714277441d4b2ac428c89bf7f4b160203393a390611ac7565b611b81915033885260146020526040882054612f06565b4210155f611add565b5080541515611ac2565b84838015611bd45781808083611bad8295601154612f06565b601155338252601560205260408220611bc7828254612f06565b90553382f1156105f25780f35b60405162461bcd60e51b81526020600482015260156024820152744e6f206469766964656e647320746f20636c61696d60581b6044820152606490fd5b50346102b75760203660031901126102b75760409060043581526004602052208054610d2660026001840154930154604051938493846040919493926060820195825260208201520152565b50346102b75760203660031901126102b75760209060ff906040906001600160a01b03611c8861282f565b168152600284522054166040519015158152f35b50346102b757806003193601126102b757604051611d4e91611cbd82612954565b60806060928392838252836020830152836040830152838201520152610d2660405191611ce983612954565b611cf1612a52565b8352611cfb612b13565b60208401908152611d0a612baf565b9160408501928352611d7560085493828701948552611d27612c4b565b9260808801938452611d64604051998a9960208b525160a060208c015260c08b019061280a565b955195601f1996878b83030160408c015261280a565b91519085898403019089015261280a565b9251608086015251908483030160a085015261280a565b50346102b757806003193601126102b757611da56132d9565b5f8051602061390583398151915280546001600160a01b031981169091555f906001600160a01b03167f8be0079c531659141344cd1fd0a4f28419497f9722a3daafe3b4186f6b6457e08280a380f35b50346102b75760203660031901126102b7576020906040906001600160a01b03611e1d61282f565b1681525f805160206138c583398151915283522054604051908152f35b50346102b75760203660031901126102b7576020906040906001600160a01b03611e6261282f565b168152601483522054604051908152f35b50346102b757806003193601126102b757600a54600b54600c54600d546040805160ff909516151585526020850193909352918301526060820152608090f35b50346102b757806003193601126102b757602060ff5f8051602061394583398151915254166040519015158152f35b50346102b75760203660031901126102b7577fa30dbe167ef351b3cc650eea545c7815e27c1f7f9ebe66429dcabe8217d55ca36040600435611f226132d9565b601354908060135582519182526020820152a180f35b50346102b757602090816003193601126102b7576004359133825260038152611f6860ff60408420541615612e89565b82611f7233612863565b541061211b57331561210257335f525f805160206138c583398151915280825260405f2054908482106120dc579380918495335f5284520360405f20555f805160206139258339815191528181540390555f6040518281527fddf252ad1be2c89b69c2b068fc378daa952ba7f163c4a11628f55a4df523b3ef843392a36001546001600160a01b0316918261200657505050f35b612053612011612990565b9161201a612ce7565b92604051938161203386935180928680870191016127e9565b8201612047825180938680850191016127e9565b0103808452018261296f565b823b156120d7576120b69284928360405180968195829463a66dc69360e01b84527f35e808e423fc257ba1bb61b1c2c57e48855b39cbee1f101ebe4fcb026f39e2e06004850152336024850152604484015260806064840152608483019061280a565b03925af18015610d84576120c75750f35b6120d09061292d565b6102b75780f35b505050fd5b60405163391434e360e21b81523360048201526024810183905260448101869052606490fd5b604051634b637e8f60e11b815260048101839052602490fd5b6064906040519062461bcd60e51b825260048201526014602482015273496e73756666696369656e742062616c616e636560601b6044820152fd5b50346105a45760403660031901126105a45761217061282f565b6024359061217c6132d9565b60018060a01b039081811691825f526121ac84602093600385526121a760ff60405f20541615612e89565b6137e0565b825f52601482524260405f205560015416806121c6578480f35b6122136121d1612990565b926121da612ce7565b9360405194816121f387935180928680870191016127e9565b8201612207825180938680850191016127e9565b0103808552018361296f565b803b156105a457612276935f80946040519687958694859363a66dc69360e01b85527fdad8e257de6a412eb70f5236f2cccd5383e93e582813fd584cf020d7088fc83160048601526024850152604484015260806064840152608483019061280a565b03925af1801561229d5761228c575b8080808480f35b612296915061292d565b5f80612285565b6040513d5f823e3d90fd5b346105a4575f3660031901126105a4576122c06132d9565b5f80516020613945833981519152805460ff81161561230b5760ff191690557f5db9ee0a495bf2e6ff9c91a7834c1ba4fdd244a5e8aa4e537bd38aeae4b073aa6020604051338152a1005b604051638dfc202b60e01b8152600490fd5b346105a4575f3660031901126105a4576123356132d9565b7fe1965432af4c9923f6ebb98f1721262967cfa6178008742d23041dc8ee74ee8f6020600f5460ff8082161516809160ff191617600f556040519015158152a1005b346105a4575f3660031901126105a4576123cd612392612a52565b610d2661239d612b13565b6123a5612baf565b906123e9600854926123db6123b8612c4b565b9360405198899860a08a5260a08a019061280a565b9088820360208a015261280a565b90868203604088015261280a565b916060850152838203608085015261280a565b346105a45760203660031901126105a45761241561282f565b61241d6132d9565b6001600160a01b03168015612443576001600160601b0360a01b60015416176001555f80f35b60405162461bcd60e51b8152602060048201526013602482015272125b9d985b1a5908185d591a5d081d1c985a5b606a1b6044820152606490fd5b346105a4575f3660031901126105a457602060ff5f5416604051908152f35b346105a4576124ab366128c0565b906124b583612888565b335f5260205260405f2054925f1984106124d4575b610e219350613311565b82841061253f576001600160a01b0381161561252757331561250f5782610e21946124fe83612888565b335f526020520360405f20556124ca565b604051634a1406b160e11b81525f6004820152602490fd5b60405163e602df0560e01b81525f6004820152602490fd5b604051637dc7a0d960e11b81523360048201526024810185905260448101849052606490fd5b346105a45760203660031901126105a4576001600160a01b0361258661282f565b165f526015602052602060405f2054604051908152f35b346105a4575f3660031901126105a45760205f8051602061392583398151915254604051908152f35b346105a45760803660031901126105a4576125df612845565b60243560443591606435926125f26132d9565b828110612666577f7966135d92471128dcd748f936d924576718700f7cb706439952dd3c08dc8b6d936126619160ff19600a541660ff8515151617600a5584600b5580600c5581600d556040519485948590949392606092608083019615158352602083015260408201520152565b0390a1005b60405162461bcd60e51b8152602060048201526014602482015273496e76616c696420616d6f756e742072616e676560601b6044820152606490fd5b346105a45760203660031901126105a4576004356126c36012548210612e02565b5f52600460205260a060405f205f6126da33612863565b54151580612745575b612727575b8154916001810154906003600282015491335f520160205260ff60405f2054169160405194855260208501526040840152151560608301526080820152f35b50612740611621825461273933612863565b5490612e44565b6126e8565b50815415156126e3565b346105a45760403660031901126105a45761276861282f565b602435903315612527576001600160a01b031690811561250f5761278b33612888565b825f526020528060405f20556040519081527f8c5be1e5ebec7d5bd14f71427d1e84f3dd0314c0f7b2291e5b200ac8c7c3b92560203392a3602060405160018152f35b346105a4575f3660031901126105a457610d266117fb612990565b5f5b8381106127fa5750505f910152565b81810151838201526020016127eb565b90602091612823815180928185528580860191016127e9565b601f01601f1916010190565b600435906001600160a01b03821682036105a457565b6004359081151582036105a457565b6024359081151582036105a457565b6001600160a01b03165f9081525f805160206138c58339815191526020526040902090565b6001600160a01b03165f9081527f52c63247e1f47db19d5ce0460030c497f067ca4cebf71ba98eeadabe20bace016020526040902090565b60609060031901126105a4576001600160a01b039060043582811681036105a4579160243590811681036105a4579060443590565b90600182811c92168015612923575b602083101461290f57565b634e487b7160e01b5f52602260045260245ffd5b91607f1691612904565b6001600160401b03811161294057604052565b634e487b7160e01b5f52604160045260245ffd5b60a081019081106001600160401b0382111761294057604052565b90601f801991011681019081106001600160401b0382111761294057604052565b604051905f825f805160206138a5833981519152918254926129b1846128f5565b80845293602091600191828116908115612a2c57506001146129df575b5050506129dd9250038361296f565b565b5f9081525f805160206138858339815191529590935091905b828410612a1457506129dd9450505081016020015f80806129ce565b855488850183015294850194879450928101926129f8565b92505050602092506129dd94915060ff191682840152151560051b8201015f80806129ce565b604051905f8260055491612a65836128f5565b80835292602090600190818116908115612aef5750600114612a90575b50506129dd9250038361296f565b91509260055f527f036b6384b5eca791c62761152d0c79bb0604c104a5fb6f4eb0703f3154bb3db0935f925b828410612ad757506129dd9450505081016020015f80612a82565b85548885018301529485019487945092810192612abc565b915050602092506129dd94915060ff191682840152151560051b8201015f80612a82565b604051905f8260065491612b26836128f5565b80835292602090600190818116908115612aef5750600114612b505750506129dd9250038361296f565b91509260065f527ff652222313e28459528d920b65115c16c04f3efc82aaedc97be59f3f377c0d3f935f925b828410612b9757506129dd9450505081016020015f80612a82565b85548885018301529485019487945092810192612b7c565b604051905f8260075491612bc2836128f5565b80835292602090600190818116908115612aef5750600114612bec5750506129dd9250038361296f565b91509260075f527fa66cc928b5edb82af9bd49922954155ab7b0942694bea4ce44661d9a8736c688935f925b828410612c3357506129dd9450505081016020015f80612a82565b85548885018301529485019487945092810192612c18565b604051905f8260095491612c5e836128f5565b80835292602090600190818116908115612aef5750600114612c885750506129dd9250038361296f565b91509260095f527f6e1540171b6c0c960b71a7020d9f60077f6af931a8bbf590da0223dacf75c7af935f925b828410612ccf57506129dd9450505081016020015f80612a82565b85548885018301529485019487945092810192612cb4565b604051905f825f805160206138e583398151915291825492612d08846128f5565b80845293602091600191828116908115612a2c5750600114612d33575050506129dd9250038361296f565b5f9081525f805160206139658339815191529590935091905b828410612d6857506129dd9450505081016020015f80806129ce565b85548885018301529485019487945092810192612d4c565b9181601f840112156105a4578235916001600160401b0383116105a457602083818601950101116105a457565b81601f820112156105a4578035906001600160401b0382116129405760405192612de1601f8401601f19166020018561296f565b828452602083830101116105a457815f926020809301838601378301015290565b15612e0957565b60405162461bcd60e51b8152602060048201526013602482015272125b9d985b1a5908191a5d9a59195b99081251606a1b6044820152606490fd5b81810292918115918404141715612e5757565b634e487b7160e01b5f52601160045260245ffd5b8115612e75570490565b634e487b7160e01b5f52601260045260245ffd5b15612e9057565b60405162461bcd60e51b815260206004820152601160248201527020b1b1b7bab73a1034b990333937bd32b760791b6044820152606490fd5b15612ed057565b60405162461bcd60e51b815260206004820152600e60248201526d139bc81d1bdad95b9cc81a195b1960921b6044820152606490fd5b91908201809211612e5757565b908160209103126105a4575180151581036105a45790565b908060209392818452848401375f828201840152601f01601f1916010190565b5f9060018060a01b0316805f526020905f805160206138c583398151915260205260409060405f2054801561302957600193600193601254945b858110612f96575050505050505090565b8087915f5260048452825f20865f5260038101855260ff845f205416158061301f575b612fc5575b5001612f85565b9091506013548015908115613004575b50612fe3575b908791612fbe565b879198612ff761162187612ffd9454612e44565b90612f06565b9790612fdb565b613016915060148652845f2054612f06565b4210155f612fd5565b5080541515612fb9565b50505050505f90565b5f198114612e575760010190565b909160ff90815f80516020613945833981519152541680156131f5575b6131ed5760018060a01b039182841693845f526020956003875260409483865f20541680156131dc575b6131d057865f525f805160206138c5833981519152885284865f2054106131d0576002885283865f20541680156131bf575b6131b257879185915f5460081c169081613139575b5050505050600a54166130e5575b50505050600190565b600b54811090811561312d575b5061312657600d549182156130dc5761311393600e915f52525f2054612f06565b4210613122575f8080806130dc565b5f90565b5050505f90565b9050600c54105f6130f2565b87516372331c7360e11b81526001600160a01b039586166004820152941660248501526044840191909152829060649082905afa9081156131a8575f9161318b575b5015613029575f858382806130ce565b6131a29150863d881161193b5761192f818361296f565b5f61317b565b84513d5f823e3d90fd5b5050505050505050600190565b508082165f5283865f2054166130b9565b50505050505050505f90565b508082165f5283865f205416613087565b505050505f90565b5081600f54161561305d565b91908203918211612e5757565b60ff600a541615801561325e575b613259576001600160a01b03165f908152600e6020526040902054600d5461324391612f06565b8042101561325957613256904290613201565b90565b505f90565b50600d541561321c565b6001600160a01b039081169081156132c1575f8051602061390583398151915280546001600160a01b031981168417909155167f8be0079c531659141344cd1fd0a4f28419497f9722a3daafe3b4186f6b6457e05f80a3565b604051631e4fbdf760e01b81525f6004820152602490fd5b5f80516020613905833981519152546001600160a01b031633036132f957565b60405163118cdaa760e01b8152336004820152602490fd5b906001600160a01b03808316919082156137c8578082169081156137b05760ff94855f80516020613945833981519152541661376b5785600f54161561373157845f526020926003845260409680885f2054161580613720575b61337490612e89565b865f526002855280885f2054161580613710575b613544575b865f525f805160206138c583398151915292838652885f2054908a821061351357508990885f5284875203885f2055815f52875f2089815401905581877fddf252ad1be2c89b69c2b068fc378daa952ba7f163c4a11628f55a4df523b3ef878b518d8152a3600a541680613508575b6134f7575b5f52825285855f2054146134e9575b600154169081613423575b505050505050565b8451926001600160601b03199060601b169083015260148252838201948286106001600160401b0387111761294057858552813b156105a4575f86938492829663a66dc69360e01b85527fcdd4268ff5b1e20c3ab6baf6e3d2d5c33e12a9934c012f5e993a387b94be0258604484015260648301526084820152608060a4820152603f19906134b560c482018261280a565b0301925af19081156134e057506134d1575b808080808061341b565b6134da9061292d565b5f6134c7565b513d5f823e3d90fd5b6014825242855f2055613410565b855f52600e845242875f2055613401565b50600d5415156133fc565b895163391434e360e21b81526001600160a01b039190911660048201526024810191909152604481018a9052606490fd5b835f5460081c16858a8261365b575b50505080600a54161561338d57600b54891061362057600c5489116135e557600d5480613581575b5061338d565b61359590885f52600e8752895f2054612f06565b42106135a1575f61357b565b875162461bcd60e51b815260048101869052601b60248201527f436f6f6c646f776e20706572696f64206e6f7420656c617073656400000000006044820152606490fd5b875162461bcd60e51b8152600481018690526014602482015273416d6f756e742061626f7665206d6178696d756d60601b6044820152606490fd5b875162461bcd60e51b8152600481018690526014602482015273416d6f756e742062656c6f77206d696e696d756d60601b6044820152606490fd5b8a516372331c7360e11b81526001600160a01b0387811660048301528a166024820152604481019190915291829060649082905afa908115613706575f916136e9575b50156136ac575f858a613553565b875162461bcd60e51b8152600481018690526016602482015275151c985b9cd9995c881b9bdd0818dbdb5c1b1a585b9d60521b6044820152606490fd5b6137009150863d881161193b5761192f818361296f565b5f61369e565b89513d5f823e3d90fd5b50815f5280885f20541615613388565b505f8281528890205481161561336b565b60405162461bcd60e51b8152602060048201526012602482015271151c985b9cd9995c9cc8191a5cd8589b195960721b6044820152606490fd5b60405162461bcd60e51b815260206004820152601a60248201527f546f6b656e207472616e736665727320617265207061757365640000000000006044820152606490fd5b60405163ec442f0560e01b81525f6004820152602490fd5b604051634b637e8f60e11b81525f6004820152602490fd5b6001600160a01b03169081156137b0577fddf252ad1be2c89b69c2b068fc378daa952ba7f163c4a11628f55a4df523b3ef60205f925f8051602061392583398151915261382e828254612f06565b90558484525f805160206138c5833981519152825260408420818154019055604051908152a3565b60ff5f805160206139858339815191525460401c161561387257565b604051631afcd79f60e31b8152600490fdfe2ae08a8e29253f69ac5d979a101956ab8f8d9d7ded63fa7a83b16fc47648eab052c63247e1f47db19d5ce0460030c497f067ca4cebf71ba98eeadabe20bace0352c63247e1f47db19d5ce0460030c497f067ca4cebf71ba98eeadabe20bace0052c63247e1f47db19d5ce0460030c497f067ca4cebf71ba98eeadabe20bace049016d09d72d40fdae2fd8ceac6b6234c7706214fd39c1cd1e609a0528c19930052c63247e1f47db19d5ce0460030c497f067ca4cebf71ba98eeadabe20bace02cd5ed15c6e187e77e9aee88184c21f4f2182ab5827cb3b7e07fbedcd63f0330046a2803e59a4de4e7a4c574b1243f25977ac4c77d5a1a4a609b5394cebb4a2aaf0c57e16840df040f15088dc2f81fe391c3923bec73e23a9662efc9c229c6a00a2646970667358221220d952e7043f5be30b9e30c3dc351a190cc29f103f465a3c25c93077d8aa3fe4c264736f6c63430008160033","linkReferences":{}},"methodIdentifiers":{"acquisitionTime(address)":"6e129365","allowance(address,address)":"dd62ed3e","approve(address,uint256)":"095ea7b3","auditTrail()":"aba02c1f","balanceOf(address)":"70a08231","burn(uint256)":"42966c68","canTransfer(address,address,uint256)":"e46638e6","claimAllDividends()":"81c369da","claimDividend(uint256)":"9abd3572","complianceManager()":"ff7bce23","decimals()":"313ce567","distributeDividend()":"f6ef8f0a","dividends(uint256)":"814b3fe0","dividendsEnabled()":"bb6c6d31","emergencyWithdraw()":"db2e21bc","enableDividends(bool)":"9cd5e35a","freezeAccount(address,bool)":"e724529c","frozenAccounts(address)":"860838a5","getDividendInfo(uint256)":"0cb795e8","getLastTransferTime(address)":"8df667dc","getMetadata()":"7a5b4f59","getRemainingCooldown(address)":"e6f3e004","getTotalDividendsSummary()":"e53792a0","getTransferRestriction()":"5d32f0d2","getUnclaimedDividends(address)":"af3f56ae","getUserDividendSummary(address)":"b0c660c0","initialize(string,string,uint256,uint8,address,address,address)":"ce246e63","metadata()":"392f37e9","minHoldingPeriod()":"8c929837","mint(address,uint256)":"40c10f19","name()":"06fdde03","nextDividendId()":"aa8241a7","owner()":"8da5cb5b","pause()":"8456cb59","paused()":"5c975abb","recoverERC20(address,uint256)":"8980f11f","renounceOwnership()":"715018a6","setAuditTrail(address)":"31d365a4","setComplianceManager(address)":"a576b5da","setMinHoldingPeriod(uint256)":"4d4b9c71","setTransferRestriction(bool,uint256,uint256,uint256)":"115ad967","symbol()":"95d89b41","toggleTransfers()":"3e5ac28f","totalDividends()":"997664d7","totalDividendsClaimed()":"9f13464e","totalDividendsCreditedTo(address)":"2283face","totalSupply()":"18160ddd","transfer(address,uint256)":"a9059cbb","transferFrom(address,address,uint256)":"23b872dd","transferOwnership(address)":"f2fde38b","transferRestriction()":"461d338c","transferWhitelist(address)":"7ffbe241","transfersEnabled()":"bef97c87","unpause()":"3f4ba83a","updateMetadata(string,string,string,uint256,string)":"a56ce8ad","whitelistTransfer(address,bool)":"b7160b44"},"id":31}