{"abi":[{"type":"receive","stateMutability":"payable"},{"type":"function","name":"DEFAULT_ADMIN_ROLE","inputs":[],"outputs":[{"name":"","type":"bytes32","internalType":"bytes32"}],"stateMutability":"view"},{"type":"function","name":"EXECUTOR_ROLE","inputs":[],"outputs":[{"name":"","type":"bytes32","internalType":"bytes32"}],"stateMutability":"view"},{"type":"function","name":"GOVERNOR_ROLE","inputs":[],"outputs":[{"name":"","type":"bytes32","internalType":"bytes32"}],"stateMutability":"view"},{"type":"function","name":"PROPOSER_ROLE","inputs":[],"outputs":[{"name":"","type":"bytes32","internalType":"bytes32"}],"stateMutability":"view"},{"type":"function","name":"addGovernor","inputs":[{"name":"governor","type":"address","internalType":"address"},{"name":"_votingPower","type":"uint256","internalType":"uint256"},{"name":"name","type":"string","internalType":"string"},{"name":"contact","type":"string","internalType":"string"}],"outputs":[],"stateMutability":"nonpayable"},{"type":"function","name":"auditTrail","inputs":[],"outputs":[{"name":"","type":"address","internalType":"contract IAuditTrail"}],"stateMutability":"view"},{"type":"function","name":"canExecute","inputs":[{"name":"proposalId","type":"uint256","internalType":"uint256"}],"outputs":[{"name":"canExec","type":"bool","internalType":"bool"},{"name":"reason","type":"string","internalType":"string"}],"stateMutability":"view"},{"type":"function","name":"cancel","inputs":[{"name":"proposalId","type":"uint256","internalType":"uint256"}],"outputs":[],"stateMutability":"nonpayable"},{"type":"function","name":"castVote","inputs":[{"name":"proposalId","type":"uint256","internalType":"uint256"},{"name":"support","type":"uint8","internalType":"enum AdminGovernance.VoteType"},{"name":"reason","type":"string","internalType":"string"}],"outputs":[],"stateMutability":"nonpayable"},{"type":"function","name":"emergencyExecute","inputs":[{"name":"target","type":"address","internalType":"address"},{"name":"value","type":"uint256","internalType":"uint256"},{"name":"data","type":"bytes","internalType":"bytes"}],"outputs":[],"stateMutability":"payable"},{"type":"function","name":"execute","inputs":[{"name":"proposalId","type":"uint256","internalType":"uint256"}],"outputs":[],"stateMutability":"payable"},{"type":"function","name":"executionDelay","inputs":[],"outputs":[{"name":"","type":"uint256","internalType":"uint256"}],"stateMutability":"view"},{"type":"function","name":"executionQueue","inputs":[{"name":"","type":"uint256","internalType":"uint256"}],"outputs":[{"name":"proposalId","type":"uint256","internalType":"uint256"},{"name":"eta","type":"uint256","internalType":"uint256"},{"name":"executed","type":"bool","internalType":"bool"},{"name":"cancelled","type":"bool","internalType":"bool"}],"stateMutability":"view"},{"type":"function","name":"getGovernorAt","inputs":[{"name":"index","type":"uint256","internalType":"uint256"}],"outputs":[{"name":"","type":"address","internalType":"address"}],"stateMutability":"view"},{"type":"function","name":"getGovernorInfo","inputs":[{"name":"governor","type":"address","internalType":"address"}],"outputs":[{"name":"","type":"tuple","internalType":"struct AdminGovernance.Governor","components":[{"name":"governor","type":"address","internalType":"address"},{"name":"votingPower","type":"uint256","internalType":"uint256"},{"name":"isActive","type":"bool","internalType":"bool"},{"name":"joinedAt","type":"uint256","internalType":"uint256"},{"name":"name","type":"string","internalType":"string"},{"name":"contact","type":"string","internalType":"string"}]}],"stateMutability":"view"},{"type":"function","name":"getGovernorsCount","inputs":[],"outputs":[{"name":"","type":"uint256","internalType":"uint256"}],"stateMutability":"view"},{"type":"function","name":"getProposalActions","inputs":[{"name":"proposalId","type":"uint256","internalType":"uint256"}],"outputs":[{"name":"targets","type":"address[]","internalType":"address[]"},{"name":"values","type":"uint256[]","internalType":"uint256[]"},{"name":"calldatas","type":"bytes[]","internalType":"bytes[]"}],"stateMutability":"view"},{"type":"function","name":"getProposalBlocks","inputs":[{"name":"proposalId","type":"uint256","internalType":"uint256"}],"outputs":[{"name":"startBlock","type":"uint256","internalType":"uint256"},{"name":"endBlock","type":"uint256","internalType":"uint256"}],"stateMutability":"view"},{"type":"function","name":"getProposalDescription","inputs":[{"name":"proposalId","type":"uint256","internalType":"uint256"}],"outputs":[{"name":"","type":"string","internalType":"string"}],"stateMutability":"view"},{"type":"function","name":"getProposalEta","inputs":[{"name":"proposalId","type":"uint256","internalType":"uint256"}],"outputs":[{"name":"","type":"uint256","internalType":"uint256"}],"stateMutability":"view"},{"type":"function","name":"getProposalExecuted","inputs":[{"name":"proposalId","type":"uint256","internalType":"uint256"}],"outputs":[{"name":"","type":"bool","internalType":"bool"}],"stateMutability":"view"},{"type":"function","name":"getProposalId","inputs":[{"name":"proposalId","type":"uint256","internalType":"uint256"}],"outputs":[{"name":"","type":"uint256","internalType":"uint256"}],"stateMutability":"view"},{"type":"function","name":"getProposalProposer","inputs":[{"name":"proposalId","type":"uint256","internalType":"uint256"}],"outputs":[{"name":"","type":"address","internalType":"address"}],"stateMutability":"view"},{"type":"function","name":"getProposalState","inputs":[{"name":"proposalId","type":"uint256","internalType":"uint256"}],"outputs":[{"name":"","type":"uint8","internalType":"enum AdminGovernance.ProposalState"}],"stateMutability":"view"},{"type":"function","name":"getProposalTitle","inputs":[{"name":"proposalId","type":"uint256","internalType":"uint256"}],"outputs":[{"name":"","type":"string","internalType":"string"}],"stateMutability":"view"},{"type":"function","name":"getProposalVotes","inputs":[{"name":"proposalId","type":"uint256","internalType":"uint256"}],"outputs":[{"name":"forVotes","type":"uint256","internalType":"uint256"},{"name":"againstVotes","type":"uint256","internalType":"uint256"},{"name":"abstainVotes","type":"uint256","internalType":"uint256"}],"stateMutability":"view"},{"type":"function","name":"getQuorumReached","inputs":[{"name":"proposalId","type":"uint256","internalType":"uint256"}],"outputs":[{"name":"reached","type":"bool","internalType":"bool"},{"name":"totalVotes","type":"uint256","internalType":"uint256"},{"name":"required","type":"uint256","internalType":"uint256"}],"stateMutability":"view"},{"type":"function","name":"getRoleAdmin","inputs":[{"name":"role","type":"bytes32","internalType":"bytes32"}],"outputs":[{"name":"","type":"bytes32","internalType":"bytes32"}],"stateMutability":"view"},{"type":"function","name":"getVote","inputs":[{"name":"proposalId","type":"uint256","internalType":"uint256"},{"name":"voter","type":"address","internalType":"address"}],"outputs":[{"name":"hasVoted","type":"bool","internalType":"bool"},{"name":"vote","type":"uint8","internalType":"enum AdminGovernance.VoteType"},{"name":"votes","type":"uint256","internalType":"uint256"}],"stateMutability":"view"},{"type":"function","name":"governorList","inputs":[{"name":"","type":"uint256","internalType":"uint256"}],"outputs":[{"name":"","type":"address","internalType":"address"}],"stateMutability":"view"},{"type":"function","name":"governors","inputs":[{"name":"","type":"address","internalType":"address"}],"outputs":[{"name":"governor","type":"address","internalType":"address"},{"name":"votingPower","type":"uint256","internalType":"uint256"},{"name":"isActive","type":"bool","internalType":"bool"},{"name":"joinedAt","type":"uint256","internalType":"uint256"},{"name":"name","type":"string","internalType":"string"},{"name":"contact","type":"string","internalType":"string"}],"stateMutability":"view"},{"type":"function","name":"grantRole","inputs":[{"name":"role","type":"bytes32","internalType":"bytes32"},{"name":"account","type":"address","internalType":"address"}],"outputs":[],"stateMutability":"nonpayable"},{"type":"function","name":"hasRole","inputs":[{"name":"role","type":"bytes32","internalType":"bytes32"},{"name":"account","type":"address","internalType":"address"}],"outputs":[{"name":"","type":"bool","internalType":"bool"}],"stateMutability":"view"},{"type":"function","name":"initialize","inputs":[{"name":"admin","type":"address","internalType":"address"},{"name":"_auditTrail","type":"address","internalType":"address"}],"outputs":[],"stateMutability":"nonpayable"},{"type":"function","name":"isGovernorActive","inputs":[{"name":"governor","type":"address","internalType":"address"}],"outputs":[{"name":"","type":"bool","internalType":"bool"}],"stateMutability":"view"},{"type":"function","name":"maxGovernors","inputs":[],"outputs":[{"name":"","type":"uint256","internalType":"uint256"}],"stateMutability":"view"},{"type":"function","name":"pause","inputs":[],"outputs":[],"stateMutability":"nonpayable"},{"type":"function","name":"paused","inputs":[],"outputs":[{"name":"","type":"bool","internalType":"bool"}],"stateMutability":"view"},{"type":"function","name":"proposalCount","inputs":[],"outputs":[{"name":"","type":"uint256","internalType":"uint256"}],"stateMutability":"view"},{"type":"function","name":"proposalThreshold","inputs":[],"outputs":[{"name":"","type":"uint256","internalType":"uint256"}],"stateMutability":"view"},{"type":"function","name":"proposals","inputs":[{"name":"","type":"uint256","internalType":"uint256"}],"outputs":[{"name":"id","type":"uint256","internalType":"uint256"},{"name":"proposer","type":"address","internalType":"address"},{"name":"title","type":"string","internalType":"string"},{"name":"description","type":"string","internalType":"string"},{"name":"startBlock","type":"uint256","internalType":"uint256"},{"name":"endBlock","type":"uint256","internalType":"uint256"},{"name":"forVotes","type":"uint256","internalType":"uint256"},{"name":"againstVotes","type":"uint256","internalType":"uint256"},{"name":"abstainVotes","type":"uint256","internalType":"uint256"},{"name":"state","type":"uint8","internalType":"enum AdminGovernance.ProposalState"},{"name":"executed","type":"bool","internalType":"bool"},{"name":"eta","type":"uint256","internalType":"uint256"}],"stateMutability":"view"},{"type":"function","name":"propose","inputs":[{"name":"title","type":"string","internalType":"string"},{"name":"description","type":"string","internalType":"string"},{"name":"targets","type":"address[]","internalType":"address[]"},{"name":"values","type":"uint256[]","internalType":"uint256[]"},{"name":"calldatas","type":"bytes[]","internalType":"bytes[]"}],"outputs":[{"name":"","type":"uint256","internalType":"uint256"}],"stateMutability":"nonpayable"},{"type":"function","name":"queue","inputs":[{"name":"proposalId","type":"uint256","internalType":"uint256"}],"outputs":[],"stateMutability":"nonpayable"},{"type":"function","name":"quorumVotes","inputs":[],"outputs":[{"name":"","type":"uint256","internalType":"uint256"}],"stateMutability":"view"},{"type":"function","name":"removeGovernor","inputs":[{"name":"governor","type":"address","internalType":"address"}],"outputs":[],"stateMutability":"nonpayable"},{"type":"function","name":"renounceRole","inputs":[{"name":"role","type":"bytes32","internalType":"bytes32"},{"name":"callerConfirmation","type":"address","internalType":"address"}],"outputs":[],"stateMutability":"nonpayable"},{"type":"function","name":"revokeRole","inputs":[{"name":"role","type":"bytes32","internalType":"bytes32"},{"name":"account","type":"address","internalType":"address"}],"outputs":[],"stateMutability":"nonpayable"},{"type":"function","name":"setMaxGovernors","inputs":[{"name":"_maxGovernors","type":"uint256","internalType":"uint256"}],"outputs":[],"stateMutability":"nonpayable"},{"type":"function","name":"setTimelockEnabled","inputs":[{"name":"_enabled","type":"bool","internalType":"bool"}],"outputs":[],"stateMutability":"nonpayable"},{"type":"function","name":"setVotingParameters","inputs":[{"name":"_votingDelay","type":"uint256","internalType":"uint256"},{"name":"_votingPeriod","type":"uint256","internalType":"uint256"},{"name":"_executionDelay","type":"uint256","internalType":"uint256"},{"name":"_proposalThreshold","type":"uint256","internalType":"uint256"},{"name":"_quorumVotes","type":"uint256","internalType":"uint256"}],"outputs":[],"stateMutability":"nonpayable"},{"type":"function","name":"state","inputs":[{"name":"proposalId","type":"uint256","internalType":"uint256"}],"outputs":[{"name":"","type":"uint8","internalType":"enum AdminGovernance.ProposalState"}],"stateMutability":"view"},{"type":"function","name":"supportsInterface","inputs":[{"name":"interfaceId","type":"bytes4","internalType":"bytes4"}],"outputs":[{"name":"","type":"bool","internalType":"bool"}],"stateMutability":"view"},{"type":"function","name":"timelockEnabled","inputs":[],"outputs":[{"name":"","type":"bool","internalType":"bool"}],"stateMutability":"view"},{"type":"function","name":"totalVotingPower","inputs":[],"outputs":[{"name":"","type":"uint256","internalType":"uint256"}],"stateMutability":"view"},{"type":"function","name":"unpause","inputs":[],"outputs":[],"stateMutability":"nonpayable"},{"type":"function","name":"updateGovernorVotingPower","inputs":[{"name":"governor","type":"address","internalType":"address"},{"name":"newVotingPower","type":"uint256","internalType":"uint256"}],"outputs":[],"stateMutability":"nonpayable"},{"type":"function","name":"votingDelay","inputs":[],"outputs":[{"name":"","type":"uint256","internalType":"uint256"}],"stateMutability":"view"},{"type":"function","name":"votingPeriod","inputs":[],"outputs":[{"name":"","type":"uint256","internalType":"uint256"}],"stateMutability":"view"},{"type":"function","name":"votingPower","inputs":[{"name":"","type":"address","internalType":"address"}],"outputs":[{"name":"","type":"uint256","internalType":"uint256"}],"stateMutability":"view"},{"type":"event","name":"GovernorAdded","inputs":[{"name":"governor","type":"address","indexed":true,"internalType":"address"},{"name":"votingPower","type":"uint256","indexed":false,"internalType":"uint256"},{"name":"name","type":"string","indexed":false,"internalType":"string"}],"anonymous":false},{"type":"event","name":"GovernorRemoved","inputs":[{"name":"governor","type":"address","indexed":true,"internalType":"address"}],"anonymous":false},{"type":"event","name":"GovernorUpdated","inputs":[{"name":"governor","type":"address","indexed":true,"internalType":"address"},{"name":"newVotingPower","type":"uint256","indexed":false,"internalType":"uint256"}],"anonymous":false},{"type":"event","name":"Initialized","inputs":[{"name":"version","type":"uint64","indexed":false,"internalType":"uint64"}],"anonymous":false},{"type":"event","name":"Paused","inputs":[{"name":"account","type":"address","indexed":false,"internalType":"address"}],"anonymous":false},{"type":"event","name":"ProposalCancelled","inputs":[{"name":"proposalId","type":"uint256","indexed":true,"internalType":"uint256"}],"anonymous":false},{"type":"event","name":"ProposalCreated","inputs":[{"name":"proposalId","type":"uint256","indexed":true,"internalType":"uint256"},{"name":"proposer","type":"address","indexed":true,"internalType":"address"},{"name":"title","type":"string","indexed":false,"internalType":"string"},{"name":"startBlock","type":"uint256","indexed":false,"internalType":"uint256"},{"name":"endBlock","type":"uint256","indexed":false,"internalType":"uint256"}],"anonymous":false},{"type":"event","name":"ProposalExecuted","inputs":[{"name":"proposalId","type":"uint256","indexed":true,"internalType":"uint256"}],"anonymous":false},{"type":"event","name":"ProposalQueued","inputs":[{"name":"proposalId","type":"uint256","indexed":true,"internalType":"uint256"},{"name":"eta","type":"uint256","indexed":false,"internalType":"uint256"}],"anonymous":false},{"type":"event","name":"RoleAdminChanged","inputs":[{"name":"role","type":"bytes32","indexed":true,"internalType":"bytes32"},{"name":"previousAdminRole","type":"bytes32","indexed":true,"internalType":"bytes32"},{"name":"newAdminRole","type":"bytes32","indexed":true,"internalType":"bytes32"}],"anonymous":false},{"type":"event","name":"RoleGranted","inputs":[{"name":"role","type":"bytes32","indexed":true,"internalType":"bytes32"},{"name":"account","type":"address","indexed":true,"internalType":"address"},{"name":"sender","type":"address","indexed":true,"internalType":"address"}],"anonymous":false},{"type":"event","name":"RoleRevoked","inputs":[{"name":"role","type":"bytes32","indexed":true,"internalType":"bytes32"},{"name":"account","type":"address","indexed":true,"internalType":"address"},{"name":"sender","type":"address","indexed":true,"internalType":"address"}],"anonymous":false},{"type":"event","name":"Unpaused","inputs":[{"name":"account","type":"address","indexed":false,"internalType":"address"}],"anonymous":false},{"type":"event","name":"VoteCast","inputs":[{"name":"proposalId","type":"uint256","indexed":true,"internalType":"uint256"},{"name":"voter","type":"address","indexed":true,"internalType":"address"},{"name":"support","type":"uint8","indexed":false,"internalType":"enum AdminGovernance.VoteType"},{"name":"votes","type":"uint256","indexed":false,"internalType":"uint256"},{"name":"reason","type":"string","indexed":false,"internalType":"string"}],"anonymous":false},{"type":"event","name":"VotingParametersUpdated","inputs":[{"name":"votingDelay","type":"uint256","indexed":false,"internalType":"uint256"},{"name":"votingPeriod","type":"uint256","indexed":false,"internalType":"uint256"},{"name":"executionDelay","type":"uint256","indexed":false,"internalType":"uint256"}],"anonymous":false},{"type":"error","name":"AccessControlBadConfirmation","inputs":[]},{"type":"error","name":"AccessControlUnauthorizedAccount","inputs":[{"name":"account","type":"address","internalType":"address"},{"name":"neededRole","type":"bytes32","internalType":"bytes32"}]},{"type":"error","name":"EnforcedPause","inputs":[]},{"type":"error","name":"ExpectedPause","inputs":[]},{"type":"error","name":"InvalidInitialization","inputs":[]},{"type":"error","name":"NotInitializing","inputs":[]}],"bytecode":{"object":"0x6080806040523461004d576201518060065562093a806007556202a3006008556103e8600955611388600a555f600b556014600c55600160ff19600d541617600d5561464590816100528239f35b5f80fdfe6080604052600436101561001a575b3615610018575f80fd5b005b5f3560e01c8063013cf08b146103c457806301ffc9a7146103bf57806302a251a3146103ba57806302aac7b2146103b557806307bd0265146103b0578063090149df146103ab5780630d1efc9e146103a65780630faaa3c8146103a15780631bd85e301461039c578063229acb1714610397578063248a9ca31461039257806324bc1a641461038d5780632f2ff15d1461038857806336568abe14610383578063380f233f1461037e5780633932abb1146103795780633e4f49e6146103155780633f4ba83a1461037457806340e58ee51461036f578063469e74ef1461036a578063470b76221461036557806347c6614014610360578063485cc9551461035b578063565641801461035657806356b494de146103515780635c975abb1461034c5780635f90af2a146103475780635fb433491461034257806365e64a051461033d578063671b37931461033857806371fb5836146103335780637c95ac271461032e5780638456cb59146103295780638b257989146103245780638ccb42c41461031f5780638f61f4f51461031a5780639080936f1461031557806391d1485414610310578063a217fddf1461030b578063aba02c1f14610306578063ac3e1b9614610301578063b320f6a9146102fc578063b58131b0146102f7578063b9cd81fd146102f2578063bc3f931f146102ed578063c07473f6146102e8578063cbba67f2146102e3578063cc63604a146102de578063ccc57490146102d9578063d2698445146102d4578063d547741f146102cf578063da35c664146102ca578063ddf0b009146102c5578063e26b2bea146102c0578063e3eece26146102bb578063ebe8351e146102b6578063eecdac88146102b1578063ef3cecb7146102ac5763fe0d94c10361000e576123ae565b6122f0565b6120f5565b6120a2565b612001565b611f61565b611d9a565b611d7d565b611d31565b611cee565b611cb4565b611c79565b611c2f565b611bf4565b611b4b565b611abc565b611a9f565b611a7d565b6119fb565b6119cf565b6119b5565b611957565b610c67565b611930565b6118e6565b6118c9565b611864565b61181d565b61177c565b61172f565b6116f7565b6115d1565b61157f565b611551565b611441565b6113b7565b61127a565b61120f565b610f7f565b610f35565b610d09565b610c94565b610c4a565b610b6a565b610b1f565b610ad3565b610aa5565b610a6c565b610a0e565b6109bc565b610969565b610909565b6107f5565b6107ce565b610787565b61071a565b6106ba565b61062a565b90600182811c921680156103f7575b60208310146103e357565b634e487b7160e01b5f52602260045260245ffd5b91607f16916103d8565b634e487b7160e01b5f52604160045260245ffd5b6001600160401b03811161042857604052565b610401565b60c081019081106001600160401b0382111761042857604052565b602081019081106001600160401b0382111761042857604052565b604081019081106001600160401b0382111761042857604052565b90601f801991011681019081106001600160401b0382111761042857604052565b9060405191825f82546104b1816103c9565b908184526020946001916001811690815f1461051f57506001146104e1575b5050506104df9250038361047e565b565b5f90815285812095935091905b8183106105075750506104df93508201015f80806104d0565b855488840185015294850194879450918301916104ee565b925050506104df94925060ff191682840152151560051b8201015f80806104d0565b91908251928382525f5b84811061056b575050825f602080949584010152601f8019910116010190565b60208183018101518483018201520161054b565b634e487b7160e01b5f52602160045260245ffd5b6007111561059d57565b61057f565b90600782101561059d5752565b98949c9b9a97936105ea61061e98946101609c98946105f89460408e610180938493825260018060a01b0316602082015201528c0190610541565b908a820360608c0152610541565b9b608089015260a088015260c087015260e08601526101008501526101208401906105a2565b15156101408201520152565b346106b65760203660031901126106b6576004355f525f60205260405f2080546106b260018060a01b03600184015416916106676002850161049f565b936106746003820161049f565b91600782015460088301546009840154600a85015491600b86015493600d600c880154970154976040519b8c9b60ff808b60081c169a16988d6105af565b0390f35b5f80fd5b346106b65760203660031901126106b65760043563ffffffff60e01b81168091036106b657602090637965db0b60e01b81149081156106ff575b506040519015158152f35b6301ffc9a760e01b1490505f6106f4565b5f9103126106b657565b346106b6575f3660031901126106b6576020600754604051908152f35b634e487b7160e01b5f52603260045260245ffd5b60045481101561076d5760045f525f8051602061459083398151915201905f90565b610737565b805482101561076d575f5260205f2001905f90565b346106b65760203660031901126106b6576004356004548110156106b65760045f525f8051602061459083398151915201546040516001600160a01b039091168152602090f35b346106b6575f3660031901126106b65760206040515f805160206145d08339815191528152f35b346106b65760a03660031901126106b6577f2f887d9c32f7cc3cbf806949310a3afdd85b147705550dde55deb4af1ab582f96024356004356108dd6044356108c06084356108bb6064356108476132b0565b610e1080881015806108fc575b61085d906124ed565b62015180891015806108ef575b61087390612530565b851015806108e2575b61088590612574565b6108908115156125c0565b61089b83151561260c565b6108a487600655565b6108ad88600755565b6108b685600855565b600955565b600a55565b604051938493846040919493926060820195825260208201520152565b0390a1005b5062278d0085111561087c565b5062278d0089111561086a565b5062093a80881115610854565b346106b65760203660031901126106b6576004355f525f60205260405f20600981015490600a810154820180921161096457600b0154810180911161096457606090600a546040519181811015835260208301526040820152f35b61264f565b346106b65760203660031901126106b6576004355f526003602052608060405f2060ff815491600260018201549101549060405193845260208401528181161515604084015260081c1615156060820152f35b346106b65760203660031901126106b65760043580151580610a02575b6109e29061268f565b5f525f602052602060ff600c60405f20015460081c166040519015158152f35b506005548111156109d9565b346106b65760203660031901126106b65760043580151580610a60575b610a349061268f565b5f525f6020526106b2610a4c600360405f200161049f565b604051918291602083526020830190610541565b50600554811115610a2b565b346106b65760203660031901126106b6576004355f525f805160206145508339815191526020526020600160405f200154604051908152f35b346106b6575f3660031901126106b6576020600a54604051908152f35b6001600160a01b038116036106b657565b346106b65760403660031901126106b657610018602435600435610af682610ac2565b805f525f80516020614550833981519152602052610b1a600160405f2001546133b2565b61361d565b346106b65760403660031901126106b657602435610b3c81610ac2565b336001600160a01b03821603610b5857610018906004356137d8565b60405163334bd91960e11b8152600490fd5b346106b65760403660031901126106b657600435610b8781610ac2565b7ffbe052d3f58f863333340849cd5dd6970d48338ed50eafb8fa867d63cdffdd96610c45602435610bb66132b0565b610c35610c3082610c2b60018060a01b03881697885f526001602052610be560ff600260405f200154166126d1565b610bf0831515612713565b5f8981526001602081815260408084208301546001600160a01b03959095168452808420909201869055600290529020839055600b54612756565b612682565b600b55565b6040519081529081906020820190565b0390a2005b346106b6575f3660031901126106b6576020600654604051908152f35b346106b65760203660031901126106b6576020610c85600435612763565b610c9260405180926105a2565bf35b346106b6575f3660031901126106b657610cac6132b0565b5f80516020614570833981519152805460ff811615610cf75760ff191690557f5db9ee0a495bf2e6ff9c91a7834c1ba4fdd244a5e8aa4e537bd38aeae4b073aa6020604051338152a1005b604051638dfc202b60e01b8152600490fd5b346106b65760203660031901126106b657600435610da1600c610d2b83612763565b610d93610d3f855f525f60205260405f2090565b6001810154909290610d61906001600160a01b03165b6001600160a01b031690565b33148015610ef0575b610d739061286e565b610d7c81610593565b8015908115610edb575b8115610ec7575b506128c4565b01805460ff19166005179055565b600d5460ff1680610ea9575b610e7d575b600d54610dca9060081c6001600160a01b0316610d55565b803b156106b65760405163a66dc69360e01b81527fb7fe8915278f71b280c08b8be005575b039649cbe28cfa468b926b072ce69eaf600482015233602482015260448101839052608060648201525f608482018190529091829060a490829084905af18015610e7857610e5f575b507f416e669c63d9a3a5e36ee7cc7e2104b8db28ccd286aa18966e98fa230c73b08c5f80a2005b80610e6c610e7292610415565b80610710565b5f610e38565b612909565b610ea46002610e94835f52600360205260405f2090565b01805461ff001916610100179055565b610db2565b506001610ebe825f52600360205260405f2090565b01541515610dad565b60029150610ed481610593565b145f610d8d565b9050610ee681610593565b6001811490610d86565b50335f9081527fb7db2dd08fcb62d0c9e08c51941cae53c267786a0b75803fb7960902fc8ef97d60205260409020610d7390610f2e905b5460ff1690565b9050610d6a565b346106b6575f3660031901126106b6576020600c54604051908152f35b9181601f840112156106b6578235916001600160401b0383116106b657602083818601950101116106b657565b346106b65760603660031901126106b65760243560043560038210156106b6576044356001600160401b0381116106b657610fbe903690600401610f52565b90335f52600160205260ff600260405f20015416156111d157610fe291369161294e565b610fff6001610ff084612763565b610ff981610593565b1461380e565b611010825f525f60205260405f2090565b90600e82019161104261103d611039610f2733879060018060a01b03165f5260205260405f2090565b1590565b61384e565b335f9081526002602052604090206110849061107790549461106586151561388a565b335f9081526020919091526040902090565b805460ff19166001179055565b335f908152600f82016020526040902061109f9086906138c8565b335f90815260108201602052604090208390556110bb85611b34565b8461119d57600a016110ce838254612682565b90555b600d546110e99060081c6001600160a01b0316610d55565b916110f385611b34565b60408051602081018690528082018790529081529261111360608561047e565b803b156106b65760405163a66dc69360e01b8152935f918591829084908290611141908833600485016138e0565b03925af1928315610e78577f761cce3a1af5d9cfc0d57222f605ce4bd2be345f0ad9ebb7b83a84a91a0c20149361118a575b5061118560405192839233978461392a565b0390a3005b80610e6c61119792610415565b5f611173565b6111a685611b34565b600185036111c3576009016111bc838254612682565b90556110d1565b600b016111bc838254612682565b60405162461bcd60e51b81526020600482015260166024820152752737ba1030b71030b1ba34bb329033b7bb32b93737b960511b6044820152606490fd5b346106b65760203660031901126106b6576004358015158061126e575b6112359061268f565b5f525f60205260405f2060098101546106b2600b600a840154930154604051938493846040919493926060820195825260208201520152565b5060055481111561122c565b346106b65760403660031901126106b65760043561129781610ac2565b602435906112a482610ac2565b5f805160206145f083398151915254916001600160401b0360ff8460401c16159316801590816113af575b60011490816113a5575b15908161139c575b5061138a575f805160206145f0833981519152805467ffffffffffffffff19166001179055611314918361136657612996565b61131a57005b5f805160206145f0833981519152805460ff60401b19169055604051600181527fc7f505b2f371ae2175ee4913f4499e1f2633a7b5936321eed1cdaeb6115181d29080602081016108dd565b5f805160206145f0833981519152805460ff60401b1916600160401b179055612996565b60405163f92ee8a960e01b8152600490fd5b9050155f6112e1565b303b1591506112d9565b8491506112cf565b346106b65760203660031901126106b6576004356113d36132b0565b60045481106113ee576113e96032821115612b12565b600c55005b60405162461bcd60e51b815260206004820152602560248201527f43616e6e6f74206265206c657373207468616e2063757272656e7420676f7665604482015264726e6f727360d81b6064820152608490fd5b60603660031901126106b65760043561145981610ac2565b604435906001600160401b0382116106b6575f809161147f6114ad943690600401610f52565b906114886132b0565b61149760405180938193612b53565b0391602435905af16114a7612b60565b50612b8f565b600d546114c59060081c6001600160a01b0316610d55565b6001600160a01b0381166114d557005b803b156106b65760405163a66dc69360e01b81527f9bdf445181514d66f2e8a2f09645a802a35023b3e6a1f2df5dade5f4703c423e60048201523360248201525f6044820181905260806064830152608482018190529091829060a490829084905af18015610e785761154457005b80610e6c61001892610415565b346106b6575f3660031901126106b657602060ff5f8051602061457083398151915254166040519015158152f35b346106b65760203660031901126106b657600435801515806115c5575b6115a59061268f565b5f525f602052602060018060a01b03600160405f20015416604051908152f35b5060055481111561159c565b346106b65760803660031901126106b6576004356115ee81610ac2565b602435906001600160401b036044358181116106b657611612903690600401610f52565b9390916064359081116106b65761162d903690600401610f52565b92906116376132b0565b6001600160a01b038516156116b2576116a46116ac926100189761168361167e61103960026116768c60018060a01b03165f52600160205260405f2090565b015460ff1690565b612bdb565b611692600454600c5411612b12565b61169d861515612713565b369161294e565b93369161294e565b92613c3c565b60405162461bcd60e51b815260206004820152601860248201527f496e76616c696420676f7665726e6f72206164647265737300000000000000006044820152606490fd5b346106b65760203660031901126106b6576004358015158091036106b65761171d6132b0565b60ff8019600d5416911617600d555f80f35b346106b6575f3660031901126106b6576020600b54604051908152f35b9181601f840112156106b6578235916001600160401b0383116106b6576020808501948460051b0101116106b657565b346106b65760a03660031901126106b6576001600160401b03600480358281116106b6576117ad9036908301610f52565b906024358481116106b6576117c59036908501610f52565b906044358681116106b6576117dd903690870161174c565b906064358881116106b6576117f5903690890161174c565b949093608435998a116106b657611815610c35996106b29b36910161174c565b989097612c27565b346106b65760203660031901126106b65760043580151580611858575b6118439061268f565b5f525f602052602060405f2054604051908152f35b5060055481111561183a565b346106b6575f3660031901126106b65761187c6132b0565b611884613cf5565b5f80516020614570833981519152600160ff198254161790557f62e78cea01bee320cd4e420270b5ea74000d11b0c9f74754ebdbfc544b05a2586020604051338152a1005b346106b6575f3660031901126106b6576020600854604051908152f35b346106b65760203660031901126106b65760043580151580611924575b61190c9061268f565b5f525f6020526020600d60405f200154604051908152f35b50600554811115611903565b346106b6575f3660031901126106b65760206040515f805160206145b08339815191528152f35b346106b65760403660031901126106b657602060ff6119a960243561197b81610ac2565b6004355f525f80516020614550833981519152845260405f209060018060a01b03165f5260205260405f2090565b54166040519015158152f35b346106b6575f3660031901126106b65760206040515f8152f35b346106b6575f3660031901126106b657600d5460405160089190911c6001600160a01b03168152602090f35b346106b65760203660031901126106b657600435600454811015611a425760045f525f8051602061459083398151915201546040516001600160a01b039091168152602090f35b60405162461bcd60e51b8152602060048201526013602482015272496e646578206f7574206f6620626f756e647360681b6044820152606490fd5b346106b6575f3660031901126106b657602060ff600d54166040519015158152f35b346106b6575f3660031901126106b6576020600954604051908152f35b346106b6575f3660031901126106b6575f80600454905b818110611ae557604051838152602090f35b5f805160206145908339815191528101546001600160a01b03165f9081526001602052604090206002015460ff16611b20575b600101611ad3565b91611b2c600191612e24565b929050611b18565b6003111561059d57565b90600382101561059d5752565b346106b65760403660031901126106b6576060602435611b6a81610ac2565b6004355f525f60205260405f20611bed611bd960ff611b9c85600e86019060018060a01b03165f5260205260405f2090565b541693601060ff611bc083600f88019060018060a01b03165f5260205260405f2090565b541694019060018060a01b03165f5260205260405f2090565b549160405193151584526020840190611b3e565b6040820152f35b346106b65760203660031901126106b657600435611c1181610ac2565b60018060a01b03165f526002602052602060405f2054604051908152f35b346106b65760203660031901126106b65760043580151580611c6d575b611c559061268f565b5f525f6020526106b2610a4c600260405f200161049f565b50600554811115611c4c565b346106b65760203660031901126106b657611c95600435612f67565b906106b260405192839215158352604060208401526040830190610541565b346106b6575f3660031901126106b65760206040517f7935bd0ae54bc31f548c14dba4d37c5c64b3f8ca900cb468fb8abd54d5894f558152f35b346106b65760203660031901126106b657600435611d0b81610ac2565b60018060a01b03165f526001602052602060ff600260405f200154166040519015158152f35b346106b65760403660031901126106b657610018602435600435611d5482610ac2565b805f525f80516020614550833981519152602052611d78600160405f2001546133b2565b6137d8565b346106b6575f3660031901126106b6576020600554604051908152f35b346106b65760203660031901126106b657600435611db6613306565b611dbf81612763565b600781101561059d576002611dd49114613011565b611de8611de3600d5460ff1690565b613056565b7f9a2e42fd6722813d69113e7d0079d3d940171428df7373df9c7f7617cfda2892610c45611e1860085442612682565b611e4f611e23612914565b8581528260208201525f60408201525f6060820152611e4a865f52600360205260405f2090565b613099565b80600d611e63865f525f60205260405f2090565b01556040519081529081906020820190565b90808251908181526020809101926020808460051b8301019501935f915b848310611ea35750505050505090565b9091929394958480611ec1600193601f198682030187528a51610541565b9801930193019194939290611e93565b939290936060810160608252855180915260808201906020809701905f5b88828210611f445750505050818103868301528580855192838152019401905f5b818110611f3057505050611f2d9394506040818403910152611e75565b90565b825186529487019491870191600101611f10565b83516001600160a01b031685529384019390920191600101611eef565b346106b6576020806003193601126106b6576004355f525f60205260405f2090600482019060405180928391602082549182815201915f5260205f20935f905b828210611fde57505050611fb79250038261047e565b6106b2611fd26006611fcb600586016130e2565b9401613130565b60405193849384611ed1565b85546001600160a01b031684526001958601958795509381019390910190611fa1565b346106b65760203660031901126106b65760043561201e81610ac2565b60018060a01b038091165f52600160205260405f20908154166106b260018301549261209460ff60028301541691600381015461206960056120626004850161049f565b930161049f565b936040519788978852602088015215156040870152606086015260c0608086015260c0850190610541565b9083820360a0850152610541565b346106b65760203660031901126106b657600435801515806120e9575b6120c89061268f565b5f525f6020526040805f206008600782015491015482519182526020820152f35b506005548111156120bf565b346106b65760203660031901126106b65760043561211281610ac2565b61211a6132b0565b61214161213c60026116768460018060a01b03165f52600160205260405f2090565b6126d1565b61214f600160045411613216565b6001600160a01b0381165f90815260016020819052604090912060028101805460ff1916905561218791610c30910154600b54612756565b6001600160a01b0381165f908152600260205260408120556121a88161418e565b6121b181613653565b506121bb81613720565b506121c58161377c565b50600d546121de9060081c6001600160a01b0316610d55565b6040516bffffffffffffffffffffffff19606084901b166020820152601481529061220a60348361047e565b803b156106b65760405163a66dc69360e01b8152915f918391829084908290612237903360048401613262565b03925af18015610e7857612276575b506001600160a01b03167f1ebe834e73d60a5fec822c1e1727d34bc79f2ad977ed504581cc1822fe20fb5b5f80a2005b80610e6c61228392610415565b5f612246565b90611f2d916020815260018060a01b038251166020820152602082015160408201526040820151151560608201526060820151608082015260a06122db608084015160c08385015260e0840190610541565b9201519060c0601f1982850301910152610541565b346106b65760203660031901126106b6576106b260043561231081610ac2565b6040606060a082516123218161042d565b5f81525f60208201525f848201525f83820152826080820152015260018060a01b038092165f52600160205261239f6005825f208351946123618661042d565b815416855260018101546020860152600281015460ff16151584860152600381015460608601526123946004820161049f565b60808601520161049f565b60a08301525191829182612289565b60203660031901126106b6576004356123c5613306565b6123cd613cf5565b6123ea60026123db83612763565b6123e481610593565b14613011565b600d5460ff166124df575b61241f612409825f525f60205260405f2090565b600c8101805461ffff1916610104179055614439565b600d546124379060081c6001600160a01b0316610d55565b803b156106b65760405163a66dc69360e01b81527f91a45d7c4d25273efc45d7b106d9668955adc34628a4b1412ea0f0eea5aa28e6600482015233602482015260448101839052608060648201525f608482018190529091829060a490829084905af18015610e78576124cc575b507f712ae1383f79ac853f8d882153778e0260ef8f03b504e2866e0593e04d2b291f5f80a2005b80610e6c6124d992610415565b5f6124a5565b6124e881614303565b6123f5565b156124f457565b60405162461bcd60e51b8152602060048201526014602482015273496e76616c696420766f74696e672064656c617960601b6044820152606490fd5b1561253757565b60405162461bcd60e51b8152602060048201526015602482015274125b9d985b1a59081d9bdd1a5b99c81c195c9a5bd9605a1b6044820152606490fd5b1561257b57565b60405162461bcd60e51b815260206004820152601760248201527f496e76616c696420657865637574696f6e2064656c61790000000000000000006044820152606490fd5b156125c757565b60405162461bcd60e51b815260206004820152601a60248201527f496e76616c69642070726f706f73616c207468726573686f6c640000000000006044820152606490fd5b1561261357565b60405162461bcd60e51b8152602060048201526014602482015273496e76616c69642071756f72756d20766f74657360601b6044820152606490fd5b634e487b7160e01b5f52601160045260245ffd5b9062278d00820180921161096457565b90612710820180921161096457565b9190820180921161096457565b1561269657565b60405162461bcd60e51b8152602060048201526013602482015272125b9d985b1a59081c1c9bdc1bdcd85b081251606a1b6044820152606490fd5b156126d857565b60405162461bcd60e51b8152602060048201526013602482015272476f7665726e6f72206e6f742061637469766560681b6044820152606490fd5b1561271a57565b60405162461bcd60e51b815260206004820152601460248201527324b73b30b634b2103b37ba34b733903837bbb2b960611b6044820152606490fd5b9190820391821161096457565b6127869080151580612862575b6127799061268f565b5f525f60205260405f2090565b600c810154600560ff821661279a81610593565b1461285b5760081c60ff1661285557600781015443111561285057600881015443111561284a57600d5460ff168061283d575b80612828575b612822576009810154906127fb600a82015491600b6127f28486612682565b91015490612682565b600a5411918215612817575b505061281257600290565b600390565b111590505f80612807565b50600690565b50612836600d820154612663565b42116127d3565b50600d81015415156127cd565b50600190565b505f90565b50600490565b5050600590565b50600554811115612770565b1561287557565b60405162461bcd60e51b815260206004820152602160248201527f4f6e6c792070726f706f736572206f722061646d696e2063616e2063616e63656044820152601b60fa1b6064820152608490fd5b156128cb57565b60405162461bcd60e51b815260206004820152601660248201527510d85b9b9bdd0818d85b98d95b081c1c9bdc1bdcd85b60521b6044820152606490fd5b6040513d5f823e3d90fd5b60405190608082018281106001600160401b0382111761042857604052565b6001600160401b03811161042857601f01601f191660200190565b92919261295a82612933565b91612968604051938461047e565b8294818452818301116106b6578281602093845f960137010152565b6040519061299182610448565b5f8252565b9061299f614521565b6129a7614521565b6129b0826133de565b506129ba8261348f565b506129c482613565565b506129ce826135c1565b50600d8054610100600160a81b03191660089290921b610100600160a81b03169190911790556040517fc87244d4e830ce3fb2520c1dd8e0dbfe84bb3b6216907b2a2c751751a24a844490612b0d90612a2681610463565b601081526f23b2b732b9b4b99023b7bb32b93737b960811b6020820152612b0060405194612a5386610448565b5f865260405195612a638761042d565b612ab860018060a01b0383169788815261271092836020830152612a8a6040830160019052565b4260608301526080820187905260a08201526001600160a01b0384165f908152600160205260409020613a75565b6001600160a01b0382165f90815260026020526040902055612ade610c30600b54612673565b612ae781613bb9565b612af08161348f565b50612afa81613565565b506135c1565b5060405191829182613c0c565b0390a2565b15612b1957565b60405162461bcd60e51b8152602060048201526012602482015271546f6f206d616e7920676f7665726e6f727360701b6044820152606490fd5b908092918237015f815290565b3d15612b8a573d90612b7182612933565b91612b7f604051938461047e565b82523d5f602084013e565b606090565b15612b9657565b60405162461bcd60e51b815260206004820152601a60248201527f456d657267656e637920657865637574696f6e206661696c65640000000000006044820152606490fd5b15612be257565b60405162461bcd60e51b815260206004820152601760248201527f476f7665726e6f7220616c7265616479206578697374730000000000000000006044820152606490fd5b989694929097959391612c3861336e565b612c40613cf5565b335f52600260205260405f205460095411612cd457611f2d9886851480612ccb575b612c6b90612d19565b84151580612cc0575b612c7d90612d59565b80151580612cb5575b612c8f90612da5565b612c9a831515612de1565b612ca5600554612e24565b9a612caf8c600555565b8b613ff3565b5060c8811115612c86565b50600a851115612c74565b50868914612c62565b60405162461bcd60e51b815260206004820152601860248201527f42656c6f772070726f706f73616c207468726573686f6c6400000000000000006044820152606490fd5b15612d2057565b60405162461bcd60e51b81526020600482015260116024820152704d69736d6174636865642061727261797360781b6044820152606490fd5b15612d6057565b60405162461bcd60e51b815260206004820152601760248201527f496e76616c69642070726f706f73616c206c656e6774680000000000000000006044820152606490fd5b15612dac57565b60405162461bcd60e51b815260206004820152600d60248201526c496e76616c6964207469746c6560981b6044820152606490fd5b15612de857565b60405162461bcd60e51b815260206004820152601460248201527311195cd8dc9a5c1d1a5bdb881c995c5d5a5c995960621b6044820152606490fd5b5f1981146109645760010190565b60405190612e3f82610463565b6016825275141c9bdc1bdcd85b081b9bdd081cdd58d8d95959195960521b6020830152565b90604051608081018181106001600160401b0382111761042857604052606060ff60028395805485526001810154602086015201548181161515604085015260081c161515910152565b60405190612ebb82610463565b6013825272141c9bdc1bdcd85b081b9bdd081c5d595d5959606a1b6020830152565b60405190612eea82610463565b6014825273151a5b595b1bd8dac81b9bdd08195e1c1a5c995960621b6020830152565b60405190612f1a82610463565b601082526f105b1c9958591e48195e1958dd5d195960821b6020830152565b60405190612f4682610463565b6012825271141c9bdc1bdcd85b0818d85b98d95b1b195960721b6020830152565b6002612f7282612763565b612f7b81610593565b0361300657600d5460ff16612f97575b50600190611f2d612984565b612fac612fb1915f52600360205260405f2090565b612e64565b60208101805115612ffa57514210612fef576040810151612fe45760600151612fda575f612f8b565b5f90611f2d612f39565b505f90611f2d612f0d565b505f90611f2d612edd565b50505f90611f2d612eae565b505f90611f2d612e32565b1561301857565b60405162461bcd60e51b8152602060048201526016602482015275141c9bdc1bdcd85b081b9bdd081cdd58d8d95959195960521b6044820152606490fd5b1561305d57565b60405162461bcd60e51b8152602060048201526014602482015273151a5b595b1bd8dac81b9bdd08195b98589b195960621b6044820152606490fd5b6002606091835181556020840151600182015501916130ca60408201511515849060ff801983541691151516179055565b0151815461ff00191690151560081b61ff0016179055565b90604051918281549182825260209260208301915f5260205f20935f905b828210613116575050506104df9250038361047e565b855484526001958601958895509381019390910190613100565b908154916001600160401b0383116104285760209260056040926040519561315d818560051b018861047e565b8387525f918252808220948188015b85841061317c5750505050505050565b8151835f9289549261318d846103c9565b8082526001948086169081156131fb57506001146131c3575b506131b581600196038261047e565b81520197019301929561316c565b5f8c81528481209650905b8082106131e457508101830194506131b56131a6565b8654838301860152958501958894909101906131ce565b60ff191685840152501515891b8101830194506131b56131a6565b1561321d57565b60405162461bcd60e51b815260206004820152601b60248201527f43616e6e6f742072656d6f7665206c61737420676f7665726e6f7200000000006044820152606490fd5b7f5687d3fe21d30775d032e7d9f697c51cccb88040adbb4a67dd547b43775d5c7f81526001600160a01b0390911660208201525f6040820152608060608201819052611f2d92910190610541565b335f9081527fb7db2dd08fcb62d0c9e08c51941cae53c267786a0b75803fb7960902fc8ef97d602052604090205460ff16156132e857565b60405163e2517d3f60e01b81523360048201525f6024820152604490fd5b335f9081527f52fce5e8a5d0d9e8d1ea29f4525e512e9c27bf92cae50374d497f918ab48f382602052604090205f805160206145d08339815191529060ff905b5416156133505750565b6044906040519063e2517d3f60e01b82523360048301526024820152fd5b335f9081527f5a8734c34b98d7c96eb2ea25f298989407e1f25da116ec139bcce0887bcb7cf7602052604090205f805160206145b08339815191529060ff90613346565b5f8181525f8051602061455083398151915260209081526040808320338452909152902060ff90613346565b6001600160a01b0381165f9081527fb7db2dd08fcb62d0c9e08c51941cae53c267786a0b75803fb7960902fc8ef97d60205260409020545f805160206145508339815191529060ff16613489575f808052602091825260408082206001600160a01b038516835290925220805460ff1916600117905533906001600160a01b03165f7f2f8788117e7eff1d82e926ec794901d17c78024a50270940304540a733656f0d8180a4600190565b50505f90565b6001600160a01b0381165f9081527f75e09417c5070057df3eafe5054d52fa0b2a87d64a235e197963b615aedee803602052604090207f7935bd0ae54bc31f548c14dba4d37c5c64b3f8ca900cb468fb8abd54d5894f55905f805160206145508339815191529060ff905b541661355e575f828152602091825260408082206001600160a01b038616835290925220805460ff1916600117905533916001600160a01b0316907f2f8788117e7eff1d82e926ec794901d17c78024a50270940304540a733656f0d5f80a4600190565b5050505f90565b6001600160a01b0381165f9081527f5a8734c34b98d7c96eb2ea25f298989407e1f25da116ec139bcce0887bcb7cf7602052604090205f805160206145b0833981519152905f805160206145508339815191529060ff906134fa565b6001600160a01b0381165f9081527f52fce5e8a5d0d9e8d1ea29f4525e512e9c27bf92cae50374d497f918ab48f382602052604090205f805160206145d0833981519152905f805160206145508339815191529060ff906134fa565b5f8181525f80516020614550833981519152602081815260408084206001600160a01b038716855290915290912060ff906134fa565b6001600160a01b0381165f9081527f75e09417c5070057df3eafe5054d52fa0b2a87d64a235e197963b615aedee803602052604090207f7935bd0ae54bc31f548c14dba4d37c5c64b3f8ca900cb468fb8abd54d5894f55905f805160206145508339815191529060ff905b54161561355e575f828152602091825260408082206001600160a01b038616835290925220805460ff1916905533916001600160a01b0316907ff6391f5c32d9c69d2a47ea670b442974b53935d1edc7fd64eb21e047a839171b5f80a4600190565b6001600160a01b0381165f9081527f5a8734c34b98d7c96eb2ea25f298989407e1f25da116ec139bcce0887bcb7cf7602052604090205f805160206145b0833981519152905f805160206145508339815191529060ff906136be565b6001600160a01b0381165f9081527f52fce5e8a5d0d9e8d1ea29f4525e512e9c27bf92cae50374d497f918ab48f382602052604090205f805160206145d0833981519152905f805160206145508339815191529060ff906136be565b5f8181525f80516020614550833981519152602081815260408084206001600160a01b038716855290915290912060ff906136be565b1561381557565b60405162461bcd60e51b8152602060048201526011602482015270566f74696e67206e6f742061637469766560781b6044820152606490fd5b1561385557565b60405162461bcd60e51b815260206004820152600d60248201526c105b1c9958591e481d9bdd1959609a1b6044820152606490fd5b1561389157565b60405162461bcd60e51b815260206004820152600f60248201526e2737903b37ba34b733903837bbb2b960891b6044820152606490fd5b90600381101561059d5760ff80198354169116179055565b611f2d93926080927ffb8a3a8f8b3a699e1cfc4696991684714725a0a7378a16e68296dad154175a11835260018060a01b0316602083015260408201528160608201520190610541565b611f2d939261393b82606094611b3e565b60208201528160408201520190610541565b818110613958575050565b5f815560010161394d565b9190601f811161397257505050565b6104df925f5260205f20906020601f840160051c8301931061399c575b601f0160051c019061394d565b909150819061398f565b91909182516001600160401b038111610428576139cd816139c784546103c9565b84613963565b602080601f8311600114613a0e575081906139ff9394955f92613a03575b50508160011b915f199060031b1c19161790565b9055565b015190505f806139eb565b90601f19831695613a22855f5260205f2090565b925f905b888210613a5d57505083600195969710613a45575b505050811b019055565b01515f1960f88460031b161c191690555f8080613a3b565b80600185968294968601518155019501930190613a26565b815181546001600160a01b0319166001600160a01b039190911617815590600160209060208301516001850155613ac160408401511515600286019060ff801983541691151516179055565b60608301516003850155600484019160808401518051926001600160401b03841161042857613afa84613af487546103c9565b87613963565b602092601f8511600114613b4157505092613b358360a0946104df9897946005975f92613a035750508160011b915f199060031b1c19161790565b90555b015191016139a6565b929190601f19851690613b57875f5260205f2090565b945f915b838310613ba257505050936104df979693600596936001938360a09810613b8a575b505050811b019055613b38565b01515f1960f88460031b161c191690555f8080613b7d565b848601518755958601959481019491810191613b5b565b60045490600160401b82101561042857600182018060045582101561076d5760045f525f8051602061459083398151915290910180546001600160a01b0319166001600160a01b03909216919091179055565b906040611f2d9261271081528160208201520190610541565b604090611f2d939281528160208201520190610541565b9190613c90604051613c4d8161042d565b6001600160a01b0385168082526020808301859052600160408085018290524260608601526080850188905260a08501999099525f838152915296909620613a75565b6001600160a01b0383165f908152600260205260409020819055600b54818101809111610964577fc87244d4e830ce3fb2520c1dd8e0dbfe84bb3b6216907b2a2c751751a24a844493612ade613ce592600b55565b50612b0d60405192839283613c25565b60ff5f805160206145708339815191525416613d0d57565b60405163d93c066560e01b8152600490fd5b9092916001600160401b03811161042857613d3e816139c784546103c9565b5f601f8211600114613d775781906139ff9394955f92613d6c5750508160011b915f199060031b1c19161790565b013590505f806139eb565b601f19821694613d8a845f5260205f2090565b915f5b878110613dc3575083600195969710613daa57505050811b019055565b01355f19600384901b60f8161c191690555f8080613a3b565b90926020600181928686013581550194019101613d8d565b91818110613de857505050565b6104df925f5260205f20918201910161394d565b906001600160401b03831161042857600160401b831161042857613e2583835481855584613ddb565b905f526020805f20905f5b848110613e3e575050505050565b60019082853595613e4e87610ac2565b01948185015501613e30565b906001600160401b03831161042857600160401b831161042857613e8383835481855584613ddb565b905f526020805f20905f5b848110613e9c575050505050565b83358382015592810192600101613e8e565b903590601e19813603018212156106b657018035906001600160401b0382116106b6576020019181360383136106b657565b600160401b8311610428578054838255808410613f40575b5090613f0881925f5260205f2090565b905f925b848410613f1a575050505050565b6001602082613f34613f2d849587613eae565b9088613d1f565b01930193019291613f0c565b815f528360205f2091820191015b818110613f5b5750613ef8565b80613f68600192546103c9565b80613f75575b5001613f4e565b601f908181118414613f8d5750505f81555b5f613f6e565b83613fad92613f9f855f5260205f2090565b920160051c8201910161394d565b5f8181526020812081835555613f87565b90826040936080929796959760608552816060860152838501375f828285010152601f80199101168201019460208201520152565b98939499929790999691959660065461400d90600c900490565b6140179043612682565b9760075461402690600c900490565b614030908a612682565b996140428c5f525f60205260405f2090565b8c81556001810180546001600160a01b03191633179055976140688a8f60028c01613d1f565b6140759160038a01613d1f565b6140829160048801613dfc565b61408f9160058601613e5a565b61409c9160068401613ee0565b826007820155836008820155600c016140b99060ff198154169055565b600d5460081c6001600160a01b03166001600160a01b031692833b156106b65760405163a66dc69360e01b81527f776975e6401650920cbd890df41711dd386309cdf83284b5332205929c4768dd600482015233602482015260448101869052608060648201525f608482018190529094859060a490829084905af1908115610e78577f6c98a8c940418b35614f0cd02412d5c9606faff474cbb6cdd6640ba5d1a9f06b946141769261417b575b50604051938493339885613fbe565b0390a3565b80610e6c61418892610415565b5f614167565b5f5b600480548083101561427d575f8290525f805160206145908339815191528301546001600160a01b0391908216858316146141d057505050600101614190565b90919293505f19938482019182116109645761421f926141f26141fb9361074b565b9390549261074b565b92909360031b1c169060018060a01b038084549260031b9316831b921b1916179055565b805491821561426a578201918083101561076d575f8290527f8a35acfbc15ff81a39ae7d344fd709f28e8600b4aa8c65c6b64bfe7fe36bd19a0180546001600160a01b031916905555565b603182634e487b7160e01b5f525260245ffd5b50505050565b1561428a57565b60405162461bcd60e51b815260206004820152601060248201526f105b1c9958591e48195e1958dd5d195960821b6044820152606490fd5b156142c957565b60405162461bcd60e51b8152602060048201526012602482015271141c9bdc1bdcd85b0818d85b98d95b1b195960721b6044820152606490fd5b5f52600360205260405f206001810154801561437f5742106143435760026104df910161107760ff825461433982821615614283565b60081c16156142c2565b60405162461bcd60e51b8152602060048201526014602482015273151a5b595b1bd8dac81b9bdd08195e1c1a5c995960621b6044820152606490fd5b60405162461bcd60e51b8152602060048201526013602482015272141c9bdc1bdcd85b081b9bdd081c5d595d5959606a1b6044820152606490fd5b5f929181546143c8816103c9565b9260019180831690811561441e57506001146143e45750505050565b9091929394505f5260209060205f20905f915b85831061440d575050505001905f80808061427d565b8054858401529183019181016143f7565b60ff191684525050508115159091020191505f80808061427d565b905f5b6004808401805483101561451a576144578361446c92610772565b905460039190911b1c6001600160a01b031690565b905f8061448961447f8660058a01610772565b90549060031b1c90565b936144aa61449a8760068b01610772565b50956040968751928380926143ba565b03925af1916144b7612b60565b92156144c85750505060010161443c565b8251156144d757825160208401fd5b61451692505191829162461bcd60e51b8352820160609060208152601060208201526f115e1958dd5d1a5bdb8819985a5b195960821b60408201520190565b0390fd5b5050509050565b60ff5f805160206145f08339815191525460401c161561453d57565b604051631afcd79f60e31b8152600490fdfe02dd7bc7dec4dceedda775e58dd541e08a116c6c53815c0bd028192f7b626800cd5ed15c6e187e77e9aee88184c21f4f2182ab5827cb3b7e07fbedcd63f033008a35acfbc15ff81a39ae7d344fd709f28e8600b4aa8c65c6b64bfe7fe36bd19bb09aa5aeb3702cfd50b6b62bc4532604938f21248a27a1d5ca736082b6819cc1d8aa0f3194971a2a116679f7c2090f6939c8d4e01a2a8d7e41d55e5351469e63f0c57e16840df040f15088dc2f81fe391c3923bec73e23a9662efc9c229c6a00a2646970667358221220a99d00d03934d5278051cfa6fd9cf29b0b8fb837bdf76bf657ed37e2f4b8c02e64736f6c63430008160033","linkReferences":{}},"methodIdentifiers":{"DEFAULT_ADMIN_ROLE()":"a217fddf","EXECUTOR_ROLE()":"07bd0265","GOVERNOR_ROLE()":"ccc57490","PROPOSER_ROLE()":"8f61f4f5","addGovernor(address,uint256,string,string)":"5fb43349","auditTrail()":"aba02c1f","canExecute(uint256)":"cc63604a","cancel(uint256)":"40e58ee5","castVote(uint256,uint8,string)":"470b7622","emergencyExecute(address,uint256,bytes)":"56b494de","execute(uint256)":"fe0d94c1","executionDelay()":"8b257989","executionQueue(uint256)":"0faaa3c8","getGovernorAt(uint256)":"ac3e1b96","getGovernorInfo(address)":"ef3cecb7","getGovernorsCount()":"b9cd81fd","getProposalActions(uint256)":"e26b2bea","getProposalBlocks(uint256)":"ebe8351e","getProposalDescription(uint256)":"229acb17","getProposalEta(uint256)":"8ccb42c4","getProposalExecuted(uint256)":"1bd85e30","getProposalId(uint256)":"7c95ac27","getProposalProposer(uint256)":"5f90af2a","getProposalState(uint256)":"9080936f","getProposalTitle(uint256)":"cbba67f2","getProposalVotes(uint256)":"47c66140","getQuorumReached(uint256)":"0d1efc9e","getRoleAdmin(bytes32)":"248a9ca3","getVote(uint256,address)":"bc3f931f","governorList(uint256)":"02aac7b2","governors(address)":"e3eece26","grantRole(bytes32,address)":"2f2ff15d","hasRole(bytes32,address)":"91d14854","initialize(address,address)":"485cc955","isGovernorActive(address)":"d2698445","maxGovernors()":"469e74ef","pause()":"8456cb59","paused()":"5c975abb","proposalCount()":"da35c664","proposalThreshold()":"b58131b0","proposals(uint256)":"013cf08b","propose(string,string,address[],uint256[],bytes[])":"71fb5836","queue(uint256)":"ddf0b009","quorumVotes()":"24bc1a64","removeGovernor(address)":"eecdac88","renounceRole(bytes32,address)":"36568abe","revokeRole(bytes32,address)":"d547741f","setMaxGovernors(uint256)":"56564180","setTimelockEnabled(bool)":"65e64a05","setVotingParameters(uint256,uint256,uint256,uint256,uint256)":"090149df","state(uint256)":"3e4f49e6","supportsInterface(bytes4)":"01ffc9a7","timelockEnabled()":"b320f6a9","totalVotingPower()":"671b3793","unpause()":"3f4ba83a","updateGovernorVotingPower(address,uint256)":"380f233f","votingDelay()":"3932abb1","votingPeriod()":"02a251a3","votingPower(address)":"c07473f6"},"id":1}