{"abi":[{"type":"constructor","inputs":[{"name":"admin","type":"address","internalType":"address"}],"stateMutability":"nonpayable"},{"type":"function","name":"DEFAULT_ADMIN_ROLE","inputs":[],"outputs":[{"name":"","type":"bytes32","internalType":"bytes32"}],"stateMutability":"view"},{"type":"function","name":"DEPLOYER_ROLE","inputs":[],"outputs":[{"name":"","type":"bytes32","internalType":"bytes32"}],"stateMutability":"view"},{"type":"function","name":"PLATFORM_ADMIN_ROLE","inputs":[],"outputs":[{"name":"","type":"bytes32","internalType":"bytes32"}],"stateMutability":"view"},{"type":"function","name":"adminGovernanceImplementation","inputs":[],"outputs":[{"name":"","type":"address","internalType":"address"}],"stateMutability":"view"},{"type":"function","name":"assetTokenizerImplementation","inputs":[],"outputs":[{"name":"","type":"address","internalType":"address"}],"stateMutability":"view"},{"type":"function","name":"auditTrailImplementation","inputs":[],"outputs":[{"name":"","type":"address","internalType":"address"}],"stateMutability":"view"},{"type":"function","name":"complianceImplementation","inputs":[],"outputs":[{"name":"","type":"address","internalType":"address"}],"stateMutability":"view"},{"type":"function","name":"deployPlatform","inputs":[{"name":"","type":"string","internalType":"string"},{"name":"cfg","type":"tuple","internalType":"struct IPlatformDeployer.DeploymentConfig","components":[{"name":"treasury","type":"address","internalType":"address"},{"name":"rewardToken","type":"address","internalType":"address"},{"name":"tradingFeePercentage","type":"uint256","internalType":"uint256"},{"name":"tokenizationFeePercentage","type":"uint256","internalType":"uint256"},{"name":"minAssetValue","type":"uint256","internalType":"uint256"},{"name":"kycExpiryPeriod","type":"uint256","internalType":"uint256"},{"name":"useUpgradeable","type":"bool","internalType":"bool"}]}],"outputs":[{"name":"","type":"address","internalType":"address"}],"stateMutability":"payable"},{"type":"function","name":"deploymentFee","inputs":[],"outputs":[{"name":"","type":"uint256","internalType":"uint256"}],"stateMutability":"view"},{"type":"function","name":"feeManagerImplementation","inputs":[],"outputs":[{"name":"","type":"address","internalType":"address"}],"stateMutability":"view"},{"type":"function","name":"getRoleAdmin","inputs":[{"name":"role","type":"bytes32","internalType":"bytes32"}],"outputs":[{"name":"","type":"bytes32","internalType":"bytes32"}],"stateMutability":"view"},{"type":"function","name":"grantRole","inputs":[{"name":"role","type":"bytes32","internalType":"bytes32"},{"name":"account","type":"address","internalType":"address"}],"outputs":[],"stateMutability":"nonpayable"},{"type":"function","name":"hasRole","inputs":[{"name":"role","type":"bytes32","internalType":"bytes32"},{"name":"account","type":"address","internalType":"address"}],"outputs":[{"name":"","type":"bool","internalType":"bool"}],"stateMutability":"view"},{"type":"function","name":"marketplaceImplementation","inputs":[],"outputs":[{"name":"","type":"address","internalType":"address"}],"stateMutability":"view"},{"type":"function","name":"platformAdmin","inputs":[],"outputs":[{"name":"","type":"address","internalType":"address"}],"stateMutability":"view"},{"type":"function","name":"platformDeployer","inputs":[],"outputs":[{"name":"","type":"address","internalType":"address"}],"stateMutability":"view"},{"type":"function","name":"renounceRole","inputs":[{"name":"role","type":"bytes32","internalType":"bytes32"},{"name":"callerConfirmation","type":"address","internalType":"address"}],"outputs":[],"stateMutability":"nonpayable"},{"type":"function","name":"revokeRole","inputs":[{"name":"role","type":"bytes32","internalType":"bytes32"},{"name":"account","type":"address","internalType":"address"}],"outputs":[],"stateMutability":"nonpayable"},{"type":"function","name":"rewardSystemImplementation","inputs":[],"outputs":[{"name":"","type":"address","internalType":"address"}],"stateMutability":"view"},{"type":"function","name":"setImplementations","inputs":[{"name":"auditTrail","type":"address","internalType":"address"},{"name":"compliance","type":"address","internalType":"address"},{"name":"feeMgr","type":"address","internalType":"address"},{"name":"tokenFactory","type":"address","internalType":"address"},{"name":"assetTokenizer","type":"address","internalType":"address"},{"name":"marketplace","type":"address","internalType":"address"},{"name":"rewardSystem","type":"address","internalType":"address"},{"name":"adminGovernance","type":"address","internalType":"address"}],"outputs":[],"stateMutability":"nonpayable"},{"type":"function","name":"setPlatformDeployer","inputs":[{"name":"deployerAddr","type":"address","internalType":"address"}],"outputs":[],"stateMutability":"nonpayable"},{"type":"function","name":"supportsInterface","inputs":[{"name":"interfaceId","type":"bytes4","internalType":"bytes4"}],"outputs":[{"name":"","type":"bool","internalType":"bool"}],"stateMutability":"view"},{"type":"function","name":"tokenFactoryImplementation","inputs":[],"outputs":[{"name":"","type":"address","internalType":"address"}],"stateMutability":"view"},{"type":"event","name":"ImplementationUpdated","inputs":[{"name":"name","type":"string","indexed":false,"internalType":"string"},{"name":"impl","type":"address","indexed":false,"internalType":"address"}],"anonymous":false},{"type":"event","name":"PlatformFactoryDeployed","inputs":[{"name":"platformId","type":"address","indexed":true,"internalType":"address"},{"name":"deployer","type":"address","indexed":false,"internalType":"address"}],"anonymous":false},{"type":"event","name":"RoleAdminChanged","inputs":[{"name":"role","type":"bytes32","indexed":true,"internalType":"bytes32"},{"name":"previousAdminRole","type":"bytes32","indexed":true,"internalType":"bytes32"},{"name":"newAdminRole","type":"bytes32","indexed":true,"internalType":"bytes32"}],"anonymous":false},{"type":"event","name":"RoleGranted","inputs":[{"name":"role","type":"bytes32","indexed":true,"internalType":"bytes32"},{"name":"account","type":"address","indexed":true,"internalType":"address"},{"name":"sender","type":"address","indexed":true,"internalType":"address"}],"anonymous":false},{"type":"event","name":"RoleRevoked","inputs":[{"name":"role","type":"bytes32","indexed":true,"internalType":"bytes32"},{"name":"account","type":"address","indexed":true,"internalType":"address"},{"name":"sender","type":"address","indexed":true,"internalType":"address"}],"anonymous":false},{"type":"error","name":"AccessControlBadConfirmation","inputs":[]},{"type":"error","name":"AccessControlUnauthorizedAccount","inputs":[{"name":"account","type":"address","internalType":"address"},{"name":"neededRole","type":"bytes32","internalType":"bytes32"}]}],"bytecode":{"object":"0x60803461009e57601f610d8438819003918201601f19168301916001600160401b038311848410176100a25780849260209460405283398101031261009e57516001600160a01b0381169081810361009e5761007a9067016345785d8a000060025561006a816100b6565b5061007481610122565b506101c0565b50600180546001600160a01b031916919091179055604051610aeb90816102598239f35b5f80fd5b634e487b7160e01b5f52604160045260245ffd5b6001600160a01b03165f8181525f80516020610d64833981519152602052604090205460ff1661011d575f8181525f80516020610d6483398151915260205260408120805460ff191660011790553391905f80516020610d448339815191528180a4600190565b505f90565b6001600160a01b03165f8181527f0790b0aaeb4157b4822815d95bf3d9318a1561c876c520e6cca704be6f4d63a660205260409020547f5246556c0ab216b5b325ad7c539bfbd1a07c768773cdf810fecd3c3375c27407919060ff166101ba57815f525f60205260405f20815f5260205260405f20600160ff1982541617905533915f80516020610d448339815191525f80a4600190565b50505f90565b6001600160a01b03165f8181527f740c5e3e456bed56f053f960110118ba9b95a1f5359a82283516fb2e81b6e37e60205260409020547ffc425f2263d0df187444b70e47283d622c70181c5baebb1306a01edba1ce184c919060ff166101ba57815f525f60205260405f20815f5260205260405f20600160ff1982541617905533915f80516020610d448339815191525f80a460019056fe6080604090808252600480361015610015575f80fd5b5f3560e01c91826301ffc9a7146108995750816310a5504b14610871578163233d9bec1461082e578163248a9ca3146108055781632f2ff15d146107dd57816336568abe146107995781634436fb4914610771578163532cdea5146106905781635acdcda214610668578163685d34ff1461062e57816371cf9510146106065781637420f8b2146105de578163917fc629146105b757816391d1485414610574578163a217fddf1461055a578163ae4ac24114610532578163cdcd7fb51461050a578163cf0884e9146104e2578163d547741f146104a7578163e9fea8c2146101a057508063ecd0026114610166578063ef1c5c8f1461013e5763f2cff57f1461011d575f80fd5b3461013a575f36600319011261013a576020906002549051908152f35b5f80fd5b503461013a575f36600319011261013a5760075490516001600160a01b039091168152602090f35b503461013a575f36600319011261013a57602090517ffc425f2263d0df187444b70e47283d622c70181c5baebb1306a01edba1ce184c8152f35b8261010036600319011261013a5781359067ffffffffffffffff9283831161013a573660238401121561013a57828101359284841161013a5760248094369201011161013a5760e036602319011261013a577ffc425f2263d0df187444b70e47283d622c70181c5baebb1306a01edba1ce184c93845f526020945f8652835f20335f52865260ff845f2054161561048b5750600254341061045757600b546001600160a01b03919082168015610415576003548454600554600654600754600854600954600a548c516311a1907b60e21b8152978b16888d0152958a168d8801529389166044870152918816606486015287166084850152861660a4840152851660c4830152841660e482015290836102b7610901565b16610104830152836102c7610917565b1661012483015260643561014483015260843561016483015260a43561018483015260c4356101a483015260e4359081151580920361013a576101e4835f81938c956101c48401525af191821561040b575f926103b0575b50501692837f2e89a5b619234c9342fdafdd58c1b66a88c8f2b16f41a88dba0dd67e940b2c4c868551338152a260025490813411610361575b50505051908152f35b8134039234841161039f5750505f808093819382903414610396575b3390f11561038d57838080610358565b513d5f823e3d90fd5b506108fc61037d565b601190634e487b7160e01b5f52525ffd5b90915086903d8811610403575b601f8201601f19168301908111838210176103f1578791839187528101031261013a5751818116810361013a57868061031f565b86604186634e487b7160e01b5f52525ffd5b3d91506103bd565b85513d5f823e3d90fd5b845162461bcd60e51b81528085018890526018818801527f506c6174666f726d4465706c6f796572206e6f742073657400000000000000006044820152606490fd5b5091606493601092519362461bcd60e51b85528401528201526f496e73756666696369656e742066656560801b6044820152fd5b905083604493519263e2517d3f60e01b84523390840152820152fd5b823461013a578060031936011261013a576104e091356104db60016104ca610901565b93835f525f6020525f2001546109a6565b610a43565b005b823461013a575f36600319011261013a5760085490516001600160a01b039091168152602090f35b823461013a575f36600319011261013a5760015490516001600160a01b039091168152602090f35b823461013a575f36600319011261013a5760095490516001600160a01b039091168152602090f35b823461013a575f36600319011261013a57602090515f8152f35b823461013a578060031936011261013a57602091610590610901565b90355f525f8352815f209060018060a01b03165f52825260ff815f20541690519015158152f35b823461013a575f36600319011261013a57905490516001600160a01b039091168152602090f35b823461013a575f36600319011261013a57600b5490516001600160a01b039091168152602090f35b823461013a575f36600319011261013a5760055490516001600160a01b039091168152602090f35b823461013a575f36600319011261013a57602090517f5246556c0ab216b5b325ad7c539bfbd1a07c768773cdf810fecd3c3375c274078152f35b823461013a575f36600319011261013a5760065490516001600160a01b039091168152602090f35b3461013a5761010036600319011261013a576106aa6108eb565b6106b2610901565b916106bb610917565b6001600160a01b036064358181169081900361013a576084359180831680930361013a5760a4359381851680950361013a5760c4359582871680970361013a5760e43598838a16809a0361013a57839061071361092d565b816bffffffffffffffffffffffff60a01b9a168a6003541617600355168882541617905516856005541617600555846006541617600655836007541617600755826008541617600855816009541617600955600a541617600a555f80f35b823461013a575f36600319011261013a5760035490516001600160a01b039091168152602090f35b823461013a578060031936011261013a576107b2610901565b90336001600160a01b038316036107ce57506104e09135610a43565b5163334bd91960e11b81529050fd5b823461013a578060031936011261013a576104e0913561080060016104ca610901565b6109c7565b823461013a57602036600319011261013a57602091355f525f82526001815f2001549051908152f35b3461013a57602036600319011261013a576108476108eb565b61084f61092d565b600b80546001600160a01b0319166001600160a01b0392909216919091179055005b823461013a575f36600319011261013a57600a5490516001600160a01b039091168152602090f35b903461013a57602036600319011261013a57359063ffffffff60e01b821680920361013a57602091637965db0b60e01b81149081156108da575b5015158152f35b6301ffc9a760e01b149050836108d3565b600435906001600160a01b038216820361013a57565b602435906001600160a01b038216820361013a57565b604435906001600160a01b038216820361013a57565b335f9081527f0790b0aaeb4157b4822815d95bf3d9318a1561c876c520e6cca704be6f4d63a660205260409020547f5246556c0ab216b5b325ad7c539bfbd1a07c768773cdf810fecd3c3375c274079060ff16156109885750565b6044906040519063e2517d3f60e01b82523360048301526024820152fd5b805f525f60205260405f20335f5260205260ff60405f205416156109885750565b90815f525f60205260405f209060018060a01b031690815f5260205260ff60405f205416155f14610a3d57815f525f60205260405f20815f5260205260405f20600160ff1982541617905533917f2f8788117e7eff1d82e926ec794901d17c78024a50270940304540a733656f0d5f80a4600190565b50505f90565b90815f525f60205260405f209060018060a01b031690815f5260205260ff60405f2054165f14610a3d57815f525f60205260405f20815f5260205260405f2060ff19815416905533917ff6391f5c32d9c69d2a47ea670b442974b53935d1edc7fd64eb21e047a839171b5f80a460019056fea2646970667358221220c4b25fd2f2347b3e670784b2f8d2b6490d67cf0d43ab13232d2852e8629c99fd64736f6c634300081600332f8788117e7eff1d82e926ec794901d17c78024a50270940304540a733656f0dad3228b676f7d3cd4284a5443f17f1962b36e491b30a40b2405849e597ba5fb5","linkReferences":{}},"methodIdentifiers":{"DEFAULT_ADMIN_ROLE()":"a217fddf","DEPLOYER_ROLE()":"ecd00261","PLATFORM_ADMIN_ROLE()":"685d34ff","adminGovernanceImplementation()":"10a5504b","assetTokenizerImplementation()":"ef1c5c8f","auditTrailImplementation()":"4436fb49","complianceImplementation()":"917fc629","deployPlatform(string,(address,address,uint256,uint256,uint256,uint256,bool))":"e9fea8c2","deploymentFee()":"f2cff57f","feeManagerImplementation()":"71cf9510","getRoleAdmin(bytes32)":"248a9ca3","grantRole(bytes32,address)":"2f2ff15d","hasRole(bytes32,address)":"91d14854","marketplaceImplementation()":"cf0884e9","platformAdmin()":"cdcd7fb5","platformDeployer()":"7420f8b2","renounceRole(bytes32,address)":"36568abe","revokeRole(bytes32,address)":"d547741f","rewardSystemImplementation()":"ae4ac241","setImplementations(address,address,address,address,address,address,address,address)":"532cdea5","setPlatformDeployer(address)":"233d9bec","supportsInterface(bytes4)":"01ffc9a7","tokenFactoryImplementation()":"5acdcda2"},"id":14}