{"abi":[{"type":"receive","stateMutability":"payable"},{"type":"function","name":"ASSET_ADMIN_ROLE","inputs":[],"outputs":[{"name":"","type":"bytes32","internalType":"bytes32"}],"stateMutability":"view"},{"type":"function","name":"DEFAULT_ADMIN_ROLE","inputs":[],"outputs":[{"name":"","type":"bytes32","internalType":"bytes32"}],"stateMutability":"view"},{"type":"function","name":"TOKENIZER_ROLE","inputs":[],"outputs":[{"name":"","type":"bytes32","internalType":"bytes32"}],"stateMutability":"view"},{"type":"function","name":"VALUATOR_ROLE","inputs":[],"outputs":[{"name":"","type":"bytes32","internalType":"bytes32"}],"stateMutability":"view"},{"type":"function","name":"addDocument","inputs":[{"name":"assetId","type":"uint256","internalType":"uint256"},{"name":"documentHash","type":"string","internalType":"string"}],"outputs":[],"stateMutability":"nonpayable"},{"type":"function","name":"addValuation","inputs":[{"name":"assetId","type":"uint256","internalType":"uint256"},{"name":"value","type":"uint256","internalType":"uint256"},{"name":"reportHash","type":"string","internalType":"string"},{"name":"methodology","type":"string","internalType":"string"}],"outputs":[],"stateMutability":"nonpayable"},{"type":"function","name":"approveAsset","inputs":[{"name":"assetId","type":"uint256","internalType":"uint256"}],"outputs":[],"stateMutability":"nonpayable"},{"type":"function","name":"assetApprovals","inputs":[{"name":"","type":"address","internalType":"address"},{"name":"","type":"uint256","internalType":"uint256"}],"outputs":[{"name":"","type":"bool","internalType":"bool"}],"stateMutability":"view"},{"type":"function","name":"assetValuations","inputs":[{"name":"","type":"uint256","internalType":"uint256"},{"name":"","type":"uint256","internalType":"uint256"}],"outputs":[{"name":"value","type":"uint256","internalType":"uint256"},{"name":"valuator","type":"address","internalType":"address"},{"name":"timestamp","type":"uint256","internalType":"uint256"},{"name":"reportHash","type":"string","internalType":"string"},{"name":"isVerified","type":"bool","internalType":"bool"},{"name":"methodology","type":"string","internalType":"string"},{"name":"validUntil","type":"uint256","internalType":"uint256"}],"stateMutability":"view"},{"type":"function","name":"assets","inputs":[{"name":"","type":"uint256","internalType":"uint256"}],"outputs":[{"name":"assetId","type":"uint256","internalType":"uint256"},{"name":"name","type":"string","internalType":"string"},{"name":"description","type":"string","internalType":"string"},{"name":"assetType","type":"uint8","internalType":"enum AssetTokenizer.AssetType"},{"name":"status","type":"uint8","internalType":"enum AssetTokenizer.AssetStatus"},{"name":"totalValue","type":"uint256","internalType":"uint256"},{"name":"totalTokens","type":"uint256","internalType":"uint256"},{"name":"tokenAddress","type":"address","internalType":"address"},{"name":"owner","type":"address","internalType":"address"},{"name":"location","type":"string","internalType":"string"},{"name":"createdAt","type":"uint256","internalType":"uint256"},{"name":"tokenizedAt","type":"uint256","internalType":"uint256"},{"name":"rejectionReason","type":"string","internalType":"string"}],"stateMutability":"view"},{"type":"function","name":"auditTrail","inputs":[],"outputs":[{"name":"","type":"address","internalType":"contract IAuditTrail"}],"stateMutability":"view"},{"type":"function","name":"authorizeValuator","inputs":[{"name":"valuator","type":"address","internalType":"address"},{"name":"authorized","type":"bool","internalType":"bool"}],"outputs":[],"stateMutability":"nonpayable"},{"type":"function","name":"authorizedValuators","inputs":[{"name":"","type":"address","internalType":"address"}],"outputs":[{"name":"","type":"bool","internalType":"bool"}],"stateMutability":"view"},{"type":"function","name":"complianceManager","inputs":[],"outputs":[{"name":"","type":"address","internalType":"contract IComplianceManager"}],"stateMutability":"view"},{"type":"function","name":"feeManager","inputs":[],"outputs":[{"name":"","type":"address","internalType":"contract IFeeManager"}],"stateMutability":"view"},{"type":"function","name":"getAssetsByStatus","inputs":[{"name":"status","type":"uint8","internalType":"enum AssetTokenizer.AssetStatus"}],"outputs":[{"name":"","type":"uint256[]","internalType":"uint256[]"}],"stateMutability":"view"},{"type":"function","name":"getAssetsByType","inputs":[{"name":"assetType","type":"uint8","internalType":"enum AssetTokenizer.AssetType"}],"outputs":[{"name":"","type":"uint256[]","internalType":"uint256[]"}],"stateMutability":"view"},{"type":"function","name":"getAverageValuation","inputs":[{"name":"assetId","type":"uint256","internalType":"uint256"}],"outputs":[{"name":"","type":"uint256","internalType":"uint256"}],"stateMutability":"view"},{"type":"function","name":"getPendingAssets","inputs":[],"outputs":[{"name":"","type":"uint256[]","internalType":"uint256[]"}],"stateMutability":"view"},{"type":"function","name":"getRoleAdmin","inputs":[{"name":"role","type":"bytes32","internalType":"bytes32"}],"outputs":[{"name":"","type":"bytes32","internalType":"bytes32"}],"stateMutability":"view"},{"type":"function","name":"getTokenizedAssets","inputs":[],"outputs":[{"name":"","type":"uint256[]","internalType":"uint256[]"}],"stateMutability":"view"},{"type":"function","name":"getValidValuationsCount","inputs":[{"name":"assetId","type":"uint256","internalType":"uint256"}],"outputs":[{"name":"","type":"uint256","internalType":"uint256"}],"stateMutability":"view"},{"type":"function","name":"grantRole","inputs":[{"name":"role","type":"bytes32","internalType":"bytes32"},{"name":"account","type":"address","internalType":"address"}],"outputs":[],"stateMutability":"nonpayable"},{"type":"function","name":"hasRole","inputs":[{"name":"role","type":"bytes32","internalType":"bytes32"},{"name":"account","type":"address","internalType":"address"}],"outputs":[{"name":"","type":"bool","internalType":"bool"}],"stateMutability":"view"},{"type":"function","name":"initialize","inputs":[{"name":"admin","type":"address","internalType":"address"},{"name":"_tokenFactory","type":"address","internalType":"address"},{"name":"_complianceManager","type":"address","internalType":"address"},{"name":"_auditTrail","type":"address","internalType":"address"},{"name":"_feeManager","type":"address","internalType":"address"}],"outputs":[],"stateMutability":"nonpayable"},{"type":"function","name":"maxTokensPerAsset","inputs":[],"outputs":[{"name":"","type":"uint256","internalType":"uint256"}],"stateMutability":"view"},{"type":"function","name":"minAssetValue","inputs":[],"outputs":[{"name":"","type":"uint256","internalType":"uint256"}],"stateMutability":"view"},{"type":"function","name":"minValuations","inputs":[],"outputs":[{"name":"","type":"uint256","internalType":"uint256"}],"stateMutability":"view"},{"type":"function","name":"nextAssetId","inputs":[],"outputs":[{"name":"","type":"uint256","internalType":"uint256"}],"stateMutability":"view"},{"type":"function","name":"nextRequestId","inputs":[],"outputs":[{"name":"","type":"uint256","internalType":"uint256"}],"stateMutability":"view"},{"type":"function","name":"ownerAssets","inputs":[{"name":"","type":"address","internalType":"address"},{"name":"","type":"uint256","internalType":"uint256"}],"outputs":[{"name":"","type":"uint256","internalType":"uint256"}],"stateMutability":"view"},{"type":"function","name":"paused","inputs":[],"outputs":[{"name":"","type":"bool","internalType":"bool"}],"stateMutability":"view"},{"type":"function","name":"processTokenization","inputs":[{"name":"requestId","type":"uint256","internalType":"uint256"}],"outputs":[],"stateMutability":"payable"},{"type":"function","name":"registerAsset","inputs":[{"name":"name","type":"string","internalType":"string"},{"name":"description","type":"string","internalType":"string"},{"name":"assetType","type":"uint8","internalType":"enum AssetTokenizer.AssetType"},{"name":"documentHashes","type":"string[]","internalType":"string[]"},{"name":"location","type":"string","internalType":"string"}],"outputs":[{"name":"","type":"uint256","internalType":"uint256"}],"stateMutability":"nonpayable"},{"type":"function","name":"rejectAsset","inputs":[{"name":"assetId","type":"uint256","internalType":"uint256"},{"name":"reason","type":"string","internalType":"string"}],"outputs":[],"stateMutability":"nonpayable"},{"type":"function","name":"renounceRole","inputs":[{"name":"role","type":"bytes32","internalType":"bytes32"},{"name":"callerConfirmation","type":"address","internalType":"address"}],"outputs":[],"stateMutability":"nonpayable"},{"type":"function","name":"requestTokenization","inputs":[{"name":"assetId","type":"uint256","internalType":"uint256"},{"name":"tokenName","type":"string","internalType":"string"},{"name":"tokenSymbol","type":"string","internalType":"string"},{"name":"requestedTokens","type":"uint256","internalType":"uint256"},{"name":"pricePerToken","type":"uint256","internalType":"uint256"}],"outputs":[{"name":"","type":"uint256","internalType":"uint256"}],"stateMutability":"nonpayable"},{"type":"function","name":"revokeRole","inputs":[{"name":"role","type":"bytes32","internalType":"bytes32"},{"name":"account","type":"address","internalType":"address"}],"outputs":[],"stateMutability":"nonpayable"},{"type":"function","name":"setMinAssetValue","inputs":[{"name":"newValue","type":"uint256","internalType":"uint256"}],"outputs":[],"stateMutability":"nonpayable"},{"type":"function","name":"supportsInterface","inputs":[{"name":"interfaceId","type":"bytes4","internalType":"bytes4"}],"outputs":[{"name":"","type":"bool","internalType":"bool"}],"stateMutability":"view"},{"type":"function","name":"suspendAsset","inputs":[{"name":"assetId","type":"uint256","internalType":"uint256"},{"name":"reason","type":"string","internalType":"string"}],"outputs":[],"stateMutability":"nonpayable"},{"type":"function","name":"tokenFactory","inputs":[],"outputs":[{"name":"","type":"address","internalType":"contract ITokenFactory"}],"stateMutability":"view"},{"type":"function","name":"tokenizationRequests","inputs":[{"name":"","type":"uint256","internalType":"uint256"}],"outputs":[{"name":"assetId","type":"uint256","internalType":"uint256"},{"name":"tokenName","type":"string","internalType":"string"},{"name":"tokenSymbol","type":"string","internalType":"string"},{"name":"requestedTokens","type":"uint256","internalType":"uint256"},{"name":"pricePerToken","type":"uint256","internalType":"uint256"},{"name":"requestTimestamp","type":"uint256","internalType":"uint256"},{"name":"requester","type":"address","internalType":"address"},{"name":"isProcessed","type":"bool","internalType":"bool"}],"stateMutability":"view"},{"type":"function","name":"usedDocumentHashes","inputs":[{"name":"","type":"string","internalType":"string"}],"outputs":[{"name":"","type":"bool","internalType":"bool"}],"stateMutability":"view"},{"type":"function","name":"valuationValidPeriod","inputs":[],"outputs":[{"name":"","type":"uint256","internalType":"uint256"}],"stateMutability":"view"},{"type":"event","name":"AssetApproved","inputs":[{"name":"assetId","type":"uint256","indexed":true,"internalType":"uint256"},{"name":"approver","type":"address","indexed":true,"internalType":"address"}],"anonymous":false},{"type":"event","name":"AssetRegistered","inputs":[{"name":"assetId","type":"uint256","indexed":true,"internalType":"uint256"},{"name":"owner","type":"address","indexed":true,"internalType":"address"},{"name":"name","type":"string","indexed":false,"internalType":"string"},{"name":"assetType","type":"uint8","indexed":false,"internalType":"enum AssetTokenizer.AssetType"}],"anonymous":false},{"type":"event","name":"AssetRejected","inputs":[{"name":"assetId","type":"uint256","indexed":true,"internalType":"uint256"},{"name":"reason","type":"string","indexed":false,"internalType":"string"}],"anonymous":false},{"type":"event","name":"AssetTokenized","inputs":[{"name":"assetId","type":"uint256","indexed":true,"internalType":"uint256"},{"name":"tokenAddress","type":"address","indexed":true,"internalType":"address"},{"name":"totalTokens","type":"uint256","indexed":false,"internalType":"uint256"}],"anonymous":false},{"type":"event","name":"AssetValued","inputs":[{"name":"assetId","type":"uint256","indexed":true,"internalType":"uint256"},{"name":"value","type":"uint256","indexed":false,"internalType":"uint256"},{"name":"valuator","type":"address","indexed":true,"internalType":"address"},{"name":"methodology","type":"string","indexed":false,"internalType":"string"}],"anonymous":false},{"type":"event","name":"DocumentAdded","inputs":[{"name":"assetId","type":"uint256","indexed":true,"internalType":"uint256"},{"name":"documentHash","type":"string","indexed":false,"internalType":"string"}],"anonymous":false},{"type":"event","name":"Initialized","inputs":[{"name":"version","type":"uint64","indexed":false,"internalType":"uint64"}],"anonymous":false},{"type":"event","name":"Paused","inputs":[{"name":"account","type":"address","indexed":false,"internalType":"address"}],"anonymous":false},{"type":"event","name":"RoleAdminChanged","inputs":[{"name":"role","type":"bytes32","indexed":true,"internalType":"bytes32"},{"name":"previousAdminRole","type":"bytes32","indexed":true,"internalType":"bytes32"},{"name":"newAdminRole","type":"bytes32","indexed":true,"internalType":"bytes32"}],"anonymous":false},{"type":"event","name":"RoleGranted","inputs":[{"name":"role","type":"bytes32","indexed":true,"internalType":"bytes32"},{"name":"account","type":"address","indexed":true,"internalType":"address"},{"name":"sender","type":"address","indexed":true,"internalType":"address"}],"anonymous":false},{"type":"event","name":"RoleRevoked","inputs":[{"name":"role","type":"bytes32","indexed":true,"internalType":"bytes32"},{"name":"account","type":"address","indexed":true,"internalType":"address"},{"name":"sender","type":"address","indexed":true,"internalType":"address"}],"anonymous":false},{"type":"event","name":"TokenizationRequested","inputs":[{"name":"requestId","type":"uint256","indexed":true,"internalType":"uint256"},{"name":"assetId","type":"uint256","indexed":true,"internalType":"uint256"},{"name":"requester","type":"address","indexed":true,"internalType":"address"}],"anonymous":false},{"type":"event","name":"Unpaused","inputs":[{"name":"account","type":"address","indexed":false,"internalType":"address"}],"anonymous":false},{"type":"event","name":"ValuatorAuthorized","inputs":[{"name":"valuator","type":"address","indexed":true,"internalType":"address"},{"name":"authorized","type":"bool","indexed":false,"internalType":"bool"}],"anonymous":false},{"type":"error","name":"AccessControlBadConfirmation","inputs":[]},{"type":"error","name":"AccessControlUnauthorizedAccount","inputs":[{"name":"account","type":"address","internalType":"address"},{"name":"neededRole","type":"bytes32","internalType":"bytes32"}]},{"type":"error","name":"EnforcedPause","inputs":[]},{"type":"error","name":"ExpectedPause","inputs":[]},{"type":"error","name":"InvalidInitialization","inputs":[]},{"type":"error","name":"NotInitializing","inputs":[]},{"type":"error","name":"ReentrancyGuardReentrantCall","inputs":[]}],"bytecode":{"object":"0x6080806040523461001657613988908161001b8239f35b5f80fdfe608080604052600436101561001c575b50361561001a575f80fd5b005b5f905f3560e01c90816301ffc9a714612c595750806305208bff14612bb65780630605a33414612b7c5780630c0dd73414612a3a5780631459457a1461280957806319f1720414612715578063248a9ca3146126dc5780632f2ff15d1461269357806336568abe1461264c5780633adc7b6e146121515780633d9b45ec14611bcb5780633fd88bcc14611bad578063455bd95114611b565780634f0cee5a14611b375780634f8aba3b14611b10578063573f084c14611a445780635c975abb14611a0257806366023f6c146119c357806368ca5b72146119a55780636a84a985146119875780636c28935e1461194c5780636eafcb81146118915780637050bc8b146117a4578063774ac394146117865780637ef0c8511461174b578063864d7e14146115255780638bfb1d07146114135780638ed91318146113f557806391d148541461139f578063a217fddf14611383578063aba02c1f1461135a578063b10c3b40146112e8578063bcf75cf31461129f578063c8ffd61014610ed1578063c971a977146109f9578063cf35bdd01461086d578063d0fb020314610844578063d12a4e4914610826578063d1b2cc2e146106fe578063d547741f146106b0578063d6112f001461057d578063d89128de14610346578063e77772fe1461031d578063fe1d763b1461023e5763ff7bce230361000f573461023b578060031936011261023b57600e546040516001600160a01b039091168152602090f35b80fd5b503461023b57604036600319011261023b5760243560043582526001602052604082208054821015610319576102749250612f31565b50805460018060a01b036001830154169161030f600282015491604051906102aa826102a38160038501612da1565b0383612e45565b6102fa60ff600483015416926006604051936102d4856102cd8160058501612da1565b0386612e45565b01549560405198899889526020890152604088015260e0606088015260e0870190612e87565b911515608086015284820360a0860152612e87565b9060c08301520390f35b8280fd5b503461023b578060031936011261023b57600d546040516001600160a01b039091168152602090f35b503461023b5761035536612eac565b61035d613287565b8284526020848152610374604086205415156131bd565b8115610539578385528481526040852060038101805460ff8160081c16600681101561052557801590811561051a575b50156104c95761ff0019166105001790556103c59083908590600c016130a5565b600f5460405186916001600160a01b03168486858401376103f484838781018683820152038085520183612e45565b803b1561031957610459839291839260405194858094819363a66dc69360e01b83527f5c95c949785ebc28c7efaad5f1c2b385d486d594696934a4dea1a85bc81fb56660048401523360248401528d6044840152608060648401526084830190612e87565b03925af180156104be576104a6575b50506104a07f07f4df5bebf720b2702c625e68caefcc8ae5b852fb75a9a0171eeb47f63b5aa09360405193838594855284019161319d565b0390a280f35b6104af90612e32565b6104ba57845f610468565b8480fd5b6040513d84823e3d90fd5b60405162461bcd60e51b8152600481018590526024808201527f43616e6e6f742072656a65637420617373657420696e2063757272656e7420736044820152637461746560e01b6064820152608490fd5b60019150145f6103a4565b634e487b7160e01b89526021600452602489fd5b6064906040519062461bcd60e51b82526004820152601960248201527f52656a656374696f6e20726561736f6e207265717569726564000000000000006044820152fd5b503461023b57602090602060031936011261023b576004356006926006821015928361023b5750600754915f60015b84811061065657506105bd90612f83565b935f9260015b8581106105dc57604051806105d88982612cd8565b0390f35b805f525f825260405f2083815415159182610621575b5050610601575b6001016105c3565b9361061981866106136001948b612fb5565b52612f4a565b9490506105f9565b6003015460081c60ff1691506106425788811015610642578414835f6105f2565b634e487b7160e01b5f52602160045260245ffd5b805f525f845260405f208681541515918261068f575b505061067b575b6001016105ac565b90610687600191612f4a565b919050610673565b6003015460081c60ff1691506106425787811015610642578314865f61066c565b503461023b57604036600319011261023b576106fa6004356106d0612cc2565b908084525f805160206139338339815191526020526106f56001604086200154613300565b6133ec565b5080f35b503461023b576020806003193601126108225760043560078082101592836104ba57600754928560015b8581106107c8575061073990612f83565b94869360015b86811061075457604051806105d88a82612cd8565b808952888552604089206003015460ff16836107b457828110156107b4578414806107a1575b610787575b60010161073f565b9461079981876106136001948c612fb5565b95905061077f565b508089528885526040892054151561077a565b634e487b7160e01b8a52602160045260248afd5b808852878452604088206003015460ff168761052557858110156105255783148061080f575b6107fb575b600101610728565b90610807600191612f4a565b9190506107f3565b50808852878452604088205415156107ee565b5080fd5b503461023b578060031936011261023b576020600c54604051908152f35b503461023b578060031936011261023b576010546040516001600160a01b039091168152602090f35b503461023b57602036600319011261023b576004358152806020526040812090815491604051808060018401906108a391612da1565b036108ae9082612e45565b60405192836108c08160028601612da1565b036108cb9085612e45565b60038301546004840154600585015460068601546007870154604051946001600160a01b0391821694919092169291856109088160098c01612da1565b036109139087612e45565b600a89015499600b8a01549860405180600c819d019061093291612da1565b0361093d908c612e45565b604051809d6101a09182918152602001528d0161095991612e87565b8c810360408e015261096a91612e87565b9661097b60608d0160ff8416612f24565b8160081c60ff16600611156109e55750928a999795926109ca959260ff6105d89b999660081c1660808d015260a08c015260c08b015260e08a0152610100890152878203610120890152612e87565b92610140860152610160850152838203610180850152612e87565b634e487b7160e01b81526021600452602490fd5b5060031960203682018113610319577f9b779b17422d0df92223018b32b4d1fa46e071723d6817e2486d003becc55f00916002835414610ebf5760028355610a3f613757565b600435845260028252604084206006810180546001600160a01b039491939291903386821603610e865760a01c60ff16610e4e57815487528681526040872094600386019460ff865460081c1660068110156107b4576002610aa19114613246565b8160105416966004810154604051906342daa53560e11b825285826004818d5afa908115610e435786928d92610e0d575b506044906040519b8c93849263b0e3580f60e01b8452600484015260248301525afa978815610e02578a98610dcf575b50873410610d975790829184610b5e8c95600d5416888c84600383019c8d549a6040519b8c97889663747d322360e11b885260c060048901526002610b4d60c48a0160018401612da1565b91868a84030160248b015201612da1565b9060448701526012606487015281608487015285810392830160a48701525201925af1938415610d8c578b94610d50575b506006810180546001600160a01b03191685851690811790915587546005830155885461ff0019166103001790985542600b90910155805460ff60a01b1916600160a01b179055600f5484548654604051606095861b6bffffffffffffffffffffffff19168782015260348082019290925290815291909216928101916001600160401b03831182841017610d3c578a9383604052803b156104ba5783858094829463a66dc69360e01b84527fa61d6d446b0cbbc81f8088b111af64f9014b9d8d069e50f578002303da2e8607606483015233608483015260a4820152608060c4820152605f1990610c8460e4820182612e87565b0301925af180156104be57610d24575b50507fe8f027853b41b6574e79fef7b01faee65e662bc5e7f10149ab6e3abd6c33b5fe91549254604051908152a3803411610cd2575b506001905580f35b80340390348211610d105783808093819382903414610d07575b3390f115610cfa575f610cca565b50604051903d90823e3d90fd5b506108fc610cec565b634e487b7160e01b84526011600452602484fd5b610d2d90612e32565b610d3857865f610c94565b8680fd5b634e487b7160e01b5f52604160045260245ffd5b9093508481813d8311610d85575b610d688183612e45565b81010312610d8157518281168103610d8157925f610b8f565b8a80fd5b503d610d5e565b6040513d8d823e3d90fd5b60405162461bcd60e51b815260048101859052601060248201526f496e73756666696369656e742066656560801b6044820152606490fd5b9097508381813d8311610dfb575b610de78183612e45565b81010312610df75751965f610b02565b8980fd5b503d610ddd565b6040513d8c823e3d90fd5b8381949293503d8311610e3c575b610e258183612e45565b81010312610e3857905185916044610ad2565b8b80fd5b503d610e1b565b6040513d8e823e3d90fd5b6064906040519062461bcd60e51b825260048201526011602482015270105b1c9958591e481c1c9bd8d95cdcd959607a1b6044820152fd5b60405162461bcd60e51b81526004810183905260116024820152702737ba103932b8bab2b9ba1037bbb732b960791b6044820152606490fd5b604051633ee5aeb560e01b8152600490fd5b503461023b5760a036600319011261023b576024356001600160401b03811161082257610f02903690600401612d13565b6044929192356001600160401b03811161031957610f24903690600401612d13565b9190610f2e613757565b60043584528360205260408420610f5260018060a01b036007830154163314613208565b60ff600382015460081c16600681101561128b576002610f729114613246565b600601546001600160a01b03166112525760085492610f9084612f4a565b600855604051956101008701908782106001600160401b03831117610d3c57610fd294610fc69260405260043589523691612edf565b60208701523691612edf565b6040840152606435606084015260843560808401524260a08401523360c08401528160e0840152808252600260205260408220928051845560208101518051906001600160401b0382116111d55761103a826110316001890154612d69565b60018901613056565b602090601f83116001146111e9576110699291869183611160575b50508160011b915f199060031b1c19161790565b60018501555b60408101519384516001600160401b0381116111d5576020956110a2826110996002860154612d69565b60028601613056565b8690601f831160011461116b5791806110d3926006959489926111605750508160011b915f199060031b1c19161790565b60028201555b606083015160038201556080830151600482015560a08301516005820155019060018060a01b0360c08201511682549160e060ff60a01b910151151560a01b16916affffffffffffffffffffff60a81b1617179055604051913390827f5bef11234effcd71253907bf1ec7744bb40988c99bd9d0f6adb20081de0211da6004359280a48152f35b015190505f80611055565b6002840187528787209190601f198416885b8181106111be57509160019391856006979694106111a6575b505050811b0160028201556110d9565b01515f1960f88460031b161c191690555f8080611196565b92938a60018192878601518155019501930161117d565b634e487b7160e01b85526041600452602485fd5b600187018652602086209190601f198416875b81811061123a5750908460019594939210611222575b505050811b01600185015561106f565b01515f1960f88460031b161c191690555f8080611212565b929360206001819287860151815501950193016111fc565b60405162461bcd60e51b8152602060048201526011602482015270105b1c9958591e481d1bdad95b9a5e9959607a1b6044820152606490fd5b634e487b7160e01b86526021600452602486fd5b503461023b57604036600319011261023b5760209060ff906040906001600160a01b036112ca612cac565b16815260068452818120602435825284522054166040519015158152f35b503461023b57602036600319011261023b57600435906001600160401b03821161023b573660238301121561023b57602060ff6113448261133136600488013560248901612edf565b8160405193828580945193849201612e66565b8101600581520301902054166040519015158152f35b503461023b578060031936011261023b57600f546040516001600160a01b039091168152602090f35b503461023b578060031936011261023b57602090604051908152f35b503461023b57604036600319011261023b5760406113bb612cc2565b9160043581525f80516020613933833981519152602052209060018060a01b03165f52602052602060ff60405f2054166040519015158152f35b503461023b578060031936011261023b576020600754604051908152f35b503461023b5761142236612eac565b9082845260209084825261144660018060a01b036007604088200154163314613208565b61146760ff604051858482378481878101600581520301902054161561300a565b838552848252600a600860408720015410156114eb57906104a07fa27affd73e620d6edea4d8c6cb3e758783e547c2332422a234998f2cdab6e6fd93928587528683526114bb8482600860408b200161316b565b6040518482823783818681016005815203019020600160ff1982541617905560405193838594855284019161319d565b60405162461bcd60e51b8152600481018390526012602482015271546f6f206d616e7920646f63756d656e747360701b6044820152606490fd5b503461023b576020806003193601126108225760043590611544613287565b818352828152611559604084205415156131bd565b8183528281526040832060038101805460ff8160081c166006811015611737576001036116f95761158985613860565b600954116116b45761ff00191661020017905560046115a784613794565b91019081553384526006825260408085208486528352808520805460ff19166001179055600f5491548151808501919091529283528201906001600160a01b03166001600160401b03821183831017610d3c57849282604052813b156116b05783918383819363a66dc69360e01b83527f5346774c74e817347622559ee5b80db34d0f6b513c1e6b0832773211776c580a6044820152336064820152886084820152608060a4820152603f199061166160c4820182612e87565b0301925af180156104be5761169c575b505033907f4a184b517d677abb35488a7ffba6353e76337257a70f5b190375e62d0a5b3a368380a380f35b6116a590612e32565b61082257815f611671565b8380fd5b60405162461bcd60e51b815260048101859052601760248201527f496e73756666696369656e742076616c756174696f6e730000000000000000006044820152606490fd5b60405162461bcd60e51b81526004810185905260166024820152754173736574206e6f7420756e6465722072657669657760501b6044820152606490fd5b634e487b7160e01b87526021600452602487fd5b503461023b578060031936011261023b5760206040517f96ddb9f5c6ca45b5e7ff9e3a491f2c440fd97d9de1e0e224ccebf3370e1f23988152f35b503461023b578060031936011261023b576020600954604051908152f35b503461023b57806117b436612eac565b6117bf929192613287565b818452836020526003604085200161040061ff0019825416179055611808602060018060a01b03600f541694836040519485928484013781018783820152038084520182612e45565b823b1561188c5761186b9284928360405180968195829463a66dc69360e01b84527f754bc2e7ad3f6b1b926d1eb2f6c011aa25574af1bba3a3c077c92ce37c813fa260048501523360248501526044840152608060648401526084830190612e87565b03925af180156104be5761187c5750f35b61188590612e32565b61023b5780f35b505050fd5b503461023b57602036600319011261023b57335f9081527fb7db2dd08fcb62d0c9e08c51941cae53c267786a0b75803fb7960902fc8ef97d60205260409020546004359060ff161561192e5780156118e957600b5580f35b60405162461bcd60e51b815260206004820152601760248201527f496e76616c6964206d696e2061737365742076616c75650000000000000000006044820152606490fd5b60405163e2517d3f60e01b81523360048201525f6024820152604490fd5b503461023b578060031936011261023b5760206040517f5e608239aadc5f1e750186f22bbac828160fb6191c4a7b9eee6b9432b1eac59e8152f35b503461023b578060031936011261023b576020600854604051908152f35b503461023b578060031936011261023b576020600b54604051908152f35b503461023b57602036600319011261023b5760209060ff906040906001600160a01b036119ee612cac565b168152600484522054166040519015158152f35b503461023b578060031936011261023b57602060ff7fcd5ed15c6e187e77e9aee88184c21f4f2182ab5827cb3b7e07fbedcd63f0330054166040519015158152f35b503461023b57602036600319011261023b576040906004358152600260205220805460405191611a8283611a7b8160018501612da1565b0384612e45565b60ff604051611a9f81611a988160028701612da1565b0382612e45565b6003830154926004810154611ae36006600584015493015493611ad5604051998a99610100908b528060208c01528a0190612e87565b9088820360408a0152612e87565b946060870152608086015260a085015260018060a01b03811660c085015260a01c16151560e08301520390f35b503461023b57602036600319011261023b576020611b2f600435613860565b604051908152f35b503461023b57602036600319011261023b576020611b2f600435613794565b503461023b57604036600319011261023b57611b70612cac565b6001600160a01b031681526003602052604081208054602435929083101561023b576020611b9e8484612d40565b90549060031b1c604051908152f35b503461023b578060031936011261023b576020600a54604051908152f35b5034611f79576080366003190112611f79576004356044356001600160401b038111611f7957611bff903690600401612d13565b91906064356001600160401b038111611f7957611c20903690600401612d13565b939091611c2b613757565b335f52600460205260ff60405f2054161561210c57835f525f602052611c5660405f205415156131bd565b600b54602435106120d157835f525f602052600360405f200160ff815460081c1660068110156106425780159081156120c6575b501561208157611c9c600a54426131fb565b855f52600160205260405f20906040519060e082018281106001600160401b03821117610d3c57604052602435825260208201923384526040830190428252611ce6368989612edf565b926060850193845260016080860152611d00368d8c612edf565b60a086015260c08501528054600160401b811015610d3c57611d2791600182018155612f31565b94909461206e5783518555516001850180546001600160a01b0319166001600160a01b0392909216919091179055516002840155518051906001600160401b038211610d3c57611d8782611d7e6003870154612d69565b60038701613056565b602090601f831160011461200057611db592915f91836111605750508160011b915f199060031b1c19161790565b60038301555b611dda60808201511515600484019060ff801983541691151516179055565b60a08101518051906001600160401b038211610d3c57611e0a82611e016005870154612d69565b60058701613056565b602090601f8311600114611f8f578260c09360069593611e3e935f926111605750508160011b915f199060031b1c19161790565b60058501555b0151910155805460ff8160081c1660068110156106425715611f7d575b5050611e99604060018060a01b03600f5416928482519586928960208501528484013781015f83820152036020810185520183612e45565b803b15611f7957611f005f9291839260405194858094819363a66dc69360e01b83527f9b856fe574cacc22b5caa8dca71e2aa72ab33629089873346a7bf9d154f82c8b60048401523360248401526024356044840152608060648401526084830190612e87565b03925af18015611f6e57611f59575b50611f537f171073eb4646a540f4eb6aeaa69f4afabe4c60f2e2f50a416dfe010d5860faf5916040519182916024358352604060208401523396604084019161319d565b0390a380f35b611f64919450612e32565b5f92611f53611f0f565b6040513d5f823e3d90fd5b5f80fd5b61ff0019166101001790555f80611e61565b90600585015f5260205f20915f5b601f1985168110611fe85750926006949260019260c09583601f19811610611fd0575b505050811b016005850155611e44565b01515f1960f88460031b161c191690555f8080611fc0565b91926020600181928685015181550194019201611f9d565b9190600385015f5260205f20905f935b601f1984168510612053576001945083601f1981161061203b575b505050811b016003830155611dbb565b01515f1960f88460031b161c191690555f808061202b565b81810151835560209485019460019093019290910190612010565b634e487b7160e01b5f525f60045260245ffd5b60405162461bcd60e51b815260206004820152601d60248201527f4173736574206e6f7420696e2072657669657761626c652073746174650000006044820152606490fd5b60019150145f611c8a565b60405162461bcd60e51b815260206004820152601360248201527256616c75652062656c6f77206d696e696d756d60681b6044820152606490fd5b60405162461bcd60e51b815260206004820152601760248201527f4e6f7420617574686f72697a65642076616c7561746f720000000000000000006044820152606490fd5b34611f795760a0366003190112611f79576001600160401b03600435818111611f7957612182903690600401612d13565b602492919235828111611f795761219d903690600401612d13565b60076044351015611f795760643593808511611f795736602386011215611f795780856004013511611f7957366024866004013560051b87010111611f7957608435908111611f79576121f4903690600401612d13565b6121ff959195613757565b600e54604051632a5bb1b760e11b815233600482015290602090829060249082906001600160a01b03165afa908115611f6e575f91612611575b50156125dd57841515806125d2575b15612597578215158061258b575b15612546578160040135151580612537575b156124f9575f9291925b8360040135811061248157506122ef906007549661228f88612f4a565b600755875f525f6020526122be60405f20948986556001976122b58a8d60018a016130a5565b600287016130a5565b60038401805461ffff191660443560ff161790556007840180546001600160a01b03191633179055600984016130a5565b42600a8201556008015f5b8260040135811061245d5750505050335f52600360205260405f208054600160401b811015610d3c5761233291600182018155612d40565b81545f1960039290921b91821b19169084901b179055600f5460405193906001600160a01b03168282602087013761237f6040868581016044356020820152036020810188520186612e45565b803b15611f79576123e45f9591869260405197888094819363a66dc69360e01b83527f6279f6e163d1c7d85e512c3f08eacc53c07b913c57e7662e6e29565b7cf746bf60048401523360248401528a6044840152608060648401526084830190612e87565b03925af1938415611f6e5761243184927f11212c8bc4beebad17ab2ae3765cfc61915a84fa95531745e4b5bb27cef12d289260209761244e575b506040519460408652604086019161319d565b92612440868201604435612f24565b8033940390a3604051908152f35b61245790612e32565b8761241e565b8061247b6124748693866004013560248801612fc9565b908561316b565b016122fa565b806124bd60ff60206124a06001958960049a999a013560248a01612fc9565b91908260405193849283378101600581520301902054161561300a565b60206124d182866004013560248801612fc9565b9190826040519384928337810160058152030190208260ff1982541617905501929192612272565b60405162461bcd60e51b8152602060048201526016602482015275125b9d985b1a5908191bd8dd5b595b9d0818dbdd5b9d60521b6044820152606490fd5b50600a82600401351115612268565b60405162461bcd60e51b815260206004820152601a60248201527f496e76616c6964206465736372697074696f6e206c656e6774680000000000006044820152606490fd5b506101f4831115612256565b60405162461bcd60e51b8152602060048201526013602482015272092dcecc2d8d2c840dcc2daca40d8cadccee8d606b1b6044820152606490fd5b506064851115612248565b60405162461bcd60e51b815260206004820152600c60248201526b12d650c81c995c5d5a5c995960a21b6044820152606490fd5b90506020813d602011612644575b8161262c60209383612e45565b81010312611f7957518015158103611f795788612239565b3d915061261f565b34611f79576040366003190112611f7957612665612cc2565b336001600160a01b038216036126815761001a906004356133ec565b60405163334bd91960e11b8152600490fd5b34611f79576040366003190112611f795761001a6004356126b2612cc2565b90805f525f805160206139338339815191526020526126d7600160405f200154613300565b6136e7565b34611f79576020366003190112611f79576004355f525f805160206139338339815191526020526020600160405f200154604051908152f35b34611f79575f366003190112611f79576007545f60015b8281106127b3575061273d90612f83565b5f9160015b81811061275757604051806105d88582612cd8565b805f525f60205260405f20805415159081612795575b5061277b575b600101612742565b9261278d818561061360019487612fb5565b939050612773565b905060ff60038092015460081c16600681101561064257148561276d565b805f525f60205260405f208054151590816127eb575b506127d7575b60010161272c565b906127e3600191612f4a565b9190506127cf565b905060ff60038092015460081c1660068110156106425714846127c9565b34611f795760a0366003190112611f7957612822612cac565b61282a612cc2565b6044356001600160a01b0381811691829003611f795760643593818516809503611f7957608435828116809103611f79577ff0c57e16840df040f15088dc2f81fe391c3923bec73e23a9662efc9c229c6a009485549660ff8860401c1615956001600160401b03891698891580612a33575b6001809b149081612a29575b159081612a20575b50612a0e5767ffffffffffffffff1981168a178955876129ef575b506128d46138d1565b6128dc6138d1565b6128e46138d1565b6128ec6138d1565b887f9b779b17422d0df92223018b32b4d1fa46e071723d6817e2486d003becc55f005561291885613511565b506129228561359b565b5061292c85613641565b506129368561346b565b50856bffffffffffffffffffffffff60a01b931683600d541617600d5582600e541617600e5581600f541617600f556010541617601055165f52600460205260405f208360ff198254161790558260075582600855600260095562ed4e00600a55683635c9adc5dea00000600b55620f4240600c556129b157005b805468ff0000000000000000191690556040519081527fc7f505b2f371ae2175ee4913f4499e1f2633a7b5936321eed1cdaeb6115181d290602090a1005b68ffffffffffffffffff191668010000000000000001178855896128cb565b60405163f92ee8a960e01b8152600490fd5b9050158b6128b0565b303b1591506128a8565b508761289c565b34611f79575f366003190112611f79576007545f60015b828110612aff5750612a6290612f83565b5f9160015b818110612a7c57604051806105d88582612cd8565b805f5260205f815260ff6003908160405f20015481600891821c1692600693848110156106425715948515612ad8575b5050505050612abe575b600101612a67565b92612ad0818561061360019487612fb5565b939050612ab6565b5f87815290819052604090200154901c169150811015610642576001148580808080612aac565b805f5260205f815260ff6003908160405f20015481600891821c1692600693848110156106425715948515612b55575b5050505050612b41575b600101612a51565b90612b4d600191612f4a565b919050612b39565b5f87815290819052604090200154901c169150811015610642576001148480808080612b2f565b34611f79575f366003190112611f795760206040517fe70d28ebd9d7d9a3dd77d46ae2481f301c80806f395b08de31d8e095b1c46cee8152f35b34611f79576040366003190112611f7957612bcf612cac565b6024359081151590818303611f79577f8834f82d05d9a65903a0ef9ca145fd65cec65f2f4451a67ff1d1d090181ecf8691602091612c0b613287565b6001600160a01b0381165f8181526004855260409020805460ff191660ff881515161790559415612c4a57612c3f9061346b565b505b604051908152a2005b612c539061332e565b50612c41565b34611f79576020366003190112611f79576004359063ffffffff60e01b8216809203611f7957602091637965db0b60e01b8114908115612c9b575b5015158152f35b6301ffc9a760e01b14905083612c94565b600435906001600160a01b0382168203611f7957565b602435906001600160a01b0382168203611f7957565b60209060206040818301928281528551809452019301915f5b828110612cff575050505090565b835185529381019392810192600101612cf1565b9181601f84011215611f79578235916001600160401b038311611f795760208381860195010111611f7957565b8054821015612d55575f5260205f2001905f90565b634e487b7160e01b5f52603260045260245ffd5b90600182811c92168015612d97575b6020831014612d8357565b634e487b7160e01b5f52602260045260245ffd5b91607f1691612d78565b80545f9392612daf82612d69565b918282526020936001916001811690815f14612e135750600114612dd5575b5050505050565b90939495505f92919252835f2092845f945b838610612dff57505050500101905f80808080612dce565b805485870183015294019385908201612de7565b60ff19168685015250505090151560051b010191505f80808080612dce565b6001600160401b038111610d3c57604052565b90601f801991011681019081106001600160401b03821117610d3c57604052565b5f5b838110612e775750505f910152565b8181015183820152602001612e68565b90602091612ea081518092818552858086019101612e66565b601f01601f1916010190565b906040600319830112611f795760043591602435906001600160401b038211611f7957612edb91600401612d13565b9091565b9291926001600160401b038211610d3c5760405191612f08601f8201601f191660200184612e45565b829481845281830111611f79578281602093845f960137010152565b9060078210156106425752565b8054821015612d55575f52600760205f20910201905f90565b5f198114612f585760010190565b634e487b7160e01b5f52601160045260245ffd5b6001600160401b038111610d3c5760051b60200190565b90612f8d82612f6c565b612f9a6040519182612e45565b8281528092612fab601f1991612f6c565b0190602036910137565b8051821015612d555760209160051b010190565b9190811015612d555760051b81013590601e1981360301821215611f795701908135916001600160401b038311611f79576020018236038113611f79579190565b1561301157565b60405162461bcd60e51b815260206004820152601a60248201527f446f63756d656e74206861736820616c726561647920757365640000000000006044820152606490fd5b601f821161306357505050565b5f5260205f20906020601f840160051c8301931061309b575b601f0160051c01905b818110613090575050565b5f8155600101613085565b909150819061307c565b9092916001600160401b038111610d3c576130ca816130c48454612d69565b84613056565b5f601f82116001146131075781906130f89394955f926130fc5750508160011b915f199060031b1c19161790565b9055565b013590505f80611055565b601f19821694835f5260209160205f20925f905b8882106131535750508360019596971061313a575b505050811b019055565b01355f19600384901b60f8161c191690555f8080613130565b8060018496829495870135815501950192019061311b565b9190918054600160401b811015610d3c5761318b91600182018155612d40565b92909261206e5761319b926130a5565b565b908060209392818452848401375f828201840152601f01601f1916010190565b156131c457565b60405162461bcd60e51b815260206004820152600f60248201526e105cdcd95d081b9bdd08199bdd5b99608a1b6044820152606490fd5b91908201809211612f5857565b1561320f57565b60405162461bcd60e51b815260206004820152600f60248201526e2737ba1030b9b9b2ba1037bbb732b960891b6044820152606490fd5b1561324d57565b60405162461bcd60e51b8152602060048201526012602482015271105cdcd95d081b9bdd081d995c9a599a595960721b6044820152606490fd5b335f9081527fa26849eab9cee3cde5d495fa953d5734cb3d63ad54d63a013d2de37c2cd3b5a160205260409020547f5e608239aadc5f1e750186f22bbac828160fb6191c4a7b9eee6b9432b1eac59e9060ff16156132e25750565b6044906040519063e2517d3f60e01b82523360048301526024820152fd5b805f525f8051602061393383398151915260205260405f20335f5260205260ff60405f205416156132e25750565b6001600160a01b03165f8181527fccd1d8e1b8d649b4b0d6b6f66dbd1fc52e16803425b2263dcdb6ff555170276e60205260409020547f96ddb9f5c6ca45b5e7ff9e3a491f2c440fd97d9de1e0e224ccebf3370e1f239891905f805160206139338339815191529060ff16156133e557825f5260205260405f20815f5260205260405f2060ff19815416905533917ff6391f5c32d9c69d2a47ea670b442974b53935d1edc7fd64eb21e047a839171b5f80a4600190565b5050505f90565b90815f525f805160206139338339815191528060205260405f209160018060a01b031691825f5260205260ff60405f2054165f146133e557825f5260205260405f20815f5260205260405f2060ff19815416905533917ff6391f5c32d9c69d2a47ea670b442974b53935d1edc7fd64eb21e047a839171b5f80a4600190565b6001600160a01b03165f8181527fccd1d8e1b8d649b4b0d6b6f66dbd1fc52e16803425b2263dcdb6ff555170276e60205260409020547f96ddb9f5c6ca45b5e7ff9e3a491f2c440fd97d9de1e0e224ccebf3370e1f239891905f805160206139338339815191529060ff166133e557825f5260205260405f20815f5260205260405f20600160ff1982541617905533915f805160206139138339815191525f80a4600190565b6001600160a01b03165f8181527fb7db2dd08fcb62d0c9e08c51941cae53c267786a0b75803fb7960902fc8ef97d60205260409020545f805160206139338339815191529060ff16613595575f805260205260405f20815f5260205260405f20600160ff1982541617905533905f5f805160206139138339815191528180a4600190565b50505f90565b6001600160a01b03165f8181527f76b45e76085c801b52caf05392fe308220b3b246578d4e97c9037bed151bb16260205260409020547fe70d28ebd9d7d9a3dd77d46ae2481f301c80806f395b08de31d8e095b1c46cee91905f805160206139338339815191529060ff166133e557825f5260205260405f20815f5260205260405f20600160ff1982541617905533915f805160206139138339815191525f80a4600190565b6001600160a01b03165f8181527fa26849eab9cee3cde5d495fa953d5734cb3d63ad54d63a013d2de37c2cd3b5a160205260409020547f5e608239aadc5f1e750186f22bbac828160fb6191c4a7b9eee6b9432b1eac59e91905f805160206139338339815191529060ff166133e557825f5260205260405f20815f5260205260405f20600160ff1982541617905533915f805160206139138339815191525f80a4600190565b90815f525f805160206139338339815191528060205260405f209160018060a01b031691825f5260205260ff60405f205416155f146133e557825f5260205260405f20815f5260205260405f20600160ff1982541617905533915f805160206139138339815191525f80a4600190565b60ff7fcd5ed15c6e187e77e9aee88184c21f4f2182ab5827cb3b7e07fbedcd63f03300541661378257565b60405163d93c066560e01b8152600490fd5b5f90815260016020819052604082208054839291835b8281106137fa575050505081156137bf570490565b60405162461bcd60e51b81526020600482015260136024820152724e6f2076616c69642076616c756174696f6e7360681b6044820152606490fd5b60ff60046138088385612f31565b5001541680613848575b61381e575b83016137aa565b949361384061383a85926138328986612f31565b5054906131fb565b95612f4a565b959050613817565b5060066138558284612f31565b500154421115613812565b5f9081526001602081905260408220805490835b828110613882575050505090565b60ff60046138908385612f31565b50015416806138b9575b6138a6575b8301613874565b936138b18491612f4a565b94905061389f565b5060066138c68284612f31565b50015442111561389a565b60ff7ff0c57e16840df040f15088dc2f81fe391c3923bec73e23a9662efc9c229c6a005460401c161561390057565b604051631afcd79f60e31b8152600490fdfe2f8788117e7eff1d82e926ec794901d17c78024a50270940304540a733656f0d02dd7bc7dec4dceedda775e58dd541e08a116c6c53815c0bd028192f7b626800a26469706673582212206a76f390dabc4df369e5d3a0d71858ca72f8f03e5ff1571540291fdb6abf4ebe64736f6c63430008160033","linkReferences":{}},"methodIdentifiers":{"ASSET_ADMIN_ROLE()":"6c28935e","DEFAULT_ADMIN_ROLE()":"a217fddf","TOKENIZER_ROLE()":"0605a334","VALUATOR_ROLE()":"7ef0c851","addDocument(uint256,string)":"8bfb1d07","addValuation(uint256,uint256,string,string)":"3d9b45ec","approveAsset(uint256)":"864d7e14","assetApprovals(address,uint256)":"bcf75cf3","assetValuations(uint256,uint256)":"fe1d763b","assets(uint256)":"cf35bdd0","auditTrail()":"aba02c1f","authorizeValuator(address,bool)":"05208bff","authorizedValuators(address)":"66023f6c","complianceManager()":"ff7bce23","feeManager()":"d0fb0203","getAssetsByStatus(uint8)":"d6112f00","getAssetsByType(uint8)":"d1b2cc2e","getAverageValuation(uint256)":"4f0cee5a","getPendingAssets()":"0c0dd734","getRoleAdmin(bytes32)":"248a9ca3","getTokenizedAssets()":"19f17204","getValidValuationsCount(uint256)":"4f8aba3b","grantRole(bytes32,address)":"2f2ff15d","hasRole(bytes32,address)":"91d14854","initialize(address,address,address,address,address)":"1459457a","maxTokensPerAsset()":"d12a4e49","minAssetValue()":"68ca5b72","minValuations()":"774ac394","nextAssetId()":"8ed91318","nextRequestId()":"6a84a985","ownerAssets(address,uint256)":"455bd951","paused()":"5c975abb","processTokenization(uint256)":"c971a977","registerAsset(string,string,uint8,string[],string)":"3adc7b6e","rejectAsset(uint256,string)":"d89128de","renounceRole(bytes32,address)":"36568abe","requestTokenization(uint256,string,string,uint256,uint256)":"c8ffd610","revokeRole(bytes32,address)":"d547741f","setMinAssetValue(uint256)":"6eafcb81","supportsInterface(bytes4)":"01ffc9a7","suspendAsset(uint256,string)":"7050bc8b","tokenFactory()":"e77772fe","tokenizationRequests(uint256)":"573f084c","usedDocumentHashes(string)":"b10c3b40","valuationValidPeriod()":"3fd88bcc"},"id":2}