{"abi":[{"type":"function","name":"DEFAULT_ADMIN_ROLE","inputs":[],"outputs":[{"name":"","type":"bytes32","internalType":"bytes32"}],"stateMutability":"view"},{"type":"function","name":"MARKETPLACE_ADMIN_ROLE","inputs":[],"outputs":[{"name":"","type":"bytes32","internalType":"bytes32"}],"stateMutability":"view"},{"type":"function","name":"auditTrail","inputs":[],"outputs":[{"name":"","type":"address","internalType":"contract IAuditTrail"}],"stateMutability":"view"},{"type":"function","name":"canFillOrder","inputs":[{"name":"orderId","type":"uint256","internalType":"uint256"},{"name":"filler","type":"address","internalType":"address"},{"name":"amount","type":"uint256","internalType":"uint256"}],"outputs":[{"name":"","type":"bool","internalType":"bool"},{"name":"","type":"string","internalType":"string"}],"stateMutability":"view"},{"type":"function","name":"cancelOrder","inputs":[{"name":"orderId","type":"uint256","internalType":"uint256"}],"outputs":[],"stateMutability":"nonpayable"},{"type":"function","name":"complianceManager","inputs":[],"outputs":[{"name":"","type":"address","internalType":"contract IComplianceManager"}],"stateMutability":"view"},{"type":"function","name":"createBuyOrder","inputs":[{"name":"token","type":"address","internalType":"address"},{"name":"amount","type":"uint256","internalType":"uint256"},{"name":"pricePerToken","type":"uint256","internalType":"uint256"},{"name":"duration","type":"uint256","internalType":"uint256"},{"name":"minFillAmount","type":"uint256","internalType":"uint256"},{"name":"allowPartialFill","type":"bool","internalType":"bool"}],"outputs":[{"name":"","type":"uint256","internalType":"uint256"}],"stateMutability":"payable"},{"type":"function","name":"createSellOrder","inputs":[{"name":"token","type":"address","internalType":"address"},{"name":"amount","type":"uint256","internalType":"uint256"},{"name":"pricePerToken","type":"uint256","internalType":"uint256"},{"name":"duration","type":"uint256","internalType":"uint256"},{"name":"minFillAmount","type":"uint256","internalType":"uint256"},{"name":"allowPartialFill","type":"bool","internalType":"bool"}],"outputs":[{"name":"","type":"uint256","internalType":"uint256"}],"stateMutability":"nonpayable"},{"type":"function","name":"estimateFillCost","inputs":[{"name":"orderId","type":"uint256","internalType":"uint256"},{"name":"amount","type":"uint256","internalType":"uint256"}],"outputs":[{"name":"totalCost","type":"uint256","internalType":"uint256"},{"name":"tradingFee","type":"uint256","internalType":"uint256"},{"name":"totalRequired","type":"uint256","internalType":"uint256"}],"stateMutability":"view"},{"type":"function","name":"feeManager","inputs":[],"outputs":[{"name":"","type":"address","internalType":"contract IFeeManager"}],"stateMutability":"view"},{"type":"function","name":"fillOrder","inputs":[{"name":"orderId","type":"uint256","internalType":"uint256"},{"name":"amount","type":"uint256","internalType":"uint256"}],"outputs":[],"stateMutability":"payable"},{"type":"function","name":"getActiveOrders","inputs":[{"name":"token","type":"address","internalType":"address"}],"outputs":[{"name":"","type":"uint256[]","internalType":"uint256[]"}],"stateMutability":"view"},{"type":"function","name":"getBestPrices","inputs":[{"name":"token","type":"address","internalType":"address"}],"outputs":[{"name":"bestBuyPrice","type":"uint256","internalType":"uint256"},{"name":"bestSellPrice","type":"uint256","internalType":"uint256"}],"stateMutability":"view"},{"type":"function","name":"getEscrowBalance","inputs":[{"name":"user","type":"address","internalType":"address"},{"name":"token","type":"address","internalType":"address"}],"outputs":[{"name":"","type":"uint256","internalType":"uint256"}],"stateMutability":"view"},{"type":"function","name":"getMarketData","inputs":[{"name":"token","type":"address","internalType":"address"}],"outputs":[{"name":"","type":"tuple","internalType":"struct MarketplaceCore.MarketData","components":[{"name":"tokenAddress","type":"address","internalType":"address"},{"name":"lastPrice","type":"uint256","internalType":"uint256"},{"name":"volume24h","type":"uint256","internalType":"uint256"},{"name":"highPrice24h","type":"uint256","internalType":"uint256"},{"name":"lowPrice24h","type":"uint256","internalType":"uint256"},{"name":"totalVolume","type":"uint256","internalType":"uint256"},{"name":"totalTrades","type":"uint256","internalType":"uint256"},{"name":"lastTradeTime","type":"uint256","internalType":"uint256"}]}],"stateMutability":"view"},{"type":"function","name":"getOrder","inputs":[{"name":"orderId","type":"uint256","internalType":"uint256"}],"outputs":[{"name":"","type":"tuple","internalType":"struct MarketplaceCore.Order","components":[{"name":"orderId","type":"uint256","internalType":"uint256"},{"name":"orderType","type":"uint8","internalType":"enum MarketplaceCore.OrderType"},{"name":"tokenAddress","type":"address","internalType":"address"},{"name":"amount","type":"uint256","internalType":"uint256"},{"name":"price","type":"uint256","internalType":"uint256"},{"name":"filledAmount","type":"uint256","internalType":"uint256"},{"name":"creator","type":"address","internalType":"address"},{"name":"status","type":"uint8","internalType":"enum MarketplaceCore.OrderStatus"},{"name":"createdAt","type":"uint256","internalType":"uint256"},{"name":"expiresAt","type":"uint256","internalType":"uint256"},{"name":"minFillAmount","type":"uint256","internalType":"uint256"},{"name":"allowPartialFill","type":"bool","internalType":"bool"}]}],"stateMutability":"view"},{"type":"function","name":"getOrderBook","inputs":[{"name":"token","type":"address","internalType":"address"},{"name":"depth","type":"uint256","internalType":"uint256"}],"outputs":[{"name":"buyOrderIds","type":"uint256[]","internalType":"uint256[]"},{"name":"buyPrices","type":"uint256[]","internalType":"uint256[]"},{"name":"buyAmounts","type":"uint256[]","internalType":"uint256[]"},{"name":"sellOrderIds","type":"uint256[]","internalType":"uint256[]"},{"name":"sellPrices","type":"uint256[]","internalType":"uint256[]"},{"name":"sellAmounts","type":"uint256[]","internalType":"uint256[]"}],"stateMutability":"view"},{"type":"function","name":"getOrderStatistics","inputs":[{"name":"token","type":"address","internalType":"address"}],"outputs":[{"name":"totalOrders","type":"uint256","internalType":"uint256"},{"name":"activeOrders","type":"uint256","internalType":"uint256"},{"name":"totalTrades","type":"uint256","internalType":"uint256"},{"name":"totalVolume","type":"uint256","internalType":"uint256"}],"stateMutability":"view"},{"type":"function","name":"getRecentTrades","inputs":[{"name":"token","type":"address","internalType":"address"},{"name":"limit","type":"uint256","internalType":"uint256"}],"outputs":[{"name":"","type":"uint256[]","internalType":"uint256[]"}],"stateMutability":"view"},{"type":"function","name":"getRoleAdmin","inputs":[{"name":"role","type":"bytes32","internalType":"bytes32"}],"outputs":[{"name":"","type":"bytes32","internalType":"bytes32"}],"stateMutability":"view"},{"type":"function","name":"getTokenOrders","inputs":[{"name":"token","type":"address","internalType":"address"}],"outputs":[{"name":"","type":"uint256[]","internalType":"uint256[]"}],"stateMutability":"view"},{"type":"function","name":"getTrade","inputs":[{"name":"tradeId","type":"uint256","internalType":"uint256"}],"outputs":[{"name":"","type":"tuple","internalType":"struct MarketplaceCore.Trade","components":[{"name":"tradeId","type":"uint256","internalType":"uint256"},{"name":"buyOrderId","type":"uint256","internalType":"uint256"},{"name":"sellOrderId","type":"uint256","internalType":"uint256"},{"name":"buyer","type":"address","internalType":"address"},{"name":"seller","type":"address","internalType":"address"},{"name":"tokenAddress","type":"address","internalType":"address"},{"name":"amount","type":"uint256","internalType":"uint256"},{"name":"price","type":"uint256","internalType":"uint256"},{"name":"timestamp","type":"uint256","internalType":"uint256"},{"name":"totalCost","type":"uint256","internalType":"uint256"},{"name":"buyerFee","type":"uint256","internalType":"uint256"},{"name":"sellerFee","type":"uint256","internalType":"uint256"}]}],"stateMutability":"view"},{"type":"function","name":"getUserOrders","inputs":[{"name":"user","type":"address","internalType":"address"}],"outputs":[{"name":"","type":"uint256[]","internalType":"uint256[]"}],"stateMutability":"view"},{"type":"function","name":"getUserTrades","inputs":[{"name":"user","type":"address","internalType":"address"},{"name":"limit","type":"uint256","internalType":"uint256"}],"outputs":[{"name":"","type":"uint256[]","internalType":"uint256[]"}],"stateMutability":"view"},{"type":"function","name":"grantRole","inputs":[{"name":"role","type":"bytes32","internalType":"bytes32"},{"name":"account","type":"address","internalType":"address"}],"outputs":[],"stateMutability":"nonpayable"},{"type":"function","name":"hasRole","inputs":[{"name":"role","type":"bytes32","internalType":"bytes32"},{"name":"account","type":"address","internalType":"address"}],"outputs":[{"name":"","type":"bool","internalType":"bool"}],"stateMutability":"view"},{"type":"function","name":"initialize","inputs":[{"name":"admin","type":"address","internalType":"address"},{"name":"_marketplaceCore","type":"address","internalType":"address"},{"name":"_complianceManager","type":"address","internalType":"address"},{"name":"_auditTrail","type":"address","internalType":"address"},{"name":"_feeManager","type":"address","internalType":"address"}],"outputs":[],"stateMutability":"nonpayable"},{"type":"function","name":"marketplaceCore","inputs":[],"outputs":[{"name":"","type":"address","internalType":"contract MarketplaceCore"}],"stateMutability":"view"},{"type":"function","name":"pauseMarketplace","inputs":[],"outputs":[],"stateMutability":"nonpayable"},{"type":"function","name":"paused","inputs":[],"outputs":[{"name":"","type":"bool","internalType":"bool"}],"stateMutability":"view"},{"type":"function","name":"renounceRole","inputs":[{"name":"role","type":"bytes32","internalType":"bytes32"},{"name":"callerConfirmation","type":"address","internalType":"address"}],"outputs":[],"stateMutability":"nonpayable"},{"type":"function","name":"revokeRole","inputs":[{"name":"role","type":"bytes32","internalType":"bytes32"},{"name":"account","type":"address","internalType":"address"}],"outputs":[],"stateMutability":"nonpayable"},{"type":"function","name":"supportsInterface","inputs":[{"name":"interfaceId","type":"bytes4","internalType":"bytes4"}],"outputs":[{"name":"","type":"bool","internalType":"bool"}],"stateMutability":"view"},{"type":"function","name":"unpauseMarketplace","inputs":[],"outputs":[],"stateMutability":"nonpayable"},{"type":"event","name":"Initialized","inputs":[{"name":"version","type":"uint64","indexed":false,"internalType":"uint64"}],"anonymous":false},{"type":"event","name":"Paused","inputs":[{"name":"account","type":"address","indexed":false,"internalType":"address"}],"anonymous":false},{"type":"event","name":"RoleAdminChanged","inputs":[{"name":"role","type":"bytes32","indexed":true,"internalType":"bytes32"},{"name":"previousAdminRole","type":"bytes32","indexed":true,"internalType":"bytes32"},{"name":"newAdminRole","type":"bytes32","indexed":true,"internalType":"bytes32"}],"anonymous":false},{"type":"event","name":"RoleGranted","inputs":[{"name":"role","type":"bytes32","indexed":true,"internalType":"bytes32"},{"name":"account","type":"address","indexed":true,"internalType":"address"},{"name":"sender","type":"address","indexed":true,"internalType":"address"}],"anonymous":false},{"type":"event","name":"RoleRevoked","inputs":[{"name":"role","type":"bytes32","indexed":true,"internalType":"bytes32"},{"name":"account","type":"address","indexed":true,"internalType":"address"},{"name":"sender","type":"address","indexed":true,"internalType":"address"}],"anonymous":false},{"type":"event","name":"TokenBuyOrderCreated","inputs":[{"name":"buyer","type":"address","indexed":true,"internalType":"address"},{"name":"token","type":"address","indexed":true,"internalType":"address"},{"name":"orderId","type":"uint256","indexed":false,"internalType":"uint256"}],"anonymous":false},{"type":"event","name":"TokenOrderFilled","inputs":[{"name":"filler","type":"address","indexed":true,"internalType":"address"},{"name":"orderId","type":"uint256","indexed":false,"internalType":"uint256"},{"name":"amount","type":"uint256","indexed":false,"internalType":"uint256"},{"name":"totalCost","type":"uint256","indexed":false,"internalType":"uint256"}],"anonymous":false},{"type":"event","name":"TokenSellOrderCreated","inputs":[{"name":"seller","type":"address","indexed":true,"internalType":"address"},{"name":"token","type":"address","indexed":true,"internalType":"address"},{"name":"orderId","type":"uint256","indexed":false,"internalType":"uint256"}],"anonymous":false},{"type":"event","name":"Unpaused","inputs":[{"name":"account","type":"address","indexed":false,"internalType":"address"}],"anonymous":false},{"type":"error","name":"AccessControlBadConfirmation","inputs":[]},{"type":"error","name":"AccessControlUnauthorizedAccount","inputs":[{"name":"account","type":"address","internalType":"address"},{"name":"neededRole","type":"bytes32","internalType":"bytes32"}]},{"type":"error","name":"EnforcedPause","inputs":[]},{"type":"error","name":"ExpectedPause","inputs":[]},{"type":"error","name":"InvalidInitialization","inputs":[]},{"type":"error","name":"NotInitializing","inputs":[]},{"type":"error","name":"ReentrancyGuardReentrantCall","inputs":[]}],"bytecode":{"object":"0x60808060405234610016576124af908161001b8239f35b5f80fdfe6080604081815260049182361015610015575f80fd5b5f9260e05f35811c92836301ffc9a714611d49575082631459457a14611b8057826321f67fbb14611b0a578263248a9ca314611ad3578263287b19ed14611aac5782632db25e05146119085782632f2ff15d146118c157826336568abe1461187a5782633ec6227914611815578263444c0fd614611783578263504a389f146116c8578263514fcac7146115865782635c975abb146115555782635dddd9b1146114ba57826363c69f081461144e5782637bc7c8ab1461131157826380d1ed411461128f57826391d148541461123e578263a217fddf14611222578263a30c302d146110b1578263aba02c1f14611087578263b2a4eea01461104b578263b4f5220214610f7c57848363c37dfc5b14610dff57508263c53a490a14610d76578263d09ef24114610b8557508163d0fb020314610b5c578163d547741f14610b10578163ee632ea014610a5e578163f372111f146109b257838263f387e19f1461065357508163fadbfa4f146103c2578163fcef5d06146101c9575063ff7bce231461019e575f80fd5b346101c557816003193601126101c55760015490516001600160a01b039091168152602090f35b5080fd5b839150346101c557826003193601126101c55781610222916101e9611d9b565b82548651637e77ae8360e11b81526001600160a01b03928316938101938452602435602085015294859392909116918391829160400190565b03915afa9182156103b757809381829083809581976102b1575b8860c06102ad8a61029f8b6102918c6102838d8d6102768e61026884519d8d8f9e8f9081520190611dc7565b8c810360208e015290611dc7565b918a8303908b0152611dc7565b908782036060890152611dc7565b908582036080870152611dc7565b9083820360a0850152611dc7565b0390f35b9550965050509250503d8084833e6102c98183611f13565b81019260c0828503126103a05781519267ffffffffffffffff938481116103b357856102f6918501611fa1565b9260208101518581116103af578661030f918301611fa1565b95828201518681116103ab5781610327918401611fa1565b9560608301518181116103a75782610340918501611fa1565b9260808101518281116103a35783610359918301611fa1565b9560a08201519283116103a0575061029f946102ad97946102766103896102919660c09c9a966102839601611fa1565b969b989194969a505094975094508195925061023c565b80fd5b8680fd5b8580fd5b8480fd5b8380fd5b8280fd5b8351903d90823e3d90fd5b9050826103ce36611e56565b9794959290966103df94929461237f565b6103e76123a9565b6001548651632a5bb1b760e11b815233838201526020996001600160a01b0397929091908b90829060249082908c165afa908115610649578791610600575b50918a9b916104398b9c949b9a9b61203e565b87548b5163fadbfa4f60e01b81526001600160a01b03909d16868e0190815260208101899052604081018890526060810193909352608083019190915291151560a08201528a918816908290819060c001039134905af19788156105f65784986105bd575b50908592916104e88a6104da8860025416948b51978893840190916034926bffffffffffffffffffffffff199060601b16825260148201520190565b03601f198101865285611f13565b813b156103ab57907f8e0c06f1beb4f4e95bca90fc1f4905dc82cb7d0eec5ccbebf1482c0eae52e7058580949361054a8b519788968795869463a66dc69360e01b86528501523360248501526044840152608060648401526084830190611e31565b03925af180156105b35761059f575b505082519184835216907fd18f60a182cfe147ec394c39a826e5353ad3e4a634e5d93d95b0c6c9361bb3e6853392a360015f8051602061245a8339815191525551908152f35b6105a98291611ec6565b6103a05780610559565b85513d84823e3d90fd5b92919097508883813d83116105ef575b6105d78183611f13565b810103126105eb578592519790919261049e565b5f80fd5b503d6105cd565b87513d86823e3d90fd5b90508a81813d8311610642575b6106178183611f13565b810103126103a357918a9b916104396106348c9d959c9b9c612031565b92945050919b9a9998610426565b503d61060d565b89513d89823e3d90fd5b929150346109ae5761066436611e56565b979392916106749691959661237f565b61067c6123a9565b6001548851632a5bb1b760e11b815233848201526001600160a01b039791602090829060249082908c165afa8015610930578790610973575b6106bf915061203e565b88516323b872dd60e01b81523384820152306024820152604481018690526020816064818a8d8d165af180156109305761093a575b508554895163095ea7b360e01b81529088166001600160a01b0316848201908152602080820188905290829060409082900301818a8d8d165af18015610930576108f7575b508554895163f387e19f60e01b81526001600160a01b038a1685820190815260208101889052604081018790526060810194909452608084019290925299151560a0830152988616908990819060c0010381875a94602095f19788156105f65784986108ba575b506002548751606088901b6bffffffffffffffffffffffff191660208201526034810193909352919392918516906107e585605481015b03601f198101875286611f13565b813b156103af57837ffc4bfe97df281e16dbeabd79af1cb810260e8ba01416a64bb677f89282e03ee7916108448a519788968795869463a66dc69360e01b86528501523360248501526044840152608060648401526084830190611e31565b03925af180156108b05761089c575b506020945082519184835216907fe6c9e27ea4a455b3438562c3c0d7f26d92109976e61e6e5713a637e5ed1d2593853392a360015f8051602061245a8339815191525551908152f35b6108a68691611ec6565b6103ab5784610853565b84513d88823e3d90fd5b9291935096506020823d6020116108ef575b816108d960209383611f13565b810103126105eb579051958792906107d76107a0565b3d91506108cc565b6020813d602011610928575b8161091060209383611f13565b810103126103a35761092190612031565b505f610739565b3d9150610903565b8a513d89823e3d90fd5b6020813d60201161096b575b8161095360209383611f13565b810103126103a35761096490612031565b505f6106f4565b3d9150610946565b506020813d6020116109a6575b8161098d60209383611f13565b810103126103a3576109a16106bf91612031565b6106b5565b3d9150610980565b5050fd5b8383346101c557806003193601126101c55760206109ce611d9b565b60446109d8611db1565b8554855163f372111f60e01b81526001600160a01b0394851698810198909852908316602488015286928391165afa918215610a535791610a1e575b6020925051908152f35b90506020823d602011610a4b575b81610a3960209383611f13565b810103126105eb576020915190610a14565b3d9150610a2c565b9051903d90823e3d90fd5b919050346103b35782816003193601126103a057610ab792610a7e611d9b565b82548451630773197560e51b81526001600160a01b03928316938101938452602435602085015295869392909116918391829160400190565b03915afa918215610b0657836102ad9493610ae1575b505051918291602083526020830190611dc7565b610afe9293503d8091833e610af68183611f13565b810190612008565b905f80610acd565b81513d85823e3d90fd5b919050346103b357806003193601126103b357610b589135610b536001610b35611db1565b938387525f8051602061241a833981519152602052862001546122d2565b612300565b5080f35b5050346101c557816003193601126101c55760035490516001600160a01b039091168152602090f35b939150346101c55760203660031901126101c557610ba1611f35565b508154835163d09ef24160e01b815282358382015261018095909390916001600160a01b039087908690602490829085165afa948515610d6c578295610c99575b508551958551875260208601516002811015610c8657602088015281818701511690870152606085015160608701526080850151608087015260a085015160a087015260c08501511660c086015281840151926005841015610c7357505083015261010080820151908301526101208082015190830152610140808201519083015261016080910151151590820152f35b634e487b7160e01b825260219052602490fd5b634e487b7160e01b845260218652602484fd5b9094508681813d8311610d65575b610cb18183611f13565b810103126101c557855190610cc582611e95565b80518252602081015160028110156103af576020830152610ce7878201611f8d565b87830152606081015160608301526080810151608083015260a081015160a0830152610d1560c08201611f8d565b60c08301528381015160058110156103af5784830152610100808201519083015261012080820151908301526101408082015190830152610d5a610160809201612031565b90820152935f610be2565b503d610ca7565b86513d84823e3d90fd5b848285346103b35760203660031901126103b35782610d93611d9b565b8154835163629d248560e11b81526001600160a01b039283169581019590955284916024918391165afa918215610b0657836102ad9493610de257505051918291602083526020830190611dc7565b610df79293503d8091833e610af68183611f13565b908380610acd565b808386610e0b36611dfa565b939092610e1661237f565b610e1e6123a9565b81546001600160a01b03908116803b156103af578360449186519283809263c37dfc5b60e01b82528a888301528b602483015234905af18015610f7257908491610f5e575b50506002541690835185602082015260208152610e7f81611ef7565b823b156103af57610ee1927fbc05af9cb80399eb3f3beada0af02b7e518761fb592f4738fc5afcf52ad0cc0885809488519687958694859363a66dc69360e01b85528401523360248401528c6044840152608060648401526084830190611e31565b03925af18015610f5457610f40575b505051908152602081019190915234604082015233907fcae5bb18116aa2c9285a7b2287b71816a501f00e22474ca81f59707914f6547990606090a260015f8051602061245a8339815191525580f35b610f4990611ec6565b6103af578385610ef0565b83513d84823e3d90fd5b610f6790611ec6565b6103b3578288610e63565b85513d86823e3d90fd5b509050346103b35760203660031901126103b3576080610f9a611d9b565b84548451635a7a910160e11b81526001600160a01b039283169481019490945283916024918391165afa90811561103f5783928485928694610ff0575b5060809550815194855260208501528301526060820152f35b9350509250506080813d608011611037575b8161100f60809383611f13565b810103126103b35760809250805160208201519260608184015193015191939291925f610fd7565b3d9150611002565b505051903d90823e3d90fd5b505050346101c557816003193601126101c557602090517f4e9617a5e2ee64b49ea666eb545a00a6f26df1c8ca519835eb93aac8d78894928152f35b505050346101c557816003193601126101c55760025490516001600160a01b039091168152602090f35b909150346103af57602092836003193601126103ab576110cf611d9b565b90858382516110dd81611eda565b828152828882015282848201528260608201528260808201528260a08201528260c0820152015260018060a01b039485948588541690835197889563a30c302d60e01b875216908501528360246101009889935afa92831561121857879361118d575b5090839291815195835116865280830151908601528082015190850152606081015160608501526080810151608085015260a081015160a085015260c081015160c0850152015190820152f35b9092508581813d8311611211575b6111a58183611f13565b810103126103a3578380959697508251916111bf83611eda565b6111c881611f8d565b835284810151858401528381015184840152606081015160608401526080810151608084015260a081015160a084015260c081015160c084015201518482015291869594611140565b503d61119b565b82513d89823e3d90fd5b505050346101c557816003193601126101c55751908152602090f35b509050346103b357816003193601126103b3578160209361125d611db1565b923581525f8051602061241a8339815191528552209060018060a01b03165f52825260ff815f20541690519015158152f35b848285346103b35782816003193601126103a0576112e8926112af611d9b565b825484516380d1ed4160e01b81526001600160a01b03928316938101938452602435602085015295869392909116918391829160400190565b03915afa918215610b0657836102ad9493610de257505051918291602083526020830190611dc7565b838286346103a05760603660031901126103a05761132d611db1565b81548451637bc7c8ab60e01b81528435818601526001600160a01b03928316602482015260448035908201529391839185916064918391165afa9182156114435780938193611395575b5050506102ad90835193849315158452806020850152830190611e31565b91935091503d8083833e6113a98183611f13565b81019284828503126103b3576113be82612031565b92602083015167ffffffffffffffff938482116103b357019185601f840112156101c55782519384116114305750855194611403601f8501601f191660200187611f13565b838652602084840101116103a057506102ad92916114279160208087019101611e10565b91908480611377565b634e487b7160e01b825260419052602490fd5b8451903d90823e3d90fd5b848285346103b35760203660031901126103b3578261146b611d9b565b81548351630c78d3e160e31b81526001600160a01b039283169581019590955284916024918391165afa918215610b0657836102ad9493610de257505051918291602083526020830190611dc7565b838583346101c55760203660031901126101c557826114d7611d9b565b83548251635dddd9b160e01b81526001600160a01b039283169481019490945283916024918391165afa908115610f545782809261151e575b505082519182526020820152f35b915091508282813d831161154e575b6115378183611f13565b810103126103a05750602081519101518380611510565b503d61152d565b505050346101c557816003193601126101c55760209060ff5f8051602061243a833981519152541690519015158152f35b508383346105eb5760203660031901126105eb578235906115a561237f565b6115ad6123a9565b5f546001600160a01b03908116803b156105eb575f8091602485518094819363514fcac760e01b8352898c8401525af180156116be576116ab575b50938394600254169282519060208201526020815261160681611ef7565b833b156103ab57611668937f69d3d039f79879d241ea815c12015cedeca0cfad0556cdf56843bd9afd23e93086809486519788958694859363a66dc69360e01b8552840152336024840152836044840152608060648401526084830190611e31565b03925af19081156116a2575061168e575b5060015f8051602061245a8339815191525580f35b61169790611ec6565b6103a0578082611679565b513d84823e3d90fd5b6116b6919450611ec6565b5f92856115e8565b83513d5f823e3d90fd5b5082346105eb5760606044926116dd36611dfa565b5f54855163504a389f60e01b81529384019290925260248301529093849182906001600160a01b03165afa8015611779575f915f935f92611733575b505191825260208201929092526040810191909152606090f35b92509250506060813d606011611771575b8161175160609383611f13565b810103126105eb576102ad81519280602084015193015193929391611719565b3d9150611744565b50513d5f823e3d90fd5b8382346105eb5760203660031901126105eb575f61179f611d9b565b8154845163222607eb60e11b81526001600160a01b039283169481019490945283916024918391165afa90811561180b57916102ad925f926117ef575b5051918291602083526020830190611dc7565b6118049192503d805f833e610af68183611f13565b90836117dc565b82513d5f823e3d90fd5b83346105eb575f3660031901126105eb5760207f62e78cea01bee320cd4e420270b5ea74000d11b0c9f74754ebdbfc544b05a25891611852612259565b61185a61237f565b5f8051602061243a833981519152805460ff1916600117905551338152a1005b5082346105eb57806003193601126105eb57611894611db1565b90336001600160a01b038316036118b257506118b09135612300565b005b5163334bd91960e11b81529050fd5b5082346105eb57806003193601126105eb576118b0913561190360016118e5611db1565b93835f525f8051602061241a8339815191526020525f2001546122d2565b6121d6565b8382346105eb5760203660031901126105eb57611923611f35565b505f548251632db25e0560e01b815282359281019290925261018093906001600160a01b039085908490602490829085165afa928315611aa2575f936119e1575b508351938351855260208401516020860152808401519085015280606084015116606085015280608084015116608085015260a08301511660a084015260c082015160c084015280820151908301526101008082015190830152610120808201519083015261014080820151908301526101608091015190820152f35b9092508481813d8311611a9b575b6119f98183611f13565b810103126105eb57835190611a0d82611e95565b80518252602081015160208301528481015185830152611a2f60608201611f8d565b6060830152611a4060808201611f8d565b6080830152611a5160a08201611f8d565b60a083015260c081015160c0830152828101518383015261010080820151908301526101208082015190830152610140808201519083015261016080910151908201529185611964565b503d6119ef565b84513d5f823e3d90fd5b83346105eb575f3660031901126105eb575f5490516001600160a01b039091168152602090f35b5082346105eb5760203660031901126105eb57602091355f525f8051602061241a83398151915282526001815f2001549051908152f35b5082346105eb575f3660031901126105eb57611b24612259565b5f8051602061243a8339815191529182549060ff821615611b72577f5db9ee0a495bf2e6ff9c91a7834c1ba4fdd244a5e8aa4e537bd38aeae4b073aa602084868560ff1916905551338152a1005b8251638dfc202b60e01b8152fd5b8382346105eb5760a03660031901126105eb57611b9b611d9b565b90611ba4611db1565b6001600160a01b03929060443584811691908290036105eb576064358581168091036105eb57608435928684168094036105eb577ff0c57e16840df040f15088dc2f81fe391c3923bec73e23a9662efc9c229c6a009687549560ff878b1c16159667ffffffffffffffff811698891580611d42575b6001809b149081611d38575b159081611d2f575b50611d21575067ffffffffffffffff19811689178a55611c8e919088611d02575b50611c576123d8565b611c5f6123d8565b611c676123d8565b611c6f6123d8565b885f8051602061245a83398151915255611c8881612079565b50612116565b506bffffffffffffffffffffffff60a01b9316835f5416175f55828654161785558160025416176002556003541617600355611cc657005b7fc7f505b2f371ae2175ee4913f4499e1f2633a7b5936321eed1cdaeb6115181d29260209268ff000000000000000019815416905551908152a1005b68ffffffffffffffffff191668010000000000000001178a558b611c4e565b8b5163f92ee8a960e01b8152fd5b9050158d611c2d565b303b159150611c25565b5088611c19565b82346105eb5760203660031901126105eb57359063ffffffff60e01b82168092036105eb57602091637965db0b60e01b8114908115611d8a575b5015158152f35b6301ffc9a760e01b14905083611d83565b600435906001600160a01b03821682036105eb57565b602435906001600160a01b03821682036105eb57565b9081518082526020808093019301915f5b828110611de6575050505090565b835185529381019392810192600101611dd8565b60409060031901126105eb576004359060243590565b5f5b838110611e215750505f910152565b8181015183820152602001611e12565b90602091611e4a81518092818552858086019101611e10565b601f01601f1916010190565b60c09060031901126105eb576004356001600160a01b03811681036105eb57906024359060443590606435906084359060a43580151581036105eb5790565b610180810190811067ffffffffffffffff821117611eb257604052565b634e487b7160e01b5f52604160045260245ffd5b67ffffffffffffffff8111611eb257604052565b610100810190811067ffffffffffffffff821117611eb257604052565b6040810190811067ffffffffffffffff821117611eb257604052565b90601f8019910116810190811067ffffffffffffffff821117611eb257604052565b60405190611f4282611e95565b5f610160838281528260208201528260408201528260608201528260808201528260a08201528260c08201528260e08201528261010082015282610120820152826101408201520152565b51906001600160a01b03821682036105eb57565b81601f820112156105eb5780519160209167ffffffffffffffff8411611eb2578360051b9060405194611fd685840187611f13565b855283808601928201019283116105eb578301905b828210611ff9575050505090565b81518152908301908301611feb565b906020828203126105eb57815167ffffffffffffffff81116105eb5761202e9201611fa1565b90565b519081151582036105eb57565b1561204557565b60405162461bcd60e51b815260206004820152600c60248201526b12d650c81c995c5d5a5c995960a21b6044820152606490fd5b6001600160a01b03165f8181527fb7db2dd08fcb62d0c9e08c51941cae53c267786a0b75803fb7960902fc8ef97d60205260409020545f8051602061241a8339815191529060ff16612110575f805260205260405f20815f5260205260405f20600160ff1982541617905533905f7f2f8788117e7eff1d82e926ec794901d17c78024a50270940304540a733656f0d8180a4600190565b50505f90565b6001600160a01b03165f8181527f9db0d9c8b98062c686416d9f185c3f8330df6b3f565a32c50da37faaafa0f32760205260409020547f4e9617a5e2ee64b49ea666eb545a00a6f26df1c8ca519835eb93aac8d788949291905f8051602061241a8339815191529060ff166121cf57825f5260205260405f20815f5260205260405f20600160ff1982541617905533917f2f8788117e7eff1d82e926ec794901d17c78024a50270940304540a733656f0d5f80a4600190565b5050505f90565b90815f525f8051602061241a8339815191528060205260405f209160018060a01b031691825f5260205260ff60405f205416155f146121cf57825f5260205260405f20815f5260205260405f20600160ff1982541617905533917f2f8788117e7eff1d82e926ec794901d17c78024a50270940304540a733656f0d5f80a4600190565b335f9081527f9db0d9c8b98062c686416d9f185c3f8330df6b3f565a32c50da37faaafa0f32760205260409020547f4e9617a5e2ee64b49ea666eb545a00a6f26df1c8ca519835eb93aac8d78894929060ff16156122b45750565b6044906040519063e2517d3f60e01b82523360048301526024820152fd5b805f525f8051602061241a83398151915260205260405f20335f5260205260ff60405f205416156122b45750565b90815f525f8051602061241a8339815191528060205260405f209160018060a01b031691825f5260205260ff60405f2054165f146121cf57825f5260205260405f20815f5260205260405f2060ff19815416905533917ff6391f5c32d9c69d2a47ea670b442974b53935d1edc7fd64eb21e047a839171b5f80a4600190565b60ff5f8051602061243a833981519152541661239757565b60405163d93c066560e01b8152600490fd5b5f8051602061245a83398151915260028154146123c65760029055565b604051633ee5aeb560e01b8152600490fd5b60ff7ff0c57e16840df040f15088dc2f81fe391c3923bec73e23a9662efc9c229c6a005460401c161561240757565b604051631afcd79f60e31b8152600490fdfe02dd7bc7dec4dceedda775e58dd541e08a116c6c53815c0bd028192f7b626800cd5ed15c6e187e77e9aee88184c21f4f2182ab5827cb3b7e07fbedcd63f033009b779b17422d0df92223018b32b4d1fa46e071723d6817e2486d003becc55f00a26469706673582212202f89fa3755ee74358bb7a1f96a2608433deb2d8a7bdb5b00930b242b7883af8b64736f6c63430008160033","linkReferences":{}},"methodIdentifiers":{"DEFAULT_ADMIN_ROLE()":"a217fddf","MARKETPLACE_ADMIN_ROLE()":"b2a4eea0","auditTrail()":"aba02c1f","canFillOrder(uint256,address,uint256)":"7bc7c8ab","cancelOrder(uint256)":"514fcac7","complianceManager()":"ff7bce23","createBuyOrder(address,uint256,uint256,uint256,uint256,bool)":"fadbfa4f","createSellOrder(address,uint256,uint256,uint256,uint256,bool)":"f387e19f","estimateFillCost(uint256,uint256)":"504a389f","feeManager()":"d0fb0203","fillOrder(uint256,uint256)":"c37dfc5b","getActiveOrders(address)":"c53a490a","getBestPrices(address)":"5dddd9b1","getEscrowBalance(address,address)":"f372111f","getMarketData(address)":"a30c302d","getOrder(uint256)":"d09ef241","getOrderBook(address,uint256)":"fcef5d06","getOrderStatistics(address)":"b4f52202","getRecentTrades(address,uint256)":"ee632ea0","getRoleAdmin(bytes32)":"248a9ca3","getTokenOrders(address)":"444c0fd6","getTrade(uint256)":"2db25e05","getUserOrders(address)":"63c69f08","getUserTrades(address,uint256)":"80d1ed41","grantRole(bytes32,address)":"2f2ff15d","hasRole(bytes32,address)":"91d14854","initialize(address,address,address,address,address)":"1459457a","marketplaceCore()":"287b19ed","pauseMarketplace()":"3ec62279","paused()":"5c975abb","renounceRole(bytes32,address)":"36568abe","revokeRole(bytes32,address)":"d547741f","supportsInterface(bytes4)":"01ffc9a7","unpauseMarketplace()":"21f67fbb"},"id":0}