{"abi":[{"type":"receive","stateMutability":"payable"},{"type":"function","name":"DEFAULT_ADMIN_ROLE","inputs":[],"outputs":[{"name":"","type":"bytes32","internalType":"bytes32"}],"stateMutability":"view"},{"type":"function","name":"REWARD_ADMIN_ROLE","inputs":[],"outputs":[{"name":"","type":"bytes32","internalType":"bytes32"}],"stateMutability":"view"},{"type":"function","name":"SYSTEM_ROLE","inputs":[],"outputs":[{"name":"","type":"bytes32","internalType":"bytes32"}],"stateMutability":"view"},{"type":"function","name":"addReferralTier","inputs":[{"name":"minReferrals","type":"uint256","internalType":"uint256"},{"name":"rewardPercentage","type":"uint256","internalType":"uint256"},{"name":"bonusMultiplier","type":"uint256","internalType":"uint256"},{"name":"tierName","type":"string","internalType":"string"}],"outputs":[],"stateMutability":"nonpayable"},{"type":"function","name":"auditTrail","inputs":[],"outputs":[{"name":"","type":"address","internalType":"contract IAuditTrail"}],"stateMutability":"view"},{"type":"function","name":"awardTradingRewards","inputs":[{"name":"trader","type":"address","internalType":"address"},{"name":"tradingVolume","type":"uint256","internalType":"uint256"}],"outputs":[],"stateMutability":"nonpayable"},{"type":"function","name":"claimDividend","inputs":[{"name":"dividendId","type":"uint256","internalType":"uint256"}],"outputs":[],"stateMutability":"nonpayable"},{"type":"function","name":"claimRewards","inputs":[],"outputs":[],"stateMutability":"nonpayable"},{"type":"function","name":"createStakingPool","inputs":[{"name":"tokenAddress","type":"address","internalType":"address"},{"name":"rewardRate","type":"uint256","internalType":"uint256"},{"name":"rewardDuration","type":"uint256","internalType":"uint256"},{"name":"minStakeAmount","type":"uint256","internalType":"uint256"},{"name":"lockupPeriod","type":"uint256","internalType":"uint256"}],"outputs":[],"stateMutability":"nonpayable"},{"type":"function","name":"depositRewardTokens","inputs":[{"name":"amount","type":"uint256","internalType":"uint256"}],"outputs":[],"stateMutability":"nonpayable"},{"type":"function","name":"distributeDividend","inputs":[],"outputs":[],"stateMutability":"payable"},{"type":"function","name":"dividends","inputs":[{"name":"","type":"uint256","internalType":"uint256"}],"outputs":[{"name":"totalAmount","type":"uint256","internalType":"uint256"},{"name":"timestamp","type":"uint256","internalType":"uint256"},{"name":"claimedAmount","type":"uint256","internalType":"uint256"},{"name":"eligibleSupply","type":"uint256","internalType":"uint256"}],"stateMutability":"view"},{"type":"function","name":"emergencyWithdrawETH","inputs":[],"outputs":[],"stateMutability":"nonpayable"},{"type":"function","name":"emergencyWithdrawRewardTokens","inputs":[{"name":"amount","type":"uint256","internalType":"uint256"}],"outputs":[],"stateMutability":"nonpayable"},{"type":"function","name":"getRoleAdmin","inputs":[{"name":"role","type":"bytes32","internalType":"bytes32"}],"outputs":[{"name":"","type":"bytes32","internalType":"bytes32"}],"stateMutability":"view"},{"type":"function","name":"grantRole","inputs":[{"name":"role","type":"bytes32","internalType":"bytes32"},{"name":"account","type":"address","internalType":"address"}],"outputs":[],"stateMutability":"nonpayable"},{"type":"function","name":"hasRole","inputs":[{"name":"role","type":"bytes32","internalType":"bytes32"},{"name":"account","type":"address","internalType":"address"}],"outputs":[{"name":"","type":"bool","internalType":"bool"}],"stateMutability":"view"},{"type":"function","name":"initialize","inputs":[{"name":"admin","type":"address","internalType":"address"},{"name":"_rewardToken","type":"address","internalType":"address"},{"name":"_auditTrail","type":"address","internalType":"address"}],"outputs":[],"stateMutability":"nonpayable"},{"type":"function","name":"loyaltyMultiplier","inputs":[],"outputs":[{"name":"","type":"uint256","internalType":"uint256"}],"stateMutability":"view"},{"type":"function","name":"maxLoyaltyBonus","inputs":[],"outputs":[{"name":"","type":"uint256","internalType":"uint256"}],"stateMutability":"view"},{"type":"function","name":"nextDividendId","inputs":[],"outputs":[{"name":"","type":"uint256","internalType":"uint256"}],"stateMutability":"view"},{"type":"function","name":"pause","inputs":[],"outputs":[],"stateMutability":"nonpayable"},{"type":"function","name":"pauseStakingPool","inputs":[{"name":"tokenAddress","type":"address","internalType":"address"}],"outputs":[],"stateMutability":"nonpayable"},{"type":"function","name":"paused","inputs":[],"outputs":[{"name":"","type":"bool","internalType":"bool"}],"stateMutability":"view"},{"type":"function","name":"referees","inputs":[{"name":"","type":"address","internalType":"address"},{"name":"","type":"uint256","internalType":"uint256"}],"outputs":[{"name":"","type":"address","internalType":"address"}],"stateMutability":"view"},{"type":"function","name":"referralCounts","inputs":[{"name":"","type":"address","internalType":"address"}],"outputs":[{"name":"","type":"uint256","internalType":"uint256"}],"stateMutability":"view"},{"type":"function","name":"referralRewardRate","inputs":[],"outputs":[{"name":"","type":"uint256","internalType":"uint256"}],"stateMutability":"view"},{"type":"function","name":"referralTiers","inputs":[{"name":"","type":"uint256","internalType":"uint256"}],"outputs":[{"name":"minReferrals","type":"uint256","internalType":"uint256"},{"name":"rewardPercentage","type":"uint256","internalType":"uint256"},{"name":"bonusMultiplier","type":"uint256","internalType":"uint256"},{"name":"tierName","type":"string","internalType":"string"}],"stateMutability":"view"},{"type":"function","name":"referrals","inputs":[{"name":"","type":"address","internalType":"address"}],"outputs":[{"name":"","type":"address","internalType":"address"}],"stateMutability":"view"},{"type":"function","name":"registerReferral","inputs":[{"name":"referrer","type":"address","internalType":"address"}],"outputs":[],"stateMutability":"nonpayable"},{"type":"function","name":"renounceRole","inputs":[{"name":"role","type":"bytes32","internalType":"bytes32"},{"name":"callerConfirmation","type":"address","internalType":"address"}],"outputs":[],"stateMutability":"nonpayable"},{"type":"function","name":"requestUnstake","inputs":[{"name":"tokenAddress","type":"address","internalType":"address"},{"name":"amount","type":"uint256","internalType":"uint256"}],"outputs":[],"stateMutability":"nonpayable"},{"type":"function","name":"revokeRole","inputs":[{"name":"role","type":"bytes32","internalType":"bytes32"},{"name":"account","type":"address","internalType":"address"}],"outputs":[],"stateMutability":"nonpayable"},{"type":"function","name":"rewardToken","inputs":[],"outputs":[{"name":"","type":"address","internalType":"contract IERC20"}],"stateMutability":"view"},{"type":"function","name":"rewardTokenDecimals","inputs":[],"outputs":[{"name":"","type":"uint256","internalType":"uint256"}],"stateMutability":"view"},{"type":"function","name":"setRewardRates","inputs":[{"name":"_tradingRewardRate","type":"uint256","internalType":"uint256"},{"name":"_referralRewardRate","type":"uint256","internalType":"uint256"},{"name":"_loyaltyMultiplier","type":"uint256","internalType":"uint256"},{"name":"_maxLoyaltyBonus","type":"uint256","internalType":"uint256"}],"outputs":[],"stateMutability":"nonpayable"},{"type":"function","name":"setUnstakeCooldown","inputs":[{"name":"_unstakeCooldown","type":"uint256","internalType":"uint256"}],"outputs":[],"stateMutability":"nonpayable"},{"type":"function","name":"stakeTokens","inputs":[{"name":"tokenAddress","type":"address","internalType":"address"},{"name":"amount","type":"uint256","internalType":"uint256"}],"outputs":[],"stateMutability":"nonpayable"},{"type":"function","name":"stakingPools","inputs":[{"name":"","type":"address","internalType":"address"}],"outputs":[{"name":"tokenAddress","type":"address","internalType":"address"},{"name":"rewardRate","type":"uint256","internalType":"uint256"},{"name":"totalStaked","type":"uint256","internalType":"uint256"},{"name":"lastUpdateTime","type":"uint256","internalType":"uint256"},{"name":"rewardPerTokenStored","type":"uint256","internalType":"uint256"},{"name":"periodFinish","type":"uint256","internalType":"uint256"},{"name":"rewardDuration","type":"uint256","internalType":"uint256"},{"name":"isActive","type":"bool","internalType":"bool"},{"name":"minStakeAmount","type":"uint256","internalType":"uint256"},{"name":"lockupPeriod","type":"uint256","internalType":"uint256"}],"stateMutability":"view"},{"type":"function","name":"supportsInterface","inputs":[{"name":"interfaceId","type":"bytes4","internalType":"bytes4"}],"outputs":[{"name":"","type":"bool","internalType":"bool"}],"stateMutability":"view"},{"type":"function","name":"totalReferralTiers","inputs":[],"outputs":[{"name":"","type":"uint256","internalType":"uint256"}],"stateMutability":"view"},{"type":"function","name":"tradingRewardRate","inputs":[],"outputs":[{"name":"","type":"uint256","internalType":"uint256"}],"stateMutability":"view"},{"type":"function","name":"unpause","inputs":[],"outputs":[],"stateMutability":"nonpayable"},{"type":"function","name":"unpauseStakingPool","inputs":[{"name":"tokenAddress","type":"address","internalType":"address"}],"outputs":[],"stateMutability":"nonpayable"},{"type":"function","name":"unstakeCooldown","inputs":[],"outputs":[{"name":"","type":"uint256","internalType":"uint256"}],"stateMutability":"view"},{"type":"function","name":"unstakeTokens","inputs":[{"name":"tokenAddress","type":"address","internalType":"address"},{"name":"amount","type":"uint256","internalType":"uint256"}],"outputs":[],"stateMutability":"nonpayable"},{"type":"function","name":"updateStakingPool","inputs":[{"name":"tokenAddress","type":"address","internalType":"address"},{"name":"newRewardRate","type":"uint256","internalType":"uint256"},{"name":"newRewardDuration","type":"uint256","internalType":"uint256"}],"outputs":[],"stateMutability":"nonpayable"},{"type":"function","name":"userRewards","inputs":[{"name":"","type":"address","internalType":"address"}],"outputs":[{"name":"totalEarned","type":"uint256","internalType":"uint256"},{"name":"totalClaimed","type":"uint256","internalType":"uint256"},{"name":"stakingRewards","type":"uint256","internalType":"uint256"},{"name":"tradingRewards","type":"uint256","internalType":"uint256"},{"name":"referralRewards","type":"uint256","internalType":"uint256"},{"name":"loyaltyPoints","type":"uint256","internalType":"uint256"},{"name":"lastClaimTimestamp","type":"uint256","internalType":"uint256"},{"name":"lastActivityTimestamp","type":"uint256","internalType":"uint256"}],"stateMutability":"view"},{"type":"function","name":"userStaking","inputs":[{"name":"","type":"address","internalType":"address"},{"name":"","type":"address","internalType":"address"}],"outputs":[{"name":"stakedAmount","type":"uint256","internalType":"uint256"},{"name":"userRewardPerTokenPaid","type":"uint256","internalType":"uint256"},{"name":"rewards","type":"uint256","internalType":"uint256"},{"name":"stakingStartTime","type":"uint256","internalType":"uint256"},{"name":"lastStakeTime","type":"uint256","internalType":"uint256"},{"name":"unstakeRequestTime","type":"uint256","internalType":"uint256"},{"name":"hasUnstakeRequest","type":"bool","internalType":"bool"}],"stateMutability":"view"},{"type":"event","name":"DividendClaimed","inputs":[{"name":"dividendId","type":"uint256","indexed":true,"internalType":"uint256"},{"name":"user","type":"address","indexed":true,"internalType":"address"},{"name":"amount","type":"uint256","indexed":false,"internalType":"uint256"}],"anonymous":false},{"type":"event","name":"DividendDistributed","inputs":[{"name":"dividendId","type":"uint256","indexed":true,"internalType":"uint256"},{"name":"totalAmount","type":"uint256","indexed":false,"internalType":"uint256"}],"anonymous":false},{"type":"event","name":"Initialized","inputs":[{"name":"version","type":"uint64","indexed":false,"internalType":"uint64"}],"anonymous":false},{"type":"event","name":"LoyaltyPointsEarned","inputs":[{"name":"user","type":"address","indexed":true,"internalType":"address"},{"name":"points","type":"uint256","indexed":false,"internalType":"uint256"},{"name":"reason","type":"string","indexed":false,"internalType":"string"}],"anonymous":false},{"type":"event","name":"Paused","inputs":[{"name":"account","type":"address","indexed":false,"internalType":"address"}],"anonymous":false},{"type":"event","name":"ReferralRegistered","inputs":[{"name":"user","type":"address","indexed":true,"internalType":"address"},{"name":"referrer","type":"address","indexed":true,"internalType":"address"}],"anonymous":false},{"type":"event","name":"ReferralRewardEarned","inputs":[{"name":"referrer","type":"address","indexed":true,"internalType":"address"},{"name":"referee","type":"address","indexed":true,"internalType":"address"},{"name":"amount","type":"uint256","indexed":false,"internalType":"uint256"}],"anonymous":false},{"type":"event","name":"RewardsClaimed","inputs":[{"name":"user","type":"address","indexed":true,"internalType":"address"},{"name":"amount","type":"uint256","indexed":false,"internalType":"uint256"},{"name":"loyaltyBonus","type":"uint256","indexed":false,"internalType":"uint256"}],"anonymous":false},{"type":"event","name":"RoleAdminChanged","inputs":[{"name":"role","type":"bytes32","indexed":true,"internalType":"bytes32"},{"name":"previousAdminRole","type":"bytes32","indexed":true,"internalType":"bytes32"},{"name":"newAdminRole","type":"bytes32","indexed":true,"internalType":"bytes32"}],"anonymous":false},{"type":"event","name":"RoleGranted","inputs":[{"name":"role","type":"bytes32","indexed":true,"internalType":"bytes32"},{"name":"account","type":"address","indexed":true,"internalType":"address"},{"name":"sender","type":"address","indexed":true,"internalType":"address"}],"anonymous":false},{"type":"event","name":"RoleRevoked","inputs":[{"name":"role","type":"bytes32","indexed":true,"internalType":"bytes32"},{"name":"account","type":"address","indexed":true,"internalType":"address"},{"name":"sender","type":"address","indexed":true,"internalType":"address"}],"anonymous":false},{"type":"event","name":"StakingPoolCreated","inputs":[{"name":"token","type":"address","indexed":true,"internalType":"address"},{"name":"rewardRate","type":"uint256","indexed":false,"internalType":"uint256"},{"name":"rewardDuration","type":"uint256","indexed":false,"internalType":"uint256"}],"anonymous":false},{"type":"event","name":"StakingPoolUpdated","inputs":[{"name":"token","type":"address","indexed":true,"internalType":"address"},{"name":"newRewardRate","type":"uint256","indexed":false,"internalType":"uint256"}],"anonymous":false},{"type":"event","name":"TokensStaked","inputs":[{"name":"user","type":"address","indexed":true,"internalType":"address"},{"name":"token","type":"address","indexed":true,"internalType":"address"},{"name":"amount","type":"uint256","indexed":false,"internalType":"uint256"}],"anonymous":false},{"type":"event","name":"TokensUnstaked","inputs":[{"name":"user","type":"address","indexed":true,"internalType":"address"},{"name":"token","type":"address","indexed":true,"internalType":"address"},{"name":"amount","type":"uint256","indexed":false,"internalType":"uint256"}],"anonymous":false},{"type":"event","name":"TradingRewardEarned","inputs":[{"name":"user","type":"address","indexed":true,"internalType":"address"},{"name":"amount","type":"uint256","indexed":false,"internalType":"uint256"},{"name":"volume","type":"uint256","indexed":false,"internalType":"uint256"}],"anonymous":false},{"type":"event","name":"Unpaused","inputs":[{"name":"account","type":"address","indexed":false,"internalType":"address"}],"anonymous":false},{"type":"event","name":"UnstakeRequested","inputs":[{"name":"user","type":"address","indexed":true,"internalType":"address"},{"name":"token","type":"address","indexed":true,"internalType":"address"},{"name":"amount","type":"uint256","indexed":false,"internalType":"uint256"}],"anonymous":false},{"type":"error","name":"AccessControlBadConfirmation","inputs":[]},{"type":"error","name":"AccessControlUnauthorizedAccount","inputs":[{"name":"account","type":"address","internalType":"address"},{"name":"neededRole","type":"bytes32","internalType":"bytes32"}]},{"type":"error","name":"EnforcedPause","inputs":[]},{"type":"error","name":"ExpectedPause","inputs":[]},{"type":"error","name":"InvalidInitialization","inputs":[]},{"type":"error","name":"NotInitializing","inputs":[]},{"type":"error","name":"ReentrancyGuardReentrantCall","inputs":[]}],"bytecode":{"object":"0x608080604052346100165761371e908161001b8239f35b5f80fdfe608080604052600436101561001c575b50361561001a575f80fd5b005b60e05f35811c91826301ffc9a7146129f25750816303930624146129085781630660f1e81461288557816312144434146125d457816316c621e014612524578163209ab711146122bc578163248a9ca3146122835781632a31bce9146122395781632f2ff15d146121f05781632f79e10d1461210457816336568abe146120bd578163372500ab14611e0a578163392c263714611c715781633f4ba83a14611bfc57816340d5e8b914611bdf5781635c975abb14611bb157816365db681814611b7757816368a6dacc14611b33578163710ba6311461199b57816375071d2a1461196157816379a83f5a146117735781637eefd5ae14611756578163814b3fe01461170a57816384536017146116c75781638456cb5914611662578163891f767f1461141e57816391d14854146113c957816393e2d3b41461136657816395b867e7146113495781639abd3572146110f45781639bdcecd1146110d75781639ca423b31461109e578163a09fb7e714610fb6578163a217fddf14610f9c578163a3158b5314610f24578163aa8241a714610f07578163ab311d3a14610eea578163aba02c1f14610ec2578163ad935e9714610e1d578163c0b6264114610d8c57508063c0c53b8b1461061d578063cec297a0146105e5578063d547741f1461059c578063d57294651461057f578063e89a173e146103c3578063f6ef8f0a146102e5578063f7509c481461028e578063f7c618c1146102665763fe4ad44614610245575f61000f565b34610262575f366003190112610262576020600954604051908152f35b5f80fd5b34610262575f366003190112610262576010546040516001600160a01b039091168152602090f35b34610262576040366003190112610262576102a7612a45565b6024359060018060a01b038091165f52600460205260405f208054831015610262576020926102d591612c00565b9190546040519260031b1c168152f35b5f366003190112610262576102f8612d47565b610303341515612d12565b600d5461030f81612c36565b600d55805f52600460206006815260405f203481554260018201558160018060a01b0360105416604051948580926318160ddd60e01b82525afa9283156103b8575f93610388575b509160037f2f588cf4bb0247b0f3f60e06187f92e6fd1deaabb56e2bcc5672352337871327930155604051348152a2005b92508183813d83116103b1575b61039f8183612afe565b81010312610262579151916003610357565b503d610395565b6040513d5f823e3d90fd5b34610262576040366003190112610262576103dc612a45565b6024356103e76132e5565b6103f2811515612cd5565b335f5260206002815260405f209260018060a01b03811693845f52825260405f206104208482541015612c5c565b600681019160ff8354161561054d576104406005830154600f5490612c29565b421061051d57610451903390612e26565b61045c848254612c97565b905560ff198154169055825f5260018152600260405f200161047f838254612c97565b905560405163a9059cbb60e01b8152336004820152602481018390529080826044815f885af19182156103b8577f8521c90eb6ba01417c51d5ae70963b0808ed026b015c5d11216c74e7e68df3a8926104f0575b506040519283523392a360015f805160206136c983398151915255005b61050f90823d8411610516575b6105078183612afe565b810190612c44565b50846104d3565b503d6104fd565b60405162461bcd60e51b815260048101859052600860248201526721b7b7b63237bbb760c11b6044820152606490fd5b60405162461bcd60e51b815260048101859052600a602482015269139bc81c995c5d595cdd60b21b6044820152606490fd5b34610262575f366003190112610262576020600a54604051908152f35b346102625760403660031901126102625761001a6004356105bb612a5b565b90805f525f805160206136898339815191526020526105e0600160405f200154612df8565b613266565b34610262576020366003190112610262576001600160a01b03610606612a45565b165f526005602052602060405f2054604051908152f35b3461026257606036600319011261026257610636612a45565b61063e612a5b565b6001600160a01b0391604435838116929190839003610262577ff0c57e16840df040f15088dc2f81fe391c3923bec73e23a9662efc9c229c6a009283549260ff8460401c16159567ffffffffffffffff9485811694851580610d85575b60018097149081610d7b575b159081610d72575b50610d605767ffffffffffffffff198216861788556107189189610d41575b506106d7613627565b6106df613627565b6106e7613627565b6106ef613627565b855f805160206136c98339815191525561070881613019565b50610712816130a3565b50613150565b506001600160601b0360a01b9116816010541617601055601154161760115560646008556101f493846009556103e89283600a55611388600b556012600c5582600d5562093a80600f556040519061076f82612aa9565b5f8252602094858301978852604083016127108152604051986107918a612ae2565b60068a526542726f6e7a6560d01b888b015260608501998a52865f526007885260405f2094518555518685015551600284015560038093019751978851838111610b0857806107e08354612a71565b9a601f9b8c8111610cf3575b5089908c8311600114610c95575f92610c8a575b50505f1982871b1c191690871b1790555b60405161081d81612aa9565b600a815283878201916102ee8352604081016130d481526040519361084185612ae2565b600685526529b4b63b32b960d11b8b8601526060830194855260025f5260078b5260405f20925183555189830155516002820155019051805190848211610b0857819061088e8454612a71565b8c8111610c3c575b5089908c8311600114610bde575f92610bd3575b50505f1982871b1c191690871b1790555b826040516108c881612aa9565b6019815287810192835260408101613a988152604051936108e885612ae2565b600485526311dbdb1960e21b8a86015260608301948552835f5260078a5260405f20925183555188830155516002820155019051805190838211610b085781906109328454612a71565b8b8111610b85575b5088908b8311600114610b27575f92610b1c575b50505f1982861b1c191690861b1790555b6040519161096c83612aa9565b6032835280868401936104e2855260408101614e2081526040519561099087612ae2565b6008875267506c6174696e756d60c01b8a8801526060830196875260045f5260078a5260405f20925183555188830155516002820155019251978851928311610b08576109dd8454612a71565b818111610ac5575b5086908311600114610a6157829394959697985f93610a56575b505082861b925f19911b1c19161790555b6004600e55610a1b57005b7fc7f505b2f371ae2175ee4913f4499e1f2633a7b5936321eed1cdaeb6115181d29268ff0000000000000000198154169055604051908152a1005b0151915088806109ff565b90601f19831691845f52875f20925f5b818110610ab05750998488999a9b9896979810610a97575b50505050811b019055610a10565b01519060f8845f19921b161c1916905587808080610a89565b8b830151855593880193918901918901610a71565b845f52875f208280860160051c8201928a8710610aff575b0160051c019087905b828110610af45750506109e5565b5f8155018790610ae6565b92508192610add565b634e487b7160e01b5f52604160045260245ffd5b015190508a8061094e565b90889350601f19831691855f528a5f20925f5b8c828210610b6f5750508411610b58575b505050811b01905561095f565b01515f1983881b60f8161c191690558a8080610b4b565b8385015186558c97909501949384019301610b3a565b909150835f52885f208b80850160051c8201928b8610610bca575b918a91869594930160051c01915b828110610bbc57505061093a565b5f81558594508a9101610bae565b92508192610ba0565b015190508b806108aa565b90899350601f19831691855f528b5f20925f5b8d828210610c265750508411610c0f575b505050811b0190556108bb565b01515f1983891b60f8161c191690558b8080610c02565b8385015186558d97909501949384019301610bf1565b909150835f52895f208c80850160051c8201928c8610610c81575b918b91869594930160051c01915b828110610c73575050610896565b5f81558594508b9101610c65565b92508192610c57565b015190508b80610800565b90899350601f19831691855f528b5f20925f5b8d828210610cdd5750508411610cc6575b505050811b019055610811565b01515f1983891b60f8161c191690558b8080610cb9565b8385015186558d97909501949384019301610ca8565b909150835f52895f208c80850160051c8201928c8610610d38575b918b91869594930160051c01915b828110610d2a5750506107ec565b5f81558594508b9101610d1c565b92508192610d0e565b68ffffffffffffffffff191668010000000000000001178855896106ce565b60405163f92ee8a960e01b8152600490fd5b9050158a6106af565b303b1591506106a7565b508861069b565b3461026257604036600319011261026257610da5612a45565b610dad612a5b565b9060018060a01b038091165f52600260205260405f2091165f5260205260405f208054906001810154906002810154600382015460048301549160ff600660058601549501541694604051968752602087015260408601526060850152608084015260a0830152151560c0820152f35b3461026257602036600319011261026257610140906001600160a01b039081610e44612a45565b165f52600160205260405f20918254169160018101549160028201546003830154600484015460058501549060068601549260ff6007880154169460096008890154980154986040519a8b5260208b015260408a01526060890152608088015260a087015260c0860152151590840152610100830152610120820152f35b34610262575f366003190112610262576011546040516001600160a01b039091168152602090f35b34610262575f366003190112610262576020600e54604051908152f35b34610262575f366003190112610262576020600d54604051908152f35b3461026257602036600319011261026257600435610f40612d47565b6201518081101580610f8f575b15610f5757600f55005b60405162461bcd60e51b815260206004820152601060248201526f24b73b30b634b21031b7b7b63237bbb760811b6044820152606490fd5b5062278d00811115610f4d565b34610262575f3660031901126102625760206040515f8152f35b3461026257608036600319011261026257606435602435600435610fd8612d47565b6103e8811161106a576107d0821161103557612710831161100457600855600955604435600a55600b55005b60405162461bcd60e51b81526020600482015260096024820152684d6178203e3130302560b81b6044820152606490fd5b60405162461bcd60e51b815260206004820152600d60248201526c526566657272616c203e32302560981b6044820152606490fd5b60405162461bcd60e51b815260206004820152600c60248201526b54726164696e67203e31302560a01b6044820152606490fd5b346102625760203660031901126102625760206001600160a01b03806110c2612a45565b165f526003825260405f205416604051908152f35b34610262575f366003190112610262576020600c54604051908152f35b3461026257602080600319360112610262576004356111116132e5565b600d5481101561131757805f526006825260405f20916004830192335f5283825260ff60405f2054166112e857805480156112bb576010546040516370a0823160e01b815233600482015291908490839060249082906001600160a01b03165afa9182156103b8575f9261128c575b50811561125b5761119f9161119491612cc2565b600383015490612ca4565b9384156112235790600291335f52835260405f20600160ff198254161790556005810183528460405f2055016111d6848254612c29565b90555f808080863382f1156103b8577fa1594d215a577c1905bcb0b5b186a40a0104714277441d4b2ac428c89bf7f4b1906040519384523393a360015f805160206136c983398151915255005b60405162461bcd60e51b815260048101849052601060248201526f16995c9bc8195b9d1a5d1b195b595b9d60821b6044820152606490fd5b60405162461bcd60e51b81526004810185905260096024820152684e6f20746f6b656e7360b81b6044820152606490fd5b9091508381813d83116112b4575b6112a48183612afe565b8101031261026257519086611180565b503d61129a565b60405162461bcd60e51b8152600481018490526005602482015264456d70747960d81b6044820152606490fd5b60405162461bcd60e51b815260048101839052600760248201526610db185a5b595960ca1b6044820152606490fd5b60405162461bcd60e51b815260048101839052600a602482015269125b9d985b1a5908125160b21b6044820152606490fd5b34610262575f366003190112610262576020600b54604051908152f35b34610262576020366003190112610262576004355f52600760205260405f2080546113c56001830154926113a1600360028301549201612b20565b90604051948594855260208501526040840152608060608401526080830190612bc2565b0390f35b34610262576040366003190112610262576113e2612a5b565b6004355f525f8051602061368983398151915260205260405f209060018060a01b03165f52602052602060ff60405f2054166040519015158152f35b346102625760a036600319011261026257611437612a45565b6024359060443590611447612d47565b6001600160a01b0390811693841561162d57845f526020916001835260ff600760405f200154166115fa5784156115c65762093a80841015806115b8575b15611580579183916009877f4bb0b7a65c603fe354b02f9123ffa47ad0fb38ebd2b03c85f9516cd86efbac2697956114bf60409842612c29565b8851946114cb86612ac5565b838652868601918983528a87015f81526060880142815260808901915f835260a08a0193845260c08a01948c86528a0195600187526101008b019760643589526101208c01996084358b525f5260018d528f5f209b51166001600160601b0360a01b8c5416178b555160018b01555160028a0155516003890155516004880155516005870155516006860155600785019051151560ff80198354169116179055516008840155519101558351928352820152a2005b60405162461bcd60e51b815260048101849052601060248201526f24b73b30b634b210323ab930ba34b7b760811b6044820152606490fd5b506301e13380841115611485565b60405162461bcd60e51b815260048101849052600c60248201526b496e76616c6964207261746560a01b6044820152606490fd5b60405162461bcd60e51b815260048101849052600b60248201526a506f6f6c2065786973747360a81b6044820152606490fd5b60405162461bcd60e51b815260206004820152600d60248201526c24b73b30b634b2103a37b5b2b760991b6044820152606490fd5b34610262575f3660031901126102625761167a612d47565b611682612f7b565b5f805160206136a9833981519152600160ff198254161790557f62e78cea01bee320cd4e420270b5ea74000d11b0c9f74754ebdbfc544b05a2586020604051338152a1005b34610262575f366003190112610262576116df612da2565b5f8080804780156116f08115612d12565b8290611701575b3390f1156103b857005b506108fc6116f7565b34610262576020366003190112610262576004355f526006602052608060405f208054906001810154906003600282015491015491604051938452602084015260408301526060820152f35b34610262575f366003190112610262576020600f54604051908152f35b346102625760403660031901126102625761178c612a45565b6024356117976132e5565b61179f612f7b565b6117aa811515612cd5565b60018060a01b03821691825f5260206001815260405f209160ff6007840154161561192c57600883015484106118f7576117e5903390612e26565b6040516323b872dd60e01b8152336004820152306024820152604481018490529181836064815f895af19081156103b8577f70e256e9264f1aa014ac7f20b4a16618647d26695e23c7181ee67a22c37e7521936002926118da575b50335f5281835260405f20865f52835260405f2061185f868254612c29565b8155600381018054156118d1575b5060044291015501611880848254612c29565b90556118b560405161189181612ae2565b60078152665354414b494e4760c81b83820152670de0b6b3a7640000850433612fa5565b6040519283523392a360015f805160206136c983398151915255005b4290558761186d565b6118f090843d8611610516576105078183612afe565b5086611840565b60405162461bcd60e51b815260048101839052600d60248201526c42656c6f77206d696e696d756d60981b6044820152606490fd5b60405162461bcd60e51b815260048101839052600d60248201526c506f6f6c20696e61637469766560981b6044820152606490fd5b34610262575f3660031901126102625760206040517f5719df9ef2c4678b547f89e4f5ae410dbf400fc51cf3ded434c55f6adea2c43f8152f35b34610262576040366003190112610262576119b4612a45565b90602435906119c1612f7b565b335f526020906002825260405f209360018060a01b0380911694855f52835260405f209184835410611af857611a7a91600961012092885f526001875260405f209060405193611a1085612ac5565b8254168452600182015488850152600282015460408501526003820154606085015260048201546080850152600582015460a0850152600682015460c085015260ff6007830154161515908401526008810154610100840152015491829101526004830154612c29565b4210611ac257426005820155600601805460ff1916600117905560405191825233917f29e5c34529a155fb355cdebf281f1944fe4bc7a3c7ae1d5bb0ba0589bac4105d9190a3005b60405162461bcd60e51b815260048101839052600e60248201526d131bd8dadd5c081b9bdd081b595d60921b6044820152606490fd5b60405162461bcd60e51b8152600481018590526013602482015272125b9cdd59999a58da595b9d081cdd185ad959606a1b6044820152606490fd5b3461026257602036600319011261026257611b4c612a45565b611b54612d47565b6001600160a01b03165f908152600160205260409020600701805460ff19169055005b34610262575f3660031901126102625760206040517f0d12a8904e05dd8284d2f53d2272cabbacb009999d0c1d26a37d0b3aaea3d5e98152f35b34610262575f36600319011261026257602060ff5f805160206136a983398151915254166040519015158152f35b34610262575f366003190112610262576020600854604051908152f35b34610262575f36600319011261026257611c14612d47565b5f805160206136a9833981519152805460ff811615611c5f5760ff191690557f5db9ee0a495bf2e6ff9c91a7834c1ba4fdd244a5e8aa4e537bd38aeae4b073aa6020604051338152a1005b604051638dfc202b60e01b8152600490fd5b3461026257604036600319011261026257611c8a612a45565b335f9081527f021e7b47d957252238e482ce63807c8c87d29d066c819e84063657a50c13de006020908152604090912054602435907f5719df9ef2c4678b547f89e4f5ae410dbf400fc51cf3ded434c55f6adea2c43f9060ff1615611dec5750611cf2612f7b565b8015611db6577f08d1f495853eafcc6222c862f0aa110e89b641503be9d41068011d8136dbf5a391604091611d40612710611d2f60085484612cc2565b04611d3a8188613314565b90612c29565b91611dab60018060a01b03871696875f525f8352855f2060038101611d66878254612c29565b9055611d73868254612c29565b8155600742910155855190611d8782612ae2565b600782526654524144494e4760c81b84830152670de0b6b3a7640000850490612fa5565b8351928352820152a2005b60405162461bcd60e51b815260048101839052600e60248201526d496e76616c696420766f6c756d6560901b6044820152606490fd5b6044906040519063e2517d3f60e01b82523360048301526024820152fd5b34610262575f36600319011261026257611e226132e5565b611e2a612f7b565b335f5260205f815260405f20908154906001830191611e4b83548092612c97565b93841561208b57611e5c8533613314565b93611e7186611e6b8782612c29565b94612c29565b9055426006820155600742910155611eb3604051611e8e81612ae2565b6008815267434c41494d494e4760c01b84820152670de0b6b3a7640000860433612fa5565b6010546040516370a0823160e01b81523060048201526001600160a01b039291831691908481602481865afa80156103b85782915f9161205a575b501061201e5760405163a9059cbb60e01b81523360048201526024810191909152908390829060449082905f905af180156103b857612001575b50335f526003825260405f20541680611f7f575b506040519283528201527fdacbdde355ba930696a362ea6738feb9f8bd52dfb3d81947558fd3217e23e32560403392a260015f805160206136c983398151915255005b612710611fa681611f9260095488612cc2565b046040611f9e85613543565b015190612cc2565b0490805f525f835260405f2060048101611fc1848254612c29565b9055611fce838254612c29565b90556040519182527fe05841e5a327956f4a370d19d6e54c700a6b2638644182706f8ac8738c35fb8a833393a383611f3c565b61201790833d8511610516576105078183612afe565b5084611f28565b60405162461bcd60e51b8152600481018590526014602482015273496e73756666696369656e74207265776172647360601b6044820152606490fd5b809250868092503d8311612084575b6120738183612afe565b810103126102625781905188611eee565b503d612069565b60405162461bcd60e51b815260048101849052600a6024820152694e6f207265776172647360b01b6044820152606490fd5b34610262576040366003190112610262576120d6612a5b565b336001600160a01b038216036120f25761001a90600435613266565b60405163334bd91960e11b8152600490fd5b346102625760208060031936011261026257600435612121612da2565b6010546040516370a0823160e01b81523060048201526001600160a01b03909116918382602481865afa80156103b85784925f916121bd575b50928161216d5f95612197941115612c5c565b60405163a9059cbb60e01b8152336004820152602481019190915293849283919082906044820190565b03925af180156103b8576121a757005b8161001a92903d10610516576105078183612afe565b8381939492503d83116121e9575b6121d58183612afe565b81010312610262575183919061219761215a565b503d6121cb565b346102625760403660031901126102625761001a60043561220f612a5b565b90805f525f80516020613689833981519152602052612234600160405f200154612df8565b6131f6565b3461026257602036600319011261026257612252612a45565b61225a612d47565b6001600160a01b03165f908152600160208190526040909120600701805460ff19169091179055005b34610262576020366003190112610262576004355f525f805160206136898339815191526020526020600160405f200154604051908152f35b3461026257602080600319360112610262576122d6612a45565b906122df612f7b565b335f9081526003825260409020546001600160a01b03929083166124ec5782169133831415806124e3575b156124ab57335f526003825260405f20836001600160601b0360a01b825416179055825f526004825260405f20805468010000000000000000811015610b085761235991600182018155612c00565b819291549060031b9133831b921b1916179055815f526005815260405f206123818154612c36565b905560405161238f81612ae2565b600f81526e0524546455252414c5f5349474e555608c1b82820152335f525f8252600560405f2001805490600a8201809211612497575560405190600a82526040838301527f32ce466dc1ef82345235d4849266ffcd8c820841f282b6f30b80a00d22dfc6b882819361240733946040830190612bc2565b0390a26040519161241783612ae2565b600e83526d524546455252414c5f424f4e555360901b81840152835f525f8152600560405f2001908154916014830180931161249757859460409361246d92558351938493601485528401526040830190612bc2565b0390a2337f5f1ca2fcc108b751843a763e60d2201f593516109d7dbb1b700468f2d4190bb75f80a3005b634e487b7160e01b5f52601160045260245ffd5b60405162461bcd60e51b815260048101839052601060248201526f24b73b30b634b2103932b332b93932b960811b6044820152606490fd5b5082151561230a565b60405162461bcd60e51b815260048101839052601060248201526f105b1c9958591e481c9959995c9c995960821b6044820152606490fd5b3461026257602036600319011261026257600435612540612d47565b80156125a5576010546040516323b872dd60e01b81523360048201523060248201526044810192909252602090829060649082905f906001600160a01b03165af180156103b85761258d57005b61001a9060203d602011610516576105078183612afe565b60405162461bcd60e51b8152602060048201526007602482015266125b9d985b1a5960ca1b6044820152606490fd5b346102625760803660031901126102625760243560043560443567ffffffffffffffff60643511610262573660236064350112156102625767ffffffffffffffff606435600401351161026257366024606435600401356064350101116102625761263d612d47565b81156128525761138883116128225761271081106127f357600390612663600e54612c36565b9384600e556040519361267585612aa9565b8452602084015260408301908152604051936126a16020601f19601f6064356004013501160186612afe565b60643560048101358087529060240160208701375f60206064356004013587010152606084019485525f52600760205260405f209083518255602060019401518483015551600282015501915180519067ffffffffffffffff8211610b085761270a8454612a71565b601f81116127ab575b50602090601f831160011461274e579282939183925f94612743575b50501b915f199060031b1c19161790555f80f35b01519250858061272f565b90601f19831691855f528360205f20935f5b878282106127925750501061277a575b505050811b019055005b01515f1960f88460031b161c19169055838080612770565b8486015187559095019460209485019487935001612760565b845f5260205f20601f840160051c810191602085106127e9575b601f0160051c019084905b8281106127de575050612713565b5f81550184906127d0565b90915081906127c5565b60405162461bcd60e51b8152602060048201526007602482015266546f6f206c6f7760c81b6044820152606490fd5b60405162461bcd60e51b81526020600482015260086024820152670a8dede40d0d2ced60c31b6044820152606490fd5b60405162461bcd60e51b815260206004820152600b60248201526a24b73b30b634b21036b4b760a91b6044820152606490fd5b3461026257602036600319011261026257610100906001600160a01b036128aa612a45565b165f525f60205260405f20805491600182015491600281015460038201546004830154906005840154926007600686015495015496604051988952602089015260408801526060870152608086015260a085015260c0840152820152f35b3461026257606036600319011261026257612921612a45565b60243590604435612930612d47565b60018060a01b03821692835f52600160205260405f209160ff600784015416156129c25760066020937f437ef08da8ce6af61a16451ac1f95451af5c76339f901089861dd6e01d49c7bc95875f5260018652600361299f60405f2092612995816133be565b60048501556134ab565b9101558360018201556129b28342612c29565b60058201550155604051908152a2005b60405162461bcd60e51b8152602060048201526008602482015267496e61637469766560c01b6044820152606490fd5b34610262576020366003190112610262576004359063ffffffff60e01b821680920361026257602091637965db0b60e01b8114908115612a34575b5015158152f35b6301ffc9a760e01b14905083612a2d565b600435906001600160a01b038216820361026257565b602435906001600160a01b038216820361026257565b90600182811c92168015612a9f575b6020831014612a8b57565b634e487b7160e01b5f52602260045260245ffd5b91607f1691612a80565b6080810190811067ffffffffffffffff821117610b0857604052565b610140810190811067ffffffffffffffff821117610b0857604052565b6040810190811067ffffffffffffffff821117610b0857604052565b90601f8019910116810190811067ffffffffffffffff821117610b0857604052565b9060405191825f8254612b3281612a71565b908184526020946001916001811690815f14612ba05750600114612b62575b505050612b6092500383612afe565b565b5f90815285812095935091905b818310612b88575050612b6093508201015f8080612b51565b85548884018501529485019487945091830191612b6f565b92505050612b6094925060ff191682840152151560051b8201015f8080612b51565b91908251928382525f5b848110612bec575050825f602080949584010152601f8019910116010190565b602081830181015184830182015201612bcc565b8054821015612c15575f5260205f2001905f90565b634e487b7160e01b5f52603260045260245ffd5b9190820180921161249757565b5f1981146124975760010190565b90816020910312610262575180151581036102625790565b15612c6357565b60405162461bcd60e51b815260206004820152600c60248201526b125b9cdd59999a58da595b9d60a21b6044820152606490fd5b9190820391821161249757565b8115612cae570490565b634e487b7160e01b5f52601260045260245ffd5b8181029291811591840414171561249757565b15612cdc57565b60405162461bcd60e51b815260206004820152600e60248201526d125b9d985b1a5908185b5bdd5b9d60921b6044820152606490fd5b15612d1957565b60405162461bcd60e51b815260206004820152600660248201526509cde408aa8960d31b6044820152606490fd5b335f9081527f8914f631eb70926f38b176b6db1e877a4b16f8569fc385b91a9c4c8358b5af8e60205260409020547f0d12a8904e05dd8284d2f53d2272cabbacb009999d0c1d26a37d0b3aaea3d5e99060ff1615611dec5750565b335f9081527fb7db2dd08fcb62d0c9e08c51941cae53c267786a0b75803fb7960902fc8ef97d602052604090205460ff1615612dda57565b60405163e2517d3f60e01b81523360048201525f6024820152604490fd5b805f525f8051602061368983398151915260205260405f20335f5260205260ff60405f20541615611dec5750565b9060018060a01b0380831690815f5260209060018252604090815f2094612e4c876133be565b95600481019687556003612e5f896134ab565b910155169182612e72575b505050505050565b825f5260028152815f20845f528152815f2093835f5260028252825f20905f528152815f209082519360e085019285841067ffffffffffffffff851117610b085784670de0b6b3a7640000612f31612f3a93612f2b87612f235f9f5f9b9d612f679e895260c060ff6006885498898552600181015497850197885260028101549c85019c8d526003810154606086015260048101546080860152600581015460a086015201541615159101526133be565b905190612c97565b90612cc2565b04905190612c29565b9560016002820198888a555491015582525284209160028301612f5e828254612c29565b90558254612c29565b8155600742910155555f8080808080612e6a565b60ff5f805160206136a98339815191525416612f9357565b60405163d93c066560e01b8152600490fd5b90918215613014577f32ce466dc1ef82345235d4849266ffcd8c820841f282b6f30b80a00d22dfc6b89160018060a01b031692835f525f602052600560405f2001612ff1828254612c29565b905561300f6040519283928352604060208401526040830190612bc2565b0390a2565b505050565b6001600160a01b03165f8181527fb7db2dd08fcb62d0c9e08c51941cae53c267786a0b75803fb7960902fc8ef97d60205260409020545f805160206136898339815191529060ff1661309d575f805260205260405f20815f5260205260405f20600160ff1982541617905533905f5f805160206136698339815191528180a4600190565b50505f90565b6001600160a01b03165f8181527f8914f631eb70926f38b176b6db1e877a4b16f8569fc385b91a9c4c8358b5af8e60205260409020547f0d12a8904e05dd8284d2f53d2272cabbacb009999d0c1d26a37d0b3aaea3d5e991905f805160206136898339815191529060ff1661314957825f5260205260405f20815f5260205260405f20600160ff1982541617905533915f805160206136698339815191525f80a4600190565b5050505f90565b6001600160a01b03165f8181527f021e7b47d957252238e482ce63807c8c87d29d066c819e84063657a50c13de0060205260409020547f5719df9ef2c4678b547f89e4f5ae410dbf400fc51cf3ded434c55f6adea2c43f91905f805160206136898339815191529060ff1661314957825f5260205260405f20815f5260205260405f20600160ff1982541617905533915f805160206136698339815191525f80a4600190565b90815f525f805160206136898339815191528060205260405f209160018060a01b031691825f5260205260ff60405f205416155f1461314957825f5260205260405f20815f5260205260405f20600160ff1982541617905533915f805160206136698339815191525f80a4600190565b90815f525f805160206136898339815191528060205260405f209160018060a01b031691825f5260205260ff60405f2054165f1461314957825f5260205260405f20815f5260205260405f2060ff19815416905533917ff6391f5c32d9c69d2a47ea670b442974b53935d1edc7fd64eb21e047a839171b5f80a4600190565b5f805160206136c983398151915260028154146133025760029055565b604051633ee5aeb560e01b8152600490fd5b60018060a01b03165f525f60205260405f20604051610100810181811067ffffffffffffffff821117610b0857604052815481526001820154602082015260028201546040820152600382015460608201526004820154608082015260e060076005840154938460a0850152600681015460c08501520154910152801561309d57606491826133b292049083600b54048083116133b6575b50612cc2565b0490565b91505f6133ac565b60018060a01b03908181165f52600160205260405f20604051926133e184612ac5565b81541683526001810154916020840192835260028201549060408501948286526003840154926060820193845260048501549161012060096080830197858952600581015460a0850152600681015460c085015260ff600782015416151560e085015260088101546101008501520154910152156134a257506134759291612f2361346b926134ab565b9051925190612cc2565b91670de0b6b3a7640000928381029381850414901517156124975761349f92611d3a915190612ca4565b90565b94505050505090565b60018060a01b038091165f52600160205260405f2090604051906134ce82612ac5565b82541681526001820154602082015260028201546040820152600382015460608201526004820154608082015261012060096005840154938460a0850152600681015460c085015260ff600782015416151560e0850152600881015461010085015201549101528042105f1461349f57504290565b6040805161355081612aa9565b5f81526020925f848301525f838301526060808093015260018060a01b03165f5260058352815f2054600e54805b6135c75750505060036135bf9160015f5260078452805f20908051946135a386612aa9565b8254865260018301549086015260028201549085015201612b20565b606082015290565b805f5260078552835f20805490818410156135ed5750508015612497575f19018061357e565b9150946003925093613620939481519661360688612aa9565b875260018301549087015260028201549086015201612b20565b9082015290565b60ff7ff0c57e16840df040f15088dc2f81fe391c3923bec73e23a9662efc9c229c6a005460401c161561365657565b604051631afcd79f60e31b8152600490fdfe2f8788117e7eff1d82e926ec794901d17c78024a50270940304540a733656f0d02dd7bc7dec4dceedda775e58dd541e08a116c6c53815c0bd028192f7b626800cd5ed15c6e187e77e9aee88184c21f4f2182ab5827cb3b7e07fbedcd63f033009b779b17422d0df92223018b32b4d1fa46e071723d6817e2486d003becc55f00a2646970667358221220dc132253a7b166fe0ff7fd666d95d30ab99389ac603f9823d5c19b9b3bef256a64736f6c63430008160033","linkReferences":{}},"methodIdentifiers":{"DEFAULT_ADMIN_ROLE()":"a217fddf","REWARD_ADMIN_ROLE()":"65db6818","SYSTEM_ROLE()":"75071d2a","addReferralTier(uint256,uint256,uint256,string)":"12144434","auditTrail()":"aba02c1f","awardTradingRewards(address,uint256)":"392c2637","claimDividend(uint256)":"9abd3572","claimRewards()":"372500ab","createStakingPool(address,uint256,uint256,uint256,uint256)":"891f767f","depositRewardTokens(uint256)":"16c621e0","distributeDividend()":"f6ef8f0a","dividends(uint256)":"814b3fe0","emergencyWithdrawETH()":"84536017","emergencyWithdrawRewardTokens(uint256)":"2f79e10d","getRoleAdmin(bytes32)":"248a9ca3","grantRole(bytes32,address)":"2f2ff15d","hasRole(bytes32,address)":"91d14854","initialize(address,address,address)":"c0c53b8b","loyaltyMultiplier()":"d5729465","maxLoyaltyBonus()":"95b867e7","nextDividendId()":"aa8241a7","pause()":"8456cb59","pauseStakingPool(address)":"68a6dacc","paused()":"5c975abb","referees(address,uint256)":"f7509c48","referralCounts(address)":"cec297a0","referralRewardRate()":"fe4ad446","referralTiers(uint256)":"93e2d3b4","referrals(address)":"9ca423b3","registerReferral(address)":"209ab711","renounceRole(bytes32,address)":"36568abe","requestUnstake(address,uint256)":"710ba631","revokeRole(bytes32,address)":"d547741f","rewardToken()":"f7c618c1","rewardTokenDecimals()":"9bdcecd1","setRewardRates(uint256,uint256,uint256,uint256)":"a09fb7e7","setUnstakeCooldown(uint256)":"a3158b53","stakeTokens(address,uint256)":"79a83f5a","stakingPools(address)":"ad935e97","supportsInterface(bytes4)":"01ffc9a7","totalReferralTiers()":"ab311d3a","tradingRewardRate()":"40d5e8b9","unpause()":"3f4ba83a","unpauseStakingPool(address)":"2a31bce9","unstakeCooldown()":"7eefd5ae","unstakeTokens(address,uint256)":"e89a173e","updateStakingPool(address,uint256,uint256)":"03930624","userRewards(address)":"0660f1e8","userStaking(address,address)":"c0b62641"},"id":8}