{"abi":[{"type":"constructor","inputs":[{"name":"router","type":"address","internalType":"address"},{"name":"_donId","type":"bytes32","internalType":"bytes32"},{"name":"_subscriptionId","type":"uint64","internalType":"uint64"},{"name":"_assetTokenizer","type":"address","internalType":"address"}],"stateMutability":"nonpayable"},{"type":"function","name":"acceptOwnership","inputs":[],"outputs":[],"stateMutability":"nonpayable"},{"type":"function","name":"assetTokenizer","inputs":[],"outputs":[{"name":"","type":"address","internalType":"contract IAssetTokenizer"}],"stateMutability":"view"},{"type":"function","name":"donId","inputs":[],"outputs":[{"name":"","type":"bytes32","internalType":"bytes32"}],"stateMutability":"view"},{"type":"function","name":"gasLimit","inputs":[],"outputs":[{"name":"","type":"uint32","internalType":"uint32"}],"stateMutability":"view"},{"type":"function","name":"handleOracleFulfillment","inputs":[{"name":"requestId","type":"bytes32","internalType":"bytes32"},{"name":"response","type":"bytes","internalType":"bytes"},{"name":"err","type":"bytes","internalType":"bytes"}],"outputs":[],"stateMutability":"nonpayable"},{"type":"function","name":"owner","inputs":[],"outputs":[{"name":"","type":"address","internalType":"address"}],"stateMutability":"view"},{"type":"function","name":"requestAssetVerification","inputs":[{"name":"assetId","type":"uint256","internalType":"uint256"},{"name":"propertyAddress","type":"string","internalType":"string"},{"name":"propertyType","type":"string","internalType":"string"},{"name":"squareFootage","type":"uint256","internalType":"uint256"},{"name":"encryptedSecrets","type":"string","internalType":"string"}],"outputs":[{"name":"requestId","type":"bytes32","internalType":"bytes32"}],"stateMutability":"nonpayable"},{"type":"function","name":"requests","inputs":[{"name":"","type":"bytes32","internalType":"bytes32"}],"outputs":[{"name":"assetId","type":"uint256","internalType":"uint256"},{"name":"propertyAddress","type":"string","internalType":"string"},{"name":"propertyType","type":"string","internalType":"string"},{"name":"squareFootage","type":"uint256","internalType":"uint256"},{"name":"requester","type":"address","internalType":"address"},{"name":"fulfilled","type":"bool","internalType":"bool"}],"stateMutability":"view"},{"type":"function","name":"source","inputs":[],"outputs":[{"name":"","type":"string","internalType":"string"}],"stateMutability":"view"},{"type":"function","name":"subscriptionId","inputs":[],"outputs":[{"name":"","type":"uint64","internalType":"uint64"}],"stateMutability":"view"},{"type":"function","name":"transferOwnership","inputs":[{"name":"to","type":"address","internalType":"address"}],"outputs":[],"stateMutability":"nonpayable"},{"type":"event","name":"OwnershipTransferRequested","inputs":[{"name":"from","type":"address","indexed":true,"internalType":"address"},{"name":"to","type":"address","indexed":true,"internalType":"address"}],"anonymous":false},{"type":"event","name":"OwnershipTransferred","inputs":[{"name":"from","type":"address","indexed":true,"internalType":"address"},{"name":"to","type":"address","indexed":true,"internalType":"address"}],"anonymous":false},{"type":"event","name":"RequestFulfilled","inputs":[{"name":"id","type":"bytes32","indexed":true,"internalType":"bytes32"}],"anonymous":false},{"type":"event","name":"RequestSent","inputs":[{"name":"id","type":"bytes32","indexed":true,"internalType":"bytes32"}],"anonymous":false},{"type":"event","name":"VerificationFulfilled","inputs":[{"name":"requestId","type":"bytes32","indexed":true,"internalType":"bytes32"},{"name":"assetId","type":"uint256","indexed":true,"internalType":"uint256"},{"name":"valuation","type":"uint256","indexed":false,"internalType":"uint256"}],"anonymous":false},{"type":"event","name":"VerificationRequested","inputs":[{"name":"requestId","type":"bytes32","indexed":true,"internalType":"bytes32"},{"name":"assetId","type":"uint256","indexed":true,"internalType":"uint256"},{"name":"propertyAddress","type":"string","indexed":false,"internalType":"string"}],"anonymous":false},{"type":"error","name":"EmptyArgs","inputs":[]},{"type":"error","name":"EmptySecrets","inputs":[]},{"type":"error","name":"EmptySource","inputs":[]},{"type":"error","name":"NoInlineSecrets","inputs":[]},{"type":"error","name":"OnlyRouterCanFulfill","inputs":[]}],"bytecode":{"object":"0x60a0346200056d576001600160401b03601f620025b838819003918201601f19168401918383118584101762000571578085926080946040528339810103126200056d576200004e8262000585565b9160208101519060408101519283168093036200056d57606062000073910162000585565b6001600160a01b03909316608052331562000528575f80546001600160a01b031916331790556003805463ffffffff60401b19166a0493e000000000000000001790556005805460019080821c90821680156200051d575b60208210146200050957601f8111620004db575b5050601881610623703536286176657261676556616c7565293b60781b9355805f527f3a2f2f6170692e7a696c6c6f772e636f6d2f76616c756174696f6e2f247b707260205f20917f636f6e73742070726f706572747941646472657373203d20617267735b305d3b83557f636f6e73742070726f706572747954797065203d20617267735b315d3b636f6e60018401557f737420737175617265466f6f74616765203d20617267735b325d3b636f6e737460028401557f207a696c6c6f77526573706f6e7365203d2061776169742046756e6374696f6e60038401557f732e6d616b654874747052657175657374287b202075726c3a2060687474707360048401558201557f6f7065727479416464726573737d602c2020686561646572733a207b2027582d60068201557f4150492d4b4559273a20736563726574732e7a696c6c6f774b6579207d7d293b60078201557f636f6e7374207265616c746f72526573706f6e7365203d20617761697420467560088201557f6e6374696f6e732e6d616b654874747052657175657374287b202075726c3a2060098201557f6068747470733a2f2f6170692e7265616c746f722e636f6d2f70726f70657274600a8201557f6965732f247b70726f7065727479416464726573737d602c2020686561646572600b8201557f733a207b2027417574686f72697a6174696f6e273a206042656172657220247b600c8201557f736563726574732e7265616c746f724b65797d60207d7d293b636f6e7374207a600d8201557f696c6c6f7756616c7565203d207a696c6c6f77526573706f6e73652e64617461600e8201557f2e657374696d6174653b636f6e7374207265616c746f7256616c7565203d2072600f8201557f65616c746f72526573706f6e73652e646174612e76616c75653b636f6e73742060108201557f6176657261676556616c7565203d204d6174682e666c6f6f7228287a696c6c6f60118201557f7756616c7565202b207265616c746f7256616c756529202f2032293b636f6e7360128201557f7420766572696669656453714674203d207a696c6c6f77526573706f6e73652e60138201557f646174612e737175617265466f6f746167653b636f6e73742070726f7065727460148201557f79457869737473203d207a696c6c6f77526573706f6e73652e646174612e657860158201557f69737473202626207265616c746f72526573706f6e73652e646174612e65786960168201557f7374733b72657475726e2046756e6374696f6e732e656e636f646555696e7432601782015501556002556bffffffff00000000000000006003549260018060601b03199060601b169216171760035560405161201d90816200059b8239608051818181610242015261143c0152f35b825f526019601f60205f209201841c820191015b818110620004fe5750620000df565b5f81558201620004ef565b634e487b7160e01b5f52602260045260245ffd5b90607f1690620000cb565b60405162461bcd60e51b815260206004820152601860248201527f43616e6e6f7420736574206f776e657220746f207a65726f00000000000000006044820152606490fd5b5f80fd5b634e487b7160e01b5f52604160045260245ffd5b51906001600160a01b03821682036200056d5756fe60806040526004361015610011575f80fd5b5f3560e01c806309c1ba2e146100c45780630ca76175146100bf57806352d91f9c146100ba57806367e828bf146100b557806379ba5097146100b05780637cd130e2146100ab5780638da5cb5b146100a65780638dbe7b9d146100a15780639d8669851461009c578063f2fde38b146100975763f68016b714610092575f80fd5b61081d565b61072a565b610693565b610676565b61064f565b6105c3565b6104de565b6104ab565b6102b2565b6101f3565b6100d7565b5f9103126100d357565b5f80fd5b346100d3575f3660031901126100d35760206001600160401b0360035416604051908152f35b634e487b7160e01b5f52604160045260245ffd5b6001600160401b03811161012457604052565b6100fd565b604081019081106001600160401b0382111761012457604052565b90601f801991011681019081106001600160401b0382111761012457604052565b6040519060c082018281106001600160401b0382111761012457604052565b6001600160401b03811161012457601f01601f191660200190565b9291926101ab82610184565b916101b96040519384610144565b8294818452818301116100d3578281602093845f960137010152565b9080601f830112156100d3578160206101f09335910161019f565b90565b346100d35760603660031901126100d3576004356001600160401b036024358181116100d3576102279036906004016101d5565b906044359081116100d3576102409036906004016101d5565b7f00000000000000000000000000000000000000000000000000000000000000006001600160a01b031633036102a05761027a9183610ddc565b7f85e1543bf2f84fe80c6badbce3648c8539ad1df4d2b3d822938ca0538be727e65f80a2005b60405163c6829f8360e01b8152600490fd5b346100d3575f3660031901126100d357602060035460601c604051908152f35b90600182811c92168015610300575b60208310146102ec57565b634e487b7160e01b5f52602260045260245ffd5b91607f16916102e1565b604051905f826005549161031d836102d2565b808352926020906001908181169081156103a9575060011461034a575b505061034892500383610144565b565b91509260055f527f036b6384b5eca791c62761152d0c79bb0604c104a5fb6f4eb0703f3154bb3db0935f925b82841061039157506103489450505081016020015f8061033a565b85548885018301529485019487945092810192610376565b9150506020925061034894915060ff191682840152151560051b8201015f8061033a565b9060405191825f82546103df816102d2565b908184526020946001916001811690815f1461044b575060011461040d575b50505061034892500383610144565b5f90815285812095935091905b81831061043357505061034893508201015f80806103fe565b8554888401850152948501948794509183019161041a565b9250505061034894925060ff191682840152151560051b8201015f80806103fe565b91908251928382525f5b848110610497575050825f602080949584010152601f8019910116010190565b602081830181015184830182015201610477565b346100d3575f3660031901126100d3576104da6104c661030a565b60405191829160208352602083019061046d565b0390f35b346100d3575f3660031901126100d3576001546001600160a01b039081163303610558575f546001600160a01b03165f80546001600160a01b0319163317905590600180546001600160a01b03191690553391167f8be0079c531659141344cd1fd0a4f28419497f9722a3daafe3b4186f6b6457e05f80a3005b60405162461bcd60e51b815260206004820152601660248201527526bab9ba10313290383937b837b9b2b21037bbb732b960511b6044820152606490fd5b9181601f840112156100d3578235916001600160401b0383116100d357602083818601950101116100d357565b346100d35760a03660031901126100d3576001600160401b036024358181116100d3576105f4903690600401610596565b91906044358281116100d35761060e903690600401610596565b9390916084359384116100d3576104da9461063061063f953690600401610596565b94909360643593600435610bc0565b6040519081529081906020820190565b346100d3575f3660031901126100d3575f546040516001600160a01b039091168152602090f35b346100d3575f3660031901126100d3576020600254604051908152f35b346100d35760203660031901126100d3576004355f52600460205260405f2080546106c0600183016103cd565b9160ff6106cf600283016103cd565b61070760046003850154940154916106f9604051978897885260c0602089015260c088019061046d565b90868203604088015261046d565b92606085015260018060a01b038116608085015260a01c16151560a08301520390f35b346100d35760203660031901126100d3576004356001600160a01b03818116918290036100d3575f54168033036107df5733821461079a57600180546001600160a01b031916831790557fed8889f560326eb138920d842192f0eb3dd22b4f139c87a2c57538e05bae12785f80a3005b60405162461bcd60e51b815260206004820152601760248201527f43616e6e6f74207472616e7366657220746f2073656c660000000000000000006044820152606490fd5b60405162461bcd60e51b815260206004820152601660248201527527b7363c9031b0b63630b1363290313c9037bbb732b960511b6044820152606490fd5b346100d3575f3660031901126100d357602060035463ffffffff6040519160401c168152f35b6040519060e082018281106001600160401b0382111761012457604052606060c0835f81525f60208201525f604082015282808201528260808201528260a08201520152565b60405190608082018281106001600160401b03821117610124576040526003825281905f5b6060808210156108c85790602091828287010152016108ae565b5050909150565b634e487b7160e01b5f52603260045260245ffd5b8051156108f05760200190565b6108cf565b8051600110156108f05760400190565b8051600210156108f05760600190565b80518210156108f05760209160051b010190565b601f821161093657505050565b5f5260205f20906020601f840160051c8301931061096e575b601f0160051c01905b818110610963575050565b5f8155600101610958565b909150819061094f565b91909182516001600160401b0381116101245761099f8161099984546102d2565b84610929565b602080601f83116001146109e0575081906109d19394955f926109d5575b50508160011b915f199060031b1c19161790565b9055565b015190505f806109bd565b90601f198316956109f4855f5260205f2090565b925f905b888210610a2f57505083600195969710610a17575b505050811b019055565b01515f1960f88460031b161c191690555f8080610a0d565b806001859682949686015181550195019301906109f8565b815181556001808201906020808501518051926001600160401b03841161012457610a7c84610a7687546102d2565b87610929565b602092601f8511600114610b1e57505093610b0493610aba8460a0956004956103489a995f926109d55750508160011b915f199060031b1c19161790565b90555b610ace604086015160028301610978565b606085015160038201556080850151910180546001600160a01b0319166001600160a01b03909216919091178155920151151590565b815460ff60a01b191690151560a01b60ff60a01b16179055565b929190601f19851690610b34875f5260205f2090565b945f915b838310610b825750505084600494610348999894610b04989460a09860019510610b6a575b505050811b019055610abd565b01515f1960f88460031b161c191690555f8080610b5d565b848601518755958601959481019491810191610b38565b90918060409360208452816020850152848401375f828201840152601f01601f1916010190565b95938395610cb8610c9784610c92610c8c7fd0401e899bde89595c8f79c8909b730589061c32d4c72c43db738d20571c40d49a610cde9f9e610c858b610c4e610d0b9c9d9e610c32610c10610843565b99610c22610c1c61030a565b8c6114cc565b610c2a610889565b94369161019f565b610c3b846108e3565b52610c45836108e3565b508c369161019f565b610c57826108f5565b52610c61816108f5565b50610c6b8a610f64565b610c7482610905565b52610c7e81610905565b50866110a6565b369161019f565b826110e8565b611219565b600354600254916001600160401b0363ffffffff8360401c169216906113e5565b998a97610cc3610165565b938a8552610cd236898961019f565b6020860152369161019f565b604083015260608201523360808201525f60a0820152610d06865f52600460205260405f2090565b610a47565b610d1a60405192839283610b99565b0390a3565b15610d2657565b60405162461bcd60e51b815260206004820152601960248201527f5265717565737420616c72656164792066756c66696c6c6564000000000000006044820152606490fd5b908160209103126100d3575190565b9192604093610d9a9284526020840152608084840152608083019061046d565b906060818303910152601d81527f436861696e6c696e6b204175746f6d617465642056616c756174696f6e00000060208201520190565b6040513d5f823e3d90fd5b90610def825f52600460205260405f2090565b906004820193610e13610e0e610e0a875460ff9060a01c1690565b1590565b610d1f565b51610f2c57610e2e81602080610e4294518301019101610d6b565b845460ff60a01b1916600160a01b17909455565b610e5d610e5160035460601c90565b6001600160a01b031690565b908054604051610e9981610e8b8760208301602a9169636861696e6c696e6b2d60b01b8252600a8201520190565b03601f198101835282610144565b833b156100d357610ec593865f809460405197889586948593630f66d17b60e21b855260048501610d7a565b03925af1908115610f27577f7e874c947ea413efe3feab4d72c1f0eac4c4f930c28de09fc7e11e8a72028e7192610d1a92610f0e575b5054604051948552939081906020820190565b80610f1b610f2192610111565b806100c9565b5f610efb565b610dd1565b50505050565b90610f3c82610184565b610f496040519182610144565b8281528092610f5a601f1991610184565b0190602036910137565b805f917a184f03e93ff9f4daa797ed6e38ed64bf6a1f01000000000000000080821015611098575b506d04ee2d6d415b85acef810000000080831015611089575b50662386f26fc100008083101561107a575b506305f5e1008083101561106b575b506127108083101561105c575b50606482101561104c575b600a80921015611042575b600190816021610ffb60018701610f32565b95860101905b61100d575b5050505090565b5f19019083906f181899199a1a9b1b9c1cb0b131b232b360811b8282061a83530491821561103d57919082611001565b611006565b9160010191610fe9565b9190606460029104910191610fde565b6004919392049101915f610fd3565b6008919392049101915f610fc6565b6010919392049101915f610fb7565b6020919392049101915f610fa5565b60409350810491505f610f8c565b8151156110b35760a00152565b60405163fe936cb760e01b8152600490fd5b634e487b7160e01b5f52602160045260245ffd5b600311156110e357565b6110c5565b8151156110fc576001602082015260800152565b60405163e889636f60e01b8152600490fd5b6040519061111b82610129565b600c82526b31b7b232a637b1b0ba34b7b760a11b6020830152565b6040519061114382610129565b60088252676c616e677561676560c01b6020830152565b600111156110e357565b6040519061117182610129565b6006825265736f7572636560d01b6020830152565b6040519061119382610129565b60048252636172677360e01b6020830152565b604051906111b382610129565b600f82526e39b2b1b932ba39a637b1b0ba34b7b760891b6020830152565b604051906111de82610129565b60078252667365637265747360c81b6020830152565b6040519061120182610129565b600982526862797465734172677360b81b6020830152565b61122161150d565b9061123361122d61110e565b8361155a565b6112508151611241816110d9565b61124a816110d9565b8361161c565b61125b61122d611136565b611275604082015161126c8161115a565b61124a8161115a565b61128061122d611164565b61128e60608201518361155a565b60a0810180515161138d575b50608081019081515161130d575b60c09150018051516112bb575b50515190565b916112c761122d6111f4565b6112d0826116ec565b5f5b835180518210156112fa57906112f46112ed82600194610915565b5185611813565b016112d2565b5050915061130781611787565b5f6112b5565b60208101805161131c816110d9565b611325816110d9565b1561137b5760c09261135e6113769261134561133f6111a6565b8861155a565b5161134f816110d9565b611358816110d9565b8661161c565b61136f6113696111d1565b8661155a565b5184611813565b6112a8565b60405163a80d31f760e01b8152600490fd5b9261139f611399611186565b8461155a565b6113a8836116ec565b5f5b845180518210156113d257906113cc6113c582600194610915565b518661155a565b016113aa565b505092506113df82611787565b5f61129a565b92906020926001600160401b039263ffffffff611424604051978896879663230e93b160e11b885216600487015260a0602487015260a486019061046d565b6001604486015292166064840152608483015203815f7f00000000000000000000000000000000000000000000000000000000000000006001600160a01b03165af1908115610f27575f9161149d575b50807f1131472297a800fee664d1d89cfa8f7676ff07189ecc53f80bbb5f4969099db85f80a290565b6114bf915060203d6020116114c5575b6114b78183610144565b810190610d6b565b5f611474565b503d6114ad565b8151156114e2575f808252604082015260600152565b6040516322ce3edd60e01b8152600490fd5b6040519061150182610129565b5f602083606081520152565b60405161151981610129565b6115216114f4565b808252602082015f81526115336114f4565b5061010060208301526040518092525f825261012082019182106100d3575f916040525290565b815161159e9291906001600160401b03811690601782116115a1576115899150606060ff845192161790611cf5565b505b51906115956114f4565b50805191611f25565b50565b5060ff81116115c6576115c0906115b88351611afc565b508251611eb1565b5061158b565b61ffff81116115e5576115c0906115dd8351611a97565b508251611e43565b63ffffffff8111611606576115c0906115fe8351611a32565b508251611dd3565b6115c09061161483516119c2565b508251611d60565b908151916116286114f4565b5082515160018101908181116116bd576020850151811015611681575b60c260206103489651928301015380518211611679575b50506040519160208301526020825261167482610129565b611813565b525f8061165c565b8160011b94828604600214831517156116bd576020816116b3610348986116ac60c295519184611897565b50826118e8565b5096505050611645565b634e487b7160e01b5f52601160045260245ffd5b90602082018092116116bd57565b919082018092116116bd57565b8051906116f76114f4565b5081515160018101908181116116bd576020840151811015611745575b609f602080955192830101538051821161173d575b505001805190600182018092116116bd5752565b525f80611729565b8160011b93828504600214831517156116bd5760208161176e82976116ac609f95519184611897565b5095505050611714565b601f198101919082116116bd57565b8051906117926114f4565b5081515160018101908181116116bd5760208401518110156117e0575b60ff60208095519283010153805182116117d8575b50500180515f198101919082116116bd5752565b525f806117c4565b8160011b93828504600214831517156116bd5760208161180982976116ac60ff95519184611897565b50955050506117af565b815161159e9291906001600160401b0381169060178211611842576115899150604060ff845192161790611cf5565b5060ff8111611859576115c0906115b88351611c90565b61ffff8111611870576115c0906115dd8351611c2b565b63ffffffff8111611889576115c0906115fe8351611bc6565b6115c0906116148351611b61565b906118a06114f4565b50601f8116806118ce575b50806020830152604051908183525f825281016020019081106100d35760405290565b602003602081116116bd5781018091116116bd575f6118ab565b906118f16114f4565b508051906118fd6114f4565b5061190b8151831115611f1e565b8251519161191981846116df565b60209260208601518211611995575b60209186518381519782010196821161198d575b505001915b8082101561196557505f19906020036101000a019081199051169082511617905290565b90919261198161197b61198792865181526116d1565b946116d1565b92611778565b90611941565b525f8061193c565b6119a76119a1836119ac565b87611fd0565b611928565b908160011b91808304600214901517156116bd57565b6119ca6114f4565b5080515160018101908181116116bd576020830151811015611a03575b607b602084519283010153805182116119ff57505090565b5290565b8160011b828104600214831517156116bd57611a2c90611a2585519186611897565b50846118e8565b506119e7565b611a3a6114f4565b5080515160018101908181116116bd576020830151811015611a6f575b607a602084519283010153805182116119ff57505090565b8160011b828104600214831517156116bd57611a9190611a2585519186611897565b50611a57565b611a9f6114f4565b5080515160018101908181116116bd576020830151811015611ad4575b6079602084519283010153805182116119ff57505090565b8160011b828104600214831517156116bd57611af690611a2585519186611897565b50611abc565b611b046114f4565b5080515160018101908181116116bd576020830151811015611b39575b6078602084519283010153805182116119ff57505090565b8160011b828104600214831517156116bd57611b5b90611a2585519186611897565b50611b21565b611b696114f4565b5080515160018101908181116116bd576020830151811015611b9e575b605b602084519283010153805182116119ff57505090565b8160011b828104600214831517156116bd57611bc090611a2585519186611897565b50611b86565b611bce6114f4565b5080515160018101908181116116bd576020830151811015611c03575b605a602084519283010153805182116119ff57505090565b8160011b828104600214831517156116bd57611c2590611a2585519186611897565b50611beb565b611c336114f4565b5080515160018101908181116116bd576020830151811015611c68575b6059602084519283010153805182116119ff57505090565b8160011b828104600214831517156116bd57611c8a90611a2585519186611897565b50611c50565b611c986114f4565b5080515160018101908181116116bd576020830151811015611ccd575b6058602084519283010153805182116119ff57505090565b8160011b828104600214831517156116bd57611cef90611a2585519186611897565b50611cb5565b90611cfe6114f4565b5081515160018101918282116116bd576020840151821015611d31575b602084519283010153805182116119ff57505090565b8260011b838104600214841517156116bd57611d5a90611d5386519187611897565b50856118e8565b50611d1b565b90611d696114f4565b508151518060080191826008116116bd5760208401518311611dab575b6008845192830101906001600160401b0319825116179052805182116119ff57505090565b8260011b838104600214841517156116bd57611dcd90611d5386519187611897565b50611d86565b90611ddc6114f4565b508151518060040191826004116116bd5760208401518311611e1b575b60048451928301019063ffffffff19825116179052805182116119ff57505090565b8260011b838104600214841517156116bd57611e3d90611d5386519187611897565b50611df9565b90611e4c6114f4565b508151518060020191826002116116bd5760208401518311611e89575b60028451928301019061ffff19825116179052805182116119ff57505090565b8260011b838104600214841517156116bd57611eab90611d5386519187611897565b50611e69565b90611eba6114f4565b508151518060010191826001116116bd5760208401518311611ef6575b60018451928301019060ff19825116179052805182116119ff57505090565b8260011b838104600214841517156116bd57611f1890611d5386519187611897565b50611ed7565b156100d357565b9190611f2f6114f4565b50611f3d8151831115611f1e565b825151916020611f4d82856116df565b928193828701518111611fb9575b865183815197820101968211611fb1575b505001915b80821015611f9557505f19906020036101000a019081199051169082511617905290565b90919261198161197b611fab92865181526116d1565b90611f71565b525f80611f6c565b611fcb611fc5826119ac565b88611fd0565b611f5b565b9061159e91611fe181519282611897565b506118e856fea26469706673582212203c52a5d61afa2cbf380a934492fc5b42397264271960aace52cdc4a7c3d9703764736f6c63430008160033","linkReferences":{}},"methodIdentifiers":{"acceptOwnership()":"79ba5097","assetTokenizer()":"52d91f9c","donId()":"8dbe7b9d","gasLimit()":"f68016b7","handleOracleFulfillment(bytes32,bytes,bytes)":"0ca76175","owner()":"8da5cb5b","requestAssetVerification(uint256,string,string,uint256,string)":"7cd130e2","requests(bytes32)":"9d866985","source()":"67e828bf","subscriptionId()":"09c1ba2e","transferOwnership(address)":"f2fde38b"},"id":29}