{"abi":[{"type":"function","name":"AUDITOR_ROLE","inputs":[],"outputs":[{"name":"","type":"bytes32","internalType":"bytes32"}],"stateMutability":"view"},{"type":"function","name":"DEFAULT_ADMIN_ROLE","inputs":[],"outputs":[{"name":"","type":"bytes32","internalType":"bytes32"}],"stateMutability":"view"},{"type":"function","name":"SYSTEM_ROLE","inputs":[],"outputs":[{"name":"","type":"bytes32","internalType":"bytes32"}],"stateMutability":"view"},{"type":"function","name":"auditLogs","inputs":[{"name":"","type":"bytes32","internalType":"bytes32"}],"outputs":[{"name":"timestamp","type":"uint256","internalType":"uint256"},{"name":"txType","type":"bytes32","internalType":"bytes32"},{"name":"user","type":"address","internalType":"address"},{"name":"amount","type":"uint256","internalType":"uint256"},{"name":"data","type":"bytes","internalType":"bytes"},{"name":"hash","type":"bytes32","internalType":"bytes32"}],"stateMutability":"view"},{"type":"function","name":"getAuditLog","inputs":[{"name":"hash","type":"bytes32","internalType":"bytes32"}],"outputs":[{"name":"","type":"tuple","internalType":"struct AuditTrail.AuditLog","components":[{"name":"timestamp","type":"uint256","internalType":"uint256"},{"name":"txType","type":"bytes32","internalType":"bytes32"},{"name":"user","type":"address","internalType":"address"},{"name":"amount","type":"uint256","internalType":"uint256"},{"name":"data","type":"bytes","internalType":"bytes"},{"name":"hash","type":"bytes32","internalType":"bytes32"}]}],"stateMutability":"view"},{"type":"function","name":"getLogCount","inputs":[],"outputs":[{"name":"","type":"uint256","internalType":"uint256"}],"stateMutability":"view"},{"type":"function","name":"getRecentLogs","inputs":[{"name":"count","type":"uint256","internalType":"uint256"}],"outputs":[{"name":"","type":"bytes32[]","internalType":"bytes32[]"}],"stateMutability":"view"},{"type":"function","name":"getRoleAdmin","inputs":[{"name":"role","type":"bytes32","internalType":"bytes32"}],"outputs":[{"name":"","type":"bytes32","internalType":"bytes32"}],"stateMutability":"view"},{"type":"function","name":"getUserComplianceLogs","inputs":[{"name":"user","type":"address","internalType":"address"}],"outputs":[{"name":"","type":"tuple[]","internalType":"struct AuditTrail.ComplianceLog[]","components":[{"name":"timestamp","type":"uint256","internalType":"uint256"},{"name":"user","type":"address","internalType":"address"},{"name":"action","type":"string","internalType":"string"},{"name":"success","type":"bool","internalType":"bool"}]}],"stateMutability":"view"},{"type":"function","name":"grantRole","inputs":[{"name":"role","type":"bytes32","internalType":"bytes32"},{"name":"account","type":"address","internalType":"address"}],"outputs":[],"stateMutability":"nonpayable"},{"type":"function","name":"hasRole","inputs":[{"name":"role","type":"bytes32","internalType":"bytes32"},{"name":"account","type":"address","internalType":"address"}],"outputs":[{"name":"","type":"bool","internalType":"bool"}],"stateMutability":"view"},{"type":"function","name":"initialize","inputs":[{"name":"admin","type":"address","internalType":"address"}],"outputs":[],"stateMutability":"nonpayable"},{"type":"function","name":"logCompliance","inputs":[{"name":"user","type":"address","internalType":"address"},{"name":"action","type":"string","internalType":"string"}],"outputs":[],"stateMutability":"nonpayable"},{"type":"function","name":"logExists","inputs":[{"name":"","type":"bytes32","internalType":"bytes32"}],"outputs":[{"name":"","type":"bool","internalType":"bool"}],"stateMutability":"view"},{"type":"function","name":"logHashes","inputs":[{"name":"","type":"uint256","internalType":"uint256"}],"outputs":[{"name":"","type":"bytes32","internalType":"bytes32"}],"stateMutability":"view"},{"type":"function","name":"logTransaction","inputs":[{"name":"txType","type":"bytes32","internalType":"bytes32"},{"name":"user","type":"address","internalType":"address"},{"name":"amount","type":"uint256","internalType":"uint256"},{"name":"data","type":"bytes","internalType":"bytes"}],"outputs":[],"stateMutability":"nonpayable"},{"type":"function","name":"paused","inputs":[],"outputs":[{"name":"","type":"bool","internalType":"bool"}],"stateMutability":"view"},{"type":"function","name":"renounceRole","inputs":[{"name":"role","type":"bytes32","internalType":"bytes32"},{"name":"callerConfirmation","type":"address","internalType":"address"}],"outputs":[],"stateMutability":"nonpayable"},{"type":"function","name":"revokeRole","inputs":[{"name":"role","type":"bytes32","internalType":"bytes32"},{"name":"account","type":"address","internalType":"address"}],"outputs":[],"stateMutability":"nonpayable"},{"type":"function","name":"supportsInterface","inputs":[{"name":"interfaceId","type":"bytes4","internalType":"bytes4"}],"outputs":[{"name":"","type":"bool","internalType":"bool"}],"stateMutability":"view"},{"type":"function","name":"totalLogs","inputs":[],"outputs":[{"name":"","type":"uint256","internalType":"uint256"}],"stateMutability":"view"},{"type":"function","name":"userComplianceLogs","inputs":[{"name":"","type":"address","internalType":"address"},{"name":"","type":"uint256","internalType":"uint256"}],"outputs":[{"name":"timestamp","type":"uint256","internalType":"uint256"},{"name":"user","type":"address","internalType":"address"},{"name":"action","type":"string","internalType":"string"},{"name":"success","type":"bool","internalType":"bool"}],"stateMutability":"view"},{"type":"function","name":"verifyLogIntegrity","inputs":[{"name":"hash","type":"bytes32","internalType":"bytes32"}],"outputs":[{"name":"","type":"bool","internalType":"bool"}],"stateMutability":"view"},{"type":"event","name":"ComplianceLogged","inputs":[{"name":"user","type":"address","indexed":true,"internalType":"address"},{"name":"action","type":"string","indexed":false,"internalType":"string"},{"name":"success","type":"bool","indexed":false,"internalType":"bool"}],"anonymous":false},{"type":"event","name":"Initialized","inputs":[{"name":"version","type":"uint64","indexed":false,"internalType":"uint64"}],"anonymous":false},{"type":"event","name":"Paused","inputs":[{"name":"account","type":"address","indexed":false,"internalType":"address"}],"anonymous":false},{"type":"event","name":"RoleAdminChanged","inputs":[{"name":"role","type":"bytes32","indexed":true,"internalType":"bytes32"},{"name":"previousAdminRole","type":"bytes32","indexed":true,"internalType":"bytes32"},{"name":"newAdminRole","type":"bytes32","indexed":true,"internalType":"bytes32"}],"anonymous":false},{"type":"event","name":"RoleGranted","inputs":[{"name":"role","type":"bytes32","indexed":true,"internalType":"bytes32"},{"name":"account","type":"address","indexed":true,"internalType":"address"},{"name":"sender","type":"address","indexed":true,"internalType":"address"}],"anonymous":false},{"type":"event","name":"RoleRevoked","inputs":[{"name":"role","type":"bytes32","indexed":true,"internalType":"bytes32"},{"name":"account","type":"address","indexed":true,"internalType":"address"},{"name":"sender","type":"address","indexed":true,"internalType":"address"}],"anonymous":false},{"type":"event","name":"TransactionLogged","inputs":[{"name":"hash","type":"bytes32","indexed":true,"internalType":"bytes32"},{"name":"txType","type":"bytes32","indexed":true,"internalType":"bytes32"},{"name":"user","type":"address","indexed":true,"internalType":"address"},{"name":"amount","type":"uint256","indexed":false,"internalType":"uint256"}],"anonymous":false},{"type":"event","name":"Unpaused","inputs":[{"name":"account","type":"address","indexed":false,"internalType":"address"}],"anonymous":false},{"type":"error","name":"AccessControlBadConfirmation","inputs":[]},{"type":"error","name":"AccessControlUnauthorizedAccount","inputs":[{"name":"account","type":"address","internalType":"address"},{"name":"neededRole","type":"bytes32","internalType":"bytes32"}]},{"type":"error","name":"EnforcedPause","inputs":[]},{"type":"error","name":"ExpectedPause","inputs":[]},{"type":"error","name":"InvalidInitialization","inputs":[]},{"type":"error","name":"NotInitializing","inputs":[]}],"bytecode":{"object":"0x60808060405234610016576118d1908161001b8239f35b5f80fdfe6080604081815260049182361015610015575f80fd5b5f3560e01c90816301ffc9a714610f54575080630b6a352f14610f1c578063248a9ca314610ee6578063253e960214610e555780632f2ff15d14610e2d57806336568abe14610de9578063413faf2214610cba5780634b34522f14610a635780635c975abb14610a21578063618033db146102b75780636b058d08146109a55780636e1d616e1461096b57806375071d2a1461093157806377d036521461090557806391d14854146108b5578063a217fddf1461089b578063a66dc693146105a7578063c4d66de814610461578063c885ab371461031b578063d547741f146102d3578063e4ce0662146102b7578063e52e64f9146101465763f42bf6811461011c575f80fd5b34610142576020366003190112610142576101396020923561131a565b90519015158152f35b5f80fd5b50903461014257602080600319360112610142578135908254928383116102765761017083611302565b9261017d865194856110b8565b80845261018981611302565b8484019590601f19013687378181111561026b5781810390811161025857959493955b5f5b8281106101f5575050505082519384938285019183865251809252840192915f5b8281106101de57505050500390f35b8351855286955093810193928101926001016101cf565b808298969798018083116102455761020c90610fa6565b90549087518310156102325760031b1c600582901b8701860152949695946001016101ae565b603286634e487b7160e01b5f525260245ffd5b601185634e487b7160e01b5f525260245ffd5b601183634e487b7160e01b5f525260245ffd5b505f959493956101ac565b60649185519162461bcd60e51b8352820152601860248201527f436f756e74206578636565647320746f74616c206c6f677300000000000000006044820152fd5b5034610142575f36600319011261014257602091549051908152f35b5034610142578060031936011261014257610319913561031460016102f6611005565b93835f525f8051602061187c8339815191526020525f200154611481565b6116f6565b005b50346101425760209182600319360112610142576001600160a01b0380610340610fef565b165f5260019160018552835f2094855461035981611302565b92610366875194856110b8565b81845282840180985f52835f205f915b8483106104095750505050508451948186019282875251809352808601818460051b88010197945f925b8584106103ad57888a0389f35b909192939495968580829b603f198c82030187528a51906103e9608083518352888585015116858401528784015190808985015283019061119d565b9160608091015115159101529901940194019295949391909896986103a0565b978386829c9a8c9a98999a5161041e8161109c565b85548152898587015416838201528d610439600288016110da565b9082015260ff6003870154161515606082015281520192019201919099979996959496610376565b5090346101425760203660031901126101425761047c610fef565b907ff0c57e16840df040f15088dc2f81fe391c3923bec73e23a9662efc9c229c6a0091825460ff81861c16159267ffffffffffffffff82168015908161059f575b6001149081610595575b15908161058c575b5061057e575067ffffffffffffffff198116600117845561051b91908361055f575b506104fa61181a565b61050261181a565b61050b816114af565b5061051581611533565b506115e0565b5061052257005b805468ff00000000000000001916905551600181527fc7f505b2f371ae2175ee4913f4499e1f2633a7b5936321eed1cdaeb6115181d290602090a1005b68ffffffffffffffffff1916680100000000000000011784555f6104f1565b855163f92ee8a960e01b8152fd5b9050155f6104cf565b303b1591506104c7565b8591506104bd565b50346101425760803660031901126101425781356105c3611005565b9167ffffffffffffffff604435606435828111610142576105e790369088016111c2565b6105f2949194611408565b6105fa611775565b8754938783519560209661065860b4828a8101944286528d8a83015260018060a01b038097169e6001600160601b03199060601b1660608301528a6074830152888d60948401378882019060948201520360948101845201826110b8565b51902096875f526002875260ff855f2054166108635784519261067a8461106c565b428452878401948a865261069d878601938d855260608701928a8452369161126d565b926080860193845260a08601948b86528b5f525f8b52885f20965187556001975188880155600287019151166001600160601b0360a01b8254161790555160038501558b84019151805191821161085057610702826106fc8554611034565b856112b3565b8890601f83116001146107ec5791806107359260059695945f926107e1575b50508160011b915f199060031b1c19161790565b90555b51910155845f5260028452815f208160ff19825416179055600354600160401b8110156107ce57808261076e9201600355610fa6565b81549060031b9087821b915f19901b191617905587549081018091116107bb577f0bbb2661b683b63c50bd7af5a503c29a6022b8a83833df21205009ff8fc0e783949596975551908152a4005b601188634e487b7160e01b5f525260245ffd5b604189634e487b7160e01b5f525260245ffd5b015190505f80610721565b9392918691601f19821690845f528b5f20915f5b8d82821061083a575050968360059810610822575b505050811b019055610738565b01515f1960f88460031b161c191690555f8080610815565b838a015185558b96909401939283019201610800565b60418d634e487b7160e01b5f525260245ffd5b845162461bcd60e51b8152808c018890526012602482015271088eae0d8d2c6c2e8ca40d8dece40d0c2e6d60731b6044820152606490fd5b5034610142575f36600319011261014257602090515f8152f35b50346101425780600319360112610142576020916108d1611005565b90355f525f8051602061187c8339815191528352815f209060018060a01b03165f52825260ff815f20541690519015158152f35b503461014257602036600319011261014257602091355f526002825260ff815f20541690519015158152f35b5034610142575f36600319011261014257602090517f5719df9ef2c4678b547f89e4f5ae410dbf400fc51cf3ded434c55f6adea2c43f8152f35b5034610142575f36600319011261014257602090517f59a1c48e5837ad7a7f3dcedcbe129bf3249ec4fbf651fd4f5e2600ead39fe2f58152f35b50346101425760203660031901126101425781355f525f602052805f2090610a1782549260018101549460018060a01b0360028301541660056109ee60038501549385016111f0565b93015494805197889788526020880152860152606085015260c0608085015260c084019061119d565b9060a08301520390f35b5034610142575f3660031901126101425760209060ff7fcd5ed15c6e187e77e9aee88184c21f4f2182ab5827cb3b7e07fbedcd63f03300541690519015158152f35b5034610142578060031936011261014257610a7c610fef565b9167ffffffffffffffff9160243583811161014257610a9e90369084016111c2565b929093610aa9611408565b610ab1611775565b60018060a01b0380961694855f526001968793602093858552865f2091875193610ada8561109c565b428552868501908b8252610aef368c8961126d565b948a8701958652606087019d8e52805490600160401b821015610ca75790610b1b918b8201815561101b565b969096610c95575186558886019151166001600160601b0360a01b825416179055600284019251908151928311610c825750610b5b826106fc8554611034565b8590601f8311600114610bf5578996948794610bb9857f3dc9bf85044eecdac9f093745d0c106819384d8e4198cda227ad49f21f206e9b9e9f959660609d9c9a976003965f926107e15750508160011b915f199060031b1c19161790565b90555b019051151560ff801983541691161790558551978689978852870152868601375f848401860152830152601f01601f19168101030190a2005b90601f19831691845f52875f20925f5b818110610c6d57509489857f3dc9bf85044eecdac9f093745d0c106819384d8e4198cda227ad49f21f206e9b9e9f956003958f9c9a9560609f9e9c998e9b10610c56575b505050811b019055610bbc565b01515f1983881b60f8161c191690555f8080610c49565b828401518555938a0193928901928901610c05565b604190634e487b7160e01b5f525260245ffd5b5f84634e487b7160e01b82525260245ffd5b604185634e487b7160e01b5f525260245ffd5b50903461014257602091826003193601126101425781355f60a08351610cdf8161106c565b82815282878201528285820152826060820152606060808201520152805f526002845260ff825f20541615610db2575f525f8352610da7815f20825193610d258561106c565b8154855260018201549386860194855260018060a01b039081600285015416908088019182526005610d6460038701549560608b0196875287016111f0565b9560808a0196875201549660a089019788528151998a99818b5251908a01525190880152511660608601525160808501525160c060a085015260e084019061119d565b905160c08301520390f35b5091606492519162461bcd60e51b83528201526012602482015271131bd9c8191bd95cc81b9bdd08195e1a5cdd60721b6044820152fd5b5034610142578060031936011261014257610e02611005565b90336001600160a01b03831603610e1e575061031991356116f6565b5163334bd91960e11b81529050fd5b50346101425780600319360112610142576103199135610e5060016102f6611005565b611686565b5034610142578060031936011261014257610e6e610fef565b6001600160a01b039081165f908152600160205282902080546024359081101561014257610e9b9161101b565b5091610eda83549260018501541693608060ff6003610ebc600285016110da565b9301541693805196879687526020870152850152608084019061119d565b90151560608301520390f35b503461014257602036600319011261014257602091355f525f8051602061187c83398151915282526001815f2001549051908152f35b50903461014257602036600319011261014257359060035482101561014257610f46602092610fa6565b90549060031b1c9051908152f35b833461014257602036600319011261014257359063ffffffff60e01b821680920361014257602091637965db0b60e01b8114908115610f95575b5015158152f35b6301ffc9a760e01b14905083610f8e565b600354811015610fdb5760035f527fc2575a0e9e593c00f959f8c92f12db2869c3395a3b0502d05e2516446f71f85b01905f90565b634e487b7160e01b5f52603260045260245ffd5b600435906001600160a01b038216820361014257565b602435906001600160a01b038216820361014257565b8054821015610fdb575f5260205f209060021b01905f90565b90600182811c92168015611062575b602083101461104e57565b634e487b7160e01b5f52602260045260245ffd5b91607f1691611043565b60c0810190811067ffffffffffffffff82111761108857604052565b634e487b7160e01b5f52604160045260245ffd5b6080810190811067ffffffffffffffff82111761108857604052565b90601f8019910116810190811067ffffffffffffffff82111761108857604052565b9060405191825f82546110ec81611034565b908184526020946001916001811690815f1461115a575060011461111c575b50505061111a925003836110b8565b565b5f90815285812095935091905b81831061114257505061111a93508201015f808061110b565b85548884018501529485019487945091830191611129565b9250505061111a94925060ff191682840152151560051b8201015f808061110b565b5f5b83811061118d5750505f910152565b818101518382015260200161117e565b906020916111b68151809281855285808601910161117c565b601f01601f1916010190565b9181601f840112156101425782359167ffffffffffffffff8311610142576020838186019501011161014257565b9060405191825f825461120281611034565b908184526020946001916001811690815f1461115a575060011461122f5750505061111a925003836110b8565b5f90815285812095935091905b81831061125557505061111a93508201015f808061110b565b8554888401850152948501948794509183019161123c565b92919267ffffffffffffffff82116110885760405191611297601f8201601f1916602001846110b8565b829481845281830111610142578281602093845f960137010152565b601f82116112c057505050565b5f5260205f20906020601f840160051c830193106112f8575b601f0160051c01905b8181106112ed575050565b5f81556001016112e2565b90915081906112d9565b67ffffffffffffffff81116110885760051b60200190565b805f526002602052604060ff815f20541615611402575f602052805f206113fb60b48351936113488561106c565b8354855260018401546020860190815260028501546001600160a01b03168287019081526003860154606088019081529196909590600561138b600484016111f0565b92836080840152015460a0820152519651955191516113a9896117b2565b928451978895602087019a8b528601526001600160601b03199060601b16606085015260748401526113e581518092602060948701910161117c565b82019060948201520360948101845201826110b8565b5190201490565b50505f90565b335f9081527f021e7b47d957252238e482ce63807c8c87d29d066c819e84063657a50c13de0060205260409020547f5719df9ef2c4678b547f89e4f5ae410dbf400fc51cf3ded434c55f6adea2c43f9060ff16156114635750565b6044906040519063e2517d3f60e01b82523360048301526024820152fd5b805f525f8051602061187c83398151915260205260405f20335f5260205260ff60405f205416156114635750565b6001600160a01b03165f8181527fb7db2dd08fcb62d0c9e08c51941cae53c267786a0b75803fb7960902fc8ef97d60205260409020545f8051602061187c8339815191529060ff16611402575f805260205260405f20815f5260205260405f20600160ff1982541617905533905f5f8051602061185c8339815191528180a4600190565b6001600160a01b03165f8181527fc3e71cdf4d6b19b51728813415f497e36084f42794ee08da6ceade2e0e3ab21260205260409020547f59a1c48e5837ad7a7f3dcedcbe129bf3249ec4fbf651fd4f5e2600ead39fe2f591905f8051602061187c8339815191529060ff166115d957825f5260205260405f20815f5260205260405f20600160ff1982541617905533915f8051602061185c8339815191525f80a4600190565b5050505f90565b6001600160a01b03165f8181527f021e7b47d957252238e482ce63807c8c87d29d066c819e84063657a50c13de0060205260409020547f5719df9ef2c4678b547f89e4f5ae410dbf400fc51cf3ded434c55f6adea2c43f91905f8051602061187c8339815191529060ff166115d957825f5260205260405f20815f5260205260405f20600160ff1982541617905533915f8051602061185c8339815191525f80a4600190565b90815f525f8051602061187c8339815191528060205260405f209160018060a01b031691825f5260205260ff60405f205416155f146115d957825f5260205260405f20815f5260205260405f20600160ff1982541617905533915f8051602061185c8339815191525f80a4600190565b90815f525f8051602061187c8339815191528060205260405f209160018060a01b031691825f5260205260ff60405f2054165f146115d957825f5260205260405f20815f5260205260405f2060ff19815416905533917ff6391f5c32d9c69d2a47ea670b442974b53935d1edc7fd64eb21e047a839171b5f80a4600190565b60ff7fcd5ed15c6e187e77e9aee88184c21f4f2182ab5827cb3b7e07fbedcd63f0330054166117a057565b60405163d93c066560e01b8152600490fd5b5f9060038054925b8381106117f65760405162461bcd60e51b815260206004820152600d60248201526c131bd9c81b9bdd08199bdd5b99609a1b6044820152606490fd5b8261180082610fa6565b905490841b1c14611813576001016117ba565b9250505090565b60ff7ff0c57e16840df040f15088dc2f81fe391c3923bec73e23a9662efc9c229c6a005460401c161561184957565b604051631afcd79f60e31b8152600490fdfe2f8788117e7eff1d82e926ec794901d17c78024a50270940304540a733656f0d02dd7bc7dec4dceedda775e58dd541e08a116c6c53815c0bd028192f7b626800a264697066735822122070efbd717949b71b420adead1493eb6d80caeaed3bc7b6d9bfd0153b60ee4dee64736f6c63430008160033","linkReferences":{}},"methodIdentifiers":{"AUDITOR_ROLE()":"6e1d616e","DEFAULT_ADMIN_ROLE()":"a217fddf","SYSTEM_ROLE()":"75071d2a","auditLogs(bytes32)":"6b058d08","getAuditLog(bytes32)":"413faf22","getLogCount()":"618033db","getRecentLogs(uint256)":"e52e64f9","getRoleAdmin(bytes32)":"248a9ca3","getUserComplianceLogs(address)":"c885ab37","grantRole(bytes32,address)":"2f2ff15d","hasRole(bytes32,address)":"91d14854","initialize(address)":"c4d66de8","logCompliance(address,string)":"4b34522f","logExists(bytes32)":"77d03652","logHashes(uint256)":"0b6a352f","logTransaction(bytes32,address,uint256,bytes)":"a66dc693","paused()":"5c975abb","renounceRole(bytes32,address)":"36568abe","revokeRole(bytes32,address)":"d547741f","supportsInterface(bytes4)":"01ffc9a7","totalLogs()":"e4ce0662","userComplianceLogs(address,uint256)":"253e9602","verifyLogIntegrity(bytes32)":"f42bf681"},"id":3}