{"abi":[{"type":"constructor","inputs":[],"stateMutability":"nonpayable"},{"type":"function","name":"ASSET_ADMIN_ROLE","inputs":[],"outputs":[{"name":"","type":"bytes32","internalType":"bytes32"}],"stateMutability":"view"},{"type":"function","name":"DEFAULT_ADMIN_ROLE","inputs":[],"outputs":[{"name":"","type":"bytes32","internalType":"bytes32"}],"stateMutability":"view"},{"type":"function","name":"PLATFORM_ADMIN_ROLE","inputs":[],"outputs":[{"name":"","type":"bytes32","internalType":"bytes32"}],"stateMutability":"view"},{"type":"function","name":"UPGRADE_INTERFACE_VERSION","inputs":[],"outputs":[{"name":"","type":"string","internalType":"string"}],"stateMutability":"view"},{"type":"function","name":"VALUATOR_ROLE","inputs":[],"outputs":[{"name":"","type":"bytes32","internalType":"bytes32"}],"stateMutability":"view"},{"type":"function","name":"addValuation","inputs":[{"name":"assetId","type":"uint256","internalType":"uint256"},{"name":"value","type":"uint256","internalType":"uint256"},{"name":"reportHash","type":"string","internalType":"string"},{"name":"methodology","type":"string","internalType":"string"}],"outputs":[],"stateMutability":"nonpayable"},{"type":"function","name":"approve","inputs":[{"name":"to","type":"address","internalType":"address"},{"name":"tokenId","type":"uint256","internalType":"uint256"}],"outputs":[],"stateMutability":"nonpayable"},{"type":"function","name":"assetValuations","inputs":[{"name":"","type":"uint256","internalType":"uint256"},{"name":"","type":"uint256","internalType":"uint256"}],"outputs":[{"name":"value","type":"uint256","internalType":"uint256"},{"name":"valuator","type":"address","internalType":"address"},{"name":"timestamp","type":"uint256","internalType":"uint256"},{"name":"reportHash","type":"string","internalType":"string"},{"name":"isVerified","type":"bool","internalType":"bool"},{"name":"methodology","type":"string","internalType":"string"},{"name":"validUntil","type":"uint256","internalType":"uint256"}],"stateMutability":"view"},{"type":"function","name":"assets","inputs":[{"name":"","type":"uint256","internalType":"uint256"}],"outputs":[{"name":"assetId","type":"uint256","internalType":"uint256"},{"name":"name","type":"string","internalType":"string"},{"name":"description","type":"string","internalType":"string"},{"name":"assetType","type":"uint8","internalType":"enum IAssetTokenizer.AssetType"},{"name":"status","type":"uint8","internalType":"enum IAssetTokenizer.AssetStatus"},{"name":"totalValue","type":"uint256","internalType":"uint256"},{"name":"totalTokens","type":"uint256","internalType":"uint256"},{"name":"tokenAddress","type":"address","internalType":"address"},{"name":"owner","type":"address","internalType":"address"},{"name":"location","type":"string","internalType":"string"},{"name":"createdAt","type":"uint256","internalType":"uint256"},{"name":"tokenizedAt","type":"uint256","internalType":"uint256"},{"name":"rejectionReason","type":"string","internalType":"string"}],"stateMutability":"view"},{"type":"function","name":"auditTrail","inputs":[],"outputs":[{"name":"","type":"address","internalType":"contract IAuditTrail"}],"stateMutability":"view"},{"type":"function","name":"authorizeValuator","inputs":[{"name":"valuator","type":"address","internalType":"address"},{"name":"authorized","type":"bool","internalType":"bool"}],"outputs":[],"stateMutability":"nonpayable"},{"type":"function","name":"authorizedValuators","inputs":[{"name":"","type":"address","internalType":"address"}],"outputs":[{"name":"","type":"bool","internalType":"bool"}],"stateMutability":"view"},{"type":"function","name":"balanceOf","inputs":[{"name":"owner","type":"address","internalType":"address"}],"outputs":[{"name":"","type":"uint256","internalType":"uint256"}],"stateMutability":"view"},{"type":"function","name":"canTokenizeAsset","inputs":[{"name":"assetId","type":"uint256","internalType":"uint256"}],"outputs":[{"name":"","type":"bool","internalType":"bool"},{"name":"","type":"string","internalType":"string"}],"stateMutability":"view"},{"type":"function","name":"complianceManager","inputs":[],"outputs":[{"name":"","type":"address","internalType":"contract IComplianceManager"}],"stateMutability":"view"},{"type":"function","name":"createHybridAsset","inputs":[{"name":"assetId","type":"uint256","internalType":"uint256"},{"name":"name","type":"string","internalType":"string"},{"name":"symbol","type":"string","internalType":"string"},{"name":"supply","type":"uint256","internalType":"uint256"},{"name":"decimals","type":"uint8","internalType":"uint8"},{"name":"tokenType","type":"uint8","internalType":"enum ITokenRegistry.TokenType"},{"name":"metadataURI","type":"string","internalType":"string"},{"name":"deedURI","type":"string","internalType":"string"}],"outputs":[{"name":"tokenAddress","type":"address","internalType":"address"}],"stateMutability":"nonpayable"},{"type":"function","name":"deedToToken","inputs":[{"name":"","type":"uint256","internalType":"uint256"}],"outputs":[{"name":"","type":"address","internalType":"address"}],"stateMutability":"view"},{"type":"function","name":"feeManager","inputs":[],"outputs":[{"name":"","type":"address","internalType":"contract IFeeManager"}],"stateMutability":"view"},{"type":"function","name":"getApproved","inputs":[{"name":"tokenId","type":"uint256","internalType":"uint256"}],"outputs":[{"name":"","type":"address","internalType":"address"}],"stateMutability":"view"},{"type":"function","name":"getAsset","inputs":[{"name":"assetId","type":"uint256","internalType":"uint256"}],"outputs":[{"name":"","type":"uint256","internalType":"uint256"},{"name":"","type":"string","internalType":"string"},{"name":"","type":"string","internalType":"string"},{"name":"","type":"uint8","internalType":"enum IAssetTokenizer.AssetType"},{"name":"","type":"uint8","internalType":"enum IAssetTokenizer.AssetStatus"},{"name":"","type":"uint256","internalType":"uint256"},{"name":"","type":"uint256","internalType":"uint256"},{"name":"","type":"address","internalType":"address"},{"name":"","type":"address","internalType":"address"},{"name":"","type":"string[]","internalType":"string[]"},{"name":"","type":"string","internalType":"string"},{"name":"","type":"uint256","internalType":"uint256"},{"name":"","type":"uint256","internalType":"uint256"},{"name":"","type":"string","internalType":"string"}],"stateMutability":"view"},{"type":"function","name":"getAssetValuations","inputs":[{"name":"assetId","type":"uint256","internalType":"uint256"}],"outputs":[{"name":"","type":"tuple[]","internalType":"struct HybridAssetTokenizer.Valuation[]","components":[{"name":"value","type":"uint256","internalType":"uint256"},{"name":"valuator","type":"address","internalType":"address"},{"name":"timestamp","type":"uint256","internalType":"uint256"},{"name":"reportHash","type":"string","internalType":"string"},{"name":"isVerified","type":"bool","internalType":"bool"},{"name":"methodology","type":"string","internalType":"string"},{"name":"validUntil","type":"uint256","internalType":"uint256"}]}],"stateMutability":"view"},{"type":"function","name":"getAssetsByOwner","inputs":[{"name":"owner","type":"address","internalType":"address"}],"outputs":[{"name":"","type":"uint256[]","internalType":"uint256[]"}],"stateMutability":"view"},{"type":"function","name":"getLatestValuation","inputs":[{"name":"assetId","type":"uint256","internalType":"uint256"}],"outputs":[{"name":"","type":"uint256","internalType":"uint256"}],"stateMutability":"view"},{"type":"function","name":"getRoleAdmin","inputs":[{"name":"role","type":"bytes32","internalType":"bytes32"}],"outputs":[{"name":"","type":"bytes32","internalType":"bytes32"}],"stateMutability":"view"},{"type":"function","name":"grantRole","inputs":[{"name":"role","type":"bytes32","internalType":"bytes32"},{"name":"account","type":"address","internalType":"address"}],"outputs":[],"stateMutability":"nonpayable"},{"type":"function","name":"hasRole","inputs":[{"name":"role","type":"bytes32","internalType":"bytes32"},{"name":"account","type":"address","internalType":"address"}],"outputs":[{"name":"","type":"bool","internalType":"bool"}],"stateMutability":"view"},{"type":"function","name":"initialize","inputs":[{"name":"admin","type":"address","internalType":"address"},{"name":"tokenFactory_","type":"address","internalType":"address"},{"name":"tokenRegistry_","type":"address","internalType":"address"},{"name":"complianceManager_","type":"address","internalType":"address"},{"name":"auditTrail_","type":"address","internalType":"address"},{"name":"feeManager_","type":"address","internalType":"address"}],"outputs":[],"stateMutability":"nonpayable"},{"type":"function","name":"isApprovedForAll","inputs":[{"name":"owner","type":"address","internalType":"address"},{"name":"operator","type":"address","internalType":"address"}],"outputs":[{"name":"","type":"bool","internalType":"bool"}],"stateMutability":"view"},{"type":"function","name":"minAssetValue","inputs":[],"outputs":[{"name":"","type":"uint256","internalType":"uint256"}],"stateMutability":"view"},{"type":"function","name":"minValuations","inputs":[],"outputs":[{"name":"","type":"uint256","internalType":"uint256"}],"stateMutability":"view"},{"type":"function","name":"name","inputs":[],"outputs":[{"name":"","type":"string","internalType":"string"}],"stateMutability":"view"},{"type":"function","name":"nextAssetId","inputs":[],"outputs":[{"name":"","type":"uint256","internalType":"uint256"}],"stateMutability":"view"},{"type":"function","name":"ownerAssets","inputs":[{"name":"","type":"address","internalType":"address"},{"name":"","type":"uint256","internalType":"uint256"}],"outputs":[{"name":"","type":"uint256","internalType":"uint256"}],"stateMutability":"view"},{"type":"function","name":"ownerOf","inputs":[{"name":"tokenId","type":"uint256","internalType":"uint256"}],"outputs":[{"name":"","type":"address","internalType":"address"}],"stateMutability":"view"},{"type":"function","name":"pause","inputs":[],"outputs":[],"stateMutability":"nonpayable"},{"type":"function","name":"paused","inputs":[],"outputs":[{"name":"","type":"bool","internalType":"bool"}],"stateMutability":"view"},{"type":"function","name":"proxiableUUID","inputs":[],"outputs":[{"name":"","type":"bytes32","internalType":"bytes32"}],"stateMutability":"view"},{"type":"function","name":"registerAsset","inputs":[{"name":"name","type":"string","internalType":"string"},{"name":"description","type":"string","internalType":"string"},{"name":"assetType","type":"uint8","internalType":"enum IAssetTokenizer.AssetType"},{"name":"documentHashes","type":"string[]","internalType":"string[]"},{"name":"location","type":"string","internalType":"string"}],"outputs":[{"name":"","type":"uint256","internalType":"uint256"}],"stateMutability":"nonpayable"},{"type":"function","name":"renounceRole","inputs":[{"name":"role","type":"bytes32","internalType":"bytes32"},{"name":"callerConfirmation","type":"address","internalType":"address"}],"outputs":[],"stateMutability":"nonpayable"},{"type":"function","name":"revokeRole","inputs":[{"name":"role","type":"bytes32","internalType":"bytes32"},{"name":"account","type":"address","internalType":"address"}],"outputs":[],"stateMutability":"nonpayable"},{"type":"function","name":"safeTransferFrom","inputs":[{"name":"from","type":"address","internalType":"address"},{"name":"to","type":"address","internalType":"address"},{"name":"tokenId","type":"uint256","internalType":"uint256"}],"outputs":[],"stateMutability":"nonpayable"},{"type":"function","name":"safeTransferFrom","inputs":[{"name":"from","type":"address","internalType":"address"},{"name":"to","type":"address","internalType":"address"},{"name":"tokenId","type":"uint256","internalType":"uint256"},{"name":"data","type":"bytes","internalType":"bytes"}],"outputs":[],"stateMutability":"nonpayable"},{"type":"function","name":"setApprovalForAll","inputs":[{"name":"operator","type":"address","internalType":"address"},{"name":"approved","type":"bool","internalType":"bool"}],"outputs":[],"stateMutability":"nonpayable"},{"type":"function","name":"setMinAssetValue","inputs":[{"name":"newValue","type":"uint256","internalType":"uint256"}],"outputs":[],"stateMutability":"nonpayable"},{"type":"function","name":"setMinValuations","inputs":[{"name":"newMin","type":"uint256","internalType":"uint256"}],"outputs":[],"stateMutability":"nonpayable"},{"type":"function","name":"setVerificationGateway","inputs":[{"name":"gateway","type":"address","internalType":"address"}],"outputs":[],"stateMutability":"nonpayable"},{"type":"function","name":"supportsInterface","inputs":[{"name":"interfaceId","type":"bytes4","internalType":"bytes4"}],"outputs":[{"name":"","type":"bool","internalType":"bool"}],"stateMutability":"view"},{"type":"function","name":"symbol","inputs":[],"outputs":[{"name":"","type":"string","internalType":"string"}],"stateMutability":"view"},{"type":"function","name":"tokenFactory","inputs":[],"outputs":[{"name":"","type":"address","internalType":"contract ITokenFactory"}],"stateMutability":"view"},{"type":"function","name":"tokenRegistry","inputs":[],"outputs":[{"name":"","type":"address","internalType":"contract ITokenRegistry"}],"stateMutability":"view"},{"type":"function","name":"tokenURI","inputs":[{"name":"tokenId","type":"uint256","internalType":"uint256"}],"outputs":[{"name":"","type":"string","internalType":"string"}],"stateMutability":"view"},{"type":"function","name":"transferFrom","inputs":[{"name":"from","type":"address","internalType":"address"},{"name":"to","type":"address","internalType":"address"},{"name":"tokenId","type":"uint256","internalType":"uint256"}],"outputs":[],"stateMutability":"nonpayable"},{"type":"function","name":"unpause","inputs":[],"outputs":[],"stateMutability":"nonpayable"},{"type":"function","name":"upgradeToAndCall","inputs":[{"name":"newImplementation","type":"address","internalType":"address"},{"name":"data","type":"bytes","internalType":"bytes"}],"outputs":[],"stateMutability":"payable"},{"type":"function","name":"usedDocumentHashes","inputs":[{"name":"","type":"string","internalType":"string"}],"outputs":[{"name":"","type":"bool","internalType":"bool"}],"stateMutability":"view"},{"type":"function","name":"valuationValidPeriod","inputs":[],"outputs":[{"name":"","type":"uint256","internalType":"uint256"}],"stateMutability":"view"},{"type":"function","name":"verificationGateway","inputs":[],"outputs":[{"name":"","type":"address","internalType":"address"}],"stateMutability":"view"},{"type":"function","name":"verifyAsset","inputs":[{"name":"assetId","type":"uint256","internalType":"uint256"}],"outputs":[],"stateMutability":"nonpayable"},{"type":"event","name":"Approval","inputs":[{"name":"owner","type":"address","indexed":true,"internalType":"address"},{"name":"approved","type":"address","indexed":true,"internalType":"address"},{"name":"tokenId","type":"uint256","indexed":true,"internalType":"uint256"}],"anonymous":false},{"type":"event","name":"ApprovalForAll","inputs":[{"name":"owner","type":"address","indexed":true,"internalType":"address"},{"name":"operator","type":"address","indexed":true,"internalType":"address"},{"name":"approved","type":"bool","indexed":false,"internalType":"bool"}],"anonymous":false},{"type":"event","name":"AssetRegistered","inputs":[{"name":"assetId","type":"uint256","indexed":true,"internalType":"uint256"},{"name":"owner","type":"address","indexed":true,"internalType":"address"},{"name":"name","type":"string","indexed":false,"internalType":"string"},{"name":"assetType","type":"uint8","indexed":false,"internalType":"enum IAssetTokenizer.AssetType"}],"anonymous":false},{"type":"event","name":"AssetRejected","inputs":[{"name":"assetId","type":"uint256","indexed":true,"internalType":"uint256"},{"name":"reason","type":"string","indexed":false,"internalType":"string"}],"anonymous":false},{"type":"event","name":"AssetValued","inputs":[{"name":"assetId","type":"uint256","indexed":true,"internalType":"uint256"},{"name":"value","type":"uint256","indexed":false,"internalType":"uint256"},{"name":"valuator","type":"address","indexed":true,"internalType":"address"}],"anonymous":false},{"type":"event","name":"AssetVerified","inputs":[{"name":"assetId","type":"uint256","indexed":true,"internalType":"uint256"}],"anonymous":false},{"type":"event","name":"DocumentAdded","inputs":[{"name":"assetId","type":"uint256","indexed":true,"internalType":"uint256"},{"name":"documentHash","type":"string","indexed":false,"internalType":"string"}],"anonymous":false},{"type":"event","name":"HybridAssetCreated","inputs":[{"name":"assetId","type":"uint256","indexed":true,"internalType":"uint256"},{"name":"tokenAddress","type":"address","indexed":true,"internalType":"address"},{"name":"totalTokens","type":"uint256","indexed":false,"internalType":"uint256"}],"anonymous":false},{"type":"event","name":"Initialized","inputs":[{"name":"version","type":"uint64","indexed":false,"internalType":"uint64"}],"anonymous":false},{"type":"event","name":"Paused","inputs":[{"name":"account","type":"address","indexed":false,"internalType":"address"}],"anonymous":false},{"type":"event","name":"RoleAdminChanged","inputs":[{"name":"role","type":"bytes32","indexed":true,"internalType":"bytes32"},{"name":"previousAdminRole","type":"bytes32","indexed":true,"internalType":"bytes32"},{"name":"newAdminRole","type":"bytes32","indexed":true,"internalType":"bytes32"}],"anonymous":false},{"type":"event","name":"RoleGranted","inputs":[{"name":"role","type":"bytes32","indexed":true,"internalType":"bytes32"},{"name":"account","type":"address","indexed":true,"internalType":"address"},{"name":"sender","type":"address","indexed":true,"internalType":"address"}],"anonymous":false},{"type":"event","name":"RoleRevoked","inputs":[{"name":"role","type":"bytes32","indexed":true,"internalType":"bytes32"},{"name":"account","type":"address","indexed":true,"internalType":"address"},{"name":"sender","type":"address","indexed":true,"internalType":"address"}],"anonymous":false},{"type":"event","name":"Transfer","inputs":[{"name":"from","type":"address","indexed":true,"internalType":"address"},{"name":"to","type":"address","indexed":true,"internalType":"address"},{"name":"tokenId","type":"uint256","indexed":true,"internalType":"uint256"}],"anonymous":false},{"type":"event","name":"Unpaused","inputs":[{"name":"account","type":"address","indexed":false,"internalType":"address"}],"anonymous":false},{"type":"event","name":"Upgraded","inputs":[{"name":"implementation","type":"address","indexed":true,"internalType":"address"}],"anonymous":false},{"type":"event","name":"ValuatorAuthorized","inputs":[{"name":"valuator","type":"address","indexed":true,"internalType":"address"},{"name":"authorized","type":"bool","indexed":false,"internalType":"bool"}],"anonymous":false},{"type":"error","name":"AccessControlBadConfirmation","inputs":[]},{"type":"error","name":"AccessControlUnauthorizedAccount","inputs":[{"name":"account","type":"address","internalType":"address"},{"name":"neededRole","type":"bytes32","internalType":"bytes32"}]},{"type":"error","name":"AddressEmptyCode","inputs":[{"name":"target","type":"address","internalType":"address"}]},{"type":"error","name":"ERC1967InvalidImplementation","inputs":[{"name":"implementation","type":"address","internalType":"address"}]},{"type":"error","name":"ERC1967NonPayable","inputs":[]},{"type":"error","name":"ERC721IncorrectOwner","inputs":[{"name":"sender","type":"address","internalType":"address"},{"name":"tokenId","type":"uint256","internalType":"uint256"},{"name":"owner","type":"address","internalType":"address"}]},{"type":"error","name":"ERC721InsufficientApproval","inputs":[{"name":"operator","type":"address","internalType":"address"},{"name":"tokenId","type":"uint256","internalType":"uint256"}]},{"type":"error","name":"ERC721InvalidApprover","inputs":[{"name":"approver","type":"address","internalType":"address"}]},{"type":"error","name":"ERC721InvalidOperator","inputs":[{"name":"operator","type":"address","internalType":"address"}]},{"type":"error","name":"ERC721InvalidOwner","inputs":[{"name":"owner","type":"address","internalType":"address"}]},{"type":"error","name":"ERC721InvalidReceiver","inputs":[{"name":"receiver","type":"address","internalType":"address"}]},{"type":"error","name":"ERC721InvalidSender","inputs":[{"name":"sender","type":"address","internalType":"address"}]},{"type":"error","name":"ERC721NonexistentToken","inputs":[{"name":"tokenId","type":"uint256","internalType":"uint256"}]},{"type":"error","name":"EnforcedPause","inputs":[]},{"type":"error","name":"ExpectedPause","inputs":[]},{"type":"error","name":"FailedCall","inputs":[]},{"type":"error","name":"InvalidInitialization","inputs":[]},{"type":"error","name":"NotInitializing","inputs":[]},{"type":"error","name":"ReentrancyGuardReentrantCall","inputs":[]},{"type":"error","name":"UUPSUnauthorizedCallContext","inputs":[]},{"type":"error","name":"UUPSUnsupportedProxiableUUID","inputs":[{"name":"slot","type":"bytes32","internalType":"bytes32"}]}],"bytecode":{"object":"0x60a08060405234620000d157306080527ff0c57e16840df040f15088dc2f81fe391c3923bec73e23a9662efc9c229c6a009081549060ff8260401c16620000c257506001600160401b036002600160401b0319828216016200007c575b6040516145549081620000d68239608051818181612073015261211b0152f35b6001600160401b031990911681179091556040519081527fc7f505b2f371ae2175ee4913f4499e1f2633a7b5936321eed1cdaeb6115181d290602090a15f80806200005c565b63f92ee8a960e01b8152600490fd5b5f80fdfe6080806040526004361015610012575f80fd5b5f905f3560e01c90816301ffc9a7146132b35750806305208bff1461322657806306fdde0314613183578063081812fc1461313b578063095ea7b31461305957806318ce6c711461302757806323b872dd14613010578063248a9ca314612fd7578063276f093414612f295780632f2ff15d14612ee057806336568abe14612e975780633adc7b6e146129235780633d9b45ec1461244b5780633f4ba83a146123d45780633fd88bcc146123b657806342842e0e14612369578063455bd951146123135780634e5f8c1a146122d75780634f1ef286146120dd57806352d1902d1461206057806354dae9641461189257806357f1f1db1461183257806359fd285c1461169f5780635c975abb146116705780636352211e1461163f57806366023f6c14611600578063685d34ff146115c557806368ca5b72146115a75780636c28935e1461156c5780636eafcb811461150e578063705bc788146114e757806370a0823114611491578063774ac394146114735780637ef0c851146114385780638456cb59146113d15780638ed91318146113b357806391d148541461135d57806395d89b41146112825780639d23c4c714611259578063a217fddf1461123d578063a22cb465146111aa578063aba02c1f14611181578063ad3cb1cc1461113b578063b10c3b40146110d9578063b88d4fde14611083578063c87b56dd14610fe5578063cc2a9a5b146109d9578063cf35bdd0146108af578063d0fb020314610886578063d47256cf1461085d578063d547741f1461080f578063d9dd783114610791578063e77772fe1461076a578063e985e9c51461071d578063eac8f5b81461051a578063f5a6a0171461038b578063fe1d763b146102c75763ff7bce231461029c575f80fd5b346102c457806003193601126102c4576002546040516001600160a01b039091168152602090f35b80fd5b50346102c45760403660031901126102c45760243560043582526009602052604082208054821015610387576102fd92506136b5565b508054600182015460028301546001600160a01b039091169261037d90610326600382016135e5565b9061036860ff600483015416926006610341600585016135e5565b9301549560405198899889526020890152604088015260e0606088015260e08701906133b4565b911515608086015284820360a08601526133b4565b9060c08301520390f35b8280fd5b50346102c4576020806003193601126105165790600435815260098252604081208054916103b883613c82565b926103c6604051948561351d565b8084528484018093835285832083915b8383106104965750505050604051928484019085855251809152604084019460408260051b8601019392955b82871061040f5785850386f35b909192938280600192603f1989820301855287519081518152848060a01b038383015116838201526040820151604082015261047c61045d606060e0818601519185015260e08401906133b4565b60808085015115159084015260a08085015190848303908501526133b4565b9160c0809101519101529601920196019592919092610402565b60078860019260409a99979a516104ac816134e7565b85548152848060a01b03858701541683820152600286015460408201526104d5600387016135e5565b606082015260ff600487015416151560808201526104f5600587016135e5565b60a0820152600686015460c0820152815201920192019190969395966103d6565b5080fd5b50346102c45760203660031901126102c45760043581526008602052604081208054600382015460048301549260058101549360018060a01b0391826006820154169260078201541696600a82015494600b8301549361057c600185016135e5565b99610589600286016135e5565b9660088601549a6105998c613c82565b936105a7604051958661351d565b8c8552602085019c8d60088a0189526020892089915b8383106106e65750505050600988016105d5906135e5565b97600c016105e2906135e5565b996040519e8f9d8e6101c091815281602082015201610600916133b4565b8d810360408f0152610611916133b4565b9561062260608e0160ff8316613687565b60808d019060081c60ff1690610637916136a8565b60a08c015260c08b015260e08a01526101008901528782036101208901525190818152602081018260051b82016020019993915b8383106106ad5750505050508561068e91866106a99798036101408901526133b4565b926101608601526101808501528382036101a08501526133b4565b0390f35b919396985091939496986020806106d0600193601f198682030187528a516133b4565b98019301930190928a989699979594929361066b565b9d9f9c939495969798999a9b9d600160208192610702856135e5565b8152019201920191909f9d9b9a999897969594939c9f6105bd565b50346102c45760403660031901126102c457610737613338565b61074861074261334e565b91613473565b9060018060a01b03165f52602052602060ff60405f2054166040519015158152f35b50346102c457806003193601126102c457546040516001600160a01b039091168152602090f35b50346102c45760203660031901126102c4576107ab613338565b6107b3613d12565b6001600160a01b031680156107d8576001600160601b0360a01b600554161760055580f35b60405162461bcd60e51b815260206004820152600f60248201526e496e76616c6964206761746577617960881b6044820152606490fd5b50346102c45760403660031901126102c45761085960043561082f61334e565b908084525f8051602061441f8339815191526020526108546001604086200154613d6d565b613e59565b5080f35b50346102c457806003193601126102c4576005546040516001600160a01b039091168152602090f35b50346102c457806003193601126102c4576004546040516001600160a01b039091168152602090f35b50346102c45760203660031901126102c457600435815260086020526040902080546108dd600183016135e5565b916108ea600282016135e5565b6003820154600483015460058401546006850154600786015494959294929391926001600160a01b039081169116610924600986016135e5565b93600a86015496600b87015496600c0161093d906135e5565b986040519b8c809c6101a09182918152602001528c0161095c916133b4565b8b810360408d015261096d916133b4565b9461097e60608c0160ff8316613687565b60808b019060081c60ff1690610993916136a8565b60a08a015260c089015260e08801526101008701528581036101208701526109ba916133b4565b916101408501526101608401528281036101808401526106a9916133b4565b50346102c45760c03660031901126102c4576109f3613338565b906109fc61334e565b604435926001600160a01b0384168403610fe157606435916001600160a01b0383168303610fe1576084356001600160a01b0381168103610fe15760a435906001600160a01b0382168203610fe1575f805160206144bf83398151915254946001600160401b03861680159081610fd1575b6001149081610fc7575b159081610fbe575b50610fac5760016001600160401b03198716175f805160206144bf8339815191525560ff8660401c1615610f80575b60405197610abc89613502565b601789527f487962726964205265616c20457374617465204465656400000000000000000060208a015260405198610af38a613502565b60048a52631214915160e21b60208b0152610b0c61432d565b610b1461432d565b8051906001600160401b038211610f6c57610b3c5f805160206143df833981519152546135ad565b601f8111610efc575b50602090601f8311600114610e7157610b7592918b9183610d56575b50508160011b915f199060031b1c19161790565b5f805160206143df833981519152555b88516001600160401b038111610e5d57610bac5f805160206144df833981519152546135ad565b601f8111610ded575b506020601f8211600114610d61579080610be7928b9c60ff9c92610d565750508160011b915f199060031b1c19161790565b5f805160206144df833981519152555b610bff61432d565b610c0761432d565b610c0f61432d565b610c1761432d565b60015f8051602061447f83398151915255610c3061432d565b610c3986613f7e565b50610c4386614008565b50610c4d866140ae565b50610c5786613ed8565b506001600160601b0360a01b9460018060a01b0316858a541617895560018060a01b031684600154161760015560018060a01b031683600254161760025560018060a01b031682600354161760035560018060a01b031690600454161760045560018060a01b03168352600b60205260408320600183198254161790556001600d556002600e5562ed4e00600f55683635c9adc5dea0000060105560401c1615610cfe5780f35b68ff0000000000000000195f805160206144bf83398151915254165f805160206144bf833981519152557fc7f505b2f371ae2175ee4913f4499e1f2633a7b5936321eed1cdaeb6115181d2602060405160018152a180f35b015190505f80610b61565b5f805160206144df8339815191528a525f805160206143ff8339815191529a8a5b601f1984168110610dd557509a829160ff9b9c600194601f19811610610dbd575b505050811b015f805160206144df83398151915255610bf7565b01515f1960f88460031b161c191690555f8080610da3565b828201518d556001909c019b60209283019201610d82565b5f805160206144df8339815191525f52601f820160051c5f805160206143ff8339815191520160208310610e49575b601f820160051c5f805160206143ff833981519152018110610e3e5750610bb5565b5f8155600101610e1c565b505f805160206143ff833981519152610e1c565b634e487b7160e01b89526041600452602489fd5b5f805160206143df8339815191528b528a92915f805160206144ff833981519152915b601f1984168510610ee1576001945083601f19811610610ec9575b505050811b015f805160206143df83398151915255610b85565b01515f1960f88460031b161c191690555f8080610eaf565b81810151835560209485019460019093019290910190610e94565b5f805160206143df8339815191525f52601f830160051c5f805160206144ff8339815191520160208410610f58575b601f820160051c5f805160206144ff833981519152018110610f4d5750610b45565b5f8155600101610f2b565b505f805160206144ff833981519152610f2b565b634e487b7160e01b8a52604160045260248afd5b68ffffffffffffffffff19861668010000000000000001175f805160206144bf83398151915255610aaf565b60405163f92ee8a960e01b8152600490fd5b9050155f610a80565b303b159150610a78565b604088901c60ff16159150610a6e565b5f80fd5b50346102c457602090816003193601126102c4576004358082525f8051602061445f833981519152835260408220546001600160a01b03161561104a5781604091611035935260078452206135e5565b906106a96040519282849384528301906133b4565b60405162461bcd60e51b81526004810184905260116024820152702737b732bc34b9ba32b73a103a37b5b2b760791b6044820152606490fd5b50346102c45760803660031901126102c45761109d613338565b6110a561334e565b606435916001600160401b0383116110d5576110c86110d293369060040161358f565b9160443591613b64565b80f35b8380fd5b50346102c45760203660031901126102c457600435906001600160401b0382116102c457602060ff61112582611112366004880161358f565b8160405193828580945193849201613393565b8101600c81520301902054166040519015158152f35b50346102c457806003193601126102c4576106a960405161115b81613502565b60058152640352e302e360dc1b60208201526040519182916020835260208301906133b4565b50346102c457806003193601126102c4576003546040516001600160a01b039091168152602090f35b50346102c4576111b936613364565b6001600160a01b03909116908115611224576111d433613473565b825f526020526111f38160405f209060ff801983541691151516179055565b60405190151581527f17307eab39ab6107e8899845ad3d59bd9653f200f220920489ca2b5937696c3160203392a380f35b604051630b61174360e31b815260048101839052602490fd5b50346102c457806003193601126102c457602090604051908152f35b50346102c457806003193601126102c4576001546040516001600160a01b039091168152602090f35b50346102c457806003193601126102c4576040515f805160206144df8339815191528054825f6112b1836135ad565b92838352602094600191866001821691825f1461133b5750506001146112f4575b50506112e09250038361351d565b6106a96040519282849384528301906133b4565b8592505f525f805160206143ff833981519152905f915b8583106113235750506112e0935082010185806112d2565b8054838901850152879450869390920191810161130b565b92509350506112e094915060ff191682840152151560051b82010185806112d2565b50346102c45760403660031901126102c457604061137961334e565b9160043581525f8051602061441f833981519152602052209060018060a01b03165f52602052602060ff60405f2054166040519015158152f35b50346102c457806003193601126102c4576020600d54604051908152f35b50346102c457806003193601126102c4576113ea613d12565b6113f261420a565b5f8051602061443f833981519152600160ff198254161790557f62e78cea01bee320cd4e420270b5ea74000d11b0c9f74754ebdbfc544b05a2586020604051338152a180f35b50346102c457806003193601126102c45760206040517f96ddb9f5c6ca45b5e7ff9e3a491f2c440fd97d9de1e0e224ccebf3370e1f23988152f35b50346102c457806003193601126102c4576020600e54604051908152f35b50346102c45760203660031901126102c4576114ab613338565b906001600160a01b038216156114cf5760206114c68361343b565b54604051908152f35b602490604051906322718ad960e21b82526004820152fd5b50346102c45760203660031901126102c4576020611506600435614234565b604051908152f35b50346102c45760203660031901126102c45760043561152b613d12565b80156115375760105580f35b60405162461bcd60e51b815260206004820152600d60248201526c496e76616c69642076616c756560981b6044820152606490fd5b50346102c457806003193601126102c45760206040517f5e608239aadc5f1e750186f22bbac828160fb6191c4a7b9eee6b9432b1eac59e8152f35b50346102c457806003193601126102c4576020601054604051908152f35b50346102c457806003193601126102c45760206040517f5246556c0ab216b5b325ad7c539bfbd1a07c768773cdf810fecd3c3375c274078152f35b50346102c45760203660031901126102c45760209060ff906040906001600160a01b0361162b613338565b168152600b84522054166040519015158152f35b50346102c45760203660031901126102c457602061165e6004356141c4565b6040516001600160a01b039091168152f35b50346102c457806003193601126102c457602060ff5f8051602061443f83398151915254166040519015158152f35b50346102c45760203660031901126102c4576004356116bc613c99565b80825260086020526040822060038101805460ff808260081c16600691600682101561181e5760018092036117e657868852600960205260408820889389928254935b84811061179957505050505050600e54116117545761ff001916610200179055600461172a83614234565b9101557f7115fa7500082019331bb00caaa9cc745ac6d0414c2af51872c3b69493c9942c8280a280f35b60405162461bcd60e51b815260206004820152601760248201527f496e73756666696369656e742076616c756174696f6e730000000000000000006044820152606490fd5b8160046117a683876136b5565b50015416806117cf575b6117bc575b85016116ff565b956117c786916138c7565b9690506117b5565b50826117db82866136b5565b5001544211156117b0565b60405162461bcd60e51b815260206004820152601060248201526f4e6f7420756e6465722072657669657760801b6044820152606490fd5b634e487b7160e01b88526021600452602488fd5b50346102c45760203660031901126102c45760043561184f613d12565b801561185b57600e5580f35b60405162461bcd60e51b815260206004820152600f60248201526e496e76616c6964206d696e696d756d60881b6044820152606490fd5b50346102c4576101003660031901126102c4576024356001600160401b038111610516576118c490369060040161358f565b6044356001600160401b038111610387576118e390369060040161358f565b916084359060ff821682036102c457600460a43510156102c45760c4356001600160401b0381116105165761191c90369060040161358f565b9360e4356001600160401b0381116103875761193c90369060040161358f565b6005549095906001600160a01b031633036120105761195961420a565b60025f8051602061447f8339815191525414611ffe5760025f8051602061447f8339815191525560043583526008602052604083209461199d6004358754146139f8565b60ff600387015460081c166006811015611fea57600203611fb05760068601546001600160a01b0316611f7757600480548782015460405163b0e3580f60e01b8152928301527ffd77c08fbfa2352133e82db8dcdbc1defaab53968a3fa9d57c4c2810bcdb097360248301526001600160a01b0316602082604481845afa918215611f6c578692611f38575b5081611ea6575b5050835460405163747d322360e11b815260c06004820152959060209087906001600160a01b0316818881611ab2611a80611a6e60c484018b6133b4565b8381036003190160248501528c6133b4565b606435604484015260ff89166064840152611aa06084840160a435613b57565b8281036003190160a48401528a6133b4565b03925af1958615611e9b578596611e53575b5060015460078801546001600160a01b03918216949116843b15611e4f5760405163d851c87960e01b81526001600160a01b0389166004820152610100602482015295879587959094869488948694611b739460ff91611b3f91611b2d906101048a01906133b4565b8881036003190160448a0152906133b4565b936064356064880152166084860152611b5d60a4860160a435613b57565b60c48501528382036003190160e48501526133b4565b03925af18015611e4457908291611e30575b505060078301546001600160a01b03168015611e17576004355f525f8051602061445f833981519152908160205260018060a01b0360405f205416908115159283611dd3575b611bd48261343b565b600181540190556004355f5260205260405f20816001600160601b0360a01b825416179055600435917fddf252ad1be2c89b69c2b068fc378daa952ba7f163c4a11628f55a4df523b3ef5f80a4611dbb576004358152600760205260408120928451936001600160401b038511611da757602095611c5c86611c5684546135ad565b846138e9565b8690601f8711600114611d40579580611c8d92604097988792610d565750508160011b915f199060031b1c19161790565b90555b600681810180546001600160a01b03199081166001600160a01b0388169081179092556064356005850181905560038501805461ff00191661030017905542600b9095019490945560043580865292885294909320805490941683179093556040519081529091907fafe0d976a2b0713c20e0def422f87794fa53fa7dba8c5371e8eb95d993fa81e9908590a360015f8051602061447f833981519152556040516001600160a01b039091168152f35b9082855287852091855b601f1989168110611d90575091879160019360409899601f19811610611d78575b505050811b019055611c90565b01515f1960f88460031b161c191690555f8080611d6b565b919289600181928685015181550194019201611d4a565b634e487b7160e01b83526041600452602483fd5b602490604051906339e3563760e11b82526004820152fd5b611e026004355f525f8051602061449f83398151915260205260405f206001600160601b0360a01b8154169055565b611e0b8361343b565b80545f19019055611bcb565b604051633250574960e11b815260048101839052602490fd5b611e39906134d4565b6102c457805f611b85565b6040513d84823e3d90fd5b8680fd5b9095506020813d602011611e93575b81611e6f6020938361351d565b81010312611e8f57516001600160a01b0381168103611e8f57945f611ac4565b8480fd5b3d9150611e62565b6040513d87823e3d90fd5b600788015460405163da76460960e01b81527ffd77c08fbfa2352133e82db8dcdbc1defaab53968a3fa9d57c4c2810bcdb097360048201526001600160a01b0390911660248201529160209183916044918391905af18015611e9b57611f0d575b80611a30565b602090813d8311611f31575b611f23818361351d565b81010312610fe1575f611f07565b503d611f19565b9091506020813d602011611f64575b81611f546020938361351d565b81010312610fe15751905f611a29565b3d9150611f47565b6040513d88823e3d90fd5b60405162461bcd60e51b8152602060048201526011602482015270105b1c9958591e481d1bdad95b9a5e9959607a1b6044820152606490fd5b60405162461bcd60e51b8152602060048201526012602482015271105cdcd95d081b9bdd081d995c9a599a595960721b6044820152606490fd5b634e487b7160e01b85526021600452602485fd5b604051633ee5aeb560e01b8152600490fd5b60405162461bcd60e51b815260206004820152602260248201527f4879627269644173736574546f6b656e697a65723a206f6e6c79206761746577604482015261617960f01b6064820152608490fd5b50346102c457806003193601126102c4577f00000000000000000000000000000000000000000000000000000000000000006001600160a01b031630036120cb5760206040517f360894a13ba1a3210667c828492db98dca3e2076cc3735a920a3ca505d382bbc8152f35b60405163703e46dd60e11b8152600490fd5b5060403660031901126102c4576120f2613338565b6024356001600160401b0381116103875761211190369060040161358f565b6001600160a01b037f000000000000000000000000000000000000000000000000000000000000000081163081149081156122a9575b506120cb57612154613d12565b8216916040516352d1902d60e01b8152602081600481875afa859181612271575b5061219357604051634c9c8ce360e01b815260048101859052602490fd5b9284937f360894a13ba1a3210667c828492db98dca3e2076cc3735a920a3ca505d382bbc908181036122595750823b156122405780546001600160a01b0319168217905560405184917fbc7cd75a20ee27fd9adebab32041f755214dbc6bffa90cc0225b39da2e5c2d3b8380a283511561222457508083602061085995519101845af461221e6142fe565b9161435b565b9250505034612231575080f35b63b398979f60e01b8152600490fd5b604051634c9c8ce360e01b815260048101839052602490fd5b60249060405190632a87526960e21b82526004820152fd5b9091506020813d6020116122a1575b8161228d6020938361351d565b8101031261229d5751905f612175565b8580fd5b3d9150612280565b9050817f360894a13ba1a3210667c828492db98dca3e2076cc3735a920a3ca505d382bbc541614155f612147565b50346102c45760203660031901126102c4576122f4600435613a43565b906106a9604051928392151583526040602084015260408301906133b4565b50346102c45760403660031901126102c45761232d613338565b6001600160a01b03168152600a60205260408120805460243592908310156102c457602061235b84846134ab565b90546040519160031b1c8152f35b50346102c457612378366133d9565b6040519160208301938385106001600160401b038611176123a2576110d294604052858452613b64565b634e487b7160e01b5f52604160045260245ffd5b50346102c457806003193601126102c4576020600f54604051908152f35b50346102c457806003193601126102c4576123ed613d12565b5f8051602061443f833981519152805460ff8116156124395760ff191690557f5db9ee0a495bf2e6ff9c91a7834c1ba4fdd244a5e8aa4e537bd38aeae4b073aa6020604051338152a180f35b604051638dfc202b60e01b8152600490fd5b50346102c45760803660031901126102c4576004356024908135916044356001600160401b038111611e8f5761248590369060040161340e565b91906064356001600160401b038111611e4f576124a690369060040161340e565b6124ae61420a565b338852600b60205260ff604089205416156128df5785885260086020526124da604089205415156139f8565b60105487106128a5578588526008602052600360408920019460ff865460081c166006811015612892578015908115612887575b501561284c57612520600f5442613a36565b878a52600960205260408a20906125706040519561253d876134e7565b8b875261255a6020880198338a5260408901964288523691613559565b9560608801968752600160808901523691613559565b60a086015260c0850152805490600160401b8210156128395790612599916001820181556136b5565b9490946128265783518555516001850180546001600160a01b0319166001600160a01b0392909216919091179055516002840155518051906001600160401b038211612813576125f9826125f060038701546135ad565b600387016138e9565b602090601f83116001146127a55761262792918a9183610d565750508160011b915f199060031b1c19161790565b60038301555b61264c60808201511515600484019060ff801983541691151516179055565b6005820160a08201518051906001600160401b0382116127925761267a8261267485546135ad565b856138e9565b6020908a601f841160011461272857928060c095936126b0936006989692610d565750508160011b915f199060031b1c19161790565b90555b015191015581549060ff8260081c16906006821015612716575015612704575b50506040519182527f1a3669eebe3bbdbc7fbad790c39c4d320d3d32def8e0dbf67592fa209eba5d6060203393a380f35b61ff0019166101001790555f806126d3565b634e487b7160e01b8752602160045286fd5b50838b5260208b209190601f1984168c5b81811061277a57509260019285926006989660c0989610612762575b505050811b0190556126b3565b01515f1960f88460031b161c191690555f8080612755565b92936020600181928786015181550195019301612739565b634e487b7160e01b8a526041600452858afd5b9190600385018a5260208a20908a935b601f19841685106127f8576001945083601f198116106127e0575b505050811b01600383015561262d565b01515f1960f88460031b161c191690555f80806127d0565b818101518355602094850194600190930192909101906127b5565b634e487b7160e01b895260416004528489fd5b634e487b7160e01b8a5260048a9052858afd5b634e487b7160e01b8b526041600452868bfd5b60405162461bcd60e51b815260206004820152601481870152734173736574206e6f742072657669657761626c6560601b6044820152606490fd5b60019150145f61250e565b634e487b7160e01b8a526021600452858afd5b60405162461bcd60e51b8152602060048201526013818601527256616c75652062656c6f77206d696e696d756d60681b6044820152606490fd5b60405162461bcd60e51b8152602060048201526017818601527f4e6f7420617574686f72697a65642076616c7561746f720000000000000000006044820152606490fd5b5034610fe15760a0366003190112610fe1576001600160401b03600435818111610fe15761295590369060040161340e565b90602435838111610fe15761296e90369060040161340e565b60076044351015610fe15760643594808611610fe15736602387011215610fe15780866004013511610fe157366024876004013560051b88010111610fe157608435908111610fe1576129c590369060040161340e565b6129d096919661420a565b600254604051632a5bb1b760e11b815233600482015290602090829060249082906001600160a01b03165afa908115612c42575f91612e5c575b5015612e285785151580612e1d575b15612de95782151580612ddd575b15612da2578160040135151580612d93575b15612d5a575f9291925b83600401358110612caa5750612ac190600d5497612a60896138c7565b600d55885f526008602052612a9060405f20948a8655600197612a878b8b60018a01613938565b60028701613938565b60038401805461ffff191660443560ff161790556007840180546001600160a01b0319163317905560098401613938565b42600a8201556008015f5b82600401358110612c4d5750505050335f52600a60205260405f208054600160401b8110156123a257612b04916001820181556134ab565b8154600391821b86811b5f1990911b19909116179091555460405191906001600160a01b031683826020850137612b50604084868101604435602082015203602081018652018461351d565b803b15610fe157612bb55f9391849260405195868094819363a66dc69360e01b83527f6279f6e163d1c7d85e512c3f08eacc53c07b913c57e7662e6e29565b7cf746bf60048401523360248401528b60448401526080606484015260848301906133b4565b03925af1908115612c425760209585937f11212c8bc4beebad17ab2ae3765cfc61915a84fa95531745e4b5bb27cef12d2893612c31575b50846040519260408452816040850152606084013760608583010152612c16868201604435613687565b3393601f01601f1916810181900360600190a3604051908152f35b612c3b91506134d4565b5f80612bec565b6040513d5f823e3d90fd5b612c5f81846004013560248601613886565b8392919254600160401b8110156123a2578087612c7f92018655856134ab565b919091612c97578693612c9192613938565b01612acc565b634e487b7160e01b5f525f60045260245ffd5b60ff6020612cc383876004989798013560248801613886565b91908260405193849283378101600c8152030190205416612d1d57806020612cf5600193866004013560248801613886565b91908260405193849283378101600c8152030190208260ff1982541617905501929192612a43565b60405162461bcd60e51b8152602060048201526015602482015274111bd8dd5b595b9d08185b1c9958591e481d5cd959605a1b6044820152606490fd5b60405162461bcd60e51b8152602060048201526011602482015270496e76616c696420646f63756d656e747360781b6044820152606490fd5b50600a82600401351115612a39565b60405162461bcd60e51b815260206004820152601360248201527224b73b30b634b2103232b9b1b934b83a34b7b760691b6044820152606490fd5b506101f4831115612a27565b60405162461bcd60e51b815260206004820152600c60248201526b496e76616c6964206e616d6560a01b6044820152606490fd5b506064861115612a19565b60405162461bcd60e51b815260206004820152600c60248201526b12d650c81c995c5d5a5c995960a21b6044820152606490fd5b90506020813d602011612e8f575b81612e776020938361351d565b81010312610fe157518015158103610fe1575f612a0a565b3d9150612e6a565b34610fe1576040366003190112610fe157612eb061334e565b336001600160a01b03821603612ece57612ecc90600435613e59565b005b60405163334bd91960e11b8152600490fd5b34610fe1576040366003190112610fe157612ecc600435612eff61334e565b90805f525f8051602061441f833981519152602052612f24600160405f200154613d6d565b614154565b34610fe157602080600319360112610fe1576001600160a01b03612f4b613338565b165f52600a815260405f20604051908183825491828152019081925f52845f20905f5b86828210612fc3578686612f848288038361351d565b60405192839281840190828552518091526040840192915f5b828110612fac57505050500390f35b835185528695509381019392810192600101612f9d565b835485529093019260019283019201612f6e565b34610fe1576020366003190112610fe1576004355f525f8051602061441f8339815191526020526020600160405f200154604051908152f35b34610fe157612ecc613021366133d9565b916136ce565b34610fe1576020366003190112610fe1576004355f526006602052602060018060a01b0360405f205416604051908152f35b34610fe1576040366003190112610fe157613072613338565b60243561307e816141c4565b33151580613128575b8061310a575b6130f2576001600160a01b039283169282918491167f8c5be1e5ebec7d5bd14f71427d1e84f3dd0314c0f7b2291e5b200ac8c7c3b9255f80a45f9081525f8051602061449f8339815191526020526040902080546001600160a01b0319169091179055005b60405163a9fbf51f60e01b8152336004820152602490fd5b5061311481613473565b335f5260205260ff60405f2054161561308d565b506001600160a01b038116331415613087565b34610fe1576020366003190112610fe157600435613158816141c4565b505f525f8051602061449f833981519152602052602060018060a01b0360405f205416604051908152f35b34610fe1575f366003190112610fe1576040515f805160206143df8339815191528054825f6131b1836135ad565b92838352602094600191866001821691825f1461133b5750506001146131df5750506112e09250038361351d565b8592505f525f805160206144ff833981519152905f915b85831061320e5750506112e0935082010185806112d2565b805483890185015287945086939092019181016131f6565b34610fe15760207f8834f82d05d9a65903a0ef9ca145fd65cec65f2f4451a67ff1d1d090181ecf8661325736613364565b613262939193613c99565b6001600160a01b0384165f818152600b845260409020805460ff191660ff841515161790559381156132a45761329790613ed8565b505b6040519015158152a2005b6132ad90613d9b565b50613299565b34610fe1576020366003190112610fe1576004359063ffffffff60e01b8216809203610fe157602091637965db0b60e01b81149081156132f5575b5015158152f35b6380ac58cd60e01b811491508115613327575b8115613316575b50836132ee565b6301ffc9a760e01b1490508361330f565b635b5e139f60e01b81149150613308565b600435906001600160a01b0382168203610fe157565b602435906001600160a01b0382168203610fe157565b6040906003190112610fe1576004356001600160a01b0381168103610fe157906024358015158103610fe15790565b5f5b8381106133a45750505f910152565b8181015183820152602001613395565b906020916133cd81518092818552858086019101613393565b601f01601f1916010190565b6060906003190112610fe1576001600160a01b03906004358281168103610fe157916024359081168103610fe1579060443590565b9181601f84011215610fe1578235916001600160401b038311610fe15760208381860195010111610fe157565b6001600160a01b03165f9081527f80bb2b638cc20bc4d0a60d66940f3ab4a00c1d7b313497ca82fb0b4ab00793036020526040902090565b6001600160a01b03165f9081527f80bb2b638cc20bc4d0a60d66940f3ab4a00c1d7b313497ca82fb0b4ab00793056020526040902090565b80548210156134c0575f5260205f2001905f90565b634e487b7160e01b5f52603260045260245ffd5b6001600160401b0381116123a257604052565b60e081019081106001600160401b038211176123a257604052565b604081019081106001600160401b038211176123a257604052565b90601f801991011681019081106001600160401b038211176123a257604052565b6001600160401b0381116123a257601f01601f191660200190565b9291926135658261353e565b91613573604051938461351d565b829481845281830111610fe1578281602093845f960137010152565b9080601f83011215610fe1578160206135aa93359101613559565b90565b90600182811c921680156135db575b60208310146135c757565b634e487b7160e01b5f52602260045260245ffd5b91607f16916135bc565b9060405191825f82546135f7816135ad565b908184526020946001916001811690815f146136655750600114613627575b5050506136259250038361351d565b565b5f90815285812095935091905b81831061364d57505061362593508201015f8080613616565b85548884018501529485019487945091830191613634565b9250505061362594925060ff191682840152151560051b8201015f8080613616565b9060078210156136945752565b634e487b7160e01b5f52602160045260245ffd5b9060068210156136945752565b80548210156134c0575f52600760205f20910201905f90565b6001600160a01b038281169391841561386e57825f52825f8051602061445f833981519152958660205260409684885f20541696331515806137cd575b5061371a90886137915761343b565b60018154019055825f52602052865f20816001600160601b0360a01b825416179055857fddf252ad1be2c89b69c2b068fc378daa952ba7f163c4a11628f55a4df523b3ef5f80a416928383036137705750505050565b6064945051926364283d7b60e01b8452600484015260248301526044820152fd5b5f8581525f8051602061449f8339815191526020526040902080546001600160a01b03191690556137c18961343b565b80545f1901905561343b565b929350909180613820575b156137e757908592915f61370b565b878688613804576024915190637e27328960e01b82526004820152fd5b604491519063177e802f60e01b82523360048301526024820152fd5b503387148015613852575b806137d85750855f525f8051602061449f8339815191526020523385895f205416146137d8565b5061385c87613473565b335f5260205260ff885f20541661382b565b604051633250574960e11b81525f6004820152602490fd5b91908110156134c05760051b81013590601e1981360301821215610fe15701908135916001600160401b038311610fe1576020018236038113610fe1579190565b5f1981146138d55760010190565b634e487b7160e01b5f52601160045260245ffd5b601f82116138f657505050565b5f5260205f20906020601f840160051c8301931061392e575b601f0160051c01905b818110613923575050565b5f8155600101613918565b909150819061390f565b9092916001600160401b0381116123a25761395781611c5684546135ad565b5f601f82116001146139945781906139859394955f926139895750508160011b915f199060031b1c19161790565b9055565b013590505f80610b61565b601f19821694835f5260209160205f20925f905b8882106139e0575050836001959697106139c7575b505050811b019055565b01355f19600384901b60f8161c191690555f80806139bd565b806001849682949587013581550195019201906139a8565b156139ff57565b60405162461bcd60e51b815260206004820152600f60248201526e105cdcd95d081b9bdd08199bdd5b99608a1b6044820152606490fd5b919082018092116138d557565b5f52600860205260405f20805415613b295760ff600382015460081c16600681101561369457600203613af857600601546001600160a01b0316613abd57600190604051613a9081613502565b601f81527f417373657420697320726561647920666f7220746f6b656e697a6174696f6e00602082015290565b5f90604051613acb81613502565b601781527f417373657420616c726561647920746f6b656e697a6564000000000000000000602082015290565b505f90604051613b0781613502565b6012815271105cdcd95d081b9bdd081d995c9a599a595960721b602082015290565b505f90604051613b3881613502565b600f81526e105cdcd95d081b9bdd08199bdd5b99608a1b602082015290565b9060048210156136945752565b91929092613b738185856136ce565b833b613b80575b50505050565b60209060018060a01b0380951694613bc76040519485938493630a85bd0160e11b9889865233600487015216602485015260448401526080606484015260848301906133b4565b03815f875af15f9181613c3d575b50613c0c5782613be36142fe565b8051919082613c0557604051633250574960e11b815260048101839052602490fd5b6020915001fd5b6001600160e01b03191603613c2557505f808080613b7a565b60249060405190633250574960e11b82526004820152fd5b9091506020813d602011613c7a575b81613c596020938361351d565b81010312610fe157516001600160e01b031981168103610fe157905f613bd5565b3d9150613c4c565b6001600160401b0381116123a25760051b60200190565b335f9081527fa26849eab9cee3cde5d495fa953d5734cb3d63ad54d63a013d2de37c2cd3b5a160205260409020547f5e608239aadc5f1e750186f22bbac828160fb6191c4a7b9eee6b9432b1eac59e9060ff1615613cf45750565b6044906040519063e2517d3f60e01b82523360048301526024820152fd5b335f9081527f3e838821d95a85f47a6fe2e15180d9f1c9d5108b580f7c26ebf8db8187408f3360205260409020547f5246556c0ab216b5b325ad7c539bfbd1a07c768773cdf810fecd3c3375c274079060ff1615613cf45750565b805f525f8051602061441f83398151915260205260405f20335f5260205260ff60405f20541615613cf45750565b6001600160a01b03165f8181527fccd1d8e1b8d649b4b0d6b6f66dbd1fc52e16803425b2263dcdb6ff555170276e60205260409020547f96ddb9f5c6ca45b5e7ff9e3a491f2c440fd97d9de1e0e224ccebf3370e1f239891905f8051602061441f8339815191529060ff1615613e5257825f5260205260405f20815f5260205260405f2060ff19815416905533917ff6391f5c32d9c69d2a47ea670b442974b53935d1edc7fd64eb21e047a839171b5f80a4600190565b5050505f90565b90815f525f8051602061441f8339815191528060205260405f209160018060a01b031691825f5260205260ff60405f2054165f14613e5257825f5260205260405f20815f5260205260405f2060ff19815416905533917ff6391f5c32d9c69d2a47ea670b442974b53935d1edc7fd64eb21e047a839171b5f80a4600190565b6001600160a01b03165f8181527fccd1d8e1b8d649b4b0d6b6f66dbd1fc52e16803425b2263dcdb6ff555170276e60205260409020547f96ddb9f5c6ca45b5e7ff9e3a491f2c440fd97d9de1e0e224ccebf3370e1f239891905f8051602061441f8339815191529060ff16613e5257825f5260205260405f20815f5260205260405f20600160ff1982541617905533915f805160206143bf8339815191525f80a4600190565b6001600160a01b03165f8181527fb7db2dd08fcb62d0c9e08c51941cae53c267786a0b75803fb7960902fc8ef97d60205260409020545f8051602061441f8339815191529060ff16614002575f805260205260405f20815f5260205260405f20600160ff1982541617905533905f5f805160206143bf8339815191528180a4600190565b50505f90565b6001600160a01b03165f8181527f3e838821d95a85f47a6fe2e15180d9f1c9d5108b580f7c26ebf8db8187408f3360205260409020547f5246556c0ab216b5b325ad7c539bfbd1a07c768773cdf810fecd3c3375c2740791905f8051602061441f8339815191529060ff16613e5257825f5260205260405f20815f5260205260405f20600160ff1982541617905533915f805160206143bf8339815191525f80a4600190565b6001600160a01b03165f8181527fa26849eab9cee3cde5d495fa953d5734cb3d63ad54d63a013d2de37c2cd3b5a160205260409020547f5e608239aadc5f1e750186f22bbac828160fb6191c4a7b9eee6b9432b1eac59e91905f8051602061441f8339815191529060ff16613e5257825f5260205260405f20815f5260205260405f20600160ff1982541617905533915f805160206143bf8339815191525f80a4600190565b90815f525f8051602061441f8339815191528060205260405f209160018060a01b031691825f5260205260ff60405f205416155f14613e5257825f5260205260405f20815f5260205260405f20600160ff1982541617905533915f805160206143bf8339815191525f80a4600190565b5f8181525f8051602061445f83398151915260205260409020546001600160a01b03169081156141f2575090565b60249060405190637e27328960e01b82526004820152fd5b60ff5f8051602061443f833981519152541661422257565b60405163d93c066560e01b8152600490fd5b5f90815260096020526040812080548291825b82811061429657505050811561425b570490565b60405162461bcd60e51b81526020600482015260136024820152724e6f2076616c69642076616c756174696f6e7360681b6044820152606490fd5b60ff60046142a483856136b5565b50015416806142e6575b6142bb575b600101614247565b93926142de6142d86001926142d088866136b5565b505490613a36565b946138c7565b9490506142b3565b5060066142f382846136b5565b5001544211156142ae565b3d15614328573d9061430f8261353e565b9161431d604051938461351d565b82523d5f602084013e565b606090565b60ff5f805160206144bf8339815191525460401c161561434957565b604051631afcd79f60e31b8152600490fd5b90614382575080511561437057602081519101fd5b60405163d6bda27560e01b8152600490fd5b815115806143b5575b614393575090565b604051639996b31560e01b81526001600160a01b039091166004820152602490fd5b50803b1561438b56fe2f8788117e7eff1d82e926ec794901d17c78024a50270940304540a733656f0d80bb2b638cc20bc4d0a60d66940f3ab4a00c1d7b313497ca82fb0b4ab0079300f4bad0a69248f59680a4f2b3000328cec71a413447c96781cfe5996daa8c456e02dd7bc7dec4dceedda775e58dd541e08a116c6c53815c0bd028192f7b626800cd5ed15c6e187e77e9aee88184c21f4f2182ab5827cb3b7e07fbedcd63f0330080bb2b638cc20bc4d0a60d66940f3ab4a00c1d7b313497ca82fb0b4ab00793029b779b17422d0df92223018b32b4d1fa46e071723d6817e2486d003becc55f0080bb2b638cc20bc4d0a60d66940f3ab4a00c1d7b313497ca82fb0b4ab0079304f0c57e16840df040f15088dc2f81fe391c3923bec73e23a9662efc9c229c6a0080bb2b638cc20bc4d0a60d66940f3ab4a00c1d7b313497ca82fb0b4ab007930137c58c799b6609234b945e882912ee9ad34948a1dfaa20a97485e1a7752bbf81a264697066735822122005cbeeb989afafac322b0e41cba5ad20613daa1df306f329077299733d63829b64736f6c63430008160033","linkReferences":{}},"methodIdentifiers":{"ASSET_ADMIN_ROLE()":"6c28935e","DEFAULT_ADMIN_ROLE()":"a217fddf","PLATFORM_ADMIN_ROLE()":"685d34ff","UPGRADE_INTERFACE_VERSION()":"ad3cb1cc","VALUATOR_ROLE()":"7ef0c851","addValuation(uint256,uint256,string,string)":"3d9b45ec","approve(address,uint256)":"095ea7b3","assetValuations(uint256,uint256)":"fe1d763b","assets(uint256)":"cf35bdd0","auditTrail()":"aba02c1f","authorizeValuator(address,bool)":"05208bff","authorizedValuators(address)":"66023f6c","balanceOf(address)":"70a08231","canTokenizeAsset(uint256)":"4e5f8c1a","complianceManager()":"ff7bce23","createHybridAsset(uint256,string,string,uint256,uint8,uint8,string,string)":"54dae964","deedToToken(uint256)":"18ce6c71","feeManager()":"d0fb0203","getApproved(uint256)":"081812fc","getAsset(uint256)":"eac8f5b8","getAssetValuations(uint256)":"f5a6a017","getAssetsByOwner(address)":"276f0934","getLatestValuation(uint256)":"705bc788","getRoleAdmin(bytes32)":"248a9ca3","grantRole(bytes32,address)":"2f2ff15d","hasRole(bytes32,address)":"91d14854","initialize(address,address,address,address,address,address)":"cc2a9a5b","isApprovedForAll(address,address)":"e985e9c5","minAssetValue()":"68ca5b72","minValuations()":"774ac394","name()":"06fdde03","nextAssetId()":"8ed91318","ownerAssets(address,uint256)":"455bd951","ownerOf(uint256)":"6352211e","pause()":"8456cb59","paused()":"5c975abb","proxiableUUID()":"52d1902d","registerAsset(string,string,uint8,string[],string)":"3adc7b6e","renounceRole(bytes32,address)":"36568abe","revokeRole(bytes32,address)":"d547741f","safeTransferFrom(address,address,uint256)":"42842e0e","safeTransferFrom(address,address,uint256,bytes)":"b88d4fde","setApprovalForAll(address,bool)":"a22cb465","setMinAssetValue(uint256)":"6eafcb81","setMinValuations(uint256)":"57f1f1db","setVerificationGateway(address)":"d9dd7831","supportsInterface(bytes4)":"01ffc9a7","symbol()":"95d89b41","tokenFactory()":"e77772fe","tokenRegistry()":"9d23c4c7","tokenURI(uint256)":"c87b56dd","transferFrom(address,address,uint256)":"23b872dd","unpause()":"3f4ba83a","upgradeToAndCall(address,bytes)":"4f1ef286","usedDocumentHashes(string)":"b10c3b40","valuationValidPeriod()":"3fd88bcc","verificationGateway()":"d47256cf","verifyAsset(uint256)":"59fd285c"},"id":6}