{"abi":[{"type":"constructor","inputs":[],"stateMutability":"nonpayable"},{"type":"function","name":"DEFAULT_ADMIN_ROLE","inputs":[],"outputs":[{"name":"","type":"bytes32","internalType":"bytes32"}],"stateMutability":"view"},{"type":"function","name":"PLATFORM_ADMIN_ROLE","inputs":[],"outputs":[{"name":"","type":"bytes32","internalType":"bytes32"}],"stateMutability":"view"},{"type":"function","name":"UPGRADE_INTERFACE_VERSION","inputs":[],"outputs":[{"name":"","type":"string","internalType":"string"}],"stateMutability":"view"},{"type":"function","name":"approve","inputs":[{"name":"to","type":"address","internalType":"address"},{"name":"tokenId","type":"uint256","internalType":"uint256"}],"outputs":[],"stateMutability":"nonpayable"},{"type":"function","name":"assetTokenizer","inputs":[],"outputs":[{"name":"","type":"address","internalType":"contract IAssetTokenizer"}],"stateMutability":"view"},{"type":"function","name":"balanceOf","inputs":[{"name":"owner","type":"address","internalType":"address"}],"outputs":[{"name":"","type":"uint256","internalType":"uint256"}],"stateMutability":"view"},{"type":"function","name":"createHybridAsset","inputs":[{"name":"assetId","type":"uint256","internalType":"uint256"},{"name":"name","type":"string","internalType":"string"},{"name":"symbol","type":"string","internalType":"string"},{"name":"supply","type":"uint256","internalType":"uint256"},{"name":"decimals","type":"uint8","internalType":"uint8"},{"name":"tokenType","type":"uint8","internalType":"uint8"},{"name":"metadataURI","type":"string","internalType":"string"},{"name":"deedURI","type":"string","internalType":"string"}],"outputs":[{"name":"tokenAddress","type":"address","internalType":"address"}],"stateMutability":"nonpayable"},{"type":"function","name":"deedToToken","inputs":[{"name":"","type":"uint256","internalType":"uint256"}],"outputs":[{"name":"","type":"address","internalType":"address"}],"stateMutability":"view"},{"type":"function","name":"getApproved","inputs":[{"name":"tokenId","type":"uint256","internalType":"uint256"}],"outputs":[{"name":"","type":"address","internalType":"address"}],"stateMutability":"view"},{"type":"function","name":"getRoleAdmin","inputs":[{"name":"role","type":"bytes32","internalType":"bytes32"}],"outputs":[{"name":"","type":"bytes32","internalType":"bytes32"}],"stateMutability":"view"},{"type":"function","name":"grantRole","inputs":[{"name":"role","type":"bytes32","internalType":"bytes32"},{"name":"account","type":"address","internalType":"address"}],"outputs":[],"stateMutability":"nonpayable"},{"type":"function","name":"hasRole","inputs":[{"name":"role","type":"bytes32","internalType":"bytes32"},{"name":"account","type":"address","internalType":"address"}],"outputs":[{"name":"","type":"bool","internalType":"bool"}],"stateMutability":"view"},{"type":"function","name":"initialize","inputs":[{"name":"admin","type":"address","internalType":"address"},{"name":"assetTokenizer_","type":"address","internalType":"address"},{"name":"tokenFactory_","type":"address","internalType":"address"},{"name":"tokenRegistry_","type":"address","internalType":"address"}],"outputs":[],"stateMutability":"nonpayable"},{"type":"function","name":"isApprovedForAll","inputs":[{"name":"owner","type":"address","internalType":"address"},{"name":"operator","type":"address","internalType":"address"}],"outputs":[{"name":"","type":"bool","internalType":"bool"}],"stateMutability":"view"},{"type":"function","name":"mintDeed","inputs":[{"name":"assetId","type":"uint256","internalType":"uint256"},{"name":"to","type":"address","internalType":"address"},{"name":"deedURI","type":"string","internalType":"string"}],"outputs":[],"stateMutability":"nonpayable"},{"type":"function","name":"name","inputs":[],"outputs":[{"name":"","type":"string","internalType":"string"}],"stateMutability":"view"},{"type":"function","name":"ownerOf","inputs":[{"name":"tokenId","type":"uint256","internalType":"uint256"}],"outputs":[{"name":"","type":"address","internalType":"address"}],"stateMutability":"view"},{"type":"function","name":"pause","inputs":[],"outputs":[],"stateMutability":"nonpayable"},{"type":"function","name":"paused","inputs":[],"outputs":[{"name":"","type":"bool","internalType":"bool"}],"stateMutability":"view"},{"type":"function","name":"proxiableUUID","inputs":[],"outputs":[{"name":"","type":"bytes32","internalType":"bytes32"}],"stateMutability":"view"},{"type":"function","name":"renounceRole","inputs":[{"name":"role","type":"bytes32","internalType":"bytes32"},{"name":"callerConfirmation","type":"address","internalType":"address"}],"outputs":[],"stateMutability":"nonpayable"},{"type":"function","name":"revokeRole","inputs":[{"name":"role","type":"bytes32","internalType":"bytes32"},{"name":"account","type":"address","internalType":"address"}],"outputs":[],"stateMutability":"nonpayable"},{"type":"function","name":"safeTransferFrom","inputs":[{"name":"from","type":"address","internalType":"address"},{"name":"to","type":"address","internalType":"address"},{"name":"tokenId","type":"uint256","internalType":"uint256"}],"outputs":[],"stateMutability":"nonpayable"},{"type":"function","name":"safeTransferFrom","inputs":[{"name":"from","type":"address","internalType":"address"},{"name":"to","type":"address","internalType":"address"},{"name":"tokenId","type":"uint256","internalType":"uint256"},{"name":"data","type":"bytes","internalType":"bytes"}],"outputs":[],"stateMutability":"nonpayable"},{"type":"function","name":"setApprovalForAll","inputs":[{"name":"operator","type":"address","internalType":"address"},{"name":"approved","type":"bool","internalType":"bool"}],"outputs":[],"stateMutability":"nonpayable"},{"type":"function","name":"setVerificationGateway","inputs":[{"name":"gateway","type":"address","internalType":"address"}],"outputs":[],"stateMutability":"nonpayable"},{"type":"function","name":"supportsInterface","inputs":[{"name":"interfaceId","type":"bytes4","internalType":"bytes4"}],"outputs":[{"name":"","type":"bool","internalType":"bool"}],"stateMutability":"view"},{"type":"function","name":"symbol","inputs":[],"outputs":[{"name":"","type":"string","internalType":"string"}],"stateMutability":"view"},{"type":"function","name":"tokenFactory","inputs":[],"outputs":[{"name":"","type":"address","internalType":"contract ITokenFactory"}],"stateMutability":"view"},{"type":"function","name":"tokenRegistry","inputs":[],"outputs":[{"name":"","type":"address","internalType":"contract ITokenRegistry"}],"stateMutability":"view"},{"type":"function","name":"tokenURI","inputs":[{"name":"tokenId","type":"uint256","internalType":"uint256"}],"outputs":[{"name":"","type":"string","internalType":"string"}],"stateMutability":"view"},{"type":"function","name":"transferFrom","inputs":[{"name":"from","type":"address","internalType":"address"},{"name":"to","type":"address","internalType":"address"},{"name":"tokenId","type":"uint256","internalType":"uint256"}],"outputs":[],"stateMutability":"nonpayable"},{"type":"function","name":"unpause","inputs":[],"outputs":[],"stateMutability":"nonpayable"},{"type":"function","name":"upgradeToAndCall","inputs":[{"name":"newImplementation","type":"address","internalType":"address"},{"name":"data","type":"bytes","internalType":"bytes"}],"outputs":[],"stateMutability":"payable"},{"type":"function","name":"verificationGateway","inputs":[],"outputs":[{"name":"","type":"address","internalType":"address"}],"stateMutability":"view"},{"type":"event","name":"Approval","inputs":[{"name":"owner","type":"address","indexed":true,"internalType":"address"},{"name":"approved","type":"address","indexed":true,"internalType":"address"},{"name":"tokenId","type":"uint256","indexed":true,"internalType":"uint256"}],"anonymous":false},{"type":"event","name":"ApprovalForAll","inputs":[{"name":"owner","type":"address","indexed":true,"internalType":"address"},{"name":"operator","type":"address","indexed":true,"internalType":"address"},{"name":"approved","type":"bool","indexed":false,"internalType":"bool"}],"anonymous":false},{"type":"event","name":"Initialized","inputs":[{"name":"version","type":"uint64","indexed":false,"internalType":"uint64"}],"anonymous":false},{"type":"event","name":"Paused","inputs":[{"name":"account","type":"address","indexed":false,"internalType":"address"}],"anonymous":false},{"type":"event","name":"RoleAdminChanged","inputs":[{"name":"role","type":"bytes32","indexed":true,"internalType":"bytes32"},{"name":"previousAdminRole","type":"bytes32","indexed":true,"internalType":"bytes32"},{"name":"newAdminRole","type":"bytes32","indexed":true,"internalType":"bytes32"}],"anonymous":false},{"type":"event","name":"RoleGranted","inputs":[{"name":"role","type":"bytes32","indexed":true,"internalType":"bytes32"},{"name":"account","type":"address","indexed":true,"internalType":"address"},{"name":"sender","type":"address","indexed":true,"internalType":"address"}],"anonymous":false},{"type":"event","name":"RoleRevoked","inputs":[{"name":"role","type":"bytes32","indexed":true,"internalType":"bytes32"},{"name":"account","type":"address","indexed":true,"internalType":"address"},{"name":"sender","type":"address","indexed":true,"internalType":"address"}],"anonymous":false},{"type":"event","name":"Transfer","inputs":[{"name":"from","type":"address","indexed":true,"internalType":"address"},{"name":"to","type":"address","indexed":true,"internalType":"address"},{"name":"tokenId","type":"uint256","indexed":true,"internalType":"uint256"}],"anonymous":false},{"type":"event","name":"Unpaused","inputs":[{"name":"account","type":"address","indexed":false,"internalType":"address"}],"anonymous":false},{"type":"event","name":"Upgraded","inputs":[{"name":"implementation","type":"address","indexed":true,"internalType":"address"}],"anonymous":false},{"type":"error","name":"AccessControlBadConfirmation","inputs":[]},{"type":"error","name":"AccessControlUnauthorizedAccount","inputs":[{"name":"account","type":"address","internalType":"address"},{"name":"neededRole","type":"bytes32","internalType":"bytes32"}]},{"type":"error","name":"AddressEmptyCode","inputs":[{"name":"target","type":"address","internalType":"address"}]},{"type":"error","name":"ERC1967InvalidImplementation","inputs":[{"name":"implementation","type":"address","internalType":"address"}]},{"type":"error","name":"ERC1967NonPayable","inputs":[]},{"type":"error","name":"ERC721IncorrectOwner","inputs":[{"name":"sender","type":"address","internalType":"address"},{"name":"tokenId","type":"uint256","internalType":"uint256"},{"name":"owner","type":"address","internalType":"address"}]},{"type":"error","name":"ERC721InsufficientApproval","inputs":[{"name":"operator","type":"address","internalType":"address"},{"name":"tokenId","type":"uint256","internalType":"uint256"}]},{"type":"error","name":"ERC721InvalidApprover","inputs":[{"name":"approver","type":"address","internalType":"address"}]},{"type":"error","name":"ERC721InvalidOperator","inputs":[{"name":"operator","type":"address","internalType":"address"}]},{"type":"error","name":"ERC721InvalidOwner","inputs":[{"name":"owner","type":"address","internalType":"address"}]},{"type":"error","name":"ERC721InvalidReceiver","inputs":[{"name":"receiver","type":"address","internalType":"address"}]},{"type":"error","name":"ERC721InvalidSender","inputs":[{"name":"sender","type":"address","internalType":"address"}]},{"type":"error","name":"ERC721NonexistentToken","inputs":[{"name":"tokenId","type":"uint256","internalType":"uint256"}]},{"type":"error","name":"EnforcedPause","inputs":[]},{"type":"error","name":"ExpectedPause","inputs":[]},{"type":"error","name":"FailedCall","inputs":[]},{"type":"error","name":"InvalidInitialization","inputs":[]},{"type":"error","name":"NotInitializing","inputs":[]},{"type":"error","name":"ReentrancyGuardReentrantCall","inputs":[]},{"type":"error","name":"UUPSUnauthorizedCallContext","inputs":[]},{"type":"error","name":"UUPSUnsupportedProxiableUUID","inputs":[{"name":"slot","type":"bytes32","internalType":"bytes32"}]}],"bytecode":{"object":"0x60a080604052346100cc57306080527ff0c57e16840df040f15088dc2f81fe391c3923bec73e23a9662efc9c229c6a009081549060ff8260401c166100bd57506001600160401b036002600160401b031982821601610078575b6040516128d390816100d18239608051818181611695015261173d0152f35b6001600160401b031990911681179091556040519081527fc7f505b2f371ae2175ee4913f4499e1f2633a7b5936321eed1cdaeb6115181d290602090a15f8080610059565b63f92ee8a960e01b8152600490fd5b5f80fdfe6080806040526004361015610012575f80fd5b5f905f3560e01c90816301ffc9a714611ca35750806306fdde0314611bdd578063081812fc14611b95578063095ea7b314611ab357806318ce6c7114611a8157806323b872dd14611a6a578063248a9ca314611a315780632f2ff15d146119e857806336568abe146119a15780633f4ba83a1461192c57806342842e0e146118f45780634f1ef286146116ff57806352d1902d1461168357806352d91f9c1461165c57806354dae96414610f275780635c975abb14610ef85780636352211e14610ec7578063685d34ff14610e8c57806370a0823114610e3657806381fda95b14610cc05780638456cb5914610c5957806391d1485414610c0357806395d89b4114610b5d5780639d23c4c714610b34578063a217fddf14610b18578063a22cb46514610a74578063ad3cb1cc14610a2e578063b88d4fde146109d8578063c87b56dd14610881578063d47256cf14610858578063d547741f1461080a578063d9dd78311461078c578063e77772fe14610763578063e985e9c5146107165763f8c8765e1461019f575f80fd5b34610713576080366003190112610713576101b8611d6e565b906101c1611d84565b604435906001600160a01b038216820361070f576064356001600160a01b038116810361070f575f8051602061283e83398151915254926001600160401b038416801590816106ff575b60011490816106f5575b1590816106ec575b506106da5760016001600160401b03198516175f8051602061283e8339815191525560ff8460401c16156106ae575b6040519561025987611dcf565b6016875275121e589c9a59081499585b0815dbdc9b19081119595960521b60208801526040519661028988611dcf565b6004885263121495d160e21b60208901526102a26126cc565b6102aa6126cc565b8051906001600160401b03821161069a5781906102d45f8051602061275e83398151915254611e6c565b601f811161061f575b50602090601f8311600114610593578992610588575b50508160011b915f199060031b1c1916175f8051602061275e833981519152555b86516001600160401b0381116105745761033b5f8051602061285e83398151915254611e6c565b601f8111610504575b506020601f82116001146104775790806103cd9392899a60ff9a9261046c575b50508160011b915f199060031b1c1916175f8051602061285e833981519152555b61038d6126cc565b6103956126cc565b61039d6126cc565b6103a56126cc565b60015f805160206127fe833981519152556103be6126cc565b6103c78161233e565b506123db565b5085546001600160a01b03199081166001600160a01b0394851617875560018054821692851692909217909155600280549091169190921617905560401c16156104145780f35b68ff0000000000000000195f8051602061283e83398151915254165f8051602061283e833981519152557fc7f505b2f371ae2175ee4913f4499e1f2633a7b5936321eed1cdaeb6115181d2602060405160018152a180f35b015190505f80610364565b5f8051602061285e83398151915288525f8051602061277e83398151915298601f198316895b8181106104ec57509960019284926103cd969560ff9c9d106104d4575b505050811b015f8051602061285e83398151915255610385565b01515f1960f88460031b161c191690555f80806104ba565b838301518c556001909b019a6020938401930161049d565b5f8051602061285e8339815191528852601f820160051c5f8051602061277e8339815191520160208310610560575b601f820160051c5f8051602061277e8339815191520181106105555750610344565b888155600101610533565b505f8051602061277e833981519152610533565b634e487b7160e01b87526041600452602487fd5b015190505f806102f3565b92505f8051602061275e83398151915289525f8051602061287e8339815191529089935b601f1984168510610604576001945083601f198116106105ec575b505050811b015f8051602061275e83398151915255610314565b01515f1960f88460031b161c191690555f80806105d2565b818101518355602094850194600190930192909101906105b7565b9091505f8051602061275e8339815191528952601f830160051c5f8051602061287e8339815191520160208410610686575b908392915b601f820160051c5f8051602061287e83398151915201811061067857506102dd565b8a8155849350600101610656565b505f8051602061287e833981519152610651565b634e487b7160e01b88526041600452602488fd5b68ffffffffffffffffff19841668010000000000000001175f8051602061283e8339815191525561024c565b60405163f92ee8a960e01b8152600490fd5b9050155f61021d565b303b159150610215565b604086901c60ff1615915061020b565b5f80fd5b80fd5b503461071357604036600319011261071357610730611d6e565b61074161073b611d84565b916120fb565b9060018060a01b03165f52602052602060ff60405f2054166040519015158152f35b50346107135780600319360112610713576001546040516001600160a01b039091168152602090f35b5034610713576020366003190112610713576107a6611d6e565b6107ae612297565b6001600160a01b031680156107d3576001600160601b0360a01b600354161760035580f35b60405162461bcd60e51b815260206004820152600f60248201526e696e76616c6964206761746577617960881b6044820152606490fd5b50346107135760403660031901126107135761085460043561082a611d84565b908084525f8051602061279e83398151915260205261084f6001604086200154612310565b61251e565b5080f35b50346107135780600319360112610713576003546040516001600160a01b039091168152602090f35b5034610713576020806003193601126109d4576004358083525f805160206127de833981519152825260408320546001600160a01b03161561097f5782526005815260408220604051838194908354906108da82611e6c565b94858552600192876001821691825f1461095b57505060011461091f575b50505061090792500383611dea565b61091b604051928284938452830190611d49565b0390f35b869350819291528282205b85831061094357505061090793508201015f80806108f8565b8054838901850152879450869390920191810161092a565b93509450505061090794915060ff191682840152151560051b8201015f80806108f8565b60405162461bcd60e51b815260048101839052602760248201527f4879627269644173736574546f6b656e697a65723a206e6f6e6578697374656e6044820152663a103a37b5b2b760c91b6064820152608490fd5b5080fd5b5034610713576080366003190112610713576109f2611d6e565b6109fa611d84565b606435916001600160401b038311610a2a57610a1d610a27933690600401611e26565b9160443591612133565b80f35b8380fd5b503461071357806003193601126107135761091b604051610a4e81611dcf565b60058152640352e302e360dc1b6020820152604051918291602083526020830190611d49565b503461071357604036600319011261071357610a8e611d6e565b60243590811515809203610b14576001600160a01b0316908115610afb57610ab5336120fb565b825f5260205260405f2060ff1981541660ff83161790556040519081527f17307eab39ab6107e8899845ad3d59bd9653f200f220920489ca2b5937696c3160203392a380f35b604051630b61174360e31b815260048101839052602490fd5b8280fd5b5034610713578060031936011261071357602090604051908152f35b50346107135780600319360112610713576002546040516001600160a01b039091168152602090f35b50346107135780600319360112610713576040519080825f8051602061285e833981519152928354610b8e81611e6c565b93848452602095600192876001821691825f1461095b575050600114610bbd5750505061090792500383611dea565b8152859250905f8051602061277e8339815191525b858310610beb57505061090793508201015f80806108f8565b80548389018501528794508693909201918101610bd2565b5034610713576040366003190112610713576040610c1f611d84565b9160043581525f8051602061279e833981519152602052209060018060a01b03165f52602052602060ff60405f2054166040519015158152f35b5034610713578060031936011261071357610c72612297565b610c7a61259d565b5f805160206127be833981519152600160ff198254161790557f62e78cea01bee320cd4e420270b5ea74000d11b0c9f74754ebdbfc544b05a2586020604051338152a180f35b50346107135760603660031901126107135760043590610cde611d84565b916001600160401b0390604435828111610a2a5781610d04610d1a923690600401611e26565b95610d0d612297565b610d1561259d565b6125c7565b82526020906005825260408320918451918211610e2257610d3b8354611e6c565b601f8111610ddf575b5080601f8311600114610d7e5750839482939492610d73575b50508160011b915f199060031b1c191617905580f35b015190505f80610d5d565b90601f198316958486528286209286905b888210610dc757505083600195969710610daf575b505050811b01905580f35b01515f1960f88460031b161c191690555f8080610da4565b80600185968294968601518155019501930190610d8f565b838552818520601f840160051c810191838510610e18575b601f0160051c01905b818110610e0d5750610d44565b858155600101610e00565b9091508190610df7565b634e487b7160e01b84526041600452602484fd5b503461071357602036600319011261071357610e50611d6e565b906001600160a01b03821615610e74576020610e6b836120c3565b54604051908152f35b602490604051906322718ad960e21b82526004820152fd5b503461071357806003193601126107135760206040517f5246556c0ab216b5b325ad7c539bfbd1a07c768773cdf810fecd3c3375c274078152f35b5034610713576020366003190112610713576020610ee6600435612251565b6040516001600160a01b039091168152f35b5034610713578060031936011261071357602060ff5f805160206127be83398151915254166040519015158152f35b503461070f5761010036600319011261070f576024356001600160401b03811161070f57610f59903690600401611e26565b906044356001600160401b03811161070f57610f79903690600401611e26565b9160843560ff8116810361070f5760a4359360ff8516850361070f5760c4356001600160401b03811161070f57610fb4903690600401611e26565b60e4356001600160401b03811161070f57610fd3903690600401611e26565b6003549096906001600160a01b0316330361160c57610ff061259d565b60025f805160206127fe83398151915254146115fa5760025f805160206127fe833981519152555f8054604051630cf35bdd60e41b81526004803590820152959190869060249082906001600160a01b03165afa948515611363575f805f925f98611458575b50600435036114215760ff60029116036113e3576001600160a01b03166113aa5760015460405163747d322360e11b815260c06004820152969060209088906001600160a01b0316815f816110f26110c66110b460c484018a611d49565b8381036003190160248501528d611d49565b606435604484015260ff8a16606484015260ff8b1660848401526003198382030160a48401528b611d49565b03925af1968715611363575f9761136e575b506002546001600160a01b031691823b1561070f57876111a75f9692879360ff61116098816111726040519d8e9c8d9b8c9a63d851c87960e01b8c5260018060a01b031660048c015261010060248c01526101048b0190611d49565b8981036003190160448b015290611d49565b6064803590890152941660848701521660a48501526001600160a01b038b1660c48501528382036003190160e4850152611d49565b03925af1801561136357611331575b506111c490600435906125c7565b6004358252600560205260408220918351926001600160401b03841161131d576111ee8154611e6c565b601f81116112d8575b506020948590601f861160011461127457948091604095968592611269575b50508160011b915f199060031b1c19161790555b60048035825284522080546001600160a01b0319166001600160a01b0392909216918217905560015f805160206127fe83398151915255604051908152f35b015190505f80611216565b8284528684209190601f198716855b8181106112c157509160019391886040989994106112a9575b505050811b01905561122a565b01515f1960f88460031b161c191690555f808061129c565b929389600181928786015181550195019301611283565b81835260208320601f860160051c81019160208710611313575b601f0160051c01905b81811061130857506111f7565b8381556001016112fb565b90915081906112f2565b634e487b7160e01b82526041600452602482fd5b9092506001600160401b03811161134f576040525f916111c46111b6565b634e487b7160e01b5f52604160045260245ffd5b6040513d5f823e3d90fd5b9096506020813d6020116113a2575b8161138a60209383611dea565b8101031261070f5761139b906120af565b955f611104565b3d915061137d565b60405162461bcd60e51b8152602060048201526011602482015270185b1c9958591e481d1bdad95b9a5e9959607a1b6044820152606490fd5b60405162461bcd60e51b8152602060048201526016602482015275185cdcd95d081b9bdd081591549251925151081e595d60521b6044820152606490fd5b60405162461bcd60e51b815260206004820152600f60248201526e185cdcd95d081b9bdd08199bdd5b99608a1b6044820152606490fd5b97505050503d94855f823e61146d8682611dea565b6101c081878101031261070f5780519560208201516001600160401b03811161070f5761149f9082840190840161205c565b5060408201516001600160401b03811161070f576114c29082840190840161205c565b506114cf606083016120a1565b506114dc608083016120a1565b966114e960e084016120af565b916114f761010085016120af565b936101208101516001600160401b03811161070f57828201601f82840101121561070f5780820151906001600160401b03821161134f5760208260051b926040519061154583860183611dea565b8152019084840160208483870101011161070f57602081850101915b602084838701010183106115c357505050506101408101516001600160401b03811161070f576115969083830190830161205c565b506101a08101516001600160401b03811161070f576115b8928201910161205c565b50969091965f611056565b8251906001600160401b03821161070f5760208092916115ed8293838b8b0191888c01010161205c565b8152019301929050611561565b604051633ee5aeb560e01b8152600490fd5b60405162461bcd60e51b815260206004820152602260248201527f4879627269644173736574546f6b656e697a65723a206f6e6c79206761746577604482015261617960f01b6064820152608490fd5b3461070f575f36600319011261070f575f546040516001600160a01b039091168152602090f35b3461070f575f36600319011261070f577f00000000000000000000000000000000000000000000000000000000000000006001600160a01b031630036116ed5760206040517f360894a13ba1a3210667c828492db98dca3e2076cc3735a920a3ca505d382bbc8152f35b60405163703e46dd60e11b8152600490fd5b604036600319011261070f57611713611d6e565b6024356001600160401b03811161070f57611732903690600401611e26565b906001600160a01b037f000000000000000000000000000000000000000000000000000000000000000081163081149081156118c6575b506116ed57611776612297565b8116906040516352d1902d60e01b8152602081600481865afa5f9181611892575b506117b557604051634c9c8ce360e01b815260048101849052602490fd5b7f360894a13ba1a3210667c828492db98dca3e2076cc3735a920a3ca505d382bbc9291929081810361187a5750823b156118615780546001600160a01b03191682179055604051907fbc7cd75a20ee27fd9adebab32041f755214dbc6bffa90cc0225b39da2e5c2d3b5f80a282511561184857505f8083602061184695519101845af461184061269d565b916126fa565b005b9150503461185257005b63b398979f60e01b8152600490fd5b604051634c9c8ce360e01b815260048101839052602490fd5b60249060405190632a87526960e21b82526004820152fd5b9091506020813d6020116118be575b816118ae60209383611dea565b8101031261070f57519085611797565b3d91506118a1565b9050817f360894a13ba1a3210667c828492db98dca3e2076cc3735a920a3ca505d382bbc5416141584611769565b3461070f5761190236611d9a565b6040519160208301938385106001600160401b0386111761134f57611846946040525f8452612133565b3461070f575f36600319011261070f57611944612297565b5f805160206127be833981519152805460ff81161561198f5760ff191690557f5db9ee0a495bf2e6ff9c91a7834c1ba4fdd244a5e8aa4e537bd38aeae4b073aa6020604051338152a1005b604051638dfc202b60e01b8152600490fd5b3461070f57604036600319011261070f576119ba611d84565b336001600160a01b038216036119d6576118469060043561251e565b60405163334bd91960e11b8152600490fd5b3461070f57604036600319011261070f57611846600435611a07611d84565b90805f525f8051602061279e833981519152602052611a2c600160405f200154612310565b61249b565b3461070f57602036600319011261070f576004355f525f8051602061279e8339815191526020526020600160405f200154604051908152f35b3461070f57611846611a7b36611d9a565b91611ea4565b3461070f57602036600319011261070f576004355f526004602052602060018060a01b0360405f205416604051908152f35b3461070f57604036600319011261070f57611acc611d6e565b602435611ad881612251565b33151580611b82575b80611b64575b611b4c576001600160a01b039283169282918491167f8c5be1e5ebec7d5bd14f71427d1e84f3dd0314c0f7b2291e5b200ac8c7c3b9255f80a45f9081525f8051602061281e8339815191526020526040902080546001600160a01b0319169091179055005b60405163a9fbf51f60e01b8152336004820152602490fd5b50611b6e816120fb565b335f5260205260ff60405f20541615611ae7565b506001600160a01b038116331415611ae1565b3461070f57602036600319011261070f57600435611bb281612251565b505f525f8051602061281e833981519152602052602060018060a01b0360405f205416604051908152f35b3461070f575f36600319011261070f576040515f8051602061275e8339815191528054825f611c0b83611e6c565b92838352602094600191866001821691825f14611c81575050600114611c3a575b505061090792500383611dea565b8592505f525f8051602061287e833981519152905f915b858310611c6957505061090793508201018580611c2c565b80548389018501528794508693909201918101611c51565b925093505061090794915060ff191682840152151560051b8201018580611c2c565b3461070f57602036600319011261070f576004359063ffffffff60e01b821680920361070f57602091637965db0b60e01b8114908115611ce5575b5015158152f35b6380ac58cd60e01b811491508115611d17575b8115611d06575b5083611cde565b6301ffc9a760e01b14905083611cff565b635b5e139f60e01b81149150611cf8565b5f5b838110611d395750505f910152565b8181015183820152602001611d2a565b90602091611d6281518092818552858086019101611d28565b601f01601f1916010190565b600435906001600160a01b038216820361070f57565b602435906001600160a01b038216820361070f57565b606090600319011261070f576001600160a01b0390600435828116810361070f5791602435908116810361070f579060443590565b604081019081106001600160401b0382111761134f57604052565b90601f801991011681019081106001600160401b0382111761134f57604052565b6001600160401b03811161134f57601f01601f191660200190565b81601f8201121561070f57803590611e3d82611e0b565b92611e4b6040519485611dea565b8284526020838301011161070f57815f926020809301838601378301015290565b90600182811c92168015611e9a575b6020831014611e8657565b634e487b7160e01b5f52602260045260245ffd5b91607f1691611e7b565b6001600160a01b038281169391841561204457825f52825f805160206127de833981519152958660205260409684885f2054169633151580611fa3575b50611ef09088611f67576120c3565b60018154019055825f52602052865f20816001600160601b0360a01b825416179055857fddf252ad1be2c89b69c2b068fc378daa952ba7f163c4a11628f55a4df523b3ef5f80a41692838303611f465750505050565b6064945051926364283d7b60e01b8452600484015260248301526044820152fd5b5f8581525f8051602061281e8339815191526020526040902080546001600160a01b0319169055611f97896120c3565b80545f190190556120c3565b929350909180611ff6575b15611fbd57908592915f611ee1565b878688611fda576024915190637e27328960e01b82526004820152fd5b604491519063177e802f60e01b82523360048301526024820152fd5b503387148015612028575b80611fae5750855f525f8051602061281e8339815191526020523385895f20541614611fae565b50612032876120fb565b335f5260205260ff885f205416612001565b604051633250574960e11b81525f6004820152602490fd5b81601f8201121561070f57805161207281611e0b565b926120806040519485611dea565b8184526020828401011161070f5761209e9160208085019101611d28565b90565b519060ff8216820361070f57565b51906001600160a01b038216820361070f57565b6001600160a01b03165f9081527f80bb2b638cc20bc4d0a60d66940f3ab4a00c1d7b313497ca82fb0b4ab00793036020526040902090565b6001600160a01b03165f9081527f80bb2b638cc20bc4d0a60d66940f3ab4a00c1d7b313497ca82fb0b4ab00793056020526040902090565b91929092612142818585611ea4565b833b61214f575b50505050565b60209060018060a01b03809516946121966040519485938493630a85bd0160e11b988986523360048701521660248501526044840152608060648401526084830190611d49565b03815f875af15f918161220c575b506121db57826121b261269d565b80519190826121d457604051633250574960e11b815260048101839052602490fd5b6020915001fd5b6001600160e01b031916036121f457505f808080612149565b60249060405190633250574960e11b82526004820152fd5b9091506020813d602011612249575b8161222860209383611dea565b8101031261070f57516001600160e01b03198116810361070f57905f6121a4565b3d915061221b565b5f8181525f805160206127de83398151915260205260409020546001600160a01b031690811561227f575090565b60249060405190637e27328960e01b82526004820152fd5b335f9081527f3e838821d95a85f47a6fe2e15180d9f1c9d5108b580f7c26ebf8db8187408f3360205260409020547f5246556c0ab216b5b325ad7c539bfbd1a07c768773cdf810fecd3c3375c274079060ff16156122f25750565b6044906040519063e2517d3f60e01b82523360048301526024820152fd5b805f525f8051602061279e83398151915260205260405f20335f5260205260ff60405f205416156122f25750565b6001600160a01b03165f8181527fb7db2dd08fcb62d0c9e08c51941cae53c267786a0b75803fb7960902fc8ef97d60205260409020545f8051602061279e8339815191529060ff166123d5575f805260205260405f20815f5260205260405f20600160ff1982541617905533905f7f2f8788117e7eff1d82e926ec794901d17c78024a50270940304540a733656f0d8180a4600190565b50505f90565b6001600160a01b03165f8181527f3e838821d95a85f47a6fe2e15180d9f1c9d5108b580f7c26ebf8db8187408f3360205260409020547f5246556c0ab216b5b325ad7c539bfbd1a07c768773cdf810fecd3c3375c2740791905f8051602061279e8339815191529060ff1661249457825f5260205260405f20815f5260205260405f20600160ff1982541617905533917f2f8788117e7eff1d82e926ec794901d17c78024a50270940304540a733656f0d5f80a4600190565b5050505f90565b90815f525f8051602061279e8339815191528060205260405f209160018060a01b031691825f5260205260ff60405f205416155f1461249457825f5260205260405f20815f5260205260405f20600160ff1982541617905533917f2f8788117e7eff1d82e926ec794901d17c78024a50270940304540a733656f0d5f80a4600190565b90815f525f8051602061279e8339815191528060205260405f209160018060a01b031691825f5260205260ff60405f2054165f1461249457825f5260205260405f20815f5260205260405f2060ff19815416905533917ff6391f5c32d9c69d2a47ea670b442974b53935d1edc7fd64eb21e047a839171b5f80a4600190565b60ff5f805160206127be83398151915254166125b557565b60405163d93c066560e01b8152600490fd5b906001600160a01b0380831690811561204457825f525f805160206127de833981519152908160205260405f20541690612608821515958661266d576120c3565b60018154019055835f5260205260405f20826001600160601b0360a01b8254161790557fddf252ad1be2c89b69c2b068fc378daa952ba7f163c4a11628f55a4df523b3ef5f80a461265557565b6040516339e3563760e11b81525f6004820152602490fd5b5f8681525f8051602061281e8339815191526020526040902080546001600160a01b0319169055611f97846120c3565b3d156126c7573d906126ae82611e0b565b916126bc6040519384611dea565b82523d5f602084013e565b606090565b60ff5f8051602061283e8339815191525460401c16156126e857565b604051631afcd79f60e31b8152600490fd5b90612721575080511561270f57602081519101fd5b60405163d6bda27560e01b8152600490fd5b81511580612754575b612732575090565b604051639996b31560e01b81526001600160a01b039091166004820152602490fd5b50803b1561272a56fe80bb2b638cc20bc4d0a60d66940f3ab4a00c1d7b313497ca82fb0b4ab0079300f4bad0a69248f59680a4f2b3000328cec71a413447c96781cfe5996daa8c456e02dd7bc7dec4dceedda775e58dd541e08a116c6c53815c0bd028192f7b626800cd5ed15c6e187e77e9aee88184c21f4f2182ab5827cb3b7e07fbedcd63f0330080bb2b638cc20bc4d0a60d66940f3ab4a00c1d7b313497ca82fb0b4ab00793029b779b17422d0df92223018b32b4d1fa46e071723d6817e2486d003becc55f0080bb2b638cc20bc4d0a60d66940f3ab4a00c1d7b313497ca82fb0b4ab0079304f0c57e16840df040f15088dc2f81fe391c3923bec73e23a9662efc9c229c6a0080bb2b638cc20bc4d0a60d66940f3ab4a00c1d7b313497ca82fb0b4ab007930137c58c799b6609234b945e882912ee9ad34948a1dfaa20a97485e1a7752bbf81a264697066735822122004281c95314756788ee5bb8f144226993a474f43aff3884c5b37ac0b683cca0e64736f6c63430008160033","linkReferences":{}},"methodIdentifiers":{"DEFAULT_ADMIN_ROLE()":"a217fddf","PLATFORM_ADMIN_ROLE()":"685d34ff","UPGRADE_INTERFACE_VERSION()":"ad3cb1cc","approve(address,uint256)":"095ea7b3","assetTokenizer()":"52d91f9c","balanceOf(address)":"70a08231","createHybridAsset(uint256,string,string,uint256,uint8,uint8,string,string)":"54dae964","deedToToken(uint256)":"18ce6c71","getApproved(uint256)":"081812fc","getRoleAdmin(bytes32)":"248a9ca3","grantRole(bytes32,address)":"2f2ff15d","hasRole(bytes32,address)":"91d14854","initialize(address,address,address,address)":"f8c8765e","isApprovedForAll(address,address)":"e985e9c5","mintDeed(uint256,address,string)":"81fda95b","name()":"06fdde03","ownerOf(uint256)":"6352211e","pause()":"8456cb59","paused()":"5c975abb","proxiableUUID()":"52d1902d","renounceRole(bytes32,address)":"36568abe","revokeRole(bytes32,address)":"d547741f","safeTransferFrom(address,address,uint256)":"42842e0e","safeTransferFrom(address,address,uint256,bytes)":"b88d4fde","setApprovalForAll(address,bool)":"a22cb465","setVerificationGateway(address)":"d9dd7831","supportsInterface(bytes4)":"01ffc9a7","symbol()":"95d89b41","tokenFactory()":"e77772fe","tokenRegistry()":"9d23c4c7","tokenURI(uint256)":"c87b56dd","transferFrom(address,address,uint256)":"23b872dd","unpause()":"3f4ba83a","upgradeToAndCall(address,bytes)":"4f1ef286","verificationGateway()":"d47256cf"},"id":1}