{"abi":[{"type":"function","name":"REQUEST_DATA_VERSION","inputs":[],"outputs":[{"name":"","type":"uint16","internalType":"uint16"}],"stateMutability":"view"},{"type":"error","name":"EmptyArgs","inputs":[]},{"type":"error","name":"EmptySecrets","inputs":[]},{"type":"error","name":"EmptySource","inputs":[]},{"type":"error","name":"NoInlineSecrets","inputs":[]}],"bytecode":{"object":"0x608080604052346018576070908161001d823930815050f35b5f80fdfe60808060405260043610156011575f80fd5b5f3560e01c635d641dfc146023575f80fd5b5f36600319011260365780600160209252f35b5f80fdfea26469706673582212203ccf32ed2ee98caf5879f4026fc34d908b3f87500c10aadf1244973a8bfa0f8864736f6c63430008160033","linkReferences":{}},"methodIdentifiers":{"REQUEST_DATA_VERSION()":"5d641dfc"},"id":38}