{"abi":[{"type":"constructor","inputs":[],"stateMutability":"nonpayable"},{"type":"function","name":"DEFAULT_ADMIN_ROLE","inputs":[],"outputs":[{"name":"","type":"bytes32","internalType":"bytes32"}],"stateMutability":"view"},{"type":"function","name":"SYSTEM_ROLE","inputs":[],"outputs":[{"name":"","type":"bytes32","internalType":"bytes32"}],"stateMutability":"view"},{"type":"function","name":"TOKEN_CREATOR_ROLE","inputs":[],"outputs":[{"name":"","type":"bytes32","internalType":"bytes32"}],"stateMutability":"view"},{"type":"function","name":"auditTrail","inputs":[],"outputs":[{"name":"","type":"address","internalType":"contract IAuditTrail"}],"stateMutability":"view"},{"type":"function","name":"complianceManager","inputs":[],"outputs":[{"name":"","type":"address","internalType":"contract IComplianceManager"}],"stateMutability":"view"},{"type":"function","name":"createToken","inputs":[{"name":"name","type":"string","internalType":"string"},{"name":"symbol","type":"string","internalType":"string"},{"name":"totalSupply","type":"uint256","internalType":"uint256"},{"name":"decimals","type":"uint8","internalType":"uint8"},{"name":"tokenType","type":"uint8","internalType":"enum ITokenRegistry.TokenType"},{"name":"metadataURI","type":"string","internalType":"string"}],"outputs":[{"name":"","type":"address","internalType":"address"}],"stateMutability":"payable"},{"type":"function","name":"createTokenBatch","inputs":[{"name":"names","type":"string[]","internalType":"string[]"},{"name":"symbols","type":"string[]","internalType":"string[]"},{"name":"totalSupplies","type":"uint256[]","internalType":"uint256[]"},{"name":"decimalsArray","type":"uint8[]","internalType":"uint8[]"},{"name":"tokenTypes","type":"uint8[]","internalType":"enum ITokenRegistry.TokenType[]"},{"name":"metadataURIs","type":"string[]","internalType":"string[]"}],"outputs":[{"name":"","type":"address[]","internalType":"address[]"}],"stateMutability":"payable"},{"type":"function","name":"feeManager","inputs":[],"outputs":[{"name":"","type":"address","internalType":"contract IFeeManager"}],"stateMutability":"view"},{"type":"function","name":"getRoleAdmin","inputs":[{"name":"role","type":"bytes32","internalType":"bytes32"}],"outputs":[{"name":"","type":"bytes32","internalType":"bytes32"}],"stateMutability":"view"},{"type":"function","name":"grantRole","inputs":[{"name":"role","type":"bytes32","internalType":"bytes32"},{"name":"account","type":"address","internalType":"address"}],"outputs":[],"stateMutability":"nonpayable"},{"type":"function","name":"hasRole","inputs":[{"name":"role","type":"bytes32","internalType":"bytes32"},{"name":"account","type":"address","internalType":"address"}],"outputs":[{"name":"","type":"bool","internalType":"bool"}],"stateMutability":"view"},{"type":"function","name":"initialize","inputs":[{"name":"_tokenImplementation","type":"address","internalType":"address"},{"name":"_complianceManager","type":"address","internalType":"address"},{"name":"_auditTrail","type":"address","internalType":"address"},{"name":"_feeManager","type":"address","internalType":"address"},{"name":"_tokenRegistry","type":"address","internalType":"address"},{"name":"admin","type":"address","internalType":"address"}],"outputs":[],"stateMutability":"nonpayable"},{"type":"function","name":"renounceRole","inputs":[{"name":"role","type":"bytes32","internalType":"bytes32"},{"name":"callerConfirmation","type":"address","internalType":"address"}],"outputs":[],"stateMutability":"nonpayable"},{"type":"function","name":"revokeRole","inputs":[{"name":"role","type":"bytes32","internalType":"bytes32"},{"name":"account","type":"address","internalType":"address"}],"outputs":[],"stateMutability":"nonpayable"},{"type":"function","name":"supportsInterface","inputs":[{"name":"interfaceId","type":"bytes4","internalType":"bytes4"}],"outputs":[{"name":"","type":"bool","internalType":"bool"}],"stateMutability":"view"},{"type":"function","name":"tokenImplementation","inputs":[],"outputs":[{"name":"","type":"address","internalType":"address"}],"stateMutability":"view"},{"type":"function","name":"tokenRegistry","inputs":[],"outputs":[{"name":"","type":"address","internalType":"contract ITokenRegistry"}],"stateMutability":"view"},{"type":"function","name":"updateImplementation","inputs":[{"name":"newImpl","type":"address","internalType":"address"}],"outputs":[],"stateMutability":"nonpayable"},{"type":"function","name":"updateRegistry","inputs":[{"name":"newRegistry","type":"address","internalType":"address"}],"outputs":[],"stateMutability":"nonpayable"},{"type":"event","name":"ImplementationUpdated","inputs":[{"name":"oldImpl","type":"address","indexed":false,"internalType":"address"},{"name":"newImpl","type":"address","indexed":false,"internalType":"address"}],"anonymous":false},{"type":"event","name":"Initialized","inputs":[{"name":"version","type":"uint64","indexed":false,"internalType":"uint64"}],"anonymous":false},{"type":"event","name":"RoleAdminChanged","inputs":[{"name":"role","type":"bytes32","indexed":true,"internalType":"bytes32"},{"name":"previousAdminRole","type":"bytes32","indexed":true,"internalType":"bytes32"},{"name":"newAdminRole","type":"bytes32","indexed":true,"internalType":"bytes32"}],"anonymous":false},{"type":"event","name":"RoleGranted","inputs":[{"name":"role","type":"bytes32","indexed":true,"internalType":"bytes32"},{"name":"account","type":"address","indexed":true,"internalType":"address"},{"name":"sender","type":"address","indexed":true,"internalType":"address"}],"anonymous":false},{"type":"event","name":"RoleRevoked","inputs":[{"name":"role","type":"bytes32","indexed":true,"internalType":"bytes32"},{"name":"account","type":"address","indexed":true,"internalType":"address"},{"name":"sender","type":"address","indexed":true,"internalType":"address"}],"anonymous":false},{"type":"event","name":"TokenCreated","inputs":[{"name":"tokenAddress","type":"address","indexed":true,"internalType":"address"},{"name":"creator","type":"address","indexed":true,"internalType":"address"},{"name":"name","type":"string","indexed":false,"internalType":"string"},{"name":"symbol","type":"string","indexed":false,"internalType":"string"},{"name":"totalSupply","type":"uint256","indexed":false,"internalType":"uint256"}],"anonymous":false},{"type":"event","name":"TokenRegistryUpdated","inputs":[{"name":"oldRegistry","type":"address","indexed":false,"internalType":"address"},{"name":"newRegistry","type":"address","indexed":false,"internalType":"address"}],"anonymous":false},{"type":"error","name":"AccessControlBadConfirmation","inputs":[]},{"type":"error","name":"AccessControlUnauthorizedAccount","inputs":[{"name":"account","type":"address","internalType":"address"},{"name":"neededRole","type":"bytes32","internalType":"bytes32"}]},{"type":"error","name":"FailedDeployment","inputs":[]},{"type":"error","name":"InsufficientBalance","inputs":[{"name":"balance","type":"uint256","internalType":"uint256"},{"name":"needed","type":"uint256","internalType":"uint256"}]},{"type":"error","name":"InvalidInitialization","inputs":[]},{"type":"error","name":"NotInitializing","inputs":[]}],"bytecode":{"object":"0x608080604052346100b8577ff0c57e16840df040f15088dc2f81fe391c3923bec73e23a9662efc9c229c6a009081549060ff8260401c166100a957506001600160401b036002600160401b031982821601610064575b60405161179d90816100bd8239f35b6001600160401b031990911681179091556040519081527fc7f505b2f371ae2175ee4913f4499e1f2633a7b5936321eed1cdaeb6115181d290602090a15f8080610055565b63f92ee8a960e01b8152600490fd5b5f80fdfe6080806040526004361015610012575f80fd5b5f3560e01c90816301ffc9a71461116257508063025b22bc146110a05780631a5da6c814610fd8578063248a9ca314610f9f5780632f2ff15d14610f565780632f3a3d5d14610f2f57806336568abe14610ee85780633e199e821461098a5780634797c5871461095057806375071d2a1461091657806391d14854146108c15780639d23c4c714610899578063a217fddf1461087f578063aba02c1f14610857578063cc2a9a5b14610601578063d0fb0203146105d9578063d547741f1461058e578063e8fa6446146101195763ff7bce23146100ed575f80fd5b34610115575f366003190112610115576001546040516001600160a01b039091168152602090f35b5f80fd5b60c03660031901126101155767ffffffffffffffff60043581811161011557610146903690600401611212565b906024358381116101155761015f903690600401611212565b91906064359460ff8616860361011557600460843510156101155760a43590811161011557610192903690600401611212565b335f9081527f6cf62b618036602158faeb9f96f20c80933d170498c8f86eb4a69401770bc0bd602052604090205491929160ff168015610512575b156104cd576044351561048f57601260ff881611610456575f8054608881901c62ffffff16763d602d80600a3d3981f3363d3d373d3d3d363d7300000017825260781b6effffffffffffffffffffffffffffff19166e5af43d82803e903d91602b57fd5bf3176020526001600160a01b0390603790600990f016968715610444576001546002546001600160a01b039182169116893b156101155760405163ce246e6360e01b815260e06004820152915f91839182916102a761029460e485018f8e61133a565b8481036003190160248601528d8b61133a565b91604435604485015260ff8816606485015233608485015260a484015260c48301520381838d5af1801561041257610435575b506004546001600160a01b031691823b156101155760405163d851c87960e01b8152600481018a90526101006024820152948592839261031f61010485018c8b61133a565b848103600319016044860152610336908b8961133a565b91604435606486015260ff16608485015260a48401608435906103589161135a565b3360c48501528382036003190160e48501526103739261133a565b03815a5f948591f1938415610412576103c57f6e6ae68e7d7d45fbd855c40d1eaafa8de46c5fbec3ee26f1af88730e400bc92c946103d3948997610426575b506040519760608952606089019161133a565b91868303602088015261133a565b9260443560408201528033940390a3341580156103f6575b602082604051908152f35b5f9061041d575b5f8080809334903390f11561041257816103eb565b6040513d5f823e3d90fd5b506108fc6103fd565b61042f90611240565b896103b2565b61043e90611240565b886102da565b60405163b06ebf3d60e01b8152600490fd5b60405162461bcd60e51b81526020600482015260116024820152700c8cac6d2dac2d8e640e8dede40d0d2ced607b1b6044820152606490fd5b60405162461bcd60e51b81526020600482015260166024820152751d1bdd185b14dd5c1c1b1e4f8c081c995c5d5a5c995960521b6044820152606490fd5b60405162461bcd60e51b815260206004820152601c60248201527f43726561746f7220726f6c65206f72204b5943207265717569726564000000006044820152606490fd5b50600154604051632a5bb1b760e11b815233600482015290602090829060249082906001600160a01b03165afa908115610412575f91610553575b506101cd565b90506020813d602011610586575b8161056e60209383611268565b8101031261011557518015158103610115578861054d565b3d9150610561565b34610115576040366003190112610115576105d76004356105ad6111cb565b90805f525f805160206117488339815191526020526105d2600160405f2001546113d1565b61166a565b005b34610115575f366003190112610115576003546040516001600160a01b039091168152602090f35b346101155760c03660031901126101155761061a6111b5565b6106226111cb565b906044356001600160a01b03818116918290036101155760643581811680910361011557608435928284168094036101155760a435928084168403610115577ff0c57e16840df040f15088dc2f81fe391c3923bec73e23a9662efc9c229c6a0096875460ff8160401c16159767ffffffffffffffff82168015908161084f575b6001149081610845575b15908161083c575b5061082a5767ffffffffffffffff1982166001178a5583918961080b575b50169485156107d657861561079d5760ff895460401c161561078b57806106fb61070b9261141d565b50610705816114a7565b50611554565b506bffffffffffffffffffffffff60a01b94855f5416175f5516836001541617600155826002541617600255816003541617600355600454161760045561074e57005b68ff00000000000000001981541690557fc7f505b2f371ae2175ee4913f4499e1f2633a7b5936321eed1cdaeb6115181d2602060405160018152a1005b604051631afcd79f60e31b8152600490fd5b60405162461bcd60e51b81526020600482015260116024820152701c9959da5cdd1c9e481c995c5d5a5c9959607a1b6044820152606490fd5b60405162461bcd60e51b815260206004820152600d60248201526c1a5b5c1b081c995c5d5a5c9959609a1b6044820152606490fd5b68ffffffffffffffffff191668010000000000000001178a558a6106d2565b60405163f92ee8a960e01b8152600490fd5b9050158b6106b4565b303b1591506106ac565b8a91506106a2565b34610115575f366003190112610115576002546040516001600160a01b039091168152602090f35b34610115575f3660031901126101155760206040515f8152f35b34610115575f366003190112610115576004546040516001600160a01b039091168152602090f35b34610115576040366003190112610115576108da6111cb565b6004355f525f8051602061174883398151915260205260405f209060018060a01b03165f52602052602060ff60405f2054166040519015158152f35b34610115575f3660031901126101155760206040517f5719df9ef2c4678b547f89e4f5ae410dbf400fc51cf3ded434c55f6adea2c43f8152f35b34610115575f3660031901126101155760206040517f60f84e22dcea217c9a7721aaea62b0971fe29d0da3d3c250600e83e005d177638152f35b60c03660031901126101155767ffffffffffffffff600435818111610115576109b79036906004016111e1565b9091602435818111610115576109d19036906004016111e1565b90604435838111610115576109ea9036906004016111e1565b60643585811161011557610a029036906004016111e1565b96909460843587811161011557610a1d9036906004016111e1565b909760a43590811161011557610a379036906004016111e1565b335f9081527f6cf62b618036602158faeb9f96f20c80933d170498c8f86eb4a69401770bc0bd6020526040902054919490929160ff1615610eaa5783811480610ea1575b80610e98575b80610e8f575b80610e86575b15610e495760148111610e1257610aa38161128a565b9b610ab16040519d8e611268565b818d52610abd8261128a565b601f19013660208f01378c5f5b838110610b4e575034158015610b29575b506040518091602082016020835281518091526020604084019201905f5b818110610b07575050500390f35b82516001600160a01b0316845285945060209384019390920191600101610af9565b5f90610b45575b5f8080809334903390f1156104125781610adb565b506108fc610b30565b8c918c8f898c8f928f9087610b8991610b8282610b7a8f8f838092610b72926112a2565b9a909b6112a2565b9790966112e4565b35976112e4565b359760ff8916890361011557878c610ba0926112e4565b3592600484101561011557610bcc8f92610bcc8f8b610bc291610bd4976112a2565b98909436916112f4565b9436916112f4565b916e5af43d82803e903d91602b57fd5bf35f54763d602d80600a3d3981f3363d3d373d3d3d363d7300000062ffffff8260881c16175f526effffffffffffffffffffffffffffff199060781b161760205260018060a01b03603760095ff016978815610444576001546002546001600160a01b0390811691168a3b1561011557868b610c875f888c610c99978397604051998a988997889663ce246e6360e01b885260e0600489015260e48801906116e9565b868103600319016024880152906116e9565b92604485015260ff8b16606485015233608485015260a484015260c483015203925af1801561041257610e03575b506004546001600160a01b031691823b156101155760405163d851c87960e01b8152600481018b905261010060248201529485928392610d0b6101048501886116e9565b848103600319016044860152610d21908a6116e9565b918a606486015260ff16608485015260a48401610d3d9161135a565b3360c48401528281036003190160e4840152610d58916116e9565b03815a5f948591f180156104125787937f6e6ae68e7d7d45fbd855c40d1eaafa8de46c5fbec3ee26f1af88730e400bc92c93610db692610df4575b50610da86040519360608086528501906116e9565b9083820360208501526116e9565b9360408201528033940390a351811015610de0576001918f6020908360051b010152018d90610aca565b634e487b7160e01b5f52603260045260245ffd5b610dfd90611240565b5f610d93565b610e0c90611240565b5f610cc7565b60405162461bcd60e51b815260206004820152600f60248201526e546f6f206d616e7920746f6b656e7360881b6044820152606490fd5b60405162461bcd60e51b8152602060048201526015602482015274082e4e4c2f240d8cadccee8d040dad2e6dac2e8c6d605b1b6044820152606490fd5b50828214610a8d565b50818b14610a87565b508a8614610a81565b50858414610a7b565b60405163e2517d3f60e01b81523360048201527f60f84e22dcea217c9a7721aaea62b0971fe29d0da3d3c250600e83e005d177636024820152604490fd5b3461011557604036600319011261011557610f016111cb565b336001600160a01b03821603610f1d576105d79060043561166a565b60405163334bd91960e11b8152600490fd5b34610115575f366003190112610115575f546040516001600160a01b039091168152602090f35b34610115576040366003190112610115576105d7600435610f756111cb565b90805f525f80516020611748833981519152602052610f9a600160405f2001546113d1565b6115fa565b34610115576020366003190112610115576004355f525f805160206117488339815191526020526020600160405f200154604051908152f35b3461011557602036600319011261011557610ff16111b5565b610ff961137b565b6001600160a01b03818116801561106857600480546001600160a01b031981169092179055604080516001600160a01b0393909216831682529190921660208301527f0e1e01d3a1bc108c283427a72564fa03f7400b162008588a168ac82e403456e59190819081015b0390a1005b60405162461bcd60e51b815260206004820152601060248201526f696e76616c696420726567697374727960801b6044820152606490fd5b34610115576020366003190112610115576110b96111b5565b6110c161137b565b6001600160a01b03818116801561112e575f80546001600160a01b031981169092179055604080516001600160a01b0393909216831682529190921660208301527faa3f731066a578e5f39b4215468d826cdd15373cbc0dfc9cb9bdc649718ef7da919081908101611063565b60405162461bcd60e51b815260206004820152600c60248201526b1a5b9d985b1a59081a5b5c1b60a21b6044820152606490fd5b34610115576020366003190112610115576004359063ffffffff60e01b821680920361011557602091637965db0b60e01b81149081156111a4575b5015158152f35b6301ffc9a760e01b1490508361119d565b600435906001600160a01b038216820361011557565b602435906001600160a01b038216820361011557565b9181601f840112156101155782359167ffffffffffffffff8311610115576020808501948460051b01011161011557565b9181601f840112156101155782359167ffffffffffffffff8311610115576020838186019501011161011557565b67ffffffffffffffff811161125457604052565b634e487b7160e01b5f52604160045260245ffd5b90601f8019910116810190811067ffffffffffffffff82111761125457604052565b67ffffffffffffffff81116112545760051b60200190565b9190811015610de05760051b81013590601e198136030182121561011557019081359167ffffffffffffffff8311610115576020018236038113610115579190565b9190811015610de05760051b0190565b92919267ffffffffffffffff8211611254576040519161131e601f8201601f191660200184611268565b829481845281830111610115578281602093845f960137010152565b908060209392818452848401375f828201840152601f01601f1916010190565b9060048210156113675752565b634e487b7160e01b5f52602160045260245ffd5b335f9081527fb7db2dd08fcb62d0c9e08c51941cae53c267786a0b75803fb7960902fc8ef97d602052604090205460ff16156113b357565b60405163e2517d3f60e01b81523360048201525f6024820152604490fd5b805f525f8051602061174883398151915260205260405f20335f5260205260ff60405f205416156113ff5750565b6044906040519063e2517d3f60e01b82523360048301526024820152fd5b6001600160a01b03165f8181527fb7db2dd08fcb62d0c9e08c51941cae53c267786a0b75803fb7960902fc8ef97d60205260409020545f805160206117488339815191529060ff166114a1575f805260205260405f20815f5260205260405f20600160ff1982541617905533905f5f805160206117288339815191528180a4600190565b50505f90565b6001600160a01b03165f8181527f6cf62b618036602158faeb9f96f20c80933d170498c8f86eb4a69401770bc0bd60205260409020547f60f84e22dcea217c9a7721aaea62b0971fe29d0da3d3c250600e83e005d1776391905f805160206117488339815191529060ff1661154d57825f5260205260405f20815f5260205260405f20600160ff1982541617905533915f805160206117288339815191525f80a4600190565b5050505f90565b6001600160a01b03165f8181527f021e7b47d957252238e482ce63807c8c87d29d066c819e84063657a50c13de0060205260409020547f5719df9ef2c4678b547f89e4f5ae410dbf400fc51cf3ded434c55f6adea2c43f91905f805160206117488339815191529060ff1661154d57825f5260205260405f20815f5260205260405f20600160ff1982541617905533915f805160206117288339815191525f80a4600190565b90815f525f805160206117488339815191528060205260405f209160018060a01b031691825f5260205260ff60405f205416155f1461154d57825f5260205260405f20815f5260205260405f20600160ff1982541617905533915f805160206117288339815191525f80a4600190565b90815f525f805160206117488339815191528060205260405f209160018060a01b031691825f5260205260ff60405f2054165f1461154d57825f5260205260405f20815f5260205260405f2060ff19815416905533917ff6391f5c32d9c69d2a47ea670b442974b53935d1edc7fd64eb21e047a839171b5f80a4600190565b91908251928382525f5b848110611713575050825f602080949584010152601f8019910116010190565b6020818301810151848301820152016116f356fe2f8788117e7eff1d82e926ec794901d17c78024a50270940304540a733656f0d02dd7bc7dec4dceedda775e58dd541e08a116c6c53815c0bd028192f7b626800a2646970667358221220be73dfeb9caf552bb7a840101f80378fa4646a1cc6c34d978c7a7bce73f98ab264736f6c63430008160033","linkReferences":{}},"methodIdentifiers":{"DEFAULT_ADMIN_ROLE()":"a217fddf","SYSTEM_ROLE()":"75071d2a","TOKEN_CREATOR_ROLE()":"4797c587","auditTrail()":"aba02c1f","complianceManager()":"ff7bce23","createToken(string,string,uint256,uint8,uint8,string)":"e8fa6446","createTokenBatch(string[],string[],uint256[],uint8[],uint8[],string[])":"3e199e82","feeManager()":"d0fb0203","getRoleAdmin(bytes32)":"248a9ca3","grantRole(bytes32,address)":"2f2ff15d","hasRole(bytes32,address)":"91d14854","initialize(address,address,address,address,address,address)":"cc2a9a5b","renounceRole(bytes32,address)":"36568abe","revokeRole(bytes32,address)":"d547741f","supportsInterface(bytes4)":"01ffc9a7","tokenImplementation()":"2f3a3d5d","tokenRegistry()":"9d23c4c7","updateImplementation(address)":"025b22bc","updateRegistry(address)":"1a5da6c8"},"id":9}